{
    "contractName": "Classroom",
    "abi": [
        {
            "inputs": [
                {
                    "internalType": "bytes32",
                    "name": "name_",
                    "type": "bytes32"
                },
                {
                    "internalType": "uint24",
                    "name": "principalCut_",
                    "type": "uint24"
                },
                {
                    "internalType": "uint24",
                    "name": "poolCut_",
                    "type": "uint24"
                },
                {
                    "internalType": "int32",
                    "name": "minScore_",
                    "type": "int32"
                },
                {
                    "internalType": "uint256",
                    "name": "entryPrice_",
                    "type": "uint256"
                },
                {
                    "internalType": "uint256",
                    "name": "duration_",
                    "type": "uint256"
                },
                {
                    "internalType": "address payable",
                    "name": "universityAddress",
                    "type": "address"
                },
                {
                    "internalType": "address",
                    "name": "challengeAddress_",
                    "type": "address"
                },
                {
                    "internalType": "address",
                    "name": "daiAddress",
                    "type": "address"
                },
                {
                    "internalType": "address",
                    "name": "compoundDAIAddress",
                    "type": "address"
                },
                {
                    "internalType": "address",
                    "name": "studentApplicationFactoryAddress",
                    "type": "address"
                }
            ],
            "stateMutability": "nonpayable",
            "type": "constructor"
        },
        {
            "anonymous": false,
            "inputs": [
                {
                    "indexed": true,
                    "internalType": "bytes32",
                    "name": "id",
                    "type": "bytes32"
                }
            ],
            "name": "ChainlinkCancelled",
            "type": "event"
        },
        {
            "anonymous": false,
            "inputs": [
                {
                    "indexed": true,
                    "internalType": "bytes32",
                    "name": "id",
                    "type": "bytes32"
                }
            ],
            "name": "ChainlinkFulfilled",
            "type": "event"
        },
        {
            "anonymous": false,
            "inputs": [
                {
                    "indexed": true,
                    "internalType": "bytes32",
                    "name": "id",
                    "type": "bytes32"
                }
            ],
            "name": "ChainlinkRequested",
            "type": "event"
        },
        {
            "anonymous": false,
            "inputs": [
                {
                    "indexed": false,
                    "internalType": "address",
                    "name": "",
                    "type": "address"
                }
            ],
            "name": "LogChangeChallenge",
            "type": "event"
        },
        {
            "anonymous": false,
            "inputs": [
                {
                    "indexed": false,
                    "internalType": "uint256",
                    "name": "",
                    "type": "uint256"
                }
            ],
            "name": "LogChangeDuration",
            "type": "event"
        },
        {
            "anonymous": false,
            "inputs": [
                {
                    "indexed": false,
                    "internalType": "uint256",
                    "name": "",
                    "type": "uint256"
                }
            ],
            "name": "LogChangeEntryPrice",
            "type": "event"
        },
        {
            "anonymous": false,
            "inputs": [
                {
                    "indexed": false,
                    "internalType": "int32",
                    "name": "",
                    "type": "int32"
                }
            ],
            "name": "LogChangeMinScore",
            "type": "event"
        },
        {
            "anonymous": false,
            "inputs": [
                {
                    "indexed": false,
                    "internalType": "bytes32",
                    "name": "",
                    "type": "bytes32"
                }
            ],
            "name": "LogChangeName",
            "type": "event"
        },
        {
            "anonymous": false,
            "inputs": [
                {
                    "indexed": false,
                    "internalType": "uint24",
                    "name": "",
                    "type": "uint24"
                }
            ],
            "name": "LogChangePoolCut",
            "type": "event"
        },
        {
            "anonymous": false,
            "inputs": [
                {
                    "indexed": false,
                    "internalType": "uint24",
                    "name": "",
                    "type": "uint24"
                }
            ],
            "name": "LogChangePrincipalCut",
            "type": "event"
        },
        {
            "anonymous": false,
            "inputs": [],
            "name": "LogCloseApplications",
            "type": "event"
        },
        {
            "anonymous": false,
            "inputs": [],
            "name": "LogCourseFinished",
            "type": "event"
        },
        {
            "anonymous": false,
            "inputs": [],
            "name": "LogOpenApplications",
            "type": "event"
        },
        {
            "anonymous": false,
            "inputs": [
                {
                    "indexed": true,
                    "internalType": "address",
                    "name": "previousOwner",
                    "type": "address"
                },
                {
                    "indexed": true,
                    "internalType": "address",
                    "name": "newOwner",
                    "type": "address"
                }
            ],
            "name": "OwnershipTransferred",
            "type": "event"
        },
        {
            "inputs": [],
            "name": "aTokenDAI",
            "outputs": [
                {
                    "internalType": "address",
                    "name": "",
                    "type": "address"
                }
            ],
            "stateMutability": "view",
            "type": "function"
        },
        {
            "inputs": [],
            "name": "aaveLendingPool",
            "outputs": [
                {
                    "internalType": "contract ILendingPool",
                    "name": "",
                    "type": "address"
                }
            ],
            "stateMutability": "view",
            "type": "function"
        },
        {
            "inputs": [],
            "name": "aaveLendingPoolCore",
            "outputs": [
                {
                    "internalType": "address",
                    "name": "",
                    "type": "address"
                }
            ],
            "stateMutability": "view",
            "type": "function"
        },
        {
            "inputs": [],
            "name": "aaveProvider",
            "outputs": [
                {
                    "internalType": "contract ILendingPoolAddressesProvider",
                    "name": "",
                    "type": "address"
                }
            ],
            "stateMutability": "view",
            "type": "function"
        },
        {
            "inputs": [],
            "name": "cDAI",
            "outputs": [
                {
                    "internalType": "address",
                    "name": "",
                    "type": "address"
                }
            ],
            "stateMutability": "view",
            "type": "function"
        },
        {
            "inputs": [],
            "name": "challengeAddress",
            "outputs": [
                {
                    "internalType": "address",
                    "name": "",
                    "type": "address"
                }
            ],
            "stateMutability": "view",
            "type": "function"
        },
        {
            "inputs": [],
            "name": "classroomActive",
            "outputs": [
                {
                    "internalType": "bool",
                    "name": "",
                    "type": "bool"
                }
            ],
            "stateMutability": "view",
            "type": "function"
        },
        {
            "inputs": [],
            "name": "compoundApplyPercentage",
            "outputs": [
                {
                    "internalType": "uint256",
                    "name": "",
                    "type": "uint256"
                }
            ],
            "stateMutability": "view",
            "type": "function"
        },
        {
            "inputs": [],
            "name": "courseFinished",
            "outputs": [
                {
                    "internalType": "bool",
                    "name": "",
                    "type": "bool"
                }
            ],
            "stateMutability": "view",
            "type": "function"
        },
        {
            "inputs": [],
            "name": "coursePostBalance",
            "outputs": [
                {
                    "internalType": "uint256",
                    "name": "",
                    "type": "uint256"
                }
            ],
            "stateMutability": "view",
            "type": "function"
        },
        {
            "inputs": [],
            "name": "daiToken",
            "outputs": [
                {
                    "internalType": "address",
                    "name": "",
                    "type": "address"
                }
            ],
            "stateMutability": "view",
            "type": "function"
        },
        {
            "inputs": [],
            "name": "duration",
            "outputs": [
                {
                    "internalType": "uint256",
                    "name": "",
                    "type": "uint256"
                }
            ],
            "stateMutability": "view",
            "type": "function"
        },
        {
            "inputs": [],
            "name": "emptyCount",
            "outputs": [
                {
                    "internalType": "uint256",
                    "name": "",
                    "type": "uint256"
                }
            ],
            "stateMutability": "view",
            "type": "function"
        },
        {
            "inputs": [],
            "name": "entryPrice",
            "outputs": [
                {
                    "internalType": "uint256",
                    "name": "",
                    "type": "uint256"
                }
            ],
            "stateMutability": "view",
            "type": "function"
        },
        {
            "inputs": [],
            "name": "linkToken",
            "outputs": [
                {
                    "internalType": "address",
                    "name": "",
                    "type": "address"
                }
            ],
            "stateMutability": "view",
            "type": "function"
        },
        {
            "inputs": [],
            "name": "minScore",
            "outputs": [
                {
                    "internalType": "int32",
                    "name": "",
                    "type": "int32"
                }
            ],
            "stateMutability": "view",
            "type": "function"
        },
        {
            "inputs": [],
            "name": "name",
            "outputs": [
                {
                    "internalType": "bytes32",
                    "name": "",
                    "type": "bytes32"
                }
            ],
            "stateMutability": "view",
            "type": "function"
        },
        {
            "inputs": [],
            "name": "openForApplication",
            "outputs": [
                {
                    "internalType": "bool",
                    "name": "",
                    "type": "bool"
                }
            ],
            "stateMutability": "view",
            "type": "function"
        },
        {
            "inputs": [],
            "name": "oraclePaymentRandom",
            "outputs": [
                {
                    "internalType": "uint256",
                    "name": "",
                    "type": "uint256"
                }
            ],
            "stateMutability": "view",
            "type": "function"
        },
        {
            "inputs": [],
            "name": "oraclePaymentTimestamp",
            "outputs": [
                {
                    "internalType": "uint256",
                    "name": "",
                    "type": "uint256"
                }
            ],
            "stateMutability": "view",
            "type": "function"
        },
        {
            "inputs": [],
            "name": "oracleRandom",
            "outputs": [
                {
                    "internalType": "address",
                    "name": "",
                    "type": "address"
                }
            ],
            "stateMutability": "view",
            "type": "function"
        },
        {
            "inputs": [],
            "name": "oracleTimestamp",
            "outputs": [
                {
                    "internalType": "address",
                    "name": "",
                    "type": "address"
                }
            ],
            "stateMutability": "view",
            "type": "function"
        },
        {
            "inputs": [],
            "name": "owner",
            "outputs": [
                {
                    "internalType": "address",
                    "name": "",
                    "type": "address"
                }
            ],
            "stateMutability": "view",
            "type": "function"
        },
        {
            "inputs": [],
            "name": "poolCut",
            "outputs": [
                {
                    "internalType": "uint24",
                    "name": "",
                    "type": "uint24"
                }
            ],
            "stateMutability": "view",
            "type": "function"
        },
        {
            "inputs": [],
            "name": "principalCut",
            "outputs": [
                {
                    "internalType": "uint24",
                    "name": "",
                    "type": "uint24"
                }
            ],
            "stateMutability": "view",
            "type": "function"
        },
        {
            "inputs": [],
            "name": "renounceOwnership",
            "outputs": [],
            "stateMutability": "nonpayable",
            "type": "function"
        },
        {
            "inputs": [],
            "name": "requestIdRandom",
            "outputs": [
                {
                    "internalType": "bytes32",
                    "name": "",
                    "type": "bytes32"
                }
            ],
            "stateMutability": "view",
            "type": "function"
        },
        {
            "inputs": [],
            "name": "requestIdTimestamp",
            "outputs": [
                {
                    "internalType": "bytes32",
                    "name": "",
                    "type": "bytes32"
                }
            ],
            "stateMutability": "view",
            "type": "function"
        },
        {
            "inputs": [],
            "name": "startDate",
            "outputs": [
                {
                    "internalType": "uint256",
                    "name": "",
                    "type": "uint256"
                }
            ],
            "stateMutability": "view",
            "type": "function"
        },
        {
            "inputs": [
                {
                    "internalType": "uint256",
                    "name": "",
                    "type": "uint256"
                }
            ],
            "name": "studentAllowances",
            "outputs": [
                {
                    "internalType": "uint256",
                    "name": "",
                    "type": "uint256"
                }
            ],
            "stateMutability": "view",
            "type": "function"
        },
        {
            "inputs": [],
            "name": "studentApplicationFactory",
            "outputs": [
                {
                    "internalType": "contract IStudentApplicationFactory",
                    "name": "",
                    "type": "address"
                }
            ],
            "stateMutability": "view",
            "type": "function"
        },
        {
            "inputs": [],
            "name": "successCount",
            "outputs": [
                {
                    "internalType": "uint256",
                    "name": "",
                    "type": "uint256"
                }
            ],
            "stateMutability": "view",
            "type": "function"
        },
        {
            "inputs": [
                {
                    "internalType": "address",
                    "name": "newOwner",
                    "type": "address"
                }
            ],
            "name": "transferOwnership",
            "outputs": [],
            "stateMutability": "nonpayable",
            "type": "function"
        },
        {
            "inputs": [],
            "name": "uniswapDAI",
            "outputs": [
                {
                    "internalType": "address",
                    "name": "",
                    "type": "address"
                }
            ],
            "stateMutability": "view",
            "type": "function"
        },
        {
            "inputs": [],
            "name": "uniswapLINK",
            "outputs": [
                {
                    "internalType": "address",
                    "name": "",
                    "type": "address"
                }
            ],
            "stateMutability": "view",
            "type": "function"
        },
        {
            "inputs": [],
            "name": "uniswapRouter",
            "outputs": [
                {
                    "internalType": "contract IUniswapV2Router01",
                    "name": "",
                    "type": "address"
                }
            ],
            "stateMutability": "view",
            "type": "function"
        },
        {
            "inputs": [],
            "name": "university",
            "outputs": [
                {
                    "internalType": "contract IUniversity",
                    "name": "",
                    "type": "address"
                }
            ],
            "stateMutability": "view",
            "type": "function"
        },
        {
            "inputs": [],
            "name": "universityCut",
            "outputs": [
                {
                    "internalType": "uint256",
                    "name": "",
                    "type": "uint256"
                }
            ],
            "stateMutability": "view",
            "type": "function"
        },
        {
            "inputs": [
                {
                    "internalType": "address",
                    "name": "oracleRandom_",
                    "type": "address"
                },
                {
                    "internalType": "bytes32",
                    "name": "requestIdRandom_",
                    "type": "bytes32"
                },
                {
                    "internalType": "uint256",
                    "name": "oraclePaymentRandom_",
                    "type": "uint256"
                },
                {
                    "internalType": "address",
                    "name": "oracleTimestamp_",
                    "type": "address"
                },
                {
                    "internalType": "bytes32",
                    "name": "requestIdTimestamp_",
                    "type": "bytes32"
                },
                {
                    "internalType": "uint256",
                    "name": "oraclePaymentTimestamp_",
                    "type": "uint256"
                },
                {
                    "internalType": "address",
                    "name": "linkToken_",
                    "type": "address"
                },
                {
                    "internalType": "bool",
                    "name": "generateSeed",
                    "type": "bool"
                }
            ],
            "name": "configureOracles",
            "outputs": [],
            "stateMutability": "nonpayable",
            "type": "function"
        },
        {
            "inputs": [
                {
                    "internalType": "address",
                    "name": "uniswapDAI_",
                    "type": "address"
                },
                {
                    "internalType": "address",
                    "name": "uniswapLINK_",
                    "type": "address"
                },
                {
                    "internalType": "address",
                    "name": "uniswapRouter_",
                    "type": "address"
                }
            ],
            "name": "configureUniswap",
            "outputs": [],
            "stateMutability": "nonpayable",
            "type": "function"
        },
        {
            "inputs": [
                {
                    "internalType": "address",
                    "name": "lendingPoolAddressesProvider",
                    "type": "address"
                }
            ],
            "name": "configureAave",
            "outputs": [],
            "stateMutability": "nonpayable",
            "type": "function"
        },
        {
            "inputs": [
                {
                    "internalType": "address",
                    "name": "newOwner",
                    "type": "address"
                }
            ],
            "name": "transferOwnershipClassroom",
            "outputs": [],
            "stateMutability": "nonpayable",
            "type": "function"
        },
        {
            "inputs": [],
            "name": "ownerClassroom",
            "outputs": [
                {
                    "internalType": "address",
                    "name": "",
                    "type": "address"
                }
            ],
            "stateMutability": "view",
            "type": "function"
        },
        {
            "inputs": [
                {
                    "internalType": "bytes32",
                    "name": "val",
                    "type": "bytes32"
                }
            ],
            "name": "changeName",
            "outputs": [],
            "stateMutability": "nonpayable",
            "type": "function"
        },
        {
            "inputs": [
                {
                    "internalType": "uint24",
                    "name": "val",
                    "type": "uint24"
                }
            ],
            "name": "changePrincipalCut",
            "outputs": [],
            "stateMutability": "nonpayable",
            "type": "function"
        },
        {
            "inputs": [
                {
                    "internalType": "uint24",
                    "name": "val",
                    "type": "uint24"
                }
            ],
            "name": "changePoolCut",
            "outputs": [],
            "stateMutability": "nonpayable",
            "type": "function"
        },
        {
            "inputs": [
                {
                    "internalType": "int32",
                    "name": "val",
                    "type": "int32"
                }
            ],
            "name": "changeMinScore",
            "outputs": [],
            "stateMutability": "nonpayable",
            "type": "function"
        },
        {
            "inputs": [
                {
                    "internalType": "uint256",
                    "name": "val",
                    "type": "uint256"
                }
            ],
            "name": "changeEntryPrice",
            "outputs": [],
            "stateMutability": "nonpayable",
            "type": "function"
        },
        {
            "inputs": [
                {
                    "internalType": "uint256",
                    "name": "val",
                    "type": "uint256"
                }
            ],
            "name": "changeDuration",
            "outputs": [],
            "stateMutability": "nonpayable",
            "type": "function"
        },
        {
            "inputs": [
                {
                    "internalType": "uint256",
                    "name": "ppm",
                    "type": "uint256"
                }
            ],
            "name": "changeCompoundApplyPercentage",
            "outputs": [],
            "stateMutability": "nonpayable",
            "type": "function"
        },
        {
            "inputs": [
                {
                    "internalType": "address",
                    "name": "addr",
                    "type": "address"
                }
            ],
            "name": "changeChallenge",
            "outputs": [],
            "stateMutability": "nonpayable",
            "type": "function"
        },
        {
            "inputs": [],
            "name": "viewMyApplication",
            "outputs": [
                {
                    "internalType": "address",
                    "name": "",
                    "type": "address"
                }
            ],
            "stateMutability": "view",
            "type": "function"
        },
        {
            "inputs": [
                {
                    "internalType": "address",
                    "name": "addr",
                    "type": "address"
                }
            ],
            "name": "viewApplication",
            "outputs": [
                {
                    "internalType": "address",
                    "name": "",
                    "type": "address"
                }
            ],
            "stateMutability": "view",
            "type": "function"
        },
        {
            "inputs": [],
            "name": "isClassroomEmpty",
            "outputs": [
                {
                    "internalType": "bool",
                    "name": "",
                    "type": "bool"
                }
            ],
            "stateMutability": "view",
            "type": "function"
        },
        {
            "inputs": [],
            "name": "isCourseOngoing",
            "outputs": [
                {
                    "internalType": "bool",
                    "name": "",
                    "type": "bool"
                }
            ],
            "stateMutability": "view",
            "type": "function"
        },
        {
            "inputs": [],
            "name": "openApplications",
            "outputs": [],
            "stateMutability": "nonpayable",
            "type": "function"
        },
        {
            "inputs": [],
            "name": "closeApplications",
            "outputs": [],
            "stateMutability": "nonpayable",
            "type": "function"
        },
        {
            "inputs": [],
            "name": "applyDAI",
            "outputs": [],
            "stateMutability": "nonpayable",
            "type": "function"
        },
        {
            "inputs": [
                {
                    "internalType": "uint256",
                    "name": "val",
                    "type": "uint256"
                }
            ],
            "name": "applyFundsCompound",
            "outputs": [],
            "stateMutability": "nonpayable",
            "type": "function"
        },
        {
            "inputs": [
                {
                    "internalType": "uint256",
                    "name": "val",
                    "type": "uint256"
                }
            ],
            "name": "applyFundsAave",
            "outputs": [],
            "stateMutability": "nonpayable",
            "type": "function"
        },
        {
            "inputs": [],
            "name": "studentApply",
            "outputs": [],
            "stateMutability": "nonpayable",
            "type": "function"
        },
        {
            "inputs": [],
            "name": "countNewApplications",
            "outputs": [
                {
                    "internalType": "uint256",
                    "name": "count",
                    "type": "uint256"
                }
            ],
            "stateMutability": "view",
            "type": "function"
        },
        {
            "inputs": [],
            "name": "countReadyApplications",
            "outputs": [
                {
                    "internalType": "uint256",
                    "name": "count",
                    "type": "uint256"
                }
            ],
            "stateMutability": "view",
            "type": "function"
        },
        {
            "inputs": [],
            "name": "countActiveApplications",
            "outputs": [
                {
                    "internalType": "uint256",
                    "name": "count",
                    "type": "uint256"
                }
            ],
            "stateMutability": "view",
            "type": "function"
        },
        {
            "inputs": [
                {
                    "internalType": "bool",
                    "name": "setAlatm",
                    "type": "bool"
                }
            ],
            "name": "beginCourse",
            "outputs": [],
            "stateMutability": "nonpayable",
            "type": "function"
        },
        {
            "inputs": [],
            "name": "finishCourse",
            "outputs": [],
            "stateMutability": "nonpayable",
            "type": "function"
        },
        {
            "inputs": [],
            "name": "courseBalance",
            "outputs": [
                {
                    "internalType": "uint256",
                    "name": "",
                    "type": "uint256"
                }
            ],
            "stateMutability": "view",
            "type": "function"
        },
        {
            "inputs": [],
            "name": "viewProcessPhase",
            "outputs": [
                {
                    "internalType": "uint16",
                    "name": "",
                    "type": "uint16"
                }
            ],
            "stateMutability": "view",
            "type": "function"
        },
        {
            "inputs": [],
            "name": "processResults",
            "outputs": [],
            "stateMutability": "nonpayable",
            "type": "function"
        },
        {
            "inputs": [],
            "name": "startAnswerVerification",
            "outputs": [],
            "stateMutability": "nonpayable",
            "type": "function"
        },
        {
            "inputs": [],
            "name": "accountValues",
            "outputs": [],
            "stateMutability": "nonpayable",
            "type": "function"
        },
        {
            "inputs": [],
            "name": "resolveStudentAllowances",
            "outputs": [],
            "stateMutability": "nonpayable",
            "type": "function"
        },
        {
            "inputs": [],
            "name": "resolveUniversityCut",
            "outputs": [],
            "stateMutability": "nonpayable",
            "type": "function"
        },
        {
            "inputs": [],
            "name": "updateStudentScores",
            "outputs": [],
            "stateMutability": "nonpayable",
            "type": "function"
        },
        {
            "inputs": [],
            "name": "endProcessResults",
            "outputs": [],
            "stateMutability": "nonpayable",
            "type": "function"
        },
        {
            "inputs": [],
            "name": "withdrawAllResults",
            "outputs": [],
            "stateMutability": "nonpayable",
            "type": "function"
        },
        {
            "inputs": [
                {
                    "internalType": "uint256",
                    "name": "amount",
                    "type": "uint256"
                },
                {
                    "internalType": "uint256",
                    "name": "deadline",
                    "type": "uint256"
                }
            ],
            "name": "swapDAI_LINK",
            "outputs": [],
            "stateMutability": "nonpayable",
            "type": "function"
        },
        {
            "inputs": [
                {
                    "internalType": "uint256",
                    "name": "amount",
                    "type": "uint256"
                },
                {
                    "internalType": "uint256",
                    "name": "deadline",
                    "type": "uint256"
                }
            ],
            "name": "swapLINK_DAI",
            "outputs": [],
            "stateMutability": "nonpayable",
            "type": "function"
        },
        {
            "inputs": [
                {
                    "internalType": "bytes32",
                    "name": "_requestId",
                    "type": "bytes32"
                },
                {
                    "internalType": "uint256",
                    "name": "data",
                    "type": "uint256"
                }
            ],
            "name": "fulfillGenerateSeed",
            "outputs": [],
            "stateMutability": "nonpayable",
            "type": "function"
        },
        {
            "inputs": [
                {
                    "internalType": "bytes32",
                    "name": "_requestId",
                    "type": "bytes32"
                }
            ],
            "name": "fulfillGetTimestamp",
            "outputs": [],
            "stateMutability": "nonpayable",
            "type": "function"
        }
    ],
    "bytecode": "0x608060405260016005553480156200001657600080fd5b50604051620057d3380380620057d383398181016040526101608110156200003d57600080fd5b508051602082015160408301516060840151608085015160a086015160c087015160e08801516101008901516101208a0151610140909a01519899979896979596949593949293919290919060006200009e6001600160e01b03620001c316565b600080546001600160a01b0319166001600160a01b0383169081178255604051929350917f8be0079c531659141344cd1fd0a4f28419497f9722a3daafe3b4186f6b6457e0908290a35060109a909a556011805462ffffff191662ffffff9a8b161765ffffff0000001916630100000099909a16989098029890981763ffffffff60301b1916660100000000000063ffffffff60039890980b9790971696909602959095179095556012929092556013556207a12060145560078054601580546001600160a01b03199081166001600160a01b03978816179091559081169285169290921762ff00ff60a01b191690556016805482169284169290921790915560178054821693831693909317909255601880549092169216919091179055620001c7565b3390565b6155fc80620001d76000396000f3fe608060405234801561001057600080fd5b506004361061039f5760003560e01c806386c79e0b116101e757806386c79e0b146106b757806387429a9c146106bf578063898855ed146106c75780638b45fb67146106e45780638cf086ad146106ec5780638da5cb5b146106f4578063952f1c14146106fc578063988b6438146107045780639b5dbe781461070c5780639e6e0b5f14610729578063a2281a8514610731578063a3f73c2d14610739578063a46268a81461075f578063aa055a4014610767578063aaaed76f1461076f578063ada02e1914610777578063adf45ef21461077f578063ae12894e14610787578063b0f1eaa21461078f578063b5365c3c146107ac578063b56bc553146107b4578063b594f086146107bc578063be22f546146107d9578063bf96d53f146107e1578063c2d0b303146107e9578063c799f5e21461080c578063ca58298e14610832578063cdb3bff91461083a578063d4213fad14610842578063d8e5ea581461084a578063e804f16414610852578063e9d337b814610874578063e9ead5211461087c578063eb7ab29d14610884578063f0607e431461088c578063f2fde38b146108af578063f745adfc146108d5578063fa245bf0146108dd578063faaecf37146108fc578063fe7da9e9146109045761039f565b80624f8411146103a457806306fdde03146103c35780630aab4569146103dd5780630b78cb0e146103fa5780630b97bc86146104165780630fb5a6b41461041e57806313c2bedc14610426578063149c6d101461044757806318b9533b1461049e5780631b9dbc60146104c45780632016a206146104cc5780632058e906146104ef578063277a74b7146104f757806329d18879146104ff5780632ed5377314610523578063319600271461052b5780633bcd97d4146105335780633c1656051461053b5780633ca5583314610543578063431a16ef1461054b57806345877877146105535780634c5e7893146105725780634ffb660c1461057a57806357970e931461059a5780635aa33a2d146105a25780635b8f96de146105aa578063604d3943146105e25780636ae88cc2146106025780636e8055a71461060a5780636f6941b914610612578063715018a61461061a578063735de9f71461062257806376eada911461062a5780637c0260cb146106505780637f419df51461065857806380380906146106605780638155e9771461067d578063834a320c1461069f57806384952ba4146106a75780638646bcec146106af575b600080fd5b6103c1600480360360208110156103ba57600080fd5b5035610921565b005b6103cb6109c0565b60408051918252519081900360200190f35b6103c1600480360360208110156103f357600080fd5b50356109c6565b610402610a5f565b604080519115158252519081900360200190f35b6103cb610a6f565b6103cb610a75565b61042e610a7b565b60408051600392830b90920b8252519081900360200190f35b6103c1600480360361010081101561045e57600080fd5b506001600160a01b038135811691602081013591604082013591606081013582169160808201359160a08101359160c0820135169060e001351515610a8b565b6103c1600480360360208110156104b457600080fd5b50356001600160a01b0316610c18565b6103c1610c24565b6103c1600480360360408110156104e257600080fd5b5080359060200135610f2e565b6103cb610fcf565b6103c1610fd5565b61050761107f565b604080516001600160a01b039092168252519081900360200190f35b6103cb61108e565b6103c1611094565b61040261137e565b6103c161139e565b610507611448565b6103c1611457565b61055b611601565b6040805161ffff9092168252519081900360200190f35b6103c1611629565b6103c16004803603602081101561059057600080fd5b503560030b61175a565b61050761181c565b61040261182b565b6103c1600480360360608110156105c057600080fd5b506001600160a01b03813581169160208101358216916040909101351661183b565b6105ea6118d2565b6040805162ffffff9092168252519081900360200190f35b6103cb6118e4565b6105076119e8565b6105076119ff565b6103c1611a0e565b610507611a9e565b6105076004803603602081101561064057600080fd5b50356001600160a01b0316611aad565b6103c1611b4f565b6103c1611c27565b6103c16004803603602081101561067657600080fd5b5035611ccc565b6103c16004803603602081101561069357600080fd5b503562ffffff16611dc8565b6103cb611e72565b610507611f6c565b6105ea611f7b565b6103cb611f86565b610507611f8c565b6103c1600480360360208110156106dd57600080fd5b5035611f9b565b61050761202e565b6103cb612038565b61050761203e565b6103cb61204d565b6103c1612149565b6103c16004803603602081101561072257600080fd5b50356121f3565b6103cb6122eb565b6105076122f1565b6103c16004803603602081101561074f57600080fd5b50356001600160a01b0316612300565b6104026123f5565b6103c1612405565b610507612528565b6103c1612537565b610402612665565b61050761266d565b6103cb600480360360208110156107a557600080fd5b503561267c565b61050761269a565b6105076126a9565b6103c1600480360360208110156107d257600080fd5b50356126b8565b61050761274b565b6103cb61275a565b6103c1600480360360408110156107ff57600080fd5b5080359060200135612760565b6103c16004803603602081101561082257600080fd5b50356001600160a01b0316612825565b6103cb612a3a565b610507612a9b565b6103cb612aaa565b6103cb612ab0565b6103c16004803603602081101561086857600080fd5b503562ffffff16612ab6565b610507612b6e565b6103cb612b7d565b6103c1612b83565b6103c1600480360360408110156108a257600080fd5b5080359060200135612c37565b6103c1600480360360208110156108c557600080fd5b50356001600160a01b0316612cf8565b6103cb612dde565b6103c1600480360360208110156108f357600080fd5b50351515612de4565b6103c1613003565b6103c16004803603602081101561091a57600080fd5b50356130ad565b610929613140565b6000546001600160a01b03908116911614610979576040805162461bcd60e51b8152602060048201819052602482015260008051602061540a833981519152604482015290519081900360640190fd5b620f42408111156109bb5760405162461bcd60e51b81526004018080602001828103825260298152602001806152dd6029913960400191505060405180910390fd5b601455565b60105481565b60008181526006602052604090205481906001600160a01b03163314610a1d5760405162461bcd60e51b815260040180806020018281038252602881526020018061553d6028913960400191505060405180910390fd5b60008181526006602052604080822080546001600160a01b031916905551829160008051602061558583398151915291a250506009805460ff19166001179055565b600754600160a01b900460ff1681565b60085481565b60135481565b601154600160301b900460030b81565b610a93613140565b6000546001600160a01b03908116911614610ae3576040805162461bcd60e51b8152602060048201819052602482015260008051602061540a833981519152604482015290519081900360640190fd5b601980546001600160a01b03808b166001600160a01b031992831617909255601a899055601b889055601c8054888416908316179055601d869055601e859055601f805492851692909116919091179055610b3d82613144565b601b54601f54604080516370a0823160e01b815230600482015290516001600160a01b03909216916370a0823191602480820192602092909190829003018186803b158015610b8b57600080fd5b505afa158015610b9f573d6000803e3d6000fd5b505050506040513d6020811015610bb557600080fd5b50511015610bf45760405162461bcd60e51b815260040180806020018281038252602181526020018061518c6021913960400191505060405180910390fd5b8015610c0757610c02613166565b610c0e565b600040600f555b5050505050505050565b610c2181612cf8565b50565b610c2c61203e565b6001600160a01b0316610c3d613140565b6001600160a01b0316637a6c8b536040518163ffffffff1660e01b815260040160206040518083038186803b158015610c7557600080fd5b505afa158015610c89573d6000803e3d6000fd5b505050506040513d6020811015610c9f57600080fd5b50516001600160a01b03161415610ce75760405162461bcd60e51b815260040180806020018281038252602d815260200180615372602d913960400191505060405180910390fd5b6007546001600160a01b03166316ded1ce610d00613140565b6040518263ffffffff1660e01b815260040180826001600160a01b03166001600160a01b0316815260200191505060206040518083038186803b158015610d4657600080fd5b505afa158015610d5a573d6000803e3d6000fd5b505050506040513d6020811015610d7057600080fd5b5051610dad5760405162461bcd60e51b81526004018080602001828103825260248152602001806154cc6024913960400191505060405180910390fd5b6000610db7613140565b9050601160069054906101000a900460030b60030b816001600160a01b031663efedc6696040518163ffffffff1660e01b815260040160206040518083038186803b158015610e0557600080fd5b505afa158015610e19573d6000803e3d6000fd5b505050506040513d6020811015610e2f57600080fd5b505160030b1215610e715760405162461bcd60e51b815260040180806020018281038252602c8152602001806151f7602c913960400191505060405180910390fd5b600754600160a01b900460ff16610ecf576040805162461bcd60e51b815260206004820152601e60248201527f436c617373726f6f6d3a206170706c69636174696f6e7320636c6f7365640000604482015290519081900360640190fd5b6000610eda826131a3565b600a80546001810182556000919091527fc65a7bb8d6351c1cf70c95a316cc6a92839c986682d98bc35f958f4883f9d2a80180546001600160a01b0319166001600160a01b03929092169190911790555050565b60008281526006602052604090205482906001600160a01b03163314610f855760405162461bcd60e51b815260040180806020018281038252602881526020018061553d6028913960400191505060405180910390fd5b60008181526006602052604080822080546001600160a01b031916905551829160008051602061558583398151915291a2610fbf82613300565b8051602090910120600f55505050565b60295481565b602c54600461ffff9091161161101c5760405162461bcd60e51b815260040180806020018281038252602a815260200180615348602a913960400191505060405180910390fd5b602c54600661ffff90911610611067576040805162461bcd60e51b815260206004820152601c6024820152600080516020615565833981519152604482015290519081900360640190fd5b61106f61332a565b602c805461ffff19166006179055565b6015546001600160a01b031681565b601b5481565b61109c613140565b6000546001600160a01b039081169116146110ec576040805162461bcd60e51b8152602060048201819052602482015260008051602061540a833981519152604482015290519081900360640190fd5b6019546001600160a01b0316611149576040805162461bcd60e51b815260206004820152601e60248201527f436c617373726f6f6d3a207365747570206f7261636c65732066697273740000604482015290519081900360640190fd5b6020546001600160a01b03166111a6576040805162461bcd60e51b815260206004820152601e60248201527f436c617373726f6f6d3a20736574757020556e69737761702066697273740000604482015290519081900360640190fd5b6025546001600160a01b0316611201576040805162461bcd60e51b815260206004820152601b60248201527a10db185cdcdc9bdbdb4e881cd95d1d5c0810585d9948199a5c9cdd602a1b604482015290519081900360640190fd5b600754600160a01b900460ff161561124a5760405162461bcd60e51b815260040180806020018281038252602a8152602001806154f0602a913960400191505060405180910390fd5b600a54156112895760405162461bcd60e51b81526004018080602001828103825260228152602001806153266022913960400191505060405180910390fd5b601e54601f54604080516370a0823160e01b815230600482015290516001600160a01b03909216916370a0823191602480820192602092909190829003018186803b1580156112d757600080fd5b505afa1580156112eb573d6000803e3d6000fd5b505050506040513d602081101561130157600080fd5b505110156113405760405162461bcd60e51b815260040180806020018281038252602181526020018061518c6021913960400191505060405180910390fd5b6007805460ff60a01b1916600160a01b1790556040517fa5d188159e8a15dc503f9fde55e9da14c8b2ca589603e2567481c0ef90b7972090600090a1565b600b54600a54600091611397919063ffffffff6136ee16565b1590505b90565b602c54600161ffff909116116113e55760405162461bcd60e51b815260040180806020018281038252602d81526020018061526b602d913960400191505060405180910390fd5b602c54600361ffff90911610611430576040805162461bcd60e51b815260206004820152601c6024820152600080516020615565833981519152604482015290519081900360640190fd5b61143861374f565b602c805461ffff19166003179055565b6025546001600160a01b031681565b61145f613140565b6000546001600160a01b039081169116146114af576040805162461bcd60e51b8152602060048201819052602482015260008051602061540a833981519152604482015290519081900360640190fd5b600b54611500576040805162461bcd60e51b815260206004820152601a602482015279436c617373726f6f6d3a206e6f206170706c69636174696f6e7360301b604482015290519081900360640190fd5b60095460ff166115415760405162461bcd60e51b81526004018080602001828103825260248152602001806153c06024913960400191505060405180910390fd5b601654604080516370a0823160e01b815230600482015290516001600160a01b03909216916370a0823191602480820192602092909190829003018186803b15801561158c57600080fd5b505afa1580156115a0573d6000803e3d6000fd5b505050506040513d60208110156115b657600080fd5b5051600e556115c3613abb565b6007805460ff60a81b1916600160a81b1790556040517fadfcc9bbc47b33710f82544eeff8bd0f98c6f78f190e915bd81f4a9dacfdc77790600090a1565b600754600090600160a81b900460ff1661161e575060001961139b565b50602c5461ffff1690565b611631613140565b6000546001600160a01b03908116911614611681576040805162461bcd60e51b8152602060048201819052602482015260008051602061540a833981519152604482015290519081900360640190fd5b61168961137e565b6116c45760405162461bcd60e51b81526004018080602001828103825260228152602001806155a56022913960400191505060405180910390fd5b601654611758906001600160a01b03166116dc61203e565b601654604080516370a0823160e01b815230600482015290516001600160a01b03909216916370a0823191602480820192602092909190829003018186803b15801561172757600080fd5b505afa15801561173b573d6000803e3d6000fd5b505050506040513d602081101561175157600080fd5b5051613c92565b565b611762613140565b6000546001600160a01b039081169116146117b2576040805162461bcd60e51b8152602060048201819052602482015260008051602061540a833981519152604482015290519081900360640190fd5b60118054600383810b63ffffffff16600160301b90810263ffffffff60301b1990931692909217928390556040805192909304810b810b900b815290517f258981eaba02423980e2973ff2ae3bbbba3cc807a5b73faf8f0b068dd7b2af649181900360200190a150565b601f546001600160a01b031681565b600754600160a81b900460ff1681565b611843613140565b6000546001600160a01b03908116911614611893576040805162461bcd60e51b8152602060048201819052602482015260008051602061540a833981519152604482015290519081900360640190fd5b602080546001600160a01b039485166001600160a01b031991821617909155602180549385169382169390931790925560228054919093169116179055565b6011546301000000900462ffffff1681565b60006118ee613140565b6000546001600160a01b0390811691161461193e576040805162461bcd60e51b8152602060048201819052602482015260008051602061540a833981519152604482015290519081900360640190fd5b60005b600a548110156119e457600a818154811061195857fe5b60009182526020918290200154604080516332c3db0f60e11b815290516001600160a01b0390921692636587b61e92600480840193829003018186803b1580156119a157600080fd5b505afa1580156119b5573d6000803e3d6000fd5b505050506040513d60208110156119cb57600080fd5b5051600114156119dc576001909101905b600101611941565b5090565b60006119fa6119f5613140565b611aad565b905090565b6017546001600160a01b031681565b611a16613140565b6000546001600160a01b03908116911614611a66576040805162461bcd60e51b8152602060048201819052602482015260008051602061540a833981519152604482015290519081900360640190fd5b600080546040516001600160a01b0390911690600080516020615454833981519152908390a3600080546001600160a01b0319169055565b6022546001600160a01b031681565b6000611ab7613140565b6001600160a01b0316826001600160a01b03161480611af55750611ad961203e565b6001600160a01b0316611aea613140565b6001600160a01b0316145b611b305760405162461bcd60e51b81526004018080602001828103825260218152602001806152bc6021913960400191505060405180910390fd5b506001600160a01b039081166000908152600c60205260409020541690565b611b57613140565b6000546001600160a01b03908116911614611ba7576040805162461bcd60e51b8152602060048201819052602482015260008051602061540a833981519152604482015290519081900360640190fd5b600754600160a01b900460ff16611bef5760405162461bcd60e51b815260040180806020018281038252602a815260200180615474602a913960400191505060405180910390fd5b6007805460ff60a01b191690556040517f747a4734f50e3ae237b3afeeac30a2d2c7cb965cc122fb9680050fd533b7c0f590600090a1565b602c5461ffff16611c695760405162461bcd60e51b81526004018080602001828103825260248152602001806151ad6024913960400191505060405180910390fd5b602c54600261ffff90911610611cb4576040805162461bcd60e51b815260206004820152601c6024820152600080516020615565833981519152604482015290519081900360640190fd5b611cbc613df5565b602c805461ffff19166002179055565b611cd4613140565b6000546001600160a01b03908116911614611d24576040805162461bcd60e51b8152602060048201819052602482015260008051602061540a833981519152604482015290519081900360640190fd5b80611d2e57610c21565b601654601754611d4b916001600160a01b03908116911683613f34565b6017546040805163140e25ad60e31b81526004810184905290516001600160a01b039092169163a0712d68916024808201926020929091908290030181600087803b158015611d9957600080fd5b505af1158015611dad573d6000803e3d6000fd5b505050506040513d6020811015611dc357600080fd5b505050565b611dd0613140565b6000546001600160a01b03908116911614611e20576040805162461bcd60e51b8152602060048201819052602482015260008051602061540a833981519152604482015290519081900360640190fd5b6011805462ffffff191662ffffff838116919091179182905560408051929091168252517fa24cdd22388a51f932026d20d3229c1d693385bb9ac176742e0e40b4586c2447916020908290030190a150565b6000611e7c613140565b6000546001600160a01b03908116911614611ecc576040805162461bcd60e51b8152602060048201819052602482015260008051602061540a833981519152604482015290519081900360640190fd5b600754600160a81b900460ff16611ee45760006119fa565b600e54601654604080516370a0823160e01b815230600482015290516119fa93926001600160a01b0316916370a08231916024808301926020929190829003018186803b158015611f3457600080fd5b505afa158015611f48573d6000803e3d6000fd5b505050506040513d6020811015611f5e57600080fd5b50519063ffffffff61409716565b6020546001600160a01b031681565b60115462ffffff1681565b601a5481565b6023546001600160a01b031681565b611fa3613140565b6000546001600160a01b03908116911614611ff3576040805162461bcd60e51b8152602060048201819052602482015260008051602061540a833981519152604482015290519081900360640190fd5b60108190556040805182815290517f9f8929be552430dd6434c446d106c34954b2040ca8c4dbf42a39323dd6cda3ca9181900360200190a150565b60006119fa61203e565b60285481565b6000546001600160a01b031690565b6000612057613140565b6000546001600160a01b039081169116146120a7576040805162461bcd60e51b8152602060048201819052602482015260008051602061540a833981519152604482015290519081900360640190fd5b60005b600a548110156119e457600a81815481106120c157fe5b60009182526020918290200154604080516332c3db0f60e11b815290516001600160a01b0390921692636587b61e92600480840193829003018186803b15801561210a57600080fd5b505afa15801561211e573d6000803e3d6000fd5b505050506040513d602081101561213457600080fd5b5051612141576001909101905b6001016120aa565b602c54600361ffff909116116121905760405162461bcd60e51b815260040180806020018281038252602e81526020018061549e602e913960400191505060405180910390fd5b602c54600561ffff909116106121db576040805162461bcd60e51b815260206004820152601c6024820152600080516020615565833981519152604482015290519081900360640190fd5b6121e36140f4565b602c805461ffff19166005179055565b6121fb613140565b6000546001600160a01b0390811691161461224b576040805162461bcd60e51b8152602060048201819052602482015260008051602061540a833981519152604482015290519081900360640190fd5b8061225557610c21565b601654602554612272916001600160a01b03908116911683613f34565b6024805460165460408051636968703360e11b81526001600160a01b0392831660048201529384018590526000604485018190529051919092169263d2d0e06692606480830193919282900301818387803b1580156122d057600080fd5b505af11580156122e4573d6000803e3d6000fd5b5050505050565b60145481565b6019546001600160a01b031681565b612308613140565b6000546001600160a01b03908116911614612358576040805162461bcd60e51b8152602060048201819052602482015260008051602061540a833981519152604482015290519081900360640190fd5b61236061137e565b61239b5760405162461bcd60e51b81526004018080602001828103825260258152602001806152236025913960400191505060405180910390fd5b601580546001600160a01b0319166001600160a01b03838116919091179182905560408051929091168252517fdc58b28697ffd1bd5879b16631587874caec982b482d7ed05df69a5302f6e018916020908290030190a150565b600754600160b01b900460ff1681565b600754600160a81b900460ff16612463576040805162461bcd60e51b815260206004820152601e60248201527f436c617373726f6f6d3a20636f75727365206e6f742066696e69736865640000604482015290519081900360640190fd5b61246b611e72565b602755600b546012546124839163ffffffff61418e16565b60275410156124c35760405162461bcd60e51b81526004018080602001828103825260248152602001806152986024913960400191505060405180910390fd5b602c805461ffff19166001179055600b546001600160401b03811180156124e957600080fd5b50604051908082528060200260200182016040528015612513578160200160208202803683370190505b508051610c2191602b9160209091019061502d565b6018546001600160a01b031681565b61253f613140565b6000546001600160a01b0390811691161461258f576040805162461bcd60e51b8152602060048201819052602482015260008051602061540a833981519152604482015290519081900360640190fd5b601654604080516370a0823160e01b815230600482015290516000926001600160a01b0316916370a08231916024808301926020929190829003018186803b1580156125da57600080fd5b505afa1580156125ee573d6000803e3d6000fd5b505050506040513d602081101561260457600080fd5b50519050806126135750611758565b600061263d620f42406126318460145461418e90919063ffffffff16565b9063ffffffff6141e716565b90506000612651838363ffffffff61409716565b905061265c82611ccc565b611dc3816121f3565b600b54151590565b6007546001600160a01b031681565b602b818154811061268957fe5b600091825260209091200154905081565b6026546001600160a01b031681565b6021546001600160a01b031681565b6126c0613140565b6000546001600160a01b03908116911614612710576040805162461bcd60e51b8152602060048201819052602482015260008051602061540a833981519152604482015290519081900360640190fd5b60138190556040805182815290517fa67f34afb53d068e81607cde52dc74c58cbf6a05eac699e5543b97d25e3ca5cb9181900360200190a150565b6016546001600160a01b031681565b601e5481565b612768613140565b6000546001600160a01b039081169116146127b8576040805162461bcd60e51b8152602060048201819052602482015260008051602061540a833981519152604482015290519081900360640190fd5b6021546001600160a01b0316612803576040805162461bcd60e51b815260206004820152601f6024820152600080516020615306833981519152604482015290519081900360640190fd5b602054602154612821916001600160a01b039081169116848461424e565b5050565b61282d613140565b6000546001600160a01b0390811691161461287d576040805162461bcd60e51b8152602060048201819052602482015260008051602061540a833981519152604482015290519081900360640190fd5b602380546001600160a01b0319166001600160a01b0383811691909117918290556040805163076b7fbb60e51b81529051929091169163ed6ff76091600480820192602092909190829003018186803b1580156128d957600080fd5b505afa1580156128ed573d6000803e3d6000fd5b505050506040513d602081101561290357600080fd5b5051602580546001600160a01b0319166001600160a01b0392831617905560235460408051630261bf8b60e01b815290519190921691630261bf8b916004808301926020929190829003018186803b15801561295e57600080fd5b505afa158015612972573d6000803e3d6000fd5b505050506040513d602081101561298857600080fd5b5051602480546001600160a01b0319166001600160a01b0392831617815560255460165460408051631a59df7760e11b815291851660048301525191909316926334b3beee9281810192602092909190829003018186803b1580156129ec57600080fd5b505afa158015612a00573d6000803e3d6000fd5b505050506040513d6020811015612a1657600080fd5b5051602680546001600160a01b0319166001600160a01b0390921691909117905550565b6000612a44613140565b6000546001600160a01b03908116911614612a94576040805162461bcd60e51b8152602060048201819052602482015260008051602061540a833981519152604482015290519081900360640190fd5b50600b5490565b601c546001600160a01b031681565b602a5481565b601d5481565b612abe613140565b6000546001600160a01b03908116911614612b0e576040805162461bcd60e51b8152602060048201819052602482015260008051602061540a833981519152604482015290519081900360640190fd5b6011805462ffffff808416630100000090810265ffffff000000199093169290921792839055604080519290930416815290517f9d9f9ef51b12eb719684b7a2e09fc2f7e916cb0e229aecf5658ce6326dfeb1c59181900360200190a150565b6024546001600160a01b031681565b60275481565b612b8b613140565b6000546001600160a01b03908116911614612bdb576040805162461bcd60e51b8152602060048201819052602482015260008051602061540a833981519152604482015290519081900360640190fd5b602c54600561ffff90911611612c225760405162461bcd60e51b81526004018080602001828103825260298152602001806151636029913960400191505060405180910390fd5b612c2a614454565b602c805461ffff19169055565b612c3f613140565b6000546001600160a01b03908116911614612c8f576040805162461bcd60e51b8152602060048201819052602482015260008051602061540a833981519152604482015290519081900360640190fd5b6021546001600160a01b0316612cda576040805162461bcd60e51b815260206004820152601f6024820152600080516020615306833981519152604482015290519081900360640190fd5b602154602054612821916001600160a01b039081169116848461424e565b612d00613140565b6000546001600160a01b03908116911614612d50576040805162461bcd60e51b8152602060048201819052602482015260008051602061540a833981519152604482015290519081900360640190fd5b6001600160a01b038116612d955760405162461bcd60e51b81526004018080602001828103825260268152602001806151d16026913960400191505060405180910390fd5b600080546040516001600160a01b038085169392169160008051602061545483398151915291a3600080546001600160a01b0319166001600160a01b0392909216919091179055565b60125481565b612dec613140565b6000546001600160a01b03908116911614612e3c576040805162461bcd60e51b8152602060048201819052602482015260008051602061540a833981519152604482015290519081900360640190fd5b600754600160a01b900460ff1615612e855760405162461bcd60e51b81526004018080602001828103825260268152602001806153e46026913960400191505060405180910390fd5b600754600160b01b900460ff1615612ee4576040805162461bcd60e51b815260206004820152601e60248201527f436c617373726f6f6d3a20636f7572736520616c7265616479206f70656e0000604482015290519081900360640190fd5b601654604080516370a0823160e01b815230600482015290516001600160a01b03909216916370a0823191602480820192602092909190829003018186803b158015612f2f57600080fd5b505afa158015612f43573d6000803e3d6000fd5b505050506040513d6020811015612f5957600080fd5b505115612f975760405162461bcd60e51b815260040180806020018281038252602a81526020018061542a602a913960400191505060405180910390fd5b612f9f6144d7565b6040805160008152602081019182905251612fbc91600a91615074565b50600b54612fc957610c21565b6007805460ff60b01b1916600160b01b179055426008558015612ff357612fee61469f565b610c21565b6009805460ff1916600117905550565b602c54600261ffff9091161161304a5760405162461bcd60e51b815260040180806020018281038252602381526020018061551a6023913960400191505060405180910390fd5b602c54600461ffff90911610613095576040805162461bcd60e51b815260206004820152601c6024820152600080516020615565833981519152604482015290519081900360640190fd5b61309d61470f565b602c805461ffff19166004179055565b6130b5613140565b6000546001600160a01b03908116911614613105576040805162461bcd60e51b8152602060048201819052602482015260008051602061540a833981519152604482015290519081900360640190fd5b60128190556040805182815290517f84e881bf3fcef92f709a2a62150da178a998fbff128c017f3e846787a2f7f5f59181900360200190a150565b3390565b600380546001600160a01b0319166001600160a01b0392909216919091179055565b61316e6150d5565b601a54613183903063100b510360e11b6147aa565b601954601b54919250612821916001600160a01b039091169083906147d5565b60185460165460155460009283926001600160a01b039182169263268e5d1d928792309290821691166131d46149ac565b604080516001600160e01b031960e089901b1681526001600160a01b03968716600482015294861660248601529285166044850152931660648301526084820192909252905160a48083019260209291908290030181600087803b15801561323b57600080fd5b505af115801561324f573d6000803e3d6000fd5b505050506040513d602081101561326557600080fd5b50516001600160a01b038481166000818152600c602052604080822080546001600160a01b0319168587169081179091556007548251620c1d9360e91b81526004810195909552602485019190915290519495509092169263183b26009260448084019391929182900301818387803b1580156132e157600080fd5b505af11580156132f5573d6000803e3d6000fd5b509295945050505050565b60408051602080825281830190925260609160208201818036833750505060208101929092525090565b602c5461ffff1660051461333a57fe5b60005b600b54811015610c21576000600b828154811061335657fe5b60009182526020918290200154604080516332c3db0f60e11b815290516001600160a01b0390921692636587b61e92600480840193829003018186803b15801561339f57600080fd5b505afa1580156133b3573d6000803e3d6000fd5b505050506040513d60208110156133c957600080fd5b5051905060038114156134d557600754600b80546001600160a01b03909216916387bfe1889190859081106133fa57fe5b600091825260209182902001546040805163b8f31a8160e01b815290516001600160a01b039092169263b8f31a8192600480840193829003018186803b15801561344357600080fd5b505afa158015613457573d6000803e3d6000fd5b505050506040513d602081101561346d57600080fd5b5051604080516001600160e01b031960e085901b1681526001600160a01b0390921660048301526001602483015251604480830192600092919082900301818387803b1580156134bc57600080fd5b505af11580156134d0573d6000803e3d6000fd5b505050505b80600414156135dd57600754600b80546001600160a01b039092169163ff5d8f6391908590811061350257fe5b600091825260209182902001546040805163b8f31a8160e01b815290516001600160a01b039092169263b8f31a8192600480840193829003018186803b15801561354b57600080fd5b505afa15801561355f573d6000803e3d6000fd5b505050506040513d602081101561357557600080fd5b5051604080516001600160e01b031960e085901b1681526001600160a01b0390921660048301526001602483015251604480830192600092919082900301818387803b1580156135c457600080fd5b505af11580156135d8573d6000803e3d6000fd5b505050505b80600514156136e557600754600b80546001600160a01b039092169163ff5d8f6391908590811061360a57fe5b600091825260209182902001546040805163b8f31a8160e01b815290516001600160a01b039092169263b8f31a8192600480840193829003018186803b15801561365357600080fd5b505afa158015613667573d6000803e3d6000fd5b505050506040513d602081101561367d57600080fd5b5051604080516001600160e01b031960e085901b1681526001600160a01b0390921660048301526002602483015251604480830192600092919082900301818387803b1580156136cc57600080fd5b505af11580156136e0573d6000803e3d6000fd5b505050505b5060010161333d565b600082820183811015613746576040805162461bcd60e51b815260206004820152601b60248201527a536166654d6174683a206164646974696f6e206f766572666c6f7760281b604482015290519081900360640190fd5b90505b92915050565b602c5461ffff1660021461375f57fe5b600b5460125460009061378b9061377c908463ffffffff61418e16565b6027549063ffffffff61409716565b6011546012549192506000916137b491620f4240916126319162ffffff1663ffffffff61418e16565b905060006137cd8260125461409790919063ffffffff16565b905060006137ea856126316028548761418e90919063ffffffff16565b60115490915060009061381390620f4240906126319085906301000000900462ffffff1661418e565b90506000806028541161382757600061383e565b60285461383e90612631888563ffffffff61409716565b905060005b87811015613aaf576000600b828154811061385a57fe5b60009182526020918290200154604080516332c3db0f60e11b815290516001600160a01b0390921692636587b61e92600480840193829003018186803b1580156138a357600080fd5b505afa1580156138b7573d6000803e3d6000fd5b505050506040513d60208110156138cd57600080fd5b50519050600381141561398257600b82815481106138e757fe5b600091825260208220015460408051637db9abaf60e01b8152600481018a90526024810187905290516001600160a01b0390921692637db9abaf9260448084019382900301818387803b15801561393d57600080fd5b505af1158015613951573d6000803e3d6000fd5b5050505061396883876136ee90919063ffffffff16565b602b838154811061397557fe5b6000918252602090912001555b8060041415613a2157600b828154811061399857fe5b600091825260208220015460408051637db9abaf60e01b8152600481018a90526024810184905290516001600160a01b0390921692637db9abaf9260448084019382900301818387803b1580156139ee57600080fd5b505af1158015613a02573d6000803e3d6000fd5b5050505085602b8381548110613a1457fe5b6000918252602090912001555b8060051415613aa657600b8281548110613a3757fe5b600091825260208220015460408051637db9abaf60e01b8152600481018490526024810184905290516001600160a01b0390921692637db9abaf9260448084019382900301818387803b158015613a8d57600080fd5b505af1158015613aa1573d6000803e3d6000fd5b505050505b50600101613843565b50610c0e8288876149e8565b601754604080516370a0823160e01b815230600482015290516000926001600160a01b0316916370a08231916024808301926020929190829003018186803b158015613b0657600080fd5b505afa158015613b1a573d6000803e3d6000fd5b505050506040513d6020811015613b3057600080fd5b50516017546040805163db006a7560e01b81526004810184905290519293506001600160a01b039091169163db006a75916024808201926020929091908290030181600087803b158015613b8357600080fd5b505af1158015613b97573d6000803e3d6000fd5b505050506040513d6020811015613bad57600080fd5b5050602654604080516370a0823160e01b815230600482015290516000926001600160a01b0316916370a08231916024808301926020929190829003018186803b158015613bfa57600080fd5b505afa158015613c0e573d6000803e3d6000fd5b505050506040513d6020811015613c2457600080fd5b50516026546040805163db006a7560e01b81526004810184905290519293506001600160a01b039091169163db006a759160248082019260009290919082900301818387803b158015613c7657600080fd5b505af1158015613c8a573d6000803e3d6000fd5b505050505050565b604080516001600160a01b038481166024830152604480830185905283518084039091018152606490920183526020820180516001600160e01b031663a9059cbb60e01b178152925182516000946060949389169392918291908083835b60208310613d0f5780518252601f199092019160209182019101613cf0565b6001836020036101000a0380198251168184511680821785525050505050509050019150506000604051808303816000865af19150503d8060008114613d71576040519150601f19603f3d011682016040523d82523d6000602084013e613d76565b606091505b5091509150818015613da4575080511580613da45750808060200190516020811015613da157600080fd5b50515b6122e4576040805162461bcd60e51b815260206004820152601f60248201527f5472616e7366657248656c7065723a205452414e534645525f4641494c454400604482015290519081900360640190fd5b602c5461ffff16600114613e0557fe5b60005b600b54811015610c2157600b8181548110613e1f57fe5b60009182526020822001546040805163144e786960e11b815290516001600160a01b039092169263289cf0d29260048084019382900301818387803b158015613e6757600080fd5b505af1158015613e7b573d6000803e3d6000fd5b505050506000600b8281548110613e8e57fe5b60009182526020918290200154604080516332c3db0f60e11b815290516001600160a01b0390921692636587b61e92600480840193829003018186803b158015613ed757600080fd5b505afa158015613eeb573d6000803e3d6000fd5b505050506040513d6020811015613f0157600080fd5b505190506003811415613f18576028805460010190555b8060051415613f2b576029805460010190555b50600101613e08565b604080516001600160a01b038481166024830152604480830185905283518084039091018152606490920183526020820180516001600160e01b031663095ea7b360e01b178152925182516000946060949389169392918291908083835b60208310613fb15780518252601f199092019160209182019101613f92565b6001836020036101000a0380198251168184511680821785525050505050509050019150506000604051808303816000865af19150503d8060008114614013576040519150601f19603f3d011682016040523d82523d6000602084013e614018565b606091505b5091509150818015614046575080511580614046575080806020019051602081101561404357600080fd5b50515b6122e4576040805162461bcd60e51b815260206004820152601e60248201527f5472616e7366657248656c7065723a20415050524f56455f4641494c45440000604482015290519081900360640190fd5b6000828211156140ee576040805162461bcd60e51b815260206004820152601e60248201527f536166654d6174683a207375627472616374696f6e206f766572666c6f770000604482015290519081900360640190fd5b50900390565b602c5461ffff1660041461410457fe5b601654600754602a54614124926001600160a01b03908116921690613c92565b600754602a54604080516307d4728360e51b81526004810192909252516001600160a01b039092169163fa8e50609160248082019260009290919082900301818387803b15801561417457600080fd5b505af1158015614188573d6000803e3d6000fd5b50505050565b60008261419d57506000613749565b828202828482816141aa57fe5b04146137465760405162461bcd60e51b815260040180806020018281038252602181526020018061539f6021913960400191505060405180910390fd5b600080821161423a576040805162461bcd60e51b815260206004820152601a602482015279536166654d6174683a206469766973696f6e206279207a65726f60301b604482015290519081900360640190fd5b600082848161424557fe5b04949350505050565b6022546142669085906001600160a01b031684613f34565b6040805160028082526060808301845292602083019080368337019050509050848160008151811061429457fe5b60200260200101906001600160a01b031690816001600160a01b03168152505083816001815181106142c257fe5b6001600160a01b039283166020918202929092018101919091526022546040516338ed173960e01b81526004810187815260006024830181905230606484018190526084840189905260a060448501908152885160a4860152885195909716966338ed1739968b9693958a9593948c94939260c49092019187810191028083838b5b8381101561435c578181015183820152602001614344565b505050509050019650505050505050600060405180830381600087803b15801561438557600080fd5b505af1158015614399573d6000803e3d6000fd5b505050506040513d6000823e601f3d908101601f1916820160405260208110156143c257600080fd5b8101908080516040519392919084600160201b8211156143e157600080fd5b9083019060208201858111156143f657600080fd5b82518660208202830111600160201b8211171561441257600080fd5b82525081516020918201928201910280838360005b8381101561443f578181015183820152602001614427565b50505050905001604052505050505050505050565b602c5461ffff1660061461446457fe5b604080516000815260208101918290525161448191600b91615074565b5061448a611629565b6000600e81905560288190556029819055602a81905560408051918252602082019081905290516144bd91602b9161502d565b506007805460ff60a81b191690556009805460ff19169055565b60005b600a54811015610c2157600a81815481106144f157fe5b60009182526020918290200154604080516332c3db0f60e11b815290516001600160a01b0390921692636587b61e92600480840193829003018186803b15801561453a57600080fd5b505afa15801561454e573d6000803e3d6000fd5b505050506040513d602081101561456457600080fd5b50516001141561462957600a818154811061457b57fe5b600091825260208220015460408051623c57d360e61b815290516001600160a01b0390921692630f15f4c09260048084019382900301818387803b1580156145c257600080fd5b505af11580156145d6573d6000803e3d6000fd5b50505050600b600a82815481106145e957fe5b60009182526020808320909101548354600181018555938352912090910180546001600160a01b0319166001600160a01b03909216919091179055614697565b600a818154811061463657fe5b600091825260208220015460408051633caccfcb60e11b815290516001600160a01b03909216926379599f969260048084019382900301818387803b15801561467e57600080fd5b505af1158015614692573d6000803e3d6000fd5b505050505b6001016144da565b6146a76150d5565b601d546146bc9030630aab456960e01b6147aa565b90506146f4604051806040016040528060058152602001641d5b9d1a5b60da1b815250601354420183614b1b9092919063ffffffff16565b601c54601e54612821916001600160a01b03169083906147d5565b602c5461ffff1660031461471f57fe5b60005b600b54811015610c21576000602b828154811061473b57fe5b906000526020600020015411156147a257601654600b80546147a2926001600160a01b031691908490811061476c57fe5b600091825260209091200154602b80546001600160a01b03909216918590811061479257fe5b9060005260206000200154613c92565b600101614722565b6147b26150d5565b6147ba6150d5565b6147cc8186868663ffffffff614b4516565b95945050505050565b6005546040805130606090811b60208084019190915260348084018690528451808503909101815260549093018452825192810192909220908601939093526000838152600690915281812080546001600160a01b0319166001600160a01b038816179055905182917fb5e6e01e79f91267dc17b4e6314d5d4d03593d2ceee0fbb452b750bd70ea5af991a26003546001600160a01b0316634000aea0858461487d87614b82565b6040518463ffffffff1660e01b815260040180846001600160a01b03166001600160a01b0316815260200183815260200180602001828103825283818151815260200191508051906020019080838360005b838110156148e75781810151838201526020016148cf565b50505050905090810190601f1680156149145780820380516001836020036101000a031916815260200191505b50945050505050602060405180830381600087803b15801561493557600080fd5b505af1158015614949573d6000803e3d6000fd5b505050506040513d602081101561495f57600080fd5b505161499c5760405162461bcd60e51b81526004018080602001828103825260238152602001806152486023913960400191505060405180910390fd5b6005805460010190559392505050565b60006149b6614cc2565b600f54600040186040516020018082815260200191505060405160208183030381529060405280519060200120905090565b600080600760009054906101000a90046001600160a01b03166001600160a01b031663e6fd604c6040518163ffffffff1660e01b815260040160206040518083038186803b158015614a3957600080fd5b505afa158015614a4d573d6000803e3d6000fd5b505050506040513d6020811015614a6357600080fd5b5051601254602954919250600091614a809163ffffffff61418e16565b90506000614aa0620f42406126318962ffffff871663ffffffff61418e16565b90506000614ab96029548861409790919063ffffffff16565b90506000614ae9620f424061263162ffffff8816614add8b8763ffffffff61418e16565b9063ffffffff61418e16565b9050614b0b81614aff868663ffffffff6136ee16565b9063ffffffff6136ee16565b602a555093979650505050505050565b6080830151614b30908363ffffffff614ceb16565b6080830151611dc3908263ffffffff614d0816565b614b4d6150d5565b614b5d8560800151610100614d14565b50509183526001600160a01b031660208301526001600160e01b031916604082015290565b6060634042994660e01b6000808460000151856020015186604001518760600151600189608001516000015160405160240180896001600160a01b03166001600160a01b03168152602001888152602001878152602001866001600160a01b03166001600160a01b03168152602001856001600160e01b0319166001600160e01b031916815260200184815260200183815260200180602001828103825283818151815260200191508051906020019080838360005b83811015614c50578181015183820152602001614c38565b50505050905090810190601f168015614c7d5780820380516001836020036101000a031916815260200191505b5060408051601f198184030181529190526020810180516001600160e01b03166001600160e01b0319909d169c909c17909b5250989950505050505050505050919050565b600f80546040805160208082019390935281518082038401815290820190915280519101209055565b614cf88260038351614d4e565b611dc3828263ffffffff614e5716565b61282182600083614d4e565b614d1c61510a565b6020820615614d315760208206602003820191505b506020828101829052604080518085526000815290920101905290565b60178111614d7557614d6f8360e0600585901b16831763ffffffff614e7116565b50611dc3565b60ff8111614dab57614d98836018611fe0600586901b161763ffffffff614e7116565b50614d6f8382600163ffffffff614e8916565b61ffff8111614de257614dcf836019611fe0600586901b161763ffffffff614e7116565b50614d6f8382600263ffffffff614e8916565b63ffffffff8111614e1b57614e0883601a611fe0600586901b161763ffffffff614e7116565b50614d6f8382600463ffffffff614e8916565b6001600160401b038111611dc357614e4483601b611fe0600586901b161763ffffffff614e7116565b506141888382600863ffffffff614e8916565b614e5f61510a565b61374683846000015151848551614eaa565b614e7961510a565b6137468384600001515184614f56565b614e9161510a565b614ea2848560000151518585614fa1565b949350505050565b614eb261510a565b8251821115614ec057600080fd5b84602001518285011115614eea57614eea85614ee28760200151878601614fff565b600202615016565b600080865180518760208301019350808887011115614f095787860182525b505050602084015b60208410614f305780518252601f199093019260209182019101614f11565b51815160001960208690036101000a019081169019919091161790525083949350505050565b614f5e61510a565b83602001518310614f7a57614f7a848560200151600202615016565b835180516020858301018481535080851415614f97576001810182525b5093949350505050565b614fa961510a565b84602001518483011115614fc657614fc685858401600202615016565b60006001836101000a039050855183868201018583198251161781525080518487011115614ff45783860181525b509495945050505050565b600081831115615010575081613749565b50919050565b81516150228383614d14565b506141888382614e57565b828054828255906000526020600020908101928215615068579160200282015b8281111561506857825182559160200191906001019061504d565b506119e4929150615124565b8280548282559060005260206000209081019282156150c9579160200282015b828111156150c957825182546001600160a01b0319166001600160a01b03909116178255602090920191600190910190615094565b506119e492915061513e565b6040805160a08101825260008082526020820181905291810182905260608101919091526080810161510561510a565b905290565b604051806040016040528060608152602001600081525090565b61139b91905b808211156119e4576000815560010161512a565b61139b91905b808211156119e45780546001600160a01b031916815560010161514456fe436c617373726f6f6d3a2063616c6c2075706461746553747564656e7453636f726573206669727374436c617373726f6f6d3a206e6f7420656e6f756768204c696e6b20746f6b656e73436c617373726f6f6d3a2063616c6c2070726f63657373526573756c74732066697273744f776e61626c653a206e6577206f776e657220697320746865207a65726f2061646472657373436c617373726f6f6d3a2073747564656e7420646f65736e2774206861766520656e6f7567682073636f7265436c617373726f6f6d3a2063616e2774206368616e6765206368616c6c656e6765206e6f77756e61626c6520746f207472616e73666572416e6443616c6c20746f206f7261636c65436c617373726f6f6d3a2063616c6c207374617274416e73776572566572696669636174696f6e206669727374436c617373726f6f6d3a206e6f7420656e6f7567682044414920746f2070726f63656564436c617373726f6f6d3a2072656164207065726d697373696f6e2064656e696564436c617373726f6f6d3a2063616e2774206265206d6f72652074686174203130302520696e2070706d556e69766572736974793a20736574757020756e697377617020666972737400436c617373726f6f6d3a2073747564656e7473206c697374206e6f7420656d707479436c617373726f6f6d3a2063616c6c207265736f6c7665556e6976657273697479437574206669727374436c617373726f6f6d3a2070726f666573736f722063616e277420626520697473206f776e2073747564656e74536166654d6174683a206d756c7469706c69636174696f6e206f766572666c6f77436c617373726f6f6d3a20746f6f20736f6f6e20746f2066696e69736820636f75727365436c617373726f6f6d3a206170706c69636174696f6e7320617265207374696c6c206f70656e4f776e61626c653a2063616c6c6572206973206e6f7420746865206f776e6572436c617373726f6f6d3a20696e7665737420616c6c2062616c616e6365206265666f726520626567696e8be0079c531659141344cd1fd0a4f28419497f9722a3daafe3b4186f6b6457e0436c617373726f6f6d3a206170706c69636174696f6e732061726520616c726561647920636c6f736564436c617373726f6f6d3a2063616c6c207265736f6c766553747564656e74416c6c6f77616e636573206669727374436c617373726f6f6d3a2073747564656e74206973206e6f742072656769737465726564436c617373726f6f6d3a206170706c69636174696f6e732061726520616c7265616479206f70656e6564436c617373726f6f6d3a2063616c6c206163636f756e7456616c756573206669727374536f75726365206d75737420626520746865206f7261636c65206f66207468652072657175657374436c617373726f6f6d3a207374657020616c726561647920646f6e65000000007cc135e0cebb02c3480ae5d74d377283180a2601f8f644edf7987b009316c63a43616e2774207769746864726177207769746820636c617373726f6f6d2066756c6ca2646970667358221220c7a4df758cffe0c2ae7efdd0c4f13882ea1d1a1b0e31a993fad9102f6643b76c64736f6c63430006060033",
    "immutableReferences": {},
    "source": "pragma solidity ^0.6.6;\n\nimport \"@openzeppelin/contracts/math/SafeMath.sol\";\nimport \"@openzeppelin/contracts/access/Ownable.sol\";\nimport \"@openzeppelin/contracts/token/ERC20/IERC20.sol\";\nimport \"@chainlink/contracts/src/v0.6/ChainlinkClient.sol\";\nimport \"@chainlink/contracts/src/v0.6/interfaces/LinkTokenInterface.sol\";\nimport \"@uniswap/v2-periphery/contracts/interfaces/IUniswapV2Router01.sol\";\nimport \"@uniswap/lib/contracts/libraries/TransferHelper.sol\";\nimport \"@nomiclabs/buidler/console.sol\";\nimport \"./interface/Aave/aToken.sol\";\nimport \"./interface/Aave/ILendingPool.sol\";\nimport \"./interface/Aave/ILendingPoolAddressesProvider.sol\";\nimport \"./interface/IUniversity.sol\";\nimport \"./interface/IStudent.sol\";\nimport \"./interface/IClassroom.sol\";\nimport \"./interface/IStudentApplication.sol\";\nimport \"./interface/IClassroomChallenge.sol\";\nimport \"./interface/IStudentApplicationFactory.sol\";\nimport \"./MyUtils.sol\";\n\n\ncontract Classroom is Ownable, ChainlinkClient, IClassroom {\n    IUniversity public university;\n    bool public openForApplication;\n    bool public courseFinished;\n    bool public classroomActive;\n    uint256 public startDate;\n    bool _timestampAlarm;\n    address[] _studentApplications;\n    address[] _validStudentApplications;\n    mapping(address => address) _studentApplicationsLink;\n    uint256 _endDate;\n    uint256 _courseBalance;\n    bytes32 _seed;\n\n    //Classroom parameters\n    bytes32 public name;\n    uint24 public principalCut;\n    uint24 public poolCut;\n    int32 public minScore;\n    uint256 public override entryPrice;\n    uint256 public duration;\n    uint256 public compoundApplyPercentage;\n    address public challengeAddress;\n\n    //Tokens\n    address public daiToken;\n    address public cDAI;\n\n    //Factory\n    IStudentApplicationFactory public studentApplicationFactory;\n\n    //Chainlink config\n    address public oracleRandom;\n    bytes32 public requestIdRandom;\n    uint256 public oraclePaymentRandom;\n    address public oracleTimestamp;\n    bytes32 public requestIdTimestamp;\n    uint256 public oraclePaymentTimestamp;\n    address public linkToken;\n\n    //Uniswap Config\n    address public uniswapDAI;\n    address public uniswapLINK;\n    IUniswapV2Router01 public uniswapRouter;\n\n    //Aave Config\n    ILendingPoolAddressesProvider public aaveProvider;\n    ILendingPool public aaveLendingPool;\n    address public aaveLendingPoolCore;\n    address public aTokenDAI;\n\n    constructor(\n        bytes32 name_,\n        uint24 principalCut_,\n        uint24 poolCut_,\n        int32 minScore_,\n        uint256 entryPrice_,\n        uint256 duration_,\n        address payable universityAddress,\n        address challengeAddress_,\n        address daiAddress,\n        address compoundDAIAddress,\n        address studentApplicationFactoryAddress\n    ) public {\n        name = name_;\n        principalCut = principalCut_;\n        poolCut = poolCut_;\n        minScore = minScore_;\n        entryPrice = entryPrice_;\n        duration = duration_;\n        compoundApplyPercentage = 0.5 * 1e6;\n        university = IUniversity(universityAddress);\n        challengeAddress = challengeAddress_;\n        openForApplication = false;\n        classroomActive = false;\n        daiToken = daiAddress;\n        cDAI = compoundDAIAddress;\n        studentApplicationFactory = IStudentApplicationFactory(\n            studentApplicationFactoryAddress\n        );\n    }\n\n    event LogOpenApplications();\n    event LogCloseApplications();\n    event LogCourseFinished();\n    event LogChangeChallenge(address);\n    event LogChangeName(bytes32);\n    event LogChangePrincipalCut(uint24);\n    event LogChangePoolCut(uint24);\n    event LogChangeMinScore(int32);\n    event LogChangeEntryPrice(uint256);\n    event LogChangeDuration(uint256);\n\n    // @dev \"Stack too deep\" error if done in the constructor\n    function configureOracles(\n        address oracleRandom_,\n        bytes32 requestIdRandom_,\n        uint256 oraclePaymentRandom_,\n        address oracleTimestamp_,\n        bytes32 requestIdTimestamp_,\n        uint256 oraclePaymentTimestamp_,\n        address linkToken_,\n        bool generateSeed\n    ) public onlyOwner {\n        oracleRandom = oracleRandom_;\n        requestIdRandom = requestIdRandom_;\n        oraclePaymentRandom = oraclePaymentRandom_;\n        oracleTimestamp = oracleTimestamp_;\n        requestIdTimestamp = requestIdTimestamp_;\n        oraclePaymentTimestamp = oraclePaymentTimestamp_;\n        linkToken = linkToken_;\n        setChainlinkToken(linkToken_);\n        require(\n            LinkTokenInterface(linkToken).balanceOf(address(this)) >=\n                oraclePaymentRandom,\n            \"Classroom: not enough Link tokens\"\n        );\n        if (generateSeed) _generateSeed();\n        else _seed = blockhash(0);\n    }\n\n    function configureUniswap(\n        address uniswapDAI_,\n        address uniswapLINK_,\n        address uniswapRouter_\n    ) public onlyOwner {\n        uniswapDAI = uniswapDAI_;\n        uniswapLINK = uniswapLINK_;\n        uniswapRouter = IUniswapV2Router01(uniswapRouter_);\n    }\n\n    function configureAave(address lendingPoolAddressesProvider)\n        public\n        onlyOwner\n    {\n        aaveProvider = ILendingPoolAddressesProvider(\n            lendingPoolAddressesProvider\n        );\n        aaveLendingPoolCore = aaveProvider.getLendingPoolCore();\n        aaveLendingPool = ILendingPool(aaveProvider.getLendingPool());\n        aTokenDAI = ILendingPoolCore(aaveLendingPoolCore)\n            .getReserveATokenAddress(daiToken);\n    }\n\n    function transferOwnershipClassroom(address newOwner) public override {\n        transferOwnership(newOwner);\n    }\n\n    function ownerClassroom() public view override returns (address) {\n        return owner();\n    }\n\n    function changeName(bytes32 val) public onlyOwner {\n        name = val;\n        emit LogChangeName(name);\n    }\n\n    function changePrincipalCut(uint24 val) public onlyOwner {\n        principalCut = val;\n        emit LogChangePrincipalCut(principalCut);\n    }\n\n    function changePoolCut(uint24 val) public onlyOwner {\n        poolCut = val;\n        emit LogChangePoolCut(poolCut);\n    }\n\n    function changeMinScore(int32 val) public onlyOwner {\n        minScore = val;\n        emit LogChangeMinScore(minScore);\n    }\n\n    function changeEntryPrice(uint256 val) public onlyOwner {\n        entryPrice = val;\n        emit LogChangeEntryPrice(entryPrice);\n    }\n\n    function changeDuration(uint256 val) public onlyOwner {\n        duration = val;\n        emit LogChangeDuration(duration);\n    }\n\n    function changeCompoundApplyPercentage(uint256 ppm) public onlyOwner {\n        require(ppm <= 1e6, \"Classroom: can't be more that 100% in ppm\");\n        compoundApplyPercentage = ppm;\n    }\n\n    function changeChallenge(address addr) public onlyOwner {\n        require(isClassroomEmpty(), \"Classroom: can't change challenge now\");\n        challengeAddress = addr;\n        emit LogChangeChallenge(challengeAddress);\n    }\n\n    function viewMyApplication() public view override returns (address) {\n        return viewApplication(_msgSender());\n    }\n\n    function viewApplication(address addr) public view returns (address) {\n        require(\n            addr == _msgSender() || _msgSender() == owner(),\n            \"Classroom: read permission denied\"\n        );\n        return _studentApplicationsLink[addr];\n    }\n\n    function isClassroomEmpty() public view returns (bool) {\n        return\n            _studentApplications.length.add(_validStudentApplications.length) ==\n            0;\n    }\n\n    function isCourseOngoing() public view returns (bool) {\n        return _validStudentApplications.length > 0;\n    }\n\n    function openApplications() public onlyOwner {\n        require(oracleRandom != address(0), \"Classroom: setup oracles first\");\n        require(uniswapDAI != address(0), \"Classroom: setup Uniswap first\");\n        require(\n            aaveLendingPoolCore != address(0),\n            \"Classroom: setup Aave first\"\n        );\n        require(\n            !openForApplication,\n            \"Classroom: applications are already opened\"\n        );\n        require(\n            _studentApplications.length == 0,\n            \"Classroom: students list not empty\"\n        );\n        require(\n            LinkTokenInterface(linkToken).balanceOf(address(this)) >=\n                oraclePaymentTimestamp,\n            \"Classroom: not enough Link tokens\"\n        );\n        openForApplication = true;\n        emit LogOpenApplications();\n    }\n\n    function closeApplications() public onlyOwner {\n        require(\n            openForApplication,\n            \"Classroom: applications are already closed\"\n        );\n        openForApplication = false;\n        emit LogCloseApplications();\n    }\n\n    //public onlyOwner allow the professor to apply money before and after closing applications\n    function applyDAI() public onlyOwner {\n        uint256 balance = IERC20(daiToken).balanceOf(address(this));\n        if (balance <= 0) return;\n        uint256 compoundApply = compoundApplyPercentage.mul(balance).div(1e6);\n        uint256 aaveApply = balance.sub(compoundApply);\n        applyFundsCompound(compoundApply);\n        applyFundsAave(aaveApply);\n    }\n\n    function applyFundsCompound(uint256 val) public onlyOwner {\n        if (val == 0) return;\n        TransferHelper.safeApprove(daiToken, cDAI, val);\n        CERC20(cDAI).mint(val);\n    }\n\n    function applyFundsAave(uint256 val) public onlyOwner  {\n        if (val == 0) return;\n        TransferHelper.safeApprove(\n            daiToken,\n            aaveLendingPoolCore,\n            val\n        );\n        aaveLendingPool.deposit(daiToken, val, 0);\n    }\n\n    function studentApply() public override {\n        require(\n            IStudent(_msgSender()).ownerStudent() != owner(),\n            \"Classroom: professor can't be its own student\"\n        );\n        require(\n            university.studentIsRegistered(_msgSender()),\n            \"Classroom: student is not registered\"\n        );\n        IStudent applicant = IStudent(_msgSender());\n        require(\n            applicant.score() >= minScore,\n            \"Classroom: student doesn't have enough score\"\n        );\n        require(openForApplication, \"Classroom: applications closed\");\n        address application = _createStudentApplication(address(applicant));\n        _studentApplications.push(application);\n    }\n\n    function _createStudentApplication(address student)\n        internal\n        returns (address)\n    {\n        address newApplication = studentApplicationFactory\n            .newStudentApplication(\n            student,\n            address(this),\n            address(daiToken),\n            challengeAddress,\n            generateNewSeed()\n        );\n        _studentApplicationsLink[student] = newApplication;\n        university.registerStudentApplication(student, newApplication);\n        return newApplication;\n    }\n\n    function generateNewSeed() internal returns (bytes32) {\n        _mutateSeed();\n        return keccak256(abi.encode(blockhash(0) ^ _seed));\n    }\n\n    function countNewApplications()\n        public\n        view\n        onlyOwner\n        returns (uint256 count)\n    {\n        for (uint256 i = 0; i < _studentApplications.length; i++) {\n            if (\n                IStudentApplication(_studentApplications[i])\n                    .applicationState() == 0\n            ) count++;\n        }\n    }\n\n    function countReadyApplications()\n        public\n        view\n        onlyOwner\n        returns (uint256 count)\n    {\n        for (uint256 i = 0; i < _studentApplications.length; i++) {\n            if (\n                IStudentApplication(_studentApplications[i])\n                    .applicationState() == 1\n            ) count++;\n        }\n    }\n\n    function countActiveApplications()\n        public\n        view\n        onlyOwner\n        returns (uint256 count)\n    {\n        return _validStudentApplications.length;\n    }\n\n    function beginCourse(bool setAlatm)\n        public\n        onlyOwner\n    {\n        require(!openForApplication, \"Classroom: applications are still open\");\n        require(!classroomActive, \"Classroom: course already open\");\n        require(\n            IERC20(daiToken).balanceOf(address(this)) == 0,\n            \"Classroom: invest all balance before begin\"\n        );\n        checkApplications();\n        _studentApplications = new address[](0);\n        if (_validStudentApplications.length == 0) return;\n        classroomActive = true;\n        startDate = block.timestamp;\n        if (setAlatm) _setAlarm();\n        else _timestampAlarm = true;\n    }\n\n    function checkApplications() internal {\n        for (uint256 i = 0; i < _studentApplications.length; i++) {\n            if (\n                IStudentApplication(_studentApplications[i])\n                    .applicationState() == 1\n            ) {\n                IStudentApplication(_studentApplications[i]).activate();\n                _validStudentApplications.push(_studentApplications[i]);\n            } else {\n                IStudentApplication(_studentApplications[i]).expire();\n            }\n        }\n    }\n\n    function finishCourse() public onlyOwner {\n        require(\n            _validStudentApplications.length > 0,\n            \"Classroom: no applications\"\n        );\n        require(_timestampAlarm, \"Classroom: too soon to finish course\");\n        _courseBalance = IERC20(daiToken).balanceOf(address(this));\n        _recoverInvestment();\n        courseFinished = true;\n        emit LogCourseFinished();\n    }\n\n    function courseBalance() public view onlyOwner() returns (uint256) {\n        return\n            courseFinished\n                ? IERC20(daiToken).balanceOf(address(this)).sub(_courseBalance)\n                : 0;\n    }\n\n    function _recoverInvestment() internal {\n        uint256 balanceCompound = CERC20(cDAI).balanceOf(address(this));\n        CERC20(cDAI).redeem(balanceCompound);\n        uint256 balanceAave = aToken(aTokenDAI).balanceOf(address(this));\n        aToken(aTokenDAI).redeem(balanceAave);\n    }\n\n    uint256 public coursePostBalance;\n    uint256 public successCount;\n    uint256 public emptyCount;\n    uint256 public universityCut;\n    uint256[] public studentAllowances;\n\n    uint16 _processPhase;\n\n    function viewProcessPhase() public view returns (uint16) {\n        if (!courseFinished) return (uint16(-1));\n        return _processPhase;\n    }\n\n    /*\n    processResults();\n    startAnswerVerification();\n    accountValues();\n    resolveStudentAllowances();\n    resolveUniversityCut();\n    updateStudentScores();\n    endProcessResults();\n    */\n    function processResults() public {\n        require(courseFinished, \"Classroom: course not finished\");\n        coursePostBalance = courseBalance();\n        require(\n            coursePostBalance >= entryPrice.mul(_validStudentApplications.length),\n            \"Classroom: not enough DAI to proceed\"\n        );\n        _processPhase = 1;\n        studentAllowances = new uint256[](_validStudentApplications.length);\n    }\n\n    function startAnswerVerification() public  {\n        require(_processPhase > 0, \"Classroom: call processResults first\");\n        require(_processPhase < 2, \"Classroom: step already done\");\n        _startAnswerVerification();\n        _processPhase = 2;\n    }\n\n    function _startAnswerVerification() internal {\n        assert(_processPhase == 1);\n        for (uint256 i = 0; i < _validStudentApplications.length; i++) {\n            IStudentApplication(_validStudentApplications[i])\n                .registerFinalAnswer();\n            uint256 appState = IStudentApplication(_validStudentApplications[i])\n                .applicationState();\n            if (appState == 3) successCount++;\n            if (appState == 5) emptyCount++;\n        }\n    }\n\n    function accountValues() public {\n        require(_processPhase > 1, \"Classroom: call startAnswerVerification first\");\n        require(_processPhase < 3, \"Classroom: step already done\");\n        _accountValues();\n        _processPhase = 3;\n    }\n\n    function _accountValues()\n        internal\n    {\n        assert(_processPhase == 2);\n        uint256 nStudents = _validStudentApplications.length;\n        uint256 returnsPool = coursePostBalance.sub(entryPrice.mul(nStudents));\n        uint256 professorPaymentPerStudent = entryPrice.mul(principalCut).div(\n            1e6\n        );\n        uint256 studentPrincipalReturn = entryPrice.sub(\n            professorPaymentPerStudent\n        );\n        uint256 successPool = returnsPool.mul(successCount).div(nStudents);\n        uint256 professorTotalPoolSuccessShare = successPool.mul(poolCut).div(\n            1e6\n        );\n        uint256 successStudentPoolShare = successCount > 0 ? \n            returnsPool\n            .sub(professorTotalPoolSuccessShare)\n            .div(successCount) \n            : 0;\n        for (uint256 i = 0; i < nStudents; i++) {\n            uint256 appState = IStudentApplication(_validStudentApplications[i])\n                .applicationState();\n            if (appState == 3) {\n                IStudentApplication(_validStudentApplications[i])\n                    .accountAllowance(\n                    studentPrincipalReturn,\n                    successStudentPoolShare\n                );\n                studentAllowances[i] = studentPrincipalReturn.add(\n                    successStudentPoolShare\n                );\n            }\n            if (appState == 4) {\n                IStudentApplication(_validStudentApplications[i])\n                    .accountAllowance(studentPrincipalReturn, 0);\n                studentAllowances[i] = studentPrincipalReturn;\n            }\n            if (appState == 5)\n                IStudentApplication(_validStudentApplications[i])\n                    .accountAllowance(0, 0);\n        }\n        _calculateUniversityShare(\n                professorTotalPoolSuccessShare,\n                nStudents,\n                professorPaymentPerStudent\n            );\n    }\n\n    function _calculateUniversityShare(\n        uint256 professorTotalPoolSuccessShare,\n        uint256 nStudents,\n        uint256 professorPaymentPerStudent\n    ) internal returns (uint256) {\n        uint24 uCut = university.cut();\n        uint256 universityEmptyShare = emptyCount.mul(entryPrice);\n        uint256 universityPaymentShare = professorTotalPoolSuccessShare\n            .mul(uCut)\n            .div(1e6);\n        uint256 notEmptyCount = nStudents.sub(emptyCount);\n        uint256 universitySucessPoolShare = professorPaymentPerStudent\n            .mul(notEmptyCount)\n            .mul(uCut)\n            .div(1e6);\n        universityCut = \n            universityEmptyShare.add(universityPaymentShare).add(\n                universitySucessPoolShare\n            );\n    }\n\n    function resolveStudentAllowances() public {\n        require(_processPhase > 2, \"Classroom: call accountValues first\");\n        require(_processPhase < 4, \"Classroom: step already done\");\n        _resolveStudentAllowances();\n        _processPhase = 4;\n    }\n\n    function _resolveStudentAllowances()\n        internal\n    {\n        assert(_processPhase == 3);\n        for (uint256 i = 0; i < _validStudentApplications.length; i++) {\n            if (studentAllowances[i] > 0)\n                TransferHelper.safeTransfer(\n                    daiToken,\n                    address(_validStudentApplications[i]),\n                    studentAllowances[i]\n                );\n        }\n    }\n\n    function resolveUniversityCut() public {\n        require(_processPhase > 3, \"Classroom: call resolveStudentAllowances first\");\n        require(_processPhase < 5, \"Classroom: step already done\");\n        _resolveUniversityCut();\n        _processPhase = 5;\n    }\n\n    function _resolveUniversityCut() internal {\n        assert(_processPhase == 4);\n        TransferHelper.safeTransfer(\n            address(daiToken),\n            address(university),\n            universityCut\n        );\n        university.accountRevenue(universityCut);\n    }\n\n    function updateStudentScores() public {\n        require(_processPhase > 4, \"Classroom: call resolveUniversityCut first\");\n        require(_processPhase < 6, \"Classroom: step already done\");\n        _updateStudentScores();\n        _processPhase = 6;\n    }\n\n    function _updateStudentScores() internal {\n        assert(_processPhase == 5);\n        for (uint256 i = 0; i < _validStudentApplications.length; i++) {\n            uint256 appState = IStudentApplication(_validStudentApplications[i])\n                .applicationState();\n            if (appState == 3)\n                university.addStudentScore(\n                    IStudentApplication(_validStudentApplications[i])\n                        .studentAddress(),\n                    1\n                );\n            if (appState == 4)\n                university.subStudentScore(\n                    IStudentApplication(_validStudentApplications[i])\n                        .studentAddress(),\n                    1\n                );\n            if (appState == 5)\n                university.subStudentScore(\n                    IStudentApplication(_validStudentApplications[i])\n                        .studentAddress(),\n                    2\n                );\n        }\n    }\n\n    function endProcessResults() public onlyOwner {\n        require(_processPhase > 5, \"Classroom: call updateStudentScores first\");\n        _clearClassroom();\n        _processPhase = 0;\n    }\n\n    function _clearClassroom() internal {\n        assert(_processPhase == 6);\n        _validStudentApplications = new address[](0);\n        withdrawAllResults();\n        _courseBalance = 0;\n        successCount = 0;\n        emptyCount = 0;\n        universityCut = 0;\n        studentAllowances = new uint256[](0);\n        courseFinished = false;\n        _timestampAlarm = false;\n    }\n\n    function _mutateSeed() internal {\n        _seed = keccak256(abi.encode(_seed));\n    }\n\n    function withdrawAllResults() public onlyOwner {\n        require(isClassroomEmpty(), \"Can't withdraw with classroom full\");\n        TransferHelper.safeTransfer(daiToken, owner(), IERC20(daiToken).balanceOf(address(this)));\n    }\n\n    function swapDAI_LINK(uint256 amount, uint256 deadline) public onlyOwner {\n        require(uniswapLINK != address(0), \"University: setup uniswap first\");\n        swapBlind(uniswapDAI, uniswapLINK, amount, deadline);\n    }\n\n    function swapLINK_DAI(uint256 amount, uint256 deadline) public onlyOwner {\n        require(uniswapLINK != address(0), \"University: setup uniswap first\");\n        swapBlind(uniswapLINK, uniswapDAI, amount, deadline);\n    }\n\n    function swapBlind(\n        address tokenA,\n        address tokenB,\n        uint256 amount,\n        uint256 deadline\n    ) internal {\n        TransferHelper.safeApprove(tokenA, address(uniswapRouter), amount);\n        address[] memory path = new address[](2);\n        path[0] = tokenA;\n        path[1] = tokenB;\n        uniswapRouter.swapExactTokensForTokens(\n            amount,\n            0,\n            path,\n            address(this),\n            deadline\n        );\n    }\n\n    function _generateSeed() internal {\n        Chainlink.Request memory req = buildChainlinkRequest(\n            requestIdRandom,\n            address(this),\n            this.fulfillGenerateSeed.selector\n        );\n        sendChainlinkRequestTo(oracleRandom, req, oraclePaymentRandom);\n    }\n\n    function fulfillGenerateSeed(bytes32 _requestId, uint256 data)\n        public\n        recordChainlinkFulfillment(_requestId)\n    {\n        _seed = keccak256(MyUtils._toBytes(data));\n    }\n\n    function _setAlarm() internal {\n        Chainlink.Request memory req = buildChainlinkRequest(\n            requestIdTimestamp,\n            address(this),\n            this.fulfillGetTimestamp.selector\n        );\n        req.addUint(\"until\", now + duration);\n        sendChainlinkRequestTo(oracleTimestamp, req, oraclePaymentTimestamp);\n    }\n\n    function fulfillGetTimestamp(bytes32 _requestId)\n        public\n        recordChainlinkFulfillment(_requestId)\n    {\n        _timestampAlarm = true;\n    }\n}\n",
    "sourcePath": "/mnt/e/Repositories/Uproot/contracts/Classroom.sol",
    "compiler": {
        "name": "solc",
        "version": "0.6.6+commit.6c089d02.Emscripten.clang"
    },
    "schemaVersion": "3.1.0",
    "updatedAt": "2020-05-23T12:42:26.121Z",
    "devdoc": {
        "methods": {
            "owner()": {
                "details": "Returns the address of the current owner."
            },
            "renounceOwnership()": {
                "details": "Leaves the contract without owner. It will not be possible to call `onlyOwner` functions anymore. Can only be called by the current owner.     * NOTE: Renouncing ownership will leave the contract without an owner, thereby removing any functionality that is only available to the owner."
            },
            "transferOwnership(address)": {
                "details": "Transfers ownership of the contract to a new account (`newOwner`). Can only be called by the current owner."
            }
        }
    },
    "userdoc": {
        "methods": {}
    }
}