{
  "contractName": "Classroom",
  "abi": [
    {
      "inputs": [
        {
          "internalType": "bytes32",
          "name": "name_",
          "type": "bytes32"
        },
        {
          "internalType": "uint24",
          "name": "principalCut_",
          "type": "uint24"
        },
        {
          "internalType": "uint24",
          "name": "poolCut_",
          "type": "uint24"
        },
        {
          "internalType": "int32",
          "name": "minScore_",
          "type": "int32"
        },
        {
          "internalType": "uint256",
          "name": "entryPrice_",
          "type": "uint256"
        },
        {
          "internalType": "uint256",
          "name": "duration_",
          "type": "uint256"
        },
        {
          "internalType": "address payable",
          "name": "universityAddress",
          "type": "address"
        },
        {
          "internalType": "address",
          "name": "challengeAddress_",
          "type": "address"
        },
        {
          "internalType": "address",
          "name": "daiAddress",
          "type": "address"
        },
        {
          "internalType": "address",
          "name": "compoundDAIAddress",
          "type": "address"
        },
        {
          "internalType": "address",
          "name": "studentApplicationFactoryAddress",
          "type": "address"
        }
      ],
      "stateMutability": "nonpayable",
      "type": "constructor"
    },
    {
      "anonymous": false,
      "inputs": [
        {
          "indexed": true,
          "internalType": "bytes32",
          "name": "id",
          "type": "bytes32"
        }
      ],
      "name": "ChainlinkCancelled",
      "type": "event"
    },
    {
      "anonymous": false,
      "inputs": [
        {
          "indexed": true,
          "internalType": "bytes32",
          "name": "id",
          "type": "bytes32"
        }
      ],
      "name": "ChainlinkFulfilled",
      "type": "event"
    },
    {
      "anonymous": false,
      "inputs": [
        {
          "indexed": true,
          "internalType": "bytes32",
          "name": "id",
          "type": "bytes32"
        }
      ],
      "name": "ChainlinkRequested",
      "type": "event"
    },
    {
      "anonymous": false,
      "inputs": [
        {
          "indexed": false,
          "internalType": "address",
          "name": "",
          "type": "address"
        }
      ],
      "name": "LogChangeChallenge",
      "type": "event"
    },
    {
      "anonymous": false,
      "inputs": [
        {
          "indexed": false,
          "internalType": "uint256",
          "name": "",
          "type": "uint256"
        }
      ],
      "name": "LogChangeDuration",
      "type": "event"
    },
    {
      "anonymous": false,
      "inputs": [
        {
          "indexed": false,
          "internalType": "uint256",
          "name": "",
          "type": "uint256"
        }
      ],
      "name": "LogChangeEntryPrice",
      "type": "event"
    },
    {
      "anonymous": false,
      "inputs": [
        {
          "indexed": false,
          "internalType": "int32",
          "name": "",
          "type": "int32"
        }
      ],
      "name": "LogChangeMinScore",
      "type": "event"
    },
    {
      "anonymous": false,
      "inputs": [
        {
          "indexed": false,
          "internalType": "bytes32",
          "name": "",
          "type": "bytes32"
        }
      ],
      "name": "LogChangeName",
      "type": "event"
    },
    {
      "anonymous": false,
      "inputs": [
        {
          "indexed": false,
          "internalType": "uint24",
          "name": "",
          "type": "uint24"
        }
      ],
      "name": "LogChangePoolCut",
      "type": "event"
    },
    {
      "anonymous": false,
      "inputs": [
        {
          "indexed": false,
          "internalType": "uint24",
          "name": "",
          "type": "uint24"
        }
      ],
      "name": "LogChangePrincipalCut",
      "type": "event"
    },
    {
      "anonymous": false,
      "inputs": [],
      "name": "LogCloseApplications",
      "type": "event"
    },
    {
      "anonymous": false,
      "inputs": [],
      "name": "LogCourseFinished",
      "type": "event"
    },
    {
      "anonymous": false,
      "inputs": [],
      "name": "LogOpenApplications",
      "type": "event"
    },
    {
      "anonymous": false,
      "inputs": [
        {
          "indexed": true,
          "internalType": "address",
          "name": "previousOwner",
          "type": "address"
        },
        {
          "indexed": true,
          "internalType": "address",
          "name": "newOwner",
          "type": "address"
        }
      ],
      "name": "OwnershipTransferred",
      "type": "event"
    },
    {
      "inputs": [],
      "name": "cDAI",
      "outputs": [
        {
          "internalType": "address",
          "name": "",
          "type": "address"
        }
      ],
      "stateMutability": "view",
      "type": "function"
    },
    {
      "inputs": [],
      "name": "challengeAddress",
      "outputs": [
        {
          "internalType": "address",
          "name": "",
          "type": "address"
        }
      ],
      "stateMutability": "view",
      "type": "function"
    },
    {
      "inputs": [],
      "name": "classroomActive",
      "outputs": [
        {
          "internalType": "bool",
          "name": "",
          "type": "bool"
        }
      ],
      "stateMutability": "view",
      "type": "function"
    },
    {
      "inputs": [],
      "name": "compoundApplyPercentage",
      "outputs": [
        {
          "internalType": "uint256",
          "name": "",
          "type": "uint256"
        }
      ],
      "stateMutability": "view",
      "type": "function"
    },
    {
      "inputs": [],
      "name": "courseFinished",
      "outputs": [
        {
          "internalType": "bool",
          "name": "",
          "type": "bool"
        }
      ],
      "stateMutability": "view",
      "type": "function"
    },
    {
      "inputs": [],
      "name": "daiToken",
      "outputs": [
        {
          "internalType": "address",
          "name": "",
          "type": "address"
        }
      ],
      "stateMutability": "view",
      "type": "function"
    },
    {
      "inputs": [],
      "name": "duration",
      "outputs": [
        {
          "internalType": "uint256",
          "name": "",
          "type": "uint256"
        }
      ],
      "stateMutability": "view",
      "type": "function"
    },
    {
      "inputs": [],
      "name": "entryPrice",
      "outputs": [
        {
          "internalType": "uint256",
          "name": "",
          "type": "uint256"
        }
      ],
      "stateMutability": "view",
      "type": "function"
    },
    {
      "inputs": [],
      "name": "minScore",
      "outputs": [
        {
          "internalType": "int32",
          "name": "",
          "type": "int32"
        }
      ],
      "stateMutability": "view",
      "type": "function"
    },
    {
      "inputs": [],
      "name": "name",
      "outputs": [
        {
          "internalType": "bytes32",
          "name": "",
          "type": "bytes32"
        }
      ],
      "stateMutability": "view",
      "type": "function"
    },
    {
      "inputs": [],
      "name": "openForApplication",
      "outputs": [
        {
          "internalType": "bool",
          "name": "",
          "type": "bool"
        }
      ],
      "stateMutability": "view",
      "type": "function"
    },
    {
      "inputs": [],
      "name": "owner",
      "outputs": [
        {
          "internalType": "address",
          "name": "",
          "type": "address"
        }
      ],
      "stateMutability": "view",
      "type": "function"
    },
    {
      "inputs": [],
      "name": "poolCut",
      "outputs": [
        {
          "internalType": "uint24",
          "name": "",
          "type": "uint24"
        }
      ],
      "stateMutability": "view",
      "type": "function"
    },
    {
      "inputs": [],
      "name": "principalCut",
      "outputs": [
        {
          "internalType": "uint24",
          "name": "",
          "type": "uint24"
        }
      ],
      "stateMutability": "view",
      "type": "function"
    },
    {
      "inputs": [],
      "name": "renounceOwnership",
      "outputs": [],
      "stateMutability": "nonpayable",
      "type": "function"
    },
    {
      "inputs": [],
      "name": "startDate",
      "outputs": [
        {
          "internalType": "uint256",
          "name": "",
          "type": "uint256"
        }
      ],
      "stateMutability": "view",
      "type": "function"
    },
    {
      "inputs": [
        {
          "internalType": "address",
          "name": "newOwner",
          "type": "address"
        }
      ],
      "name": "transferOwnership",
      "outputs": [],
      "stateMutability": "nonpayable",
      "type": "function"
    },
    {
      "inputs": [],
      "name": "university",
      "outputs": [
        {
          "internalType": "contract IUniversity",
          "name": "",
          "type": "address"
        }
      ],
      "stateMutability": "view",
      "type": "function"
    },
    {
      "inputs": [
        {
          "internalType": "address",
          "name": "oracleRandom",
          "type": "address"
        },
        {
          "internalType": "bytes32",
          "name": "requestIdRandom",
          "type": "bytes32"
        },
        {
          "internalType": "uint256",
          "name": "oraclePaymentRandom",
          "type": "uint256"
        },
        {
          "internalType": "address",
          "name": "oracleTimestamp",
          "type": "address"
        },
        {
          "internalType": "bytes32",
          "name": "requestIdTimestamp",
          "type": "bytes32"
        },
        {
          "internalType": "uint256",
          "name": "oraclePaymentTimestamp",
          "type": "uint256"
        },
        {
          "internalType": "address",
          "name": "linkToken",
          "type": "address"
        },
        {
          "internalType": "bool",
          "name": "_____REMOVE_BEFORE_LAUNCH______MOCK",
          "type": "bool"
        }
      ],
      "name": "configureOracles",
      "outputs": [],
      "stateMutability": "nonpayable",
      "type": "function"
    },
    {
      "inputs": [
        {
          "internalType": "address",
          "name": "uniswapDAI",
          "type": "address"
        },
        {
          "internalType": "address",
          "name": "uniswapLINK",
          "type": "address"
        },
        {
          "internalType": "address",
          "name": "uniswapRouter",
          "type": "address"
        }
      ],
      "name": "configureUniswap",
      "outputs": [],
      "stateMutability": "nonpayable",
      "type": "function"
    },
    {
      "inputs": [
        {
          "internalType": "address",
          "name": "lendingPoolAddressesProvider",
          "type": "address"
        }
      ],
      "name": "configureAave",
      "outputs": [],
      "stateMutability": "nonpayable",
      "type": "function"
    },
    {
      "inputs": [
        {
          "internalType": "address",
          "name": "newOwner",
          "type": "address"
        }
      ],
      "name": "transferOwnershipClassroom",
      "outputs": [],
      "stateMutability": "nonpayable",
      "type": "function"
    },
    {
      "inputs": [
        {
          "internalType": "bytes32",
          "name": "val",
          "type": "bytes32"
        }
      ],
      "name": "changeName",
      "outputs": [],
      "stateMutability": "nonpayable",
      "type": "function"
    },
    {
      "inputs": [
        {
          "internalType": "uint24",
          "name": "val",
          "type": "uint24"
        }
      ],
      "name": "changePrincipalCut",
      "outputs": [],
      "stateMutability": "nonpayable",
      "type": "function"
    },
    {
      "inputs": [
        {
          "internalType": "uint24",
          "name": "val",
          "type": "uint24"
        }
      ],
      "name": "changePoolCut",
      "outputs": [],
      "stateMutability": "nonpayable",
      "type": "function"
    },
    {
      "inputs": [
        {
          "internalType": "int32",
          "name": "val",
          "type": "int32"
        }
      ],
      "name": "changeMinScore",
      "outputs": [],
      "stateMutability": "nonpayable",
      "type": "function"
    },
    {
      "inputs": [
        {
          "internalType": "uint256",
          "name": "val",
          "type": "uint256"
        }
      ],
      "name": "changeEntryPrice",
      "outputs": [],
      "stateMutability": "nonpayable",
      "type": "function"
    },
    {
      "inputs": [
        {
          "internalType": "uint256",
          "name": "val",
          "type": "uint256"
        }
      ],
      "name": "changeDuration",
      "outputs": [],
      "stateMutability": "nonpayable",
      "type": "function"
    },
    {
      "inputs": [
        {
          "internalType": "uint256",
          "name": "ppm",
          "type": "uint256"
        }
      ],
      "name": "changeCompoundApplyPercentage",
      "outputs": [],
      "stateMutability": "nonpayable",
      "type": "function"
    },
    {
      "inputs": [
        {
          "internalType": "address",
          "name": "addr",
          "type": "address"
        }
      ],
      "name": "changeChallenge",
      "outputs": [],
      "stateMutability": "nonpayable",
      "type": "function"
    },
    {
      "inputs": [],
      "name": "viewMyApplication",
      "outputs": [
        {
          "internalType": "address",
          "name": "",
          "type": "address"
        }
      ],
      "stateMutability": "view",
      "type": "function"
    },
    {
      "inputs": [
        {
          "internalType": "address",
          "name": "addr",
          "type": "address"
        }
      ],
      "name": "viewApplication",
      "outputs": [
        {
          "internalType": "address",
          "name": "",
          "type": "address"
        }
      ],
      "stateMutability": "view",
      "type": "function"
    },
    {
      "inputs": [],
      "name": "isClassroomEmpty",
      "outputs": [
        {
          "internalType": "bool",
          "name": "",
          "type": "bool"
        }
      ],
      "stateMutability": "view",
      "type": "function"
    },
    {
      "inputs": [],
      "name": "isCourseOngoing",
      "outputs": [
        {
          "internalType": "bool",
          "name": "",
          "type": "bool"
        }
      ],
      "stateMutability": "view",
      "type": "function"
    },
    {
      "inputs": [],
      "name": "openApplications",
      "outputs": [],
      "stateMutability": "nonpayable",
      "type": "function"
    },
    {
      "inputs": [],
      "name": "closeApplications",
      "outputs": [],
      "stateMutability": "nonpayable",
      "type": "function"
    },
    {
      "inputs": [],
      "name": "applyDAI",
      "outputs": [],
      "stateMutability": "nonpayable",
      "type": "function"
    },
    {
      "inputs": [],
      "name": "studentApply",
      "outputs": [],
      "stateMutability": "nonpayable",
      "type": "function"
    },
    {
      "inputs": [],
      "name": "countNewApplications",
      "outputs": [
        {
          "internalType": "uint256",
          "name": "count",
          "type": "uint256"
        }
      ],
      "stateMutability": "view",
      "type": "function"
    },
    {
      "inputs": [],
      "name": "countReadyApplications",
      "outputs": [
        {
          "internalType": "uint256",
          "name": "count",
          "type": "uint256"
        }
      ],
      "stateMutability": "view",
      "type": "function"
    },
    {
      "inputs": [
        {
          "internalType": "bool",
          "name": "_____REMOVE_BEFORE_LAUNCH______MOCK",
          "type": "bool"
        }
      ],
      "name": "beginCourse",
      "outputs": [],
      "stateMutability": "nonpayable",
      "type": "function"
    },
    {
      "inputs": [],
      "name": "finishCourse",
      "outputs": [],
      "stateMutability": "nonpayable",
      "type": "function"
    },
    {
      "inputs": [],
      "name": "courseBalance",
      "outputs": [
        {
          "internalType": "uint256",
          "name": "",
          "type": "uint256"
        }
      ],
      "stateMutability": "view",
      "type": "function"
    },
    {
      "inputs": [],
      "name": "processResults",
      "outputs": [],
      "stateMutability": "nonpayable",
      "type": "function"
    },
    {
      "inputs": [],
      "name": "withdrawAllResults",
      "outputs": [],
      "stateMutability": "nonpayable",
      "type": "function"
    },
    {
      "inputs": [
        {
          "internalType": "uint256",
          "name": "amount",
          "type": "uint256"
        },
        {
          "internalType": "uint256",
          "name": "deadline",
          "type": "uint256"
        }
      ],
      "name": "swapDAI_LINK",
      "outputs": [],
      "stateMutability": "nonpayable",
      "type": "function"
    },
    {
      "inputs": [
        {
          "internalType": "uint256",
          "name": "amount",
          "type": "uint256"
        },
        {
          "internalType": "uint256",
          "name": "deadline",
          "type": "uint256"
        }
      ],
      "name": "swapLINK_DAI",
      "outputs": [],
      "stateMutability": "nonpayable",
      "type": "function"
    },
    {
      "inputs": [
        {
          "internalType": "bytes32",
          "name": "_requestId",
          "type": "bytes32"
        },
        {
          "internalType": "uint256",
          "name": "data",
          "type": "uint256"
        }
      ],
      "name": "fulfillGenerateSeed",
      "outputs": [],
      "stateMutability": "nonpayable",
      "type": "function"
    },
    {
      "inputs": [
        {
          "internalType": "bytes32",
          "name": "_requestId",
          "type": "bytes32"
        }
      ],
      "name": "fulfillGetTimestamp",
      "outputs": [],
      "stateMutability": "nonpayable",
      "type": "function"
    }
  ],
  "bytecode": "0x608060405260016005553480156200001657600080fd5b5060405162004cfc38038062004cfc83398181016040526101608110156200003d57600080fd5b508051602082015160408301516060840151608085015160a086015160c087015160e08801516101008901516101208a0151610140909a01519899979896979596949593949293919290919060006200009e6001600160e01b03620001c316565b600080546001600160a01b0319166001600160a01b0383169081178255604051929350917f8be0079c531659141344cd1fd0a4f28419497f9722a3daafe3b4186f6b6457e0908290a35060109a909a556011805462ffffff191662ffffff9a8b161765ffffff0000001916630100000099909a16989098029890981763ffffffff60301b1916660100000000000063ffffffff60039890980b9790971696909602959095179095556012929092556013556207a12060145560078054601580546001600160a01b03199081166001600160a01b03978816179091559081169285169290921762ff00ff60a01b191690556016805482169284169290921790915560178054821693831693909317909255601880549092169216919091179055620001c7565b3390565b614b2580620001d76000396000f3fe608060405234801561001057600080fd5b506004361061023a5760003560e01c80624f84111461023f57806306fdde031461025e5780630aab4569146102785780630b78cb0e146102955780630b97bc86146102b15780630fb5a6b4146102b957806313c2bedc146102c1578063149c6d10146102e257806318b9533b146103395780631b9dbc601461035f5780632016a2061461036757806329d188791461038a57806331960027146103ae5780633bcd97d4146103b6578063431a16ef146103be5780634c5e7893146103c65780634ffb660c146103ce5780635aa33a2d146103ee5780635b8f96de146103f6578063604d39431461042e5780636ae88cc21461044e5780636e8055a7146104565780636f6941b91461045e578063715018a61461046657806376eada911461046e5780637c0260cb146104945780638155e9771461049c578063834a320c146104be5780638646bcec146104c6578063898855ed146104ce5780638da5cb5b146104eb578063952f1c14146104f35780639e6e0b5f146104fb578063a3f73c2d14610503578063a46268a814610529578063aa055a4014610531578063ada02e1914610539578063adf45ef214610541578063ae12894e14610549578063b594f08614610551578063be22f5461461056e578063c2d0b30314610576578063c799f5e214610599578063e804f164146105bf578063f0607e43146105e1578063f2fde38b14610604578063f745adfc1461062a578063fa245bf014610632578063fe7da9e914610651575b600080fd5b61025c6004803603602081101561025557600080fd5b503561066e565b005b61026661070d565b60408051918252519081900360200190f35b61025c6004803603602081101561028e57600080fd5b5035610713565b61029d6107ac565b604080519115158252519081900360200190f35b6102666107bc565b6102666107c2565b6102c96107c8565b60408051600392830b90920b8252519081900360200190f35b61025c60048036036101008110156102f957600080fd5b506001600160a01b038135811691602081013591604082013591606081013582169160808201359160a08101359160c0820135169060e0013515156107d8565b61025c6004803603602081101561034f57600080fd5b50356001600160a01b0316610944565b61025c610950565b61025c6004803603604081101561037d57600080fd5b5080359060200135610c5a565b610392610cfb565b604080516001600160a01b039092168252519081900360200190f35b61025c610d0a565b61029d610ff4565b61025c611014565b61025c6111be565b61025c600480360360208110156103e457600080fd5b503560030b61132b565b61029d6113ed565b61025c6004803603606081101561040c57600080fd5b506001600160a01b0381358116916020810135821691604090910135166113fd565b610436611494565b6040805162ffffff9092168252519081900360200190f35b6102666114a6565b6103926115aa565b6103926115c1565b61025c6115d0565b6103926004803603602081101561048457600080fd5b50356001600160a01b0316611660565b61025c611702565b61025c600480360360208110156104b257600080fd5b503562ffffff166117da565b610266611884565b61043661197e565b61025c600480360360208110156104e457600080fd5b5035611989565b610392611a1c565b610266611a2b565b610266611b27565b61025c6004803603602081101561051957600080fd5b50356001600160a01b0316611b2d565b61029d611c22565b61025c611c32565b61025c611d91565b61029d611ec5565b610392611ecd565b61025c6004803603602081101561056757600080fd5b5035611edc565b610392611f6f565b61025c6004803603604081101561058c57600080fd5b5080359060200135611f7e565b61025c600480360360208110156105af57600080fd5b50356001600160a01b031661203f565b61025c600480360360208110156105d557600080fd5b503562ffffff16612254565b61025c600480360360408110156105f757600080fd5b508035906020013561230c565b61025c6004803603602081101561061a57600080fd5b50356001600160a01b03166123cd565b6102666124b3565b61025c6004803603602081101561064857600080fd5b503515156124b9565b61025c6004803603602081101561066757600080fd5b50356126d5565b610676612768565b6000546001600160a01b039081169116146106c6576040805162461bcd60e51b815260206004820181905260248201526000805160206149c6833981519152604482015290519081900360640190fd5b620f42408111156107085760405162461bcd60e51b81526004018080602001828103825260298152602001806148c36029913960400191505060405180910390fd5b601455565b60105481565b60008181526006602052604090205481906001600160a01b0316331461076a5760405162461bcd60e51b8152600401808060200182810382526028815260200180614aa86028913960400191505060405180910390fd5b60008181526006602052604080822080546001600160a01b0319169055518291600080516020614ad083398151915291a250506009805460ff19166001179055565b600754600160a01b900460ff1681565b60085481565b60135481565b601154600160301b900460030b81565b6107e0612768565b6000546001600160a01b03908116911614610830576040805162461bcd60e51b815260206004820181905260248201526000805160206149c6833981519152604482015290519081900360640190fd5b601980546001600160a01b03808b166001600160a01b031992831617909255601a899055601b889055601c8054888416908316179055601d869055601e859055601f805485841692169190911790819055604080516370a0823160e01b81523060048201529051899392909216916370a0823191602480820192602092909190829003018186803b1580156108c457600080fd5b505afa1580156108d8573d6000803e3d6000fd5b505050506040513d60208110156108ee57600080fd5b5051101561092d5760405162461bcd60e51b81526004018080602001828103825260218152602001806147c36021913960400191505060405180910390fd5b8061093a5761093a61276c565b5050505050505050565b61094d816123cd565b50565b610958611a1c565b6001600160a01b0316610969612768565b6001600160a01b0316637a6c8b536040518163ffffffff1660e01b815260040160206040518083038186803b1580156109a157600080fd5b505afa1580156109b5573d6000803e3d6000fd5b505050506040513d60208110156109cb57600080fd5b50516001600160a01b03161415610a135760405162461bcd60e51b815260040180806020018281038252602d81526020018061492e602d913960400191505060405180910390fd5b6007546001600160a01b03166316ded1ce610a2c612768565b6040518263ffffffff1660e01b815260040180826001600160a01b03166001600160a01b0316815260200191505060206040518083038186803b158015610a7257600080fd5b505afa158015610a86573d6000803e3d6000fd5b505050506040513d6020811015610a9c57600080fd5b5051610ad95760405162461bcd60e51b8152600401808060200182810382526024815260200180614a5a6024913960400191505060405180910390fd5b6000610ae3612768565b9050601160069054906101000a900460030b60030b816001600160a01b031663efedc6696040518163ffffffff1660e01b815260040160206040518083038186803b158015610b3157600080fd5b505afa158015610b45573d6000803e3d6000fd5b505050506040513d6020811015610b5b57600080fd5b505160030b1215610b9d5760405162461bcd60e51b815260040180806020018281038252602c81526020018061480a602c913960400191505060405180910390fd5b600754600160a01b900460ff16610bfb576040805162461bcd60e51b815260206004820152601e60248201527f436c617373726f6f6d3a206170706c69636174696f6e7320636c6f7365640000604482015290519081900360640190fd5b6000610c06826127a9565b600a80546001810182556000919091527fc65a7bb8d6351c1cf70c95a316cc6a92839c986682d98bc35f958f4883f9d2a80180546001600160a01b0319166001600160a01b03929092169190911790555050565b60008281526006602052604090205482906001600160a01b03163314610cb15760405162461bcd60e51b8152600401808060200182810382526028815260200180614aa86028913960400191505060405180910390fd5b60008181526006602052604080822080546001600160a01b0319169055518291600080516020614ad083398151915291a2610ceb82612906565b8051602090910120600f55505050565b6015546001600160a01b031681565b610d12612768565b6000546001600160a01b03908116911614610d62576040805162461bcd60e51b815260206004820181905260248201526000805160206149c6833981519152604482015290519081900360640190fd5b6019546001600160a01b0316610dbf576040805162461bcd60e51b815260206004820152601e60248201527f436c617373726f6f6d3a207365747570206f7261636c65732066697273740000604482015290519081900360640190fd5b6020546001600160a01b0316610e1c576040805162461bcd60e51b815260206004820152601e60248201527f436c617373726f6f6d3a20736574757020556e69737761702066697273740000604482015290519081900360640190fd5b6025546001600160a01b0316610e77576040805162461bcd60e51b815260206004820152601b60248201527a10db185cdcdc9bdbdb4e881cd95d1d5c0810585d9948199a5c9cdd602a1b604482015290519081900360640190fd5b600754600160a01b900460ff1615610ec05760405162461bcd60e51b815260040180806020018281038252602a815260200180614a7e602a913960400191505060405180910390fd5b600a5415610eff5760405162461bcd60e51b815260040180806020018281038252602281526020018061490c6022913960400191505060405180910390fd5b601e54601f54604080516370a0823160e01b815230600482015290516001600160a01b03909216916370a0823191602480820192602092909190829003018186803b158015610f4d57600080fd5b505afa158015610f61573d6000803e3d6000fd5b505050506040513d6020811015610f7757600080fd5b50511015610fb65760405162461bcd60e51b81526004018080602001828103825260218152602001806147c36021913960400191505060405180910390fd5b6007805460ff60a01b1916600160a01b1790556040517fa5d188159e8a15dc503f9fde55e9da14c8b2ca589603e2567481c0ef90b7972090600090a1565b600b54600a5460009161100d919063ffffffff61293016565b1590505b90565b61101c612768565b6000546001600160a01b0390811691161461106c576040805162461bcd60e51b815260206004820181905260248201526000805160206149c6833981519152604482015290519081900360640190fd5b600b546110bd576040805162461bcd60e51b815260206004820152601a602482015279436c617373726f6f6d3a206e6f206170706c69636174696f6e7360301b604482015290519081900360640190fd5b60095460ff166110fe5760405162461bcd60e51b815260040180806020018281038252602481526020018061497c6024913960400191505060405180910390fd5b601654604080516370a0823160e01b815230600482015290516001600160a01b03909216916370a0823191602480820192602092909190829003018186803b15801561114957600080fd5b505afa15801561115d573d6000803e3d6000fd5b505050506040513d602081101561117357600080fd5b5051600e55611180612991565b6007805460ff60a81b1916600160a81b1790556040517fadfcc9bbc47b33710f82544eeff8bd0f98c6f78f190e915bd81f4a9dacfdc77790600090a1565b6111c6612768565b6000546001600160a01b03908116911614611216576040805162461bcd60e51b815260206004820181905260248201526000805160206149c6833981519152604482015290519081900360640190fd5b6016546001600160a01b03166323b872dd30611230611a1c565b601654604080516370a0823160e01b815230600482015290516001600160a01b03909216916370a0823191602480820192602092909190829003018186803b15801561127b57600080fd5b505afa15801561128f573d6000803e3d6000fd5b505050506040513d60208110156112a557600080fd5b5051604080516001600160e01b031960e087901b1681526001600160a01b0394851660048201529290931660248301526044820152905160648083019260209291908290030181600087803b1580156112fd57600080fd5b505af1158015611311573d6000803e3d6000fd5b505050506040513d602081101561132757600080fd5b5050565b611333612768565b6000546001600160a01b03908116911614611383576040805162461bcd60e51b815260206004820181905260248201526000805160206149c6833981519152604482015290519081900360640190fd5b60118054600383810b63ffffffff16600160301b90810263ffffffff60301b1990931692909217928390556040805192909304810b810b900b815290517f258981eaba02423980e2973ff2ae3bbbba3cc807a5b73faf8f0b068dd7b2af649181900360200190a150565b600754600160a81b900460ff1681565b611405612768565b6000546001600160a01b03908116911614611455576040805162461bcd60e51b815260206004820181905260248201526000805160206149c6833981519152604482015290519081900360640190fd5b602080546001600160a01b039485166001600160a01b031991821617909155602180549385169382169390931790925560228054919093169116179055565b6011546301000000900462ffffff1681565b60006114b0612768565b6000546001600160a01b03908116911614611500576040805162461bcd60e51b815260206004820181905260248201526000805160206149c6833981519152604482015290519081900360640190fd5b60005b600a548110156115a657600a818154811061151a57fe5b60009182526020918290200154604080516332c3db0f60e11b815290516001600160a01b0390921692636587b61e92600480840193829003018186803b15801561156357600080fd5b505afa158015611577573d6000803e3d6000fd5b505050506040513d602081101561158d57600080fd5b50516001141561159e576001909101905b600101611503565b5090565b60006115bc6115b7612768565b611660565b905090565b6017546001600160a01b031681565b6115d8612768565b6000546001600160a01b03908116911614611628576040805162461bcd60e51b815260206004820181905260248201526000805160206149c6833981519152604482015290519081900360640190fd5b600080546040516001600160a01b0390911690600080516020614a10833981519152908390a3600080546001600160a01b0319169055565b600061166a612768565b6001600160a01b0316826001600160a01b031614806116a8575061168c611a1c565b6001600160a01b031661169d612768565b6001600160a01b0316145b6116e35760405162461bcd60e51b81526004018080602001828103825260218152602001806148a26021913960400191505060405180910390fd5b506001600160a01b039081166000908152600c60205260409020541690565b61170a612768565b6000546001600160a01b0390811691161461175a576040805162461bcd60e51b815260206004820181905260248201526000805160206149c6833981519152604482015290519081900360640190fd5b600754600160a01b900460ff166117a25760405162461bcd60e51b815260040180806020018281038252602a815260200180614a30602a913960400191505060405180910390fd5b6007805460ff60a01b191690556040517f747a4734f50e3ae237b3afeeac30a2d2c7cb965cc122fb9680050fd533b7c0f590600090a1565b6117e2612768565b6000546001600160a01b03908116911614611832576040805162461bcd60e51b815260206004820181905260248201526000805160206149c6833981519152604482015290519081900360640190fd5b6011805462ffffff191662ffffff838116919091179182905560408051929091168252517fa24cdd22388a51f932026d20d3229c1d693385bb9ac176742e0e40b4586c2447916020908290030190a150565b600061188e612768565b6000546001600160a01b039081169116146118de576040805162461bcd60e51b815260206004820181905260248201526000805160206149c6833981519152604482015290519081900360640190fd5b600754600160a81b900460ff166118f65760006115bc565b600e54601654604080516370a0823160e01b815230600482015290516115bc93926001600160a01b0316916370a08231916024808301926020929190829003018186803b15801561194657600080fd5b505afa15801561195a573d6000803e3d6000fd5b505050506040513d602081101561197057600080fd5b50519063ffffffff612b6816565b60115462ffffff1681565b611991612768565b6000546001600160a01b039081169116146119e1576040805162461bcd60e51b815260206004820181905260248201526000805160206149c6833981519152604482015290519081900360640190fd5b60108190556040805182815290517f9f8929be552430dd6434c446d106c34954b2040ca8c4dbf42a39323dd6cda3ca9181900360200190a150565b6000546001600160a01b031690565b6000611a35612768565b6000546001600160a01b03908116911614611a85576040805162461bcd60e51b815260206004820181905260248201526000805160206149c6833981519152604482015290519081900360640190fd5b60005b600a548110156115a657600a8181548110611a9f57fe5b60009182526020918290200154604080516332c3db0f60e11b815290516001600160a01b0390921692636587b61e92600480840193829003018186803b158015611ae857600080fd5b505afa158015611afc573d6000803e3d6000fd5b505050506040513d6020811015611b1257600080fd5b5051611b1f576001909101905b600101611a88565b60145481565b611b35612768565b6000546001600160a01b03908116911614611b85576040805162461bcd60e51b815260206004820181905260248201526000805160206149c6833981519152604482015290519081900360640190fd5b611b8d610ff4565b611bc85760405162461bcd60e51b81526004018080602001828103825260258152602001806148366025913960400191505060405180910390fd5b601580546001600160a01b0319166001600160a01b03838116919091179182905560408051929091168252517fdc58b28697ffd1bd5879b16631587874caec982b482d7ed05df69a5302f6e018916020908290030190a150565b600754600160b01b900460ff1681565b611c3a612768565b6000546001600160a01b03908116911614611c8a576040805162461bcd60e51b815260206004820181905260248201526000805160206149c6833981519152604482015290519081900360640190fd5b600754600160a81b900460ff16611ce8576040805162461bcd60e51b815260206004820152601e60248201527f436c617373726f6f6d3a20636f75727365206e6f742066696e69736865640000604482015290519081900360640190fd5b611cf0611884565b600e55600b54601254611d089163ffffffff612bc516565b600e541015611d485760405162461bcd60e51b815260040180806020018281038252602481526020018061487e6024913960400191505060405180910390fd5b600080611d53612c1e565b9150915060006060611d658484612d55565b91509150611d72816130f3565b611d7b8261317b565b611d83613200565b611d8b6135b4565b50505050565b611d99612768565b6000546001600160a01b03908116911614611de9576040805162461bcd60e51b815260206004820181905260248201526000805160206149c6833981519152604482015290519081900360640190fd5b601654604080516370a0823160e01b815230600482015290516000926001600160a01b0316916370a08231916024808301926020929190829003018186803b158015611e3457600080fd5b505afa158015611e48573d6000803e3d6000fd5b505050506040513d6020811015611e5e57600080fd5b5051905080611e6d5750611ec3565b6000611e97620f4240611e8b84601454612bc590919063ffffffff16565b9063ffffffff6135f816565b90506000611eab838363ffffffff612b6816565b9050611eb68261365f565b611ebf816136f4565b5050505b565b600b54151590565b6007546001600160a01b031681565b611ee4612768565b6000546001600160a01b03908116911614611f34576040805162461bcd60e51b815260206004820181905260248201526000805160206149c6833981519152604482015290519081900360640190fd5b60138190556040805182815290517fa67f34afb53d068e81607cde52dc74c58cbf6a05eac699e5543b97d25e3ca5cb9181900360200190a150565b6016546001600160a01b031681565b611f86612768565b6000546001600160a01b03908116911614611fd6576040805162461bcd60e51b815260206004820181905260248201526000805160206149c6833981519152604482015290519081900360640190fd5b6021546001600160a01b0316612021576040805162461bcd60e51b815260206004820152601f60248201526000805160206148ec833981519152604482015290519081900360640190fd5b602054602154611327916001600160a01b039081169116848461376f565b612047612768565b6000546001600160a01b03908116911614612097576040805162461bcd60e51b815260206004820181905260248201526000805160206149c6833981519152604482015290519081900360640190fd5b602380546001600160a01b0319166001600160a01b0383811691909117918290556040805163076b7fbb60e51b81529051929091169163ed6ff76091600480820192602092909190829003018186803b1580156120f357600080fd5b505afa158015612107573d6000803e3d6000fd5b505050506040513d602081101561211d57600080fd5b5051602580546001600160a01b0319166001600160a01b0392831617905560235460408051630261bf8b60e01b815290519190921691630261bf8b916004808301926020929190829003018186803b15801561217857600080fd5b505afa15801561218c573d6000803e3d6000fd5b505050506040513d60208110156121a257600080fd5b5051602480546001600160a01b0319166001600160a01b0392831617815560255460165460408051631a59df7760e11b815291851660048301525191909316926334b3beee9281810192602092909190829003018186803b15801561220657600080fd5b505afa15801561221a573d6000803e3d6000fd5b505050506040513d602081101561223057600080fd5b5051602680546001600160a01b0319166001600160a01b0390921691909117905550565b61225c612768565b6000546001600160a01b039081169116146122ac576040805162461bcd60e51b815260206004820181905260248201526000805160206149c6833981519152604482015290519081900360640190fd5b6011805462ffffff808416630100000090810265ffffff000000199093169290921792839055604080519290930416815290517f9d9f9ef51b12eb719684b7a2e09fc2f7e916cb0e229aecf5658ce6326dfeb1c59181900360200190a150565b612314612768565b6000546001600160a01b03908116911614612364576040805162461bcd60e51b815260206004820181905260248201526000805160206149c6833981519152604482015290519081900360640190fd5b6021546001600160a01b03166123af576040805162461bcd60e51b815260206004820152601f60248201526000805160206148ec833981519152604482015290519081900360640190fd5b602154602054611327916001600160a01b039081169116848461376f565b6123d5612768565b6000546001600160a01b03908116911614612425576040805162461bcd60e51b815260206004820181905260248201526000805160206149c6833981519152604482015290519081900360640190fd5b6001600160a01b03811661246a5760405162461bcd60e51b81526004018080602001828103825260268152602001806147e46026913960400191505060405180910390fd5b600080546040516001600160a01b0380851693921691600080516020614a1083398151915291a3600080546001600160a01b0319166001600160a01b0392909216919091179055565b60125481565b6124c1612768565b6000546001600160a01b03908116911614612511576040805162461bcd60e51b815260206004820181905260248201526000805160206149c6833981519152604482015290519081900360640190fd5b600754600160a01b900460ff161561255a5760405162461bcd60e51b81526004018080602001828103825260268152602001806149a06026913960400191505060405180910390fd5b600754600160b01b900460ff16156125b9576040805162461bcd60e51b815260206004820152601e60248201527f436c617373726f6f6d3a20636f7572736520616c7265616479206f70656e0000604482015290519081900360640190fd5b601654604080516370a0823160e01b815230600482015290516001600160a01b03909216916370a0823191602480820192602092909190829003018186803b15801561260457600080fd5b505afa158015612618573d6000803e3d6000fd5b505050506040513d602081101561262e57600080fd5b50511561266c5760405162461bcd60e51b815260040180806020018281038252602a8152602001806149e6602a913960400191505060405180910390fd5b612674613975565b604080516000815260208101918290525161269191600a916146ee565b50600b5461269e5761094d565b6007805460ff60b01b1916600160b01b1790554260085580156126cd576009805460ff1916600117905561094d565b61094d613b3d565b6126dd612768565b6000546001600160a01b0390811691161461272d576040805162461bcd60e51b815260206004820181905260248201526000805160206149c6833981519152604482015290519081900360640190fd5b60128190556040805182815290517f84e881bf3fcef92f709a2a62150da178a998fbff128c017f3e846787a2f7f5f59181900360200190a150565b3390565b61277461474f565b601a54612789903063100b510360e11b613bad565b601954601b54919250611327916001600160a01b03909116908390613bd8565b60185460165460155460009283926001600160a01b039182169263268e5d1d928792309290821691166127da613daf565b604080516001600160e01b031960e089901b1681526001600160a01b03968716600482015294861660248601529285166044850152931660648301526084820192909252905160a48083019260209291908290030181600087803b15801561284157600080fd5b505af1158015612855573d6000803e3d6000fd5b505050506040513d602081101561286b57600080fd5b50516001600160a01b038481166000818152600c602052604080822080546001600160a01b0319168587169081179091556007548251620c1d9360e91b81526004810195909552602485019190915290519495509092169263183b26009260448084019391929182900301818387803b1580156128e757600080fd5b505af11580156128fb573d6000803e3d6000fd5b509295945050505050565b60408051602080825281830190925260609160208201818036833750505060208101929092525090565b600082820183811015612988576040805162461bcd60e51b815260206004820152601b60248201527a536166654d6174683a206164646974696f6e206f766572666c6f7760281b604482015290519081900360640190fd5b90505b92915050565b601754604080516370a0823160e01b815230600482015290516000926001600160a01b0316916370a08231916024808301926020929190829003018186803b1580156129dc57600080fd5b505afa1580156129f0573d6000803e3d6000fd5b505050506040513d6020811015612a0657600080fd5b50516017546040805163db006a7560e01b81526004810184905290519293506001600160a01b039091169163db006a75916024808201926020929091908290030181600087803b158015612a5957600080fd5b505af1158015612a6d573d6000803e3d6000fd5b505050506040513d6020811015612a8357600080fd5b5050602654604080516370a0823160e01b815230600482015290516000926001600160a01b0316916370a08231916024808301926020929190829003018186803b158015612ad057600080fd5b505afa158015612ae4573d6000803e3d6000fd5b505050506040513d6020811015612afa57600080fd5b50516026546040805163db006a7560e01b81526004810184905290519293506001600160a01b039091169163db006a759160248082019260009290919082900301818387803b158015612b4c57600080fd5b505af1158015612b60573d6000803e3d6000fd5b505050505050565b600082821115612bbf576040805162461bcd60e51b815260206004820152601e60248201527f536166654d6174683a207375627472616374696f6e206f766572666c6f770000604482015290519081900360640190fd5b50900390565b600082612bd45750600061298b565b82820282848281612be157fe5b04146129885760405162461bcd60e51b815260040180806020018281038252602181526020018061495b6021913960400191505060405180910390fd5b6000808080805b600b54811015612d4b57600b8181548110612c3c57fe5b60009182526020822001546040805163144e786960e11b815290516001600160a01b039092169263289cf0d29260048084019382900301818387803b158015612c8457600080fd5b505af1158015612c98573d6000803e3d6000fd5b505050506000600b8281548110612cab57fe5b60009182526020918290200154604080516332c3db0f60e11b815290516001600160a01b0390921692636587b61e92600480840193829003018186803b158015612cf457600080fd5b505afa158015612d08573d6000803e3d6000fd5b505050506040513d6020811015612d1e57600080fd5b505190506003811415612d32576001909301925b8060051415612d42576001909201915b50600101612c25565b5090925090509091565b600b546012546000916060918390612d8690612d77908463ffffffff612bc516565b600e549063ffffffff612b6816565b601154601254919250600091612daf91620f424091611e8b9162ffffff1663ffffffff612bc516565b90506000612dc882601254612b6890919063ffffffff16565b90506000612de085611e8b868c63ffffffff612bc516565b601154909150600090612e0990620f424090611e8b9085906301000000900462ffffff16612bc5565b90506000612e218b611e8b888563ffffffff612b6816565b90506060876001600160401b0381118015612e3b57600080fd5b50604051908082528060200260200182016040528015612e65578160200160208202803683370190505b50905060005b888110156130d5576000600b8281548110612e8257fe5b60009182526020918290200154604080516332c3db0f60e11b815290516001600160a01b0390921692636587b61e92600480840193829003018186803b158015612ecb57600080fd5b505afa158015612edf573d6000803e3d6000fd5b505050506040513d6020811015612ef557600080fd5b505190506003811415612fa957600b8281548110612f0f57fe5b600091825260208220015460408051637db9abaf60e01b8152600481018b90526024810188905290516001600160a01b0390921692637db9abaf9260448084019382900301818387803b158015612f6557600080fd5b505af1158015612f79573d6000803e3d6000fd5b50505050612f90848861293090919063ffffffff16565b838381518110612f9c57fe5b6020026020010181815250505b806004141561304757600b8281548110612fbf57fe5b600091825260208220015460408051637db9abaf60e01b8152600481018b90526024810184905290516001600160a01b0390921692637db9abaf9260448084019382900301818387803b15801561301557600080fd5b505af1158015613029573d6000803e3d6000fd5b505050508683838151811061303a57fe5b6020026020010181815250505b80600514156130cc57600b828154811061305d57fe5b600091825260208220015460408051637db9abaf60e01b8152600481018490526024810184905290516001600160a01b0390921692637db9abaf9260448084019382900301818387803b1580156130b357600080fd5b505af11580156130c7573d6000803e3d6000fd5b505050505b50600101612e6b565b506130e28b848a89613deb565b9c909b509950505050505050505050565b60005b600b5481101561132757600082828151811061310e57fe5b6020026020010151111561317357601654600b8054613173926001600160a01b031691908490811061313c57fe5b9060005260206000200160009054906101000a90046001600160a01b031684848151811061316657fe5b6020026020010151613f16565b6001016130f6565b601654600754613198916001600160a01b03908116911683613f16565b600754604080516307d4728360e51b81526004810184905290516001600160a01b039092169163fa8e50609160248082019260009290919082900301818387803b1580156131e557600080fd5b505af11580156131f9573d6000803e3d6000fd5b5050505050565b60005b600b5481101561094d576000600b828154811061321c57fe5b60009182526020918290200154604080516332c3db0f60e11b815290516001600160a01b0390921692636587b61e92600480840193829003018186803b15801561326557600080fd5b505afa158015613279573d6000803e3d6000fd5b505050506040513d602081101561328f57600080fd5b50519050600381141561339b57600754600b80546001600160a01b03909216916387bfe1889190859081106132c057fe5b600091825260209182902001546040805163b8f31a8160e01b815290516001600160a01b039092169263b8f31a8192600480840193829003018186803b15801561330957600080fd5b505afa15801561331d573d6000803e3d6000fd5b505050506040513d602081101561333357600080fd5b5051604080516001600160e01b031960e085901b1681526001600160a01b0390921660048301526001602483015251604480830192600092919082900301818387803b15801561338257600080fd5b505af1158015613396573d6000803e3d6000fd5b505050505b80600414156134a357600754600b80546001600160a01b039092169163ff5d8f639190859081106133c857fe5b600091825260209182902001546040805163b8f31a8160e01b815290516001600160a01b039092169263b8f31a8192600480840193829003018186803b15801561341157600080fd5b505afa158015613425573d6000803e3d6000fd5b505050506040513d602081101561343b57600080fd5b5051604080516001600160e01b031960e085901b1681526001600160a01b0390921660048301526001602483015251604480830192600092919082900301818387803b15801561348a57600080fd5b505af115801561349e573d6000803e3d6000fd5b505050505b80600514156135ab57600754600b80546001600160a01b039092169163ff5d8f639190859081106134d057fe5b600091825260209182902001546040805163b8f31a8160e01b815290516001600160a01b039092169263b8f31a8192600480840193829003018186803b15801561351957600080fd5b505afa15801561352d573d6000803e3d6000fd5b505050506040513d602081101561354357600080fd5b5051604080516001600160e01b031960e085901b1681526001600160a01b0390921660048301526002602483015251604480830192600092919082900301818387803b15801561359257600080fd5b505af11580156135a6573d6000803e3d6000fd5b505050505b50600101613203565b60408051600081526020810191829052516135d191600b916146ee565b506135da6111be565b6000600e556007805460ff60a81b191690556009805460ff19169055565b600080821161364b576040805162461bcd60e51b815260206004820152601a602482015279536166654d6174683a206469766973696f6e206279207a65726f60301b604482015290519081900360640190fd5b600082848161365657fe5b04949350505050565b60165460175461367c916001600160a01b03908116911683614079565b6017546040805163140e25ad60e31b81526004810184905290516001600160a01b039092169163a0712d68916024808201926020929091908290030181600087803b1580156136ca57600080fd5b505af11580156136de573d6000803e3d6000fd5b505050506040513d6020811015611ebf57600080fd5b601654602554613711916001600160a01b03908116911683614079565b6024805460165460408051636968703360e11b81526001600160a01b0392831660048201529384018590526000604485018190529051919092169263d2d0e06692606480830193919282900301818387803b1580156131e557600080fd5b6022546137879085906001600160a01b031684614079565b604080516002808252606080830184529260208301908036833701905050905084816000815181106137b557fe5b60200260200101906001600160a01b031690816001600160a01b03168152505083816001815181106137e357fe5b6001600160a01b039283166020918202929092018101919091526022546040516338ed173960e01b81526004810187815260006024830181905230606484018190526084840189905260a060448501908152885160a4860152885195909716966338ed1739968b9693958a9593948c94939260c49092019187810191028083838b5b8381101561387d578181015183820152602001613865565b505050509050019650505050505050600060405180830381600087803b1580156138a657600080fd5b505af11580156138ba573d6000803e3d6000fd5b505050506040513d6000823e601f3d908101601f1916820160405260208110156138e357600080fd5b8101908080516040519392919084600160201b82111561390257600080fd5b90830190602082018581111561391757600080fd5b82518660208202830111600160201b8211171561393357600080fd5b82525081516020918201928201910280838360005b83811015613960578181015183820152602001613948565b50505050905001604052505050505050505050565b60005b600a5481101561094d57600a818154811061398f57fe5b60009182526020918290200154604080516332c3db0f60e11b815290516001600160a01b0390921692636587b61e92600480840193829003018186803b1580156139d857600080fd5b505afa1580156139ec573d6000803e3d6000fd5b505050506040513d6020811015613a0257600080fd5b505160011415613ac757600a8181548110613a1957fe5b600091825260208220015460408051623c57d360e61b815290516001600160a01b0390921692630f15f4c09260048084019382900301818387803b158015613a6057600080fd5b505af1158015613a74573d6000803e3d6000fd5b50505050600b600a8281548110613a8757fe5b60009182526020808320909101548354600181018555938352912090910180546001600160a01b0319166001600160a01b03909216919091179055613b35565b600a8181548110613ad457fe5b600091825260208220015460408051633caccfcb60e11b815290516001600160a01b03909216926379599f969260048084019382900301818387803b158015613b1c57600080fd5b505af1158015613b30573d6000803e3d6000fd5b505050505b600101613978565b613b4561474f565b601d54613b5a9030630aab456960e01b613bad565b9050613b92604051806040016040528060058152602001641d5b9d1a5b60da1b8152506013544201836141dc9092919063ffffffff16565b601c54601e54611327916001600160a01b0316908390613bd8565b613bb561474f565b613bbd61474f565b613bcf8186868663ffffffff61420616565b95945050505050565b6005546040805130606090811b60208084019190915260348084018690528451808503909101815260549093018452825192810192909220908601939093526000838152600690915281812080546001600160a01b0319166001600160a01b038816179055905182917fb5e6e01e79f91267dc17b4e6314d5d4d03593d2ceee0fbb452b750bd70ea5af991a26003546001600160a01b0316634000aea08584613c8087614243565b6040518463ffffffff1660e01b815260040180846001600160a01b03166001600160a01b0316815260200183815260200180602001828103825283818151815260200191508051906020019080838360005b83811015613cea578181015183820152602001613cd2565b50505050905090810190601f168015613d175780820380516001836020036101000a031916815260200191505b50945050505050602060405180830381600087803b158015613d3857600080fd5b505af1158015613d4c573d6000803e3d6000fd5b505050506040513d6020811015613d6257600080fd5b5051613d9f5760405162461bcd60e51b815260040180806020018281038252602381526020018061485b6023913960400191505060405180910390fd5b6005805460010190559392505050565b6000613db9614383565b600f54600040186040516020018082815260200191505060405160208183030381529060405280519060200120905090565b600080600760009054906101000a90046001600160a01b03166001600160a01b031663e6fd604c6040518163ffffffff1660e01b815260040160206040518083038186803b158015613e3c57600080fd5b505afa158015613e50573d6000803e3d6000fd5b505050506040513d6020811015613e6657600080fd5b5051601254909150600090613e8290889063ffffffff612bc516565b90506000613ea2620f4240611e8b8962ffffff871663ffffffff612bc516565b90506000613eb6878a63ffffffff612b6816565b90506000613ee6620f4240611e8b62ffffff8816613eda8b8763ffffffff612bc516565b9063ffffffff612bc516565b9050613f0881613efc868663ffffffff61293016565b9063ffffffff61293016565b9a9950505050505050505050565b604080516001600160a01b038481166024830152604480830185905283518084039091018152606490920183526020820180516001600160e01b031663a9059cbb60e01b178152925182516000946060949389169392918291908083835b60208310613f935780518252601f199092019160209182019101613f74565b6001836020036101000a0380198251168184511680821785525050505050509050019150506000604051808303816000865af19150503d8060008114613ff5576040519150601f19603f3d011682016040523d82523d6000602084013e613ffa565b606091505b5091509150818015614028575080511580614028575080806020019051602081101561402557600080fd5b50515b6131f9576040805162461bcd60e51b815260206004820152601f60248201527f5472616e7366657248656c7065723a205452414e534645525f4641494c454400604482015290519081900360640190fd5b604080516001600160a01b038481166024830152604480830185905283518084039091018152606490920183526020820180516001600160e01b031663095ea7b360e01b178152925182516000946060949389169392918291908083835b602083106140f65780518252601f1990920191602091820191016140d7565b6001836020036101000a0380198251168184511680821785525050505050509050019150506000604051808303816000865af19150503d8060008114614158576040519150601f19603f3d011682016040523d82523d6000602084013e61415d565b606091505b509150915081801561418b57508051158061418b575080806020019051602081101561418857600080fd5b50515b6131f9576040805162461bcd60e51b815260206004820152601e60248201527f5472616e7366657248656c7065723a20415050524f56455f4641494c45440000604482015290519081900360640190fd5b60808301516141f1908363ffffffff6143ac16565b6080830151611ebf908263ffffffff6143c916565b61420e61474f565b61421e85608001516101006143d5565b50509183526001600160a01b031660208301526001600160e01b031916604082015290565b6060634042994660e01b6000808460000151856020015186604001518760600151600189608001516000015160405160240180896001600160a01b03166001600160a01b03168152602001888152602001878152602001866001600160a01b03166001600160a01b03168152602001856001600160e01b0319166001600160e01b031916815260200184815260200183815260200180602001828103825283818151815260200191508051906020019080838360005b838110156143115781810151838201526020016142f9565b50505050905090810190601f16801561433e5780820380516001836020036101000a031916815260200191505b5060408051601f198184030181529190526020810180516001600160e01b03166001600160e01b0319909d169c909c17909b5250989950505050505050505050919050565b600f80546040805160208082019390935281518082038401815290820190915280519101209055565b6143b9826003835161440f565b611ebf828263ffffffff61451816565b6113278260008361440f565b6143dd614784565b60208206156143f25760208206602003820191505b506020828101829052604080518085526000815290920101905290565b60178111614436576144308360e0600585901b16831763ffffffff61453216565b50611ebf565b60ff811161446c57614459836018611fe0600586901b161763ffffffff61453216565b506144308382600163ffffffff61454a16565b61ffff81116144a357614490836019611fe0600586901b161763ffffffff61453216565b506144308382600263ffffffff61454a16565b63ffffffff81116144dc576144c983601a611fe0600586901b161763ffffffff61453216565b506144308382600463ffffffff61454a16565b6001600160401b038111611ebf5761450583601b611fe0600586901b161763ffffffff61453216565b50611d8b8382600863ffffffff61454a16565b614520614784565b6129888384600001515184855161456b565b61453a614784565b6129888384600001515184614617565b614552614784565b614563848560000151518585614662565b949350505050565b614573614784565b825182111561458157600080fd5b846020015182850111156145ab576145ab856145a387602001518786016146c0565b6002026146d7565b6000808651805187602083010193508088870111156145ca5787860182525b505050602084015b602084106145f15780518252601f1990930192602091820191016145d2565b51815160001960208690036101000a019081169019919091161790525083949350505050565b61461f614784565b8360200151831061463b5761463b8485602001516002026146d7565b835180516020858301018481535080851415614658576001810182525b5093949350505050565b61466a614784565b8460200151848301111561468757614687858584016002026146d7565b60006001836101000a0390508551838682010185831982511617815250805184870111156146b55783860181525b509495945050505050565b6000818311156146d157508161298b565b50919050565b81516146e383836143d5565b50611d8b8382614518565b828054828255906000526020600020908101928215614743579160200282015b8281111561474357825182546001600160a01b0319166001600160a01b0390911617825560209092019160019091019061470e565b506115a692915061479e565b6040805160a08101825260008082526020820181905291810182905260608101919091526080810161477f614784565b905290565b604051806040016040528060608152602001600081525090565b61101191905b808211156115a65780546001600160a01b03191681556001016147a456fe436c617373726f6f6d3a206e6f7420656e6f756768204c696e6b20746f6b656e734f776e61626c653a206e6577206f776e657220697320746865207a65726f2061646472657373436c617373726f6f6d3a2073747564656e7420646f65736e2774206861766520656e6f7567682073636f7265436c617373726f6f6d3a2063616e2774206368616e6765206368616c6c656e6765206e6f77756e61626c6520746f207472616e73666572416e6443616c6c20746f206f7261636c65436c617373726f6f6d3a206e6f7420656e6f7567682044414920746f2070726f63656564436c617373726f6f6d3a2072656164207065726d697373696f6e2064656e696564436c617373726f6f6d3a2063616e2774206265206d6f72652074686174203130302520696e2070706d556e69766572736974793a20736574757020756e697377617020666972737400436c617373726f6f6d3a2073747564656e7473206c697374206e6f7420656d707479436c617373726f6f6d3a2070726f666573736f722063616e277420626520697473206f776e2073747564656e74536166654d6174683a206d756c7469706c69636174696f6e206f766572666c6f77436c617373726f6f6d3a20746f6f20736f6f6e20746f2066696e69736820636f75727365436c617373726f6f6d3a206170706c69636174696f6e7320617265207374696c6c206f70656e4f776e61626c653a2063616c6c6572206973206e6f7420746865206f776e6572436c617373726f6f6d3a20696e7665737420616c6c2062616c616e6365206265666f726520626567696e8be0079c531659141344cd1fd0a4f28419497f9722a3daafe3b4186f6b6457e0436c617373726f6f6d3a206170706c69636174696f6e732061726520616c726561647920636c6f736564436c617373726f6f6d3a2073747564656e74206973206e6f742072656769737465726564436c617373726f6f6d3a206170706c69636174696f6e732061726520616c7265616479206f70656e6564536f75726365206d75737420626520746865206f7261636c65206f662074686520726571756573747cc135e0cebb02c3480ae5d74d377283180a2601f8f644edf7987b009316c63aa2646970667358221220b816b77c9a9237aa711b4fce9e59bbf39667e2cdebd4e82acfd6ba3857098b8264736f6c63430006060033",
  "immutableReferences": {},
  "source": "pragma solidity ^0.6.6;\n\nimport \"@openzeppelin/contracts/math/SafeMath.sol\";\nimport \"@openzeppelin/contracts/access/Ownable.sol\";\nimport \"@openzeppelin/contracts/token/ERC20/IERC20.sol\";\nimport \"@chainlink/contracts/src/v0.6/ChainlinkClient.sol\";\nimport \"@chainlink/contracts/src/v0.6/interfaces/LinkTokenInterface.sol\";\nimport \"@uniswap/v2-periphery/contracts/interfaces/IUniswapV2Router01.sol\";\nimport \"@uniswap/lib/contracts/libraries/TransferHelper.sol\";\nimport \"@nomiclabs/buidler/console.sol\";\nimport \"./interface/Aave/aToken.sol\";\nimport \"./interface/Aave/ILendingPool.sol\";\nimport \"./interface/Aave/ILendingPoolAddressesProvider.sol\";\nimport \"./interface/IUniversity.sol\";\nimport \"./interface/IStudent.sol\";\nimport \"./interface/IClassroom.sol\";\nimport \"./interface/IStudentApplication.sol\";\nimport \"./interface/IClassroomChallenge.sol\";\nimport \"./interface/IStudentApplicationFactory.sol\";\nimport \"./MyUtils.sol\";\n\n\ncontract Classroom is Ownable, ChainlinkClient, IClassroom {\n    IUniversity public university;\n    bool public openForApplication;\n    bool public courseFinished;\n    bool public classroomActive;\n    uint256 public startDate;\n    bool _timestampAlarm;\n    address[] _studentApplications;\n    address[] _validStudentApplications;\n    mapping(address => address) _studentApplicationsLink;\n    uint256 _endDate;\n    uint256 _courseBalance;\n    bytes32 _seed;\n\n    //Classroom parameters\n    bytes32 public name;\n    uint24 public principalCut;\n    uint24 public poolCut;\n    int32 public minScore;\n    uint256 public override entryPrice;\n    uint256 public duration;\n    uint256 public compoundApplyPercentage;\n    address public challengeAddress;\n\n    //Tokens\n    address public daiToken;\n    address public cDAI;\n\n    //Factory\n    IStudentApplicationFactory _studentApplicationFactory;\n\n    //Chainlink config\n    address _oracleRandom;\n    bytes32 _requestIdRandom;\n    uint256 _oraclePaymentRandom;\n    address _oracleTimestamp;\n    bytes32 _requestIdTimestamp;\n    uint256 _oraclePaymentTimestamp;\n    address _linkToken;\n\n    //Uniswap Config\n    address _uniswapDAI;\n    address _uniswapLINK;\n    IUniswapV2Router01 _uniswapRouter;\n\n    //Aave Config\n    ILendingPoolAddressesProvider _aaveProvider;\n    ILendingPool _aaveLendingPool;\n    address _aaveLendingPoolCore;\n    address _aTokenDAI;\n\n    constructor(\n        bytes32 name_,\n        uint24 principalCut_,\n        uint24 poolCut_,\n        int32 minScore_,\n        uint256 entryPrice_,\n        uint256 duration_,\n        address payable universityAddress,\n        address challengeAddress_,\n        address daiAddress,\n        address compoundDAIAddress,\n        address studentApplicationFactoryAddress\n    ) public {\n        name = name_;\n        principalCut = principalCut_;\n        poolCut = poolCut_;\n        minScore = minScore_;\n        entryPrice = entryPrice_;\n        duration = duration_;\n        compoundApplyPercentage = 0.5 * 1e6;\n        university = IUniversity(universityAddress);\n        challengeAddress = challengeAddress_;\n        openForApplication = false;\n        classroomActive = false;\n        daiToken = daiAddress;\n        cDAI = compoundDAIAddress;\n        _studentApplicationFactory = IStudentApplicationFactory(\n            studentApplicationFactoryAddress\n        );\n    }\n\n    event LogOpenApplications();\n    event LogCloseApplications();\n    event LogCourseFinished();\n    event LogChangeChallenge(address);\n    event LogChangeName(bytes32);\n    event LogChangePrincipalCut(uint24);\n    event LogChangePoolCut(uint24);\n    event LogChangeMinScore(int32);\n    event LogChangeEntryPrice(uint256);\n    event LogChangeDuration(uint256);\n\n    // @dev \"Stack too deep\" error if done in the constructor\n    function configureOracles(\n        address oracleRandom,\n        bytes32 requestIdRandom,\n        uint256 oraclePaymentRandom,\n        address oracleTimestamp,\n        bytes32 requestIdTimestamp,\n        uint256 oraclePaymentTimestamp,\n        address linkToken,\n        bool _____REMOVE_BEFORE_LAUNCH______MOCK\n    ) public onlyOwner {\n        _oracleRandom = oracleRandom;\n        _requestIdRandom = requestIdRandom;\n        _oraclePaymentRandom = oraclePaymentRandom;\n        _oracleTimestamp = oracleTimestamp;\n        _requestIdTimestamp = requestIdTimestamp;\n        _oraclePaymentTimestamp = oraclePaymentTimestamp;\n        _linkToken = linkToken;\n        require(\n            LinkTokenInterface(_linkToken).balanceOf(address(this)) >=\n                _oraclePaymentRandom,\n            \"Classroom: not enough Link tokens\"\n        );\n        if (!_____REMOVE_BEFORE_LAUNCH______MOCK) _generateSeed();\n    }\n\n    function configureUniswap(\n        address uniswapDAI,\n        address uniswapLINK,\n        address uniswapRouter\n    ) public onlyOwner {\n        _uniswapDAI = uniswapDAI;\n        _uniswapLINK = uniswapLINK;\n        _uniswapRouter = IUniswapV2Router01(uniswapRouter);\n    }\n\n    function configureAave(address lendingPoolAddressesProvider)\n        public\n        onlyOwner\n    {\n        _aaveProvider = ILendingPoolAddressesProvider(\n            lendingPoolAddressesProvider\n        );\n        _aaveLendingPoolCore = _aaveProvider.getLendingPoolCore();\n        _aaveLendingPool = ILendingPool(_aaveProvider.getLendingPool());\n        _aTokenDAI = ILendingPoolCore(_aaveLendingPoolCore)\n            .getReserveATokenAddress(daiToken);\n    }\n\n    function transferOwnershipClassroom(address newOwner) public override {\n        transferOwnership(newOwner);\n    }\n\n    function changeName(bytes32 val) public onlyOwner {\n        name = val;\n        emit LogChangeName(name);\n    }\n\n    function changePrincipalCut(uint24 val) public onlyOwner {\n        principalCut = val;\n        emit LogChangePrincipalCut(principalCut);\n    }\n\n    function changePoolCut(uint24 val) public onlyOwner {\n        poolCut = val;\n        emit LogChangePoolCut(poolCut);\n    }\n\n    function changeMinScore(int32 val) public onlyOwner {\n        minScore = val;\n        emit LogChangeMinScore(minScore);\n    }\n\n    function changeEntryPrice(uint256 val) public onlyOwner {\n        entryPrice = val;\n        emit LogChangeEntryPrice(entryPrice);\n    }\n\n    function changeDuration(uint256 val) public onlyOwner {\n        duration = val;\n        emit LogChangeDuration(duration);\n    }\n\n    function changeCompoundApplyPercentage(uint256 ppm) public onlyOwner {\n        require(ppm <= 1e6, \"Classroom: can't be more that 100% in ppm\");\n        compoundApplyPercentage = ppm;\n    }\n\n    function changeChallenge(address addr) public onlyOwner {\n        require(isClassroomEmpty(), \"Classroom: can't change challenge now\");\n        challengeAddress = addr;\n        emit LogChangeChallenge(challengeAddress);\n    }\n\n    function viewMyApplication() public view override returns (address) {\n        return viewApplication(_msgSender());\n    }\n\n    function viewApplication(address addr) public view returns (address) {\n        require(\n            addr == _msgSender() || _msgSender() == owner(),\n            \"Classroom: read permission denied\"\n        );\n        return _studentApplicationsLink[addr];\n    }\n\n    function isClassroomEmpty() public view returns (bool) {\n        return\n            _studentApplications.length.add(_validStudentApplications.length) ==\n            0;\n    }\n\n    function isCourseOngoing() public view returns (bool) {\n        return _validStudentApplications.length > 0;\n    }\n\n    function openApplications() public onlyOwner {\n        require(_oracleRandom != address(0), \"Classroom: setup oracles first\");\n        require(_uniswapDAI != address(0), \"Classroom: setup Uniswap first\");\n        require(\n            _aaveLendingPoolCore != address(0),\n            \"Classroom: setup Aave first\"\n        );\n        require(\n            !openForApplication,\n            \"Classroom: applications are already opened\"\n        );\n        require(\n            _studentApplications.length == 0,\n            \"Classroom: students list not empty\"\n        );\n        require(\n            LinkTokenInterface(_linkToken).balanceOf(address(this)) >=\n                _oraclePaymentTimestamp,\n            \"Classroom: not enough Link tokens\"\n        );\n        openForApplication = true;\n        emit LogOpenApplications();\n    }\n\n    function closeApplications() public onlyOwner {\n        require(\n            openForApplication,\n            \"Classroom: applications are already closed\"\n        );\n        openForApplication = false;\n        emit LogCloseApplications();\n    }\n\n    //public onlyOwner allow the professor to apply money before and after closing applications\n    function applyDAI() public onlyOwner {\n        uint256 balance = IERC20(daiToken).balanceOf(address(this));\n        if (balance <= 0) return;\n        uint256 compoundApply = compoundApplyPercentage.mul(balance).div(1e6);\n        uint256 aaveApply = balance.sub(compoundApply);\n        applyFundsCompound(compoundApply);\n        applyFundsAave(aaveApply);\n    }\n\n    function applyFundsCompound(uint256 val) internal {\n        TransferHelper.safeApprove(address(daiToken), address(cDAI), val);\n        CERC20(cDAI).mint(val);\n    }\n\n    function applyFundsAave(uint256 val) internal {\n        TransferHelper.safeApprove(\n            address(daiToken),\n            _aaveLendingPoolCore,\n            val\n        );\n        _aaveLendingPool.deposit(address(daiToken), val, 0);\n    }\n\n    function studentApply() public override {\n        require(\n            IStudent(_msgSender()).ownerStudent() != owner(),\n            \"Classroom: professor can't be its own student\"\n        );\n        require(\n            university.studentIsRegistered(_msgSender()),\n            \"Classroom: student is not registered\"\n        );\n        IStudent applicant = IStudent(_msgSender());\n        require(\n            applicant.score() >= minScore,\n            \"Classroom: student doesn't have enough score\"\n        );\n        require(openForApplication, \"Classroom: applications closed\");\n        address application = _createStudentApplication(address(applicant));\n        _studentApplications.push(application);\n    }\n\n    function _createStudentApplication(address student)\n        internal\n        returns (address)\n    {\n        address newApplication = _studentApplicationFactory\n            .newStudentApplication(\n            student,\n            address(this),\n            address(daiToken),\n            challengeAddress,\n            generateNewSeed()\n        );\n        _studentApplicationsLink[student] = newApplication;\n        university.registerStudentApplication(student, newApplication);\n        return newApplication;\n    }\n\n    function generateNewSeed() internal returns (bytes32) {\n        _mutateSeed();\n        return keccak256(abi.encode(blockhash(0) ^ _seed));\n    }\n\n    function countNewApplications()\n        public\n        view\n        onlyOwner\n        returns (uint256 count)\n    {\n        for (uint256 i = 0; i < _studentApplications.length; i++) {\n            if (\n                IStudentApplication(_studentApplications[i])\n                    .applicationState() == 0\n            ) count++;\n        }\n    }\n\n    function countReadyApplications()\n        public\n        view\n        onlyOwner\n        returns (uint256 count)\n    {\n        for (uint256 i = 0; i < _studentApplications.length; i++) {\n            if (\n                IStudentApplication(_studentApplications[i])\n                    .applicationState() == 1\n            ) count++;\n        }\n    }\n\n    function beginCourse(bool _____REMOVE_BEFORE_LAUNCH______MOCK)\n        public\n        onlyOwner\n    {\n        require(!openForApplication, \"Classroom: applications are still open\");\n        require(!classroomActive, \"Classroom: course already open\");\n        require(\n            IERC20(daiToken).balanceOf(address(this)) == 0,\n            \"Classroom: invest all balance before begin\"\n        );\n        checkApplications();\n        _studentApplications = new address[](0);\n        if (_validStudentApplications.length == 0) return;\n        classroomActive = true;\n        startDate = block.timestamp;\n        if (_____REMOVE_BEFORE_LAUNCH______MOCK) _timestampAlarm = true;\n        else _setAlarm();\n    }\n\n    function checkApplications() internal {\n        for (uint256 i = 0; i < _studentApplications.length; i++) {\n            if (\n                IStudentApplication(_studentApplications[i])\n                    .applicationState() == 1\n            ) {\n                IStudentApplication(_studentApplications[i]).activate();\n                _validStudentApplications.push(_studentApplications[i]);\n            } else {\n                IStudentApplication(_studentApplications[i]).expire();\n            }\n        }\n    }\n\n    function finishCourse() public onlyOwner {\n        require(\n            _validStudentApplications.length > 0,\n            \"Classroom: no applications\"\n        );\n        require(_timestampAlarm, \"Classroom: too soon to finish course\");\n        _courseBalance = IERC20(daiToken).balanceOf(address(this));\n        _recoverInvestment();\n        courseFinished = true;\n        emit LogCourseFinished();\n    }\n\n    function courseBalance() public view onlyOwner() returns (uint256) {\n        return\n            courseFinished\n                ? IERC20(daiToken).balanceOf(address(this)).sub(_courseBalance)\n                : 0;\n    }\n\n    function _recoverInvestment() internal {\n        uint256 balanceCompound = CERC20(cDAI).balanceOf(address(this));\n        CERC20(cDAI).redeem(balanceCompound);\n        uint256 balanceAave = aToken(_aTokenDAI).balanceOf(address(this));\n        aToken(_aTokenDAI).redeem(balanceAave);\n    }\n\n    function processResults() public onlyOwner {\n        require(courseFinished, \"Classroom: course not finished\");\n        _courseBalance = courseBalance();\n        require(\n            _courseBalance >= entryPrice.mul(_validStudentApplications.length),\n            \"Classroom: not enough DAI to proceed\"\n        );\n        (uint256 successCount, uint256 emptyCount) = _startAnswerVerification();\n        (\n            uint256 universityCut,\n            uint256[] memory studentAllowances\n        ) = _accountValues(successCount, emptyCount);\n        _resolveStudentAllowances(studentAllowances);\n        _resolveUniversityCut(universityCut);\n        _updateStudentScores();\n        _clearClassroom();\n    }\n\n    function _startAnswerVerification() internal returns (uint256, uint256) {\n        uint256 successCount = 0;\n        uint256 emptyCount = 0;\n        for (uint256 i = 0; i < _validStudentApplications.length; i++) {\n            IStudentApplication(_validStudentApplications[i])\n                .registerFinalAnswer();\n            uint256 appState = IStudentApplication(_validStudentApplications[i])\n                .applicationState();\n            if (appState == 3) successCount++;\n            if (appState == 5) emptyCount++;\n        }\n        return (successCount, emptyCount);\n    }\n\n    function _accountValues(uint256 successCount, uint256 emptyCount)\n        internal\n        returns (uint256, uint256[] memory)\n    {\n        uint256 nStudents = _validStudentApplications.length;\n        uint256 returnsPool = _courseBalance.sub(entryPrice.mul(nStudents));\n        uint256 professorPaymentPerStudent = entryPrice.mul(principalCut).div(\n            1e6\n        );\n        uint256 studentPrincipalReturn = entryPrice.sub(\n            professorPaymentPerStudent\n        );\n        uint256 successPool = returnsPool.mul(successCount).div(nStudents);\n        uint256 professorTotalPoolSuccessShare = successPool.mul(poolCut).div(\n            1e6\n        );\n        uint256 successStudentPoolShare = returnsPool\n            .sub(professorTotalPoolSuccessShare)\n            .div(successCount);\n        uint256[] memory studentAllowances = new uint256[](nStudents);\n        for (uint256 i = 0; i < nStudents; i++) {\n            uint256 appState = IStudentApplication(_validStudentApplications[i])\n                .applicationState();\n            if (appState == 3) {\n                IStudentApplication(_validStudentApplications[i])\n                    .accountAllowance(\n                    studentPrincipalReturn,\n                    successStudentPoolShare\n                );\n                studentAllowances[i] = studentPrincipalReturn.add(\n                    successStudentPoolShare\n                );\n            }\n            if (appState == 4) {\n                IStudentApplication(_validStudentApplications[i])\n                    .accountAllowance(studentPrincipalReturn, 0);\n                studentAllowances[i] = studentPrincipalReturn;\n            }\n            if (appState == 5)\n                IStudentApplication(_validStudentApplications[i])\n                    .accountAllowance(0, 0);\n        }\n        \n        return (\n            _calculateUniversityShare(\n                emptyCount,\n                professorTotalPoolSuccessShare,\n                nStudents,\n                professorPaymentPerStudent\n            ),\n            studentAllowances\n        );\n    }\n\n    function _calculateUniversityShare(\n        uint256 emptyCount,\n        uint256 professorTotalPoolSuccessShare,\n        uint256 nStudents,\n        uint256 professorPaymentPerStudent\n    ) internal view returns (uint256) {\n        uint24 uCut = university.cut();\n        uint256 universityEmptyShare = emptyCount.mul(entryPrice);\n        uint256 universityPaymentShare = professorTotalPoolSuccessShare\n            .mul(uCut)\n            .div(1e6);\n        uint256 notEmptyCount = nStudents.sub(emptyCount);\n        uint256 universitySucessPoolShare = professorPaymentPerStudent\n            .mul(notEmptyCount)\n            .mul(uCut)\n            .div(1e6);\n        return\n            universityEmptyShare.add(universityPaymentShare).add(\n                universitySucessPoolShare\n            );\n    }\n\n    function _resolveStudentAllowances(uint256[] memory studentAllowances)\n        internal\n    {\n        for (uint256 i = 0; i < _validStudentApplications.length; i++) {\n            if (studentAllowances[i] > 0)\n                TransferHelper.safeTransfer(\n                    daiToken,\n                    address(_validStudentApplications[i]),\n                    studentAllowances[i]\n                );\n        }\n    }\n\n    function _resolveUniversityCut(uint256 universityCut) internal {\n        TransferHelper.safeTransfer(\n            address(daiToken),\n            address(university),\n            universityCut\n        );\n        university.accountRevenue(universityCut);\n    }\n\n    function _updateStudentScores() internal {\n        for (uint256 i = 0; i < _validStudentApplications.length; i++) {\n            uint256 appState = IStudentApplication(_validStudentApplications[i])\n                .applicationState();\n            if (appState == 3)\n                university.addStudentScore(\n                    IStudentApplication(_validStudentApplications[i])\n                        .studentAddress(),\n                    1\n                );\n            if (appState == 4)\n                university.subStudentScore(\n                    IStudentApplication(_validStudentApplications[i])\n                        .studentAddress(),\n                    1\n                );\n            if (appState == 5)\n                university.subStudentScore(\n                    IStudentApplication(_validStudentApplications[i])\n                        .studentAddress(),\n                    2\n                );\n        }\n    }\n\n    function _clearClassroom() internal {\n        _validStudentApplications = new address[](0);\n        withdrawAllResults();\n        _courseBalance = 0;\n        courseFinished = false;\n        _timestampAlarm = false;\n    }\n\n    function _mutateSeed() internal {\n        _seed = keccak256(abi.encode(_seed));\n    }\n\n    function withdrawAllResults() public onlyOwner {\n        IERC20(daiToken).transferFrom(\n            address(this),\n            owner(),\n            IERC20(daiToken).balanceOf(address(this))\n        );\n    }\n\n    function swapDAI_LINK(uint256 amount, uint256 deadline) public onlyOwner {\n        require(_uniswapLINK != address(0), \"University: setup uniswap first\");\n        swapBlind(_uniswapDAI, _uniswapLINK, amount, deadline);\n    }\n\n    function swapLINK_DAI(uint256 amount, uint256 deadline) public onlyOwner {\n        require(_uniswapLINK != address(0), \"University: setup uniswap first\");\n        swapBlind(_uniswapLINK, _uniswapDAI, amount, deadline);\n    }\n\n    function swapBlind(\n        address tokenA,\n        address tokenB,\n        uint256 amount,\n        uint256 deadline\n    ) internal {\n        TransferHelper.safeApprove(tokenA, address(_uniswapRouter), amount);\n        address[] memory path = new address[](2);\n        path[0] = tokenA;\n        path[1] = tokenB;\n        _uniswapRouter.swapExactTokensForTokens(\n            amount,\n            0,\n            path,\n            address(this),\n            deadline\n        );\n    }\n\n    function _generateSeed() internal {\n        Chainlink.Request memory req = buildChainlinkRequest(\n            _requestIdRandom,\n            address(this),\n            this.fulfillGenerateSeed.selector\n        );\n        sendChainlinkRequestTo(_oracleRandom, req, _oraclePaymentRandom);\n    }\n\n    function fulfillGenerateSeed(bytes32 _requestId, uint256 data)\n        public\n        recordChainlinkFulfillment(_requestId)\n    {\n        _seed = keccak256(MyUtils._toBytes(data));\n    }\n\n    function _setAlarm() internal {\n        Chainlink.Request memory req = buildChainlinkRequest(\n            _requestIdTimestamp,\n            address(this),\n            this.fulfillGetTimestamp.selector\n        );\n        req.addUint(\"until\", now + duration);\n        sendChainlinkRequestTo(_oracleTimestamp, req, _oraclePaymentTimestamp);\n    }\n\n    function fulfillGetTimestamp(bytes32 _requestId)\n        public\n        recordChainlinkFulfillment(_requestId)\n    {\n        _timestampAlarm = true;\n    }\n}\n",
  "sourcePath": "/mnt/e/Repositories/Uproot/contracts/Classroom.sol",
  "compiler": {
    "name": "solc",
    "version": "0.6.6+commit.6c089d02.Emscripten.clang"
  },
  "schemaVersion": "3.1.0",
  "updatedAt": "2020-05-16T17:05:34.154Z",
  "devdoc": {
    "methods": {
      "owner()": {
        "details": "Returns the address of the current owner."
      },
      "renounceOwnership()": {
        "details": "Leaves the contract without owner. It will not be possible to call `onlyOwner` functions anymore. Can only be called by the current owner.     * NOTE: Renouncing ownership will leave the contract without an owner, thereby removing any functionality that is only available to the owner."
      },
      "transferOwnership(address)": {
        "details": "Transfers ownership of the contract to a new account (`newOwner`). Can only be called by the current owner."
      }
    }
  },
  "userdoc": {
    "methods": {}
  }
}