{
  "contractName": "Classroom",
  "abi": [
    {
      "inputs": [
        {
          "internalType": "bytes32",
          "name": "name_",
          "type": "bytes32"
        },
        {
          "internalType": "uint24",
          "name": "principalCut_",
          "type": "uint24"
        },
        {
          "internalType": "uint24",
          "name": "poolCut_",
          "type": "uint24"
        },
        {
          "internalType": "int32",
          "name": "minScore_",
          "type": "int32"
        },
        {
          "internalType": "uint256",
          "name": "entryPrice_",
          "type": "uint256"
        },
        {
          "internalType": "uint256",
          "name": "duration_",
          "type": "uint256"
        },
        {
          "internalType": "address payable",
          "name": "universityAddress",
          "type": "address"
        },
        {
          "internalType": "address",
          "name": "challengeAddress_",
          "type": "address"
        },
        {
          "internalType": "address",
          "name": "daiAddress",
          "type": "address"
        },
        {
          "internalType": "address",
          "name": "compoundDAIAddress",
          "type": "address"
        },
        {
          "internalType": "address",
          "name": "studentApplicationFactoryAddress",
          "type": "address"
        }
      ],
      "stateMutability": "nonpayable",
      "type": "constructor"
    },
    {
      "anonymous": false,
      "inputs": [
        {
          "indexed": true,
          "internalType": "bytes32",
          "name": "id",
          "type": "bytes32"
        }
      ],
      "name": "ChainlinkCancelled",
      "type": "event"
    },
    {
      "anonymous": false,
      "inputs": [
        {
          "indexed": true,
          "internalType": "bytes32",
          "name": "id",
          "type": "bytes32"
        }
      ],
      "name": "ChainlinkFulfilled",
      "type": "event"
    },
    {
      "anonymous": false,
      "inputs": [
        {
          "indexed": true,
          "internalType": "bytes32",
          "name": "id",
          "type": "bytes32"
        }
      ],
      "name": "ChainlinkRequested",
      "type": "event"
    },
    {
      "anonymous": false,
      "inputs": [
        {
          "indexed": false,
          "internalType": "address",
          "name": "",
          "type": "address"
        }
      ],
      "name": "LogChangeChallenge",
      "type": "event"
    },
    {
      "anonymous": false,
      "inputs": [
        {
          "indexed": false,
          "internalType": "uint256",
          "name": "",
          "type": "uint256"
        }
      ],
      "name": "LogChangeDuration",
      "type": "event"
    },
    {
      "anonymous": false,
      "inputs": [
        {
          "indexed": false,
          "internalType": "uint256",
          "name": "",
          "type": "uint256"
        }
      ],
      "name": "LogChangeEntryPrice",
      "type": "event"
    },
    {
      "anonymous": false,
      "inputs": [
        {
          "indexed": false,
          "internalType": "int32",
          "name": "",
          "type": "int32"
        }
      ],
      "name": "LogChangeMinScore",
      "type": "event"
    },
    {
      "anonymous": false,
      "inputs": [
        {
          "indexed": false,
          "internalType": "bytes32",
          "name": "",
          "type": "bytes32"
        }
      ],
      "name": "LogChangeName",
      "type": "event"
    },
    {
      "anonymous": false,
      "inputs": [
        {
          "indexed": false,
          "internalType": "uint24",
          "name": "",
          "type": "uint24"
        }
      ],
      "name": "LogChangePoolCut",
      "type": "event"
    },
    {
      "anonymous": false,
      "inputs": [
        {
          "indexed": false,
          "internalType": "uint24",
          "name": "",
          "type": "uint24"
        }
      ],
      "name": "LogChangePrincipalCut",
      "type": "event"
    },
    {
      "anonymous": false,
      "inputs": [],
      "name": "LogCloseApplications",
      "type": "event"
    },
    {
      "anonymous": false,
      "inputs": [],
      "name": "LogCourseFinished",
      "type": "event"
    },
    {
      "anonymous": false,
      "inputs": [],
      "name": "LogOpenApplications",
      "type": "event"
    },
    {
      "anonymous": false,
      "inputs": [
        {
          "indexed": true,
          "internalType": "address",
          "name": "previousOwner",
          "type": "address"
        },
        {
          "indexed": true,
          "internalType": "address",
          "name": "newOwner",
          "type": "address"
        }
      ],
      "name": "OwnershipTransferred",
      "type": "event"
    },
    {
      "inputs": [],
      "name": "aTokenDAI",
      "outputs": [
        {
          "internalType": "address",
          "name": "",
          "type": "address"
        }
      ],
      "stateMutability": "view",
      "type": "function"
    },
    {
      "inputs": [],
      "name": "aaveLendingPool",
      "outputs": [
        {
          "internalType": "contract ILendingPool",
          "name": "",
          "type": "address"
        }
      ],
      "stateMutability": "view",
      "type": "function"
    },
    {
      "inputs": [],
      "name": "aaveLendingPoolCore",
      "outputs": [
        {
          "internalType": "address",
          "name": "",
          "type": "address"
        }
      ],
      "stateMutability": "view",
      "type": "function"
    },
    {
      "inputs": [],
      "name": "aaveProvider",
      "outputs": [
        {
          "internalType": "contract ILendingPoolAddressesProvider",
          "name": "",
          "type": "address"
        }
      ],
      "stateMutability": "view",
      "type": "function"
    },
    {
      "inputs": [],
      "name": "cDAI",
      "outputs": [
        {
          "internalType": "address",
          "name": "",
          "type": "address"
        }
      ],
      "stateMutability": "view",
      "type": "function"
    },
    {
      "inputs": [],
      "name": "challengeAddress",
      "outputs": [
        {
          "internalType": "address",
          "name": "",
          "type": "address"
        }
      ],
      "stateMutability": "view",
      "type": "function"
    },
    {
      "inputs": [],
      "name": "classroomActive",
      "outputs": [
        {
          "internalType": "bool",
          "name": "",
          "type": "bool"
        }
      ],
      "stateMutability": "view",
      "type": "function"
    },
    {
      "inputs": [],
      "name": "compoundApplyPercentage",
      "outputs": [
        {
          "internalType": "uint256",
          "name": "",
          "type": "uint256"
        }
      ],
      "stateMutability": "view",
      "type": "function"
    },
    {
      "inputs": [],
      "name": "courseFinished",
      "outputs": [
        {
          "internalType": "bool",
          "name": "",
          "type": "bool"
        }
      ],
      "stateMutability": "view",
      "type": "function"
    },
    {
      "inputs": [],
      "name": "daiToken",
      "outputs": [
        {
          "internalType": "address",
          "name": "",
          "type": "address"
        }
      ],
      "stateMutability": "view",
      "type": "function"
    },
    {
      "inputs": [],
      "name": "duration",
      "outputs": [
        {
          "internalType": "uint256",
          "name": "",
          "type": "uint256"
        }
      ],
      "stateMutability": "view",
      "type": "function"
    },
    {
      "inputs": [],
      "name": "entryPrice",
      "outputs": [
        {
          "internalType": "uint256",
          "name": "",
          "type": "uint256"
        }
      ],
      "stateMutability": "view",
      "type": "function"
    },
    {
      "inputs": [],
      "name": "linkToken",
      "outputs": [
        {
          "internalType": "address",
          "name": "",
          "type": "address"
        }
      ],
      "stateMutability": "view",
      "type": "function"
    },
    {
      "inputs": [],
      "name": "minScore",
      "outputs": [
        {
          "internalType": "int32",
          "name": "",
          "type": "int32"
        }
      ],
      "stateMutability": "view",
      "type": "function"
    },
    {
      "inputs": [],
      "name": "name",
      "outputs": [
        {
          "internalType": "bytes32",
          "name": "",
          "type": "bytes32"
        }
      ],
      "stateMutability": "view",
      "type": "function"
    },
    {
      "inputs": [],
      "name": "openForApplication",
      "outputs": [
        {
          "internalType": "bool",
          "name": "",
          "type": "bool"
        }
      ],
      "stateMutability": "view",
      "type": "function"
    },
    {
      "inputs": [],
      "name": "oraclePaymentRandom",
      "outputs": [
        {
          "internalType": "uint256",
          "name": "",
          "type": "uint256"
        }
      ],
      "stateMutability": "view",
      "type": "function"
    },
    {
      "inputs": [],
      "name": "oraclePaymentTimestamp",
      "outputs": [
        {
          "internalType": "uint256",
          "name": "",
          "type": "uint256"
        }
      ],
      "stateMutability": "view",
      "type": "function"
    },
    {
      "inputs": [],
      "name": "oracleRandom",
      "outputs": [
        {
          "internalType": "address",
          "name": "",
          "type": "address"
        }
      ],
      "stateMutability": "view",
      "type": "function"
    },
    {
      "inputs": [],
      "name": "oracleTimestamp",
      "outputs": [
        {
          "internalType": "address",
          "name": "",
          "type": "address"
        }
      ],
      "stateMutability": "view",
      "type": "function"
    },
    {
      "inputs": [],
      "name": "owner",
      "outputs": [
        {
          "internalType": "address",
          "name": "",
          "type": "address"
        }
      ],
      "stateMutability": "view",
      "type": "function"
    },
    {
      "inputs": [],
      "name": "poolCut",
      "outputs": [
        {
          "internalType": "uint24",
          "name": "",
          "type": "uint24"
        }
      ],
      "stateMutability": "view",
      "type": "function"
    },
    {
      "inputs": [],
      "name": "principalCut",
      "outputs": [
        {
          "internalType": "uint24",
          "name": "",
          "type": "uint24"
        }
      ],
      "stateMutability": "view",
      "type": "function"
    },
    {
      "inputs": [],
      "name": "renounceOwnership",
      "outputs": [],
      "stateMutability": "nonpayable",
      "type": "function"
    },
    {
      "inputs": [],
      "name": "requestIdRandom",
      "outputs": [
        {
          "internalType": "bytes32",
          "name": "",
          "type": "bytes32"
        }
      ],
      "stateMutability": "view",
      "type": "function"
    },
    {
      "inputs": [],
      "name": "requestIdTimestamp",
      "outputs": [
        {
          "internalType": "bytes32",
          "name": "",
          "type": "bytes32"
        }
      ],
      "stateMutability": "view",
      "type": "function"
    },
    {
      "inputs": [],
      "name": "startDate",
      "outputs": [
        {
          "internalType": "uint256",
          "name": "",
          "type": "uint256"
        }
      ],
      "stateMutability": "view",
      "type": "function"
    },
    {
      "inputs": [],
      "name": "studentApplicationFactory",
      "outputs": [
        {
          "internalType": "contract IStudentApplicationFactory",
          "name": "",
          "type": "address"
        }
      ],
      "stateMutability": "view",
      "type": "function"
    },
    {
      "inputs": [
        {
          "internalType": "address",
          "name": "newOwner",
          "type": "address"
        }
      ],
      "name": "transferOwnership",
      "outputs": [],
      "stateMutability": "nonpayable",
      "type": "function"
    },
    {
      "inputs": [],
      "name": "uniswapDAI",
      "outputs": [
        {
          "internalType": "address",
          "name": "",
          "type": "address"
        }
      ],
      "stateMutability": "view",
      "type": "function"
    },
    {
      "inputs": [],
      "name": "uniswapLINK",
      "outputs": [
        {
          "internalType": "address",
          "name": "",
          "type": "address"
        }
      ],
      "stateMutability": "view",
      "type": "function"
    },
    {
      "inputs": [],
      "name": "uniswapRouter",
      "outputs": [
        {
          "internalType": "contract IUniswapV2Router01",
          "name": "",
          "type": "address"
        }
      ],
      "stateMutability": "view",
      "type": "function"
    },
    {
      "inputs": [],
      "name": "university",
      "outputs": [
        {
          "internalType": "contract IUniversity",
          "name": "",
          "type": "address"
        }
      ],
      "stateMutability": "view",
      "type": "function"
    },
    {
      "inputs": [
        {
          "internalType": "address",
          "name": "oracleRandom_",
          "type": "address"
        },
        {
          "internalType": "bytes32",
          "name": "requestIdRandom_",
          "type": "bytes32"
        },
        {
          "internalType": "uint256",
          "name": "oraclePaymentRandom_",
          "type": "uint256"
        },
        {
          "internalType": "address",
          "name": "oracleTimestamp_",
          "type": "address"
        },
        {
          "internalType": "bytes32",
          "name": "requestIdTimestamp_",
          "type": "bytes32"
        },
        {
          "internalType": "uint256",
          "name": "oraclePaymentTimestamp_",
          "type": "uint256"
        },
        {
          "internalType": "address",
          "name": "linkToken_",
          "type": "address"
        },
        {
          "internalType": "bool",
          "name": "generateSeed",
          "type": "bool"
        }
      ],
      "name": "configureOracles",
      "outputs": [],
      "stateMutability": "nonpayable",
      "type": "function"
    },
    {
      "inputs": [
        {
          "internalType": "address",
          "name": "uniswapDAI_",
          "type": "address"
        },
        {
          "internalType": "address",
          "name": "uniswapLINK_",
          "type": "address"
        },
        {
          "internalType": "address",
          "name": "uniswapRouter_",
          "type": "address"
        }
      ],
      "name": "configureUniswap",
      "outputs": [],
      "stateMutability": "nonpayable",
      "type": "function"
    },
    {
      "inputs": [
        {
          "internalType": "address",
          "name": "lendingPoolAddressesProvider",
          "type": "address"
        }
      ],
      "name": "configureAave",
      "outputs": [],
      "stateMutability": "nonpayable",
      "type": "function"
    },
    {
      "inputs": [
        {
          "internalType": "address",
          "name": "newOwner",
          "type": "address"
        }
      ],
      "name": "transferOwnershipClassroom",
      "outputs": [],
      "stateMutability": "nonpayable",
      "type": "function"
    },
    {
      "inputs": [],
      "name": "ownerClassroom",
      "outputs": [
        {
          "internalType": "address",
          "name": "",
          "type": "address"
        }
      ],
      "stateMutability": "view",
      "type": "function"
    },
    {
      "inputs": [
        {
          "internalType": "bytes32",
          "name": "val",
          "type": "bytes32"
        }
      ],
      "name": "changeName",
      "outputs": [],
      "stateMutability": "nonpayable",
      "type": "function"
    },
    {
      "inputs": [
        {
          "internalType": "uint24",
          "name": "val",
          "type": "uint24"
        }
      ],
      "name": "changePrincipalCut",
      "outputs": [],
      "stateMutability": "nonpayable",
      "type": "function"
    },
    {
      "inputs": [
        {
          "internalType": "uint24",
          "name": "val",
          "type": "uint24"
        }
      ],
      "name": "changePoolCut",
      "outputs": [],
      "stateMutability": "nonpayable",
      "type": "function"
    },
    {
      "inputs": [
        {
          "internalType": "int32",
          "name": "val",
          "type": "int32"
        }
      ],
      "name": "changeMinScore",
      "outputs": [],
      "stateMutability": "nonpayable",
      "type": "function"
    },
    {
      "inputs": [
        {
          "internalType": "uint256",
          "name": "val",
          "type": "uint256"
        }
      ],
      "name": "changeEntryPrice",
      "outputs": [],
      "stateMutability": "nonpayable",
      "type": "function"
    },
    {
      "inputs": [
        {
          "internalType": "uint256",
          "name": "val",
          "type": "uint256"
        }
      ],
      "name": "changeDuration",
      "outputs": [],
      "stateMutability": "nonpayable",
      "type": "function"
    },
    {
      "inputs": [
        {
          "internalType": "uint256",
          "name": "ppm",
          "type": "uint256"
        }
      ],
      "name": "changeCompoundApplyPercentage",
      "outputs": [],
      "stateMutability": "nonpayable",
      "type": "function"
    },
    {
      "inputs": [
        {
          "internalType": "address",
          "name": "addr",
          "type": "address"
        }
      ],
      "name": "changeChallenge",
      "outputs": [],
      "stateMutability": "nonpayable",
      "type": "function"
    },
    {
      "inputs": [],
      "name": "viewMyApplication",
      "outputs": [
        {
          "internalType": "address",
          "name": "",
          "type": "address"
        }
      ],
      "stateMutability": "view",
      "type": "function"
    },
    {
      "inputs": [
        {
          "internalType": "address",
          "name": "addr",
          "type": "address"
        }
      ],
      "name": "viewApplication",
      "outputs": [
        {
          "internalType": "address",
          "name": "",
          "type": "address"
        }
      ],
      "stateMutability": "view",
      "type": "function"
    },
    {
      "inputs": [],
      "name": "isClassroomEmpty",
      "outputs": [
        {
          "internalType": "bool",
          "name": "",
          "type": "bool"
        }
      ],
      "stateMutability": "view",
      "type": "function"
    },
    {
      "inputs": [],
      "name": "isCourseOngoing",
      "outputs": [
        {
          "internalType": "bool",
          "name": "",
          "type": "bool"
        }
      ],
      "stateMutability": "view",
      "type": "function"
    },
    {
      "inputs": [],
      "name": "openApplications",
      "outputs": [],
      "stateMutability": "nonpayable",
      "type": "function"
    },
    {
      "inputs": [],
      "name": "closeApplications",
      "outputs": [],
      "stateMutability": "nonpayable",
      "type": "function"
    },
    {
      "inputs": [],
      "name": "applyDAI",
      "outputs": [],
      "stateMutability": "nonpayable",
      "type": "function"
    },
    {
      "inputs": [],
      "name": "studentApply",
      "outputs": [],
      "stateMutability": "nonpayable",
      "type": "function"
    },
    {
      "inputs": [],
      "name": "countNewApplications",
      "outputs": [
        {
          "internalType": "uint256",
          "name": "count",
          "type": "uint256"
        }
      ],
      "stateMutability": "view",
      "type": "function"
    },
    {
      "inputs": [],
      "name": "countReadyApplications",
      "outputs": [
        {
          "internalType": "uint256",
          "name": "count",
          "type": "uint256"
        }
      ],
      "stateMutability": "view",
      "type": "function"
    },
    {
      "inputs": [
        {
          "internalType": "bool",
          "name": "setAlatm",
          "type": "bool"
        }
      ],
      "name": "beginCourse",
      "outputs": [],
      "stateMutability": "nonpayable",
      "type": "function"
    },
    {
      "inputs": [],
      "name": "finishCourse",
      "outputs": [],
      "stateMutability": "nonpayable",
      "type": "function"
    },
    {
      "inputs": [],
      "name": "courseBalance",
      "outputs": [
        {
          "internalType": "uint256",
          "name": "",
          "type": "uint256"
        }
      ],
      "stateMutability": "view",
      "type": "function"
    },
    {
      "inputs": [],
      "name": "processResults",
      "outputs": [],
      "stateMutability": "nonpayable",
      "type": "function"
    },
    {
      "inputs": [],
      "name": "withdrawAllResults",
      "outputs": [],
      "stateMutability": "nonpayable",
      "type": "function"
    },
    {
      "inputs": [
        {
          "internalType": "uint256",
          "name": "amount",
          "type": "uint256"
        },
        {
          "internalType": "uint256",
          "name": "deadline",
          "type": "uint256"
        }
      ],
      "name": "swapDAI_LINK",
      "outputs": [],
      "stateMutability": "nonpayable",
      "type": "function"
    },
    {
      "inputs": [
        {
          "internalType": "uint256",
          "name": "amount",
          "type": "uint256"
        },
        {
          "internalType": "uint256",
          "name": "deadline",
          "type": "uint256"
        }
      ],
      "name": "swapLINK_DAI",
      "outputs": [],
      "stateMutability": "nonpayable",
      "type": "function"
    },
    {
      "inputs": [
        {
          "internalType": "bytes32",
          "name": "_requestId",
          "type": "bytes32"
        },
        {
          "internalType": "uint256",
          "name": "data",
          "type": "uint256"
        }
      ],
      "name": "fulfillGenerateSeed",
      "outputs": [],
      "stateMutability": "nonpayable",
      "type": "function"
    },
    {
      "inputs": [
        {
          "internalType": "bytes32",
          "name": "_requestId",
          "type": "bytes32"
        }
      ],
      "name": "fulfillGetTimestamp",
      "outputs": [],
      "stateMutability": "nonpayable",
      "type": "function"
    }
  ],
  "bytecode": "0x608060405260016005553480156200001657600080fd5b5060405162004fc538038062004fc583398181016040526101608110156200003d57600080fd5b508051602082015160408301516060840151608085015160a086015160c087015160e08801516101008901516101208a0151610140909a01519899979896979596949593949293919290919060006200009e6001600160e01b03620001c316565b600080546001600160a01b0319166001600160a01b0383169081178255604051929350917f8be0079c531659141344cd1fd0a4f28419497f9722a3daafe3b4186f6b6457e0908290a35060109a909a556011805462ffffff191662ffffff9a8b161765ffffff0000001916630100000099909a16989098029890981763ffffffff60301b1916660100000000000063ffffffff60039890980b9790971696909602959095179095556012929092556013556207a12060145560078054601580546001600160a01b03199081166001600160a01b03978816179091559081169285169290921762ff00ff60a01b191690556016805482169284169290921790915560178054821693831693909317909255601880549092169216919091179055620001c7565b3390565b614dee80620001d76000396000f3fe608060405234801561001057600080fd5b50600436106102fa5760003560e01c806384952ba41161019a57806384952ba4146105a65780638646bcec146105ae57806386c79e0b146105b657806387429a9c146105be578063898855ed146105c65780638b45fb67146105e35780638da5cb5b146105eb578063952f1c14146105f35780639e6e0b5f146105fb578063a2281a8514610603578063a3f73c2d1461060b578063a46268a814610631578063aa055a4014610639578063aaaed76f14610641578063ada02e1914610649578063adf45ef214610651578063ae12894e14610659578063b5365c3c14610661578063b56bc55314610669578063b594f08614610671578063be22f5461461068e578063bf96d53f14610696578063c2d0b3031461069e578063c799f5e2146106c1578063cdb3bff9146106e7578063d8e5ea58146106ef578063e804f164146106f7578063e9d337b814610719578063f0607e4314610721578063f2fde38b14610744578063f745adfc1461076a578063fa245bf014610772578063fe7da9e914610791576102fa565b80624f8411146102ff57806306fdde031461031e5780630aab4569146103385780630b78cb0e146103555780630b97bc86146103715780630fb5a6b41461037957806313c2bedc14610381578063149c6d10146103a257806318b9533b146103f95780631b9dbc601461041f5780632016a2061461042757806329d188791461044a5780632ed537731461046e57806331960027146104765780633bcd97d41461047e5780633ca5583314610486578063431a16ef1461048e5780634c5e7893146104965780634ffb660c1461049e57806357970e93146104be5780635aa33a2d146104c65780635b8f96de146104ce578063604d3943146105065780636ae88cc2146105265780636e8055a71461052e5780636f6941b914610536578063715018a61461053e578063735de9f71461054657806376eada911461054e5780637c0260cb146105745780638155e9771461057c578063834a320c1461059e575b600080fd5b61031c6004803603602081101561031557600080fd5b50356107ae565b005b61032661084d565b60408051918252519081900360200190f35b61031c6004803603602081101561034e57600080fd5b5035610853565b61035d6108ec565b604080519115158252519081900360200190f35b6103266108fc565b610326610902565b610389610908565b60408051600392830b90920b8252519081900360200190f35b61031c60048036036101008110156103b957600080fd5b506001600160a01b038135811691602081013591604082013591606081013582169160808201359160a08101359160c0820135169060e001351515610918565b61031c6004803603602081101561040f57600080fd5b50356001600160a01b0316610aa4565b61031c610ab0565b61031c6004803603604081101561043d57600080fd5b5080359060200135610dba565b610452610e5b565b604080516001600160a01b039092168252519081900360200190f35b610326610e6a565b61031c610e70565b61035d61115a565b61045261117a565b61031c611189565b61031c611333565b61031c600480360360208110156104b457600080fd5b503560030b6114a0565b610452611562565b61035d611571565b61031c600480360360608110156104e457600080fd5b506001600160a01b038135811691602081013582169160409091013516611581565b61050e611618565b6040805162ffffff9092168252519081900360200190f35b61032661162a565b61045261172e565b610452611745565b61031c611754565b6104526117e4565b6104526004803603602081101561056457600080fd5b50356001600160a01b03166117f3565b61031c611895565b61031c6004803603602081101561059257600080fd5b503562ffffff1661196d565b610326611a17565b610452611b11565b61050e611b20565b610326611b2b565b610452611b31565b61031c600480360360208110156105dc57600080fd5b5035611b40565b610452611bd3565b610452611bd9565b610326611be8565b610326611ce4565b610452611cea565b61031c6004803603602081101561062157600080fd5b50356001600160a01b0316611cf9565b61035d611dee565b61031c611dfe565b610452611f5d565b61031c611f6c565b61035d6120a0565b6104526120a8565b6104526120b7565b6104526120c6565b61031c6004803603602081101561068757600080fd5b50356120d5565b610452612168565b610326612177565b61031c600480360360408110156106b457600080fd5b508035906020013561217d565b61031c600480360360208110156106d757600080fd5b50356001600160a01b031661223e565b610452612453565b610326612462565b61031c6004803603602081101561070d57600080fd5b503562ffffff16612468565b610452612520565b61031c6004803603604081101561073757600080fd5b508035906020013561252f565b61031c6004803603602081101561075a57600080fd5b50356001600160a01b03166125f0565b6103266126d6565b61031c6004803603602081101561078857600080fd5b503515156126dc565b61031c600480360360208110156107a757600080fd5b50356128fb565b6107b661298e565b6000546001600160a01b03908116911614610806576040805162461bcd60e51b81526020600482018190526024820152600080516020614c8f833981519152604482015290519081900360640190fd5b620f42408111156108485760405162461bcd60e51b8152600401808060200182810382526029815260200180614b8c6029913960400191505060405180910390fd5b601455565b60105481565b60008181526006602052604090205481906001600160a01b031633146108aa5760405162461bcd60e51b8152600401808060200182810382526028815260200180614d716028913960400191505060405180910390fd5b60008181526006602052604080822080546001600160a01b0319169055518291600080516020614d9983398151915291a250506009805460ff19166001179055565b600754600160a01b900460ff1681565b60085481565b60135481565b601154600160301b900460030b81565b61092061298e565b6000546001600160a01b03908116911614610970576040805162461bcd60e51b81526020600482018190526024820152600080516020614c8f833981519152604482015290519081900360640190fd5b601980546001600160a01b03808b166001600160a01b031992831617909255601a899055601b889055601c8054888416908316179055601d869055601e859055601f8054928516929091169190911790556109c9612992565b601b54601f54604080516370a0823160e01b815230600482015290516001600160a01b03909216916370a0823191602480820192602092909190829003018186803b158015610a1757600080fd5b505afa158015610a2b573d6000803e3d6000fd5b505050506040513d6020811015610a4157600080fd5b50511015610a805760405162461bcd60e51b8152600401808060200182810382526021815260200180614a8c6021913960400191505060405180910390fd5b8015610a9357610a8e612a13565b610a9a565b600040600f555b5050505050505050565b610aad816125f0565b50565b610ab8611bd9565b6001600160a01b0316610ac961298e565b6001600160a01b0316637a6c8b536040518163ffffffff1660e01b815260040160206040518083038186803b158015610b0157600080fd5b505afa158015610b15573d6000803e3d6000fd5b505050506040513d6020811015610b2b57600080fd5b50516001600160a01b03161415610b735760405162461bcd60e51b815260040180806020018281038252602d815260200180614bf7602d913960400191505060405180910390fd5b6007546001600160a01b03166316ded1ce610b8c61298e565b6040518263ffffffff1660e01b815260040180826001600160a01b03166001600160a01b0316815260200191505060206040518083038186803b158015610bd257600080fd5b505afa158015610be6573d6000803e3d6000fd5b505050506040513d6020811015610bfc57600080fd5b5051610c395760405162461bcd60e51b8152600401808060200182810382526024815260200180614d236024913960400191505060405180910390fd5b6000610c4361298e565b9050601160069054906101000a900460030b60030b816001600160a01b031663efedc6696040518163ffffffff1660e01b815260040160206040518083038186803b158015610c9157600080fd5b505afa158015610ca5573d6000803e3d6000fd5b505050506040513d6020811015610cbb57600080fd5b505160030b1215610cfd5760405162461bcd60e51b815260040180806020018281038252602c815260200180614ad3602c913960400191505060405180910390fd5b600754600160a01b900460ff16610d5b576040805162461bcd60e51b815260206004820152601e60248201527f436c617373726f6f6d3a206170706c69636174696f6e7320636c6f7365640000604482015290519081900360640190fd5b6000610d6682612a50565b600a80546001810182556000919091527fc65a7bb8d6351c1cf70c95a316cc6a92839c986682d98bc35f958f4883f9d2a80180546001600160a01b0319166001600160a01b03929092169190911790555050565b60008281526006602052604090205482906001600160a01b03163314610e115760405162461bcd60e51b8152600401808060200182810382526028815260200180614d716028913960400191505060405180910390fd5b60008181526006602052604080822080546001600160a01b0319169055518291600080516020614d9983398151915291a2610e4b82612bad565b8051602090910120600f55505050565b6015546001600160a01b031681565b601b5481565b610e7861298e565b6000546001600160a01b03908116911614610ec8576040805162461bcd60e51b81526020600482018190526024820152600080516020614c8f833981519152604482015290519081900360640190fd5b6019546001600160a01b0316610f25576040805162461bcd60e51b815260206004820152601e60248201527f436c617373726f6f6d3a207365747570206f7261636c65732066697273740000604482015290519081900360640190fd5b6020546001600160a01b0316610f82576040805162461bcd60e51b815260206004820152601e60248201527f436c617373726f6f6d3a20736574757020556e69737761702066697273740000604482015290519081900360640190fd5b6025546001600160a01b0316610fdd576040805162461bcd60e51b815260206004820152601b60248201527a10db185cdcdc9bdbdb4e881cd95d1d5c0810585d9948199a5c9cdd602a1b604482015290519081900360640190fd5b600754600160a01b900460ff16156110265760405162461bcd60e51b815260040180806020018281038252602a815260200180614d47602a913960400191505060405180910390fd5b600a54156110655760405162461bcd60e51b8152600401808060200182810382526022815260200180614bd56022913960400191505060405180910390fd5b601e54601f54604080516370a0823160e01b815230600482015290516001600160a01b03909216916370a0823191602480820192602092909190829003018186803b1580156110b357600080fd5b505afa1580156110c7573d6000803e3d6000fd5b505050506040513d60208110156110dd57600080fd5b5051101561111c5760405162461bcd60e51b8152600401808060200182810382526021815260200180614a8c6021913960400191505060405180910390fd5b6007805460ff60a01b1916600160a01b1790556040517fa5d188159e8a15dc503f9fde55e9da14c8b2ca589603e2567481c0ef90b7972090600090a1565b600b54600a54600091611173919063ffffffff612bd716565b1590505b90565b6025546001600160a01b031681565b61119161298e565b6000546001600160a01b039081169116146111e1576040805162461bcd60e51b81526020600482018190526024820152600080516020614c8f833981519152604482015290519081900360640190fd5b600b54611232576040805162461bcd60e51b815260206004820152601a602482015279436c617373726f6f6d3a206e6f206170706c69636174696f6e7360301b604482015290519081900360640190fd5b60095460ff166112735760405162461bcd60e51b8152600401808060200182810382526024815260200180614c456024913960400191505060405180910390fd5b601654604080516370a0823160e01b815230600482015290516001600160a01b03909216916370a0823191602480820192602092909190829003018186803b1580156112be57600080fd5b505afa1580156112d2573d6000803e3d6000fd5b505050506040513d60208110156112e857600080fd5b5051600e556112f5612c38565b6007805460ff60a81b1916600160a81b1790556040517fadfcc9bbc47b33710f82544eeff8bd0f98c6f78f190e915bd81f4a9dacfdc77790600090a1565b61133b61298e565b6000546001600160a01b0390811691161461138b576040805162461bcd60e51b81526020600482018190526024820152600080516020614c8f833981519152604482015290519081900360640190fd5b6016546001600160a01b03166323b872dd306113a5611bd9565b601654604080516370a0823160e01b815230600482015290516001600160a01b03909216916370a0823191602480820192602092909190829003018186803b1580156113f057600080fd5b505afa158015611404573d6000803e3d6000fd5b505050506040513d602081101561141a57600080fd5b5051604080516001600160e01b031960e087901b1681526001600160a01b0394851660048201529290931660248301526044820152905160648083019260209291908290030181600087803b15801561147257600080fd5b505af1158015611486573d6000803e3d6000fd5b505050506040513d602081101561149c57600080fd5b5050565b6114a861298e565b6000546001600160a01b039081169116146114f8576040805162461bcd60e51b81526020600482018190526024820152600080516020614c8f833981519152604482015290519081900360640190fd5b60118054600383810b63ffffffff16600160301b90810263ffffffff60301b1990931692909217928390556040805192909304810b810b900b815290517f258981eaba02423980e2973ff2ae3bbbba3cc807a5b73faf8f0b068dd7b2af649181900360200190a150565b601f546001600160a01b031681565b600754600160a81b900460ff1681565b61158961298e565b6000546001600160a01b039081169116146115d9576040805162461bcd60e51b81526020600482018190526024820152600080516020614c8f833981519152604482015290519081900360640190fd5b602080546001600160a01b039485166001600160a01b031991821617909155602180549385169382169390931790925560228054919093169116179055565b6011546301000000900462ffffff1681565b600061163461298e565b6000546001600160a01b03908116911614611684576040805162461bcd60e51b81526020600482018190526024820152600080516020614c8f833981519152604482015290519081900360640190fd5b60005b600a5481101561172a57600a818154811061169e57fe5b60009182526020918290200154604080516332c3db0f60e11b815290516001600160a01b0390921692636587b61e92600480840193829003018186803b1580156116e757600080fd5b505afa1580156116fb573d6000803e3d6000fd5b505050506040513d602081101561171157600080fd5b505160011415611722576001909101905b600101611687565b5090565b600061174061173b61298e565b6117f3565b905090565b6017546001600160a01b031681565b61175c61298e565b6000546001600160a01b039081169116146117ac576040805162461bcd60e51b81526020600482018190526024820152600080516020614c8f833981519152604482015290519081900360640190fd5b600080546040516001600160a01b0390911690600080516020614cd9833981519152908390a3600080546001600160a01b0319169055565b6022546001600160a01b031681565b60006117fd61298e565b6001600160a01b0316826001600160a01b0316148061183b575061181f611bd9565b6001600160a01b031661183061298e565b6001600160a01b0316145b6118765760405162461bcd60e51b8152600401808060200182810382526021815260200180614b6b6021913960400191505060405180910390fd5b506001600160a01b039081166000908152600c60205260409020541690565b61189d61298e565b6000546001600160a01b039081169116146118ed576040805162461bcd60e51b81526020600482018190526024820152600080516020614c8f833981519152604482015290519081900360640190fd5b600754600160a01b900460ff166119355760405162461bcd60e51b815260040180806020018281038252602a815260200180614cf9602a913960400191505060405180910390fd5b6007805460ff60a01b191690556040517f747a4734f50e3ae237b3afeeac30a2d2c7cb965cc122fb9680050fd533b7c0f590600090a1565b61197561298e565b6000546001600160a01b039081169116146119c5576040805162461bcd60e51b81526020600482018190526024820152600080516020614c8f833981519152604482015290519081900360640190fd5b6011805462ffffff191662ffffff838116919091179182905560408051929091168252517fa24cdd22388a51f932026d20d3229c1d693385bb9ac176742e0e40b4586c2447916020908290030190a150565b6000611a2161298e565b6000546001600160a01b03908116911614611a71576040805162461bcd60e51b81526020600482018190526024820152600080516020614c8f833981519152604482015290519081900360640190fd5b600754600160a81b900460ff16611a89576000611740565b600e54601654604080516370a0823160e01b8152306004820152905161174093926001600160a01b0316916370a08231916024808301926020929190829003018186803b158015611ad957600080fd5b505afa158015611aed573d6000803e3d6000fd5b505050506040513d6020811015611b0357600080fd5b50519063ffffffff612e0f16565b6020546001600160a01b031681565b60115462ffffff1681565b601a5481565b6023546001600160a01b031681565b611b4861298e565b6000546001600160a01b03908116911614611b98576040805162461bcd60e51b81526020600482018190526024820152600080516020614c8f833981519152604482015290519081900360640190fd5b60108190556040805182815290517f9f8929be552430dd6434c446d106c34954b2040ca8c4dbf42a39323dd6cda3ca9181900360200190a150565b60006117405b6000546001600160a01b031690565b6000611bf261298e565b6000546001600160a01b03908116911614611c42576040805162461bcd60e51b81526020600482018190526024820152600080516020614c8f833981519152604482015290519081900360640190fd5b60005b600a5481101561172a57600a8181548110611c5c57fe5b60009182526020918290200154604080516332c3db0f60e11b815290516001600160a01b0390921692636587b61e92600480840193829003018186803b158015611ca557600080fd5b505afa158015611cb9573d6000803e3d6000fd5b505050506040513d6020811015611ccf57600080fd5b5051611cdc576001909101905b600101611c45565b60145481565b6019546001600160a01b031681565b611d0161298e565b6000546001600160a01b03908116911614611d51576040805162461bcd60e51b81526020600482018190526024820152600080516020614c8f833981519152604482015290519081900360640190fd5b611d5961115a565b611d945760405162461bcd60e51b8152600401808060200182810382526025815260200180614aff6025913960400191505060405180910390fd5b601580546001600160a01b0319166001600160a01b03838116919091179182905560408051929091168252517fdc58b28697ffd1bd5879b16631587874caec982b482d7ed05df69a5302f6e018916020908290030190a150565b600754600160b01b900460ff1681565b611e0661298e565b6000546001600160a01b03908116911614611e56576040805162461bcd60e51b81526020600482018190526024820152600080516020614c8f833981519152604482015290519081900360640190fd5b600754600160a81b900460ff16611eb4576040805162461bcd60e51b815260206004820152601e60248201527f436c617373726f6f6d3a20636f75727365206e6f742066696e69736865640000604482015290519081900360640190fd5b611ebc611a17565b600e55600b54601254611ed49163ffffffff612e6c16565b600e541015611f145760405162461bcd60e51b8152600401808060200182810382526024815260200180614b476024913960400191505060405180910390fd5b600080611f1f612ec5565b9150915060006060611f318484612ffc565b91509150611f3e8161339a565b611f4782613422565b611f4f6134a7565b611f5761385b565b50505050565b6018546001600160a01b031681565b611f7461298e565b6000546001600160a01b03908116911614611fc4576040805162461bcd60e51b81526020600482018190526024820152600080516020614c8f833981519152604482015290519081900360640190fd5b601654604080516370a0823160e01b815230600482015290516000926001600160a01b0316916370a08231916024808301926020929190829003018186803b15801561200f57600080fd5b505afa158015612023573d6000803e3d6000fd5b505050506040513d602081101561203957600080fd5b5051905080612048575061209e565b6000612072620f424061206684601454612e6c90919063ffffffff16565b9063ffffffff61389f16565b90506000612086838363ffffffff612e0f16565b905061209182613906565b61209a8161399b565b5050505b565b600b54151590565b6007546001600160a01b031681565b6026546001600160a01b031681565b6021546001600160a01b031681565b6120dd61298e565b6000546001600160a01b0390811691161461212d576040805162461bcd60e51b81526020600482018190526024820152600080516020614c8f833981519152604482015290519081900360640190fd5b60138190556040805182815290517fa67f34afb53d068e81607cde52dc74c58cbf6a05eac699e5543b97d25e3ca5cb9181900360200190a150565b6016546001600160a01b031681565b601e5481565b61218561298e565b6000546001600160a01b039081169116146121d5576040805162461bcd60e51b81526020600482018190526024820152600080516020614c8f833981519152604482015290519081900360640190fd5b6021546001600160a01b0316612220576040805162461bcd60e51b815260206004820152601f6024820152600080516020614bb5833981519152604482015290519081900360640190fd5b60205460215461149c916001600160a01b0390811691168484613a16565b61224661298e565b6000546001600160a01b03908116911614612296576040805162461bcd60e51b81526020600482018190526024820152600080516020614c8f833981519152604482015290519081900360640190fd5b602380546001600160a01b0319166001600160a01b0383811691909117918290556040805163076b7fbb60e51b81529051929091169163ed6ff76091600480820192602092909190829003018186803b1580156122f257600080fd5b505afa158015612306573d6000803e3d6000fd5b505050506040513d602081101561231c57600080fd5b5051602580546001600160a01b0319166001600160a01b0392831617905560235460408051630261bf8b60e01b815290519190921691630261bf8b916004808301926020929190829003018186803b15801561237757600080fd5b505afa15801561238b573d6000803e3d6000fd5b505050506040513d60208110156123a157600080fd5b5051602480546001600160a01b0319166001600160a01b0392831617815560255460165460408051631a59df7760e11b815291851660048301525191909316926334b3beee9281810192602092909190829003018186803b15801561240557600080fd5b505afa158015612419573d6000803e3d6000fd5b505050506040513d602081101561242f57600080fd5b5051602680546001600160a01b0319166001600160a01b0390921691909117905550565b601c546001600160a01b031681565b601d5481565b61247061298e565b6000546001600160a01b039081169116146124c0576040805162461bcd60e51b81526020600482018190526024820152600080516020614c8f833981519152604482015290519081900360640190fd5b6011805462ffffff808416630100000090810265ffffff000000199093169290921792839055604080519290930416815290517f9d9f9ef51b12eb719684b7a2e09fc2f7e916cb0e229aecf5658ce6326dfeb1c59181900360200190a150565b6024546001600160a01b031681565b61253761298e565b6000546001600160a01b03908116911614612587576040805162461bcd60e51b81526020600482018190526024820152600080516020614c8f833981519152604482015290519081900360640190fd5b6021546001600160a01b03166125d2576040805162461bcd60e51b815260206004820152601f6024820152600080516020614bb5833981519152604482015290519081900360640190fd5b60215460205461149c916001600160a01b0390811691168484613a16565b6125f861298e565b6000546001600160a01b03908116911614612648576040805162461bcd60e51b81526020600482018190526024820152600080516020614c8f833981519152604482015290519081900360640190fd5b6001600160a01b03811661268d5760405162461bcd60e51b8152600401808060200182810382526026815260200180614aad6026913960400191505060405180910390fd5b600080546040516001600160a01b0380851693921691600080516020614cd983398151915291a3600080546001600160a01b0319166001600160a01b0392909216919091179055565b60125481565b6126e461298e565b6000546001600160a01b03908116911614612734576040805162461bcd60e51b81526020600482018190526024820152600080516020614c8f833981519152604482015290519081900360640190fd5b600754600160a01b900460ff161561277d5760405162461bcd60e51b8152600401808060200182810382526026815260200180614c696026913960400191505060405180910390fd5b600754600160b01b900460ff16156127dc576040805162461bcd60e51b815260206004820152601e60248201527f436c617373726f6f6d3a20636f7572736520616c7265616479206f70656e0000604482015290519081900360640190fd5b601654604080516370a0823160e01b815230600482015290516001600160a01b03909216916370a0823191602480820192602092909190829003018186803b15801561282757600080fd5b505afa15801561283b573d6000803e3d6000fd5b505050506040513d602081101561285157600080fd5b50511561288f5760405162461bcd60e51b815260040180806020018281038252602a815260200180614caf602a913960400191505060405180910390fd5b612897613c1c565b60408051600081526020810191829052516128b491600a916149b7565b50600b546128c157610aad565b6007805460ff60b01b1916600160b01b1790554260085580156128eb576128e6613de4565b610aad565b6009805460ff1916600117905550565b61290361298e565b6000546001600160a01b03908116911614612953576040805162461bcd60e51b81526020600482018190526024820152600080516020614c8f833981519152604482015290519081900360640190fd5b60128190556040805182815290517f84e881bf3fcef92f709a2a62150da178a998fbff128c017f3e846787a2f7f5f59181900360200190a150565b3390565b61209e73c89bd4e1632d3a43cb03aaad5262cbe4038bc5716001600160a01b03166338cc48316040518163ffffffff1660e01b815260040160206040518083038186803b1580156129e257600080fd5b505afa1580156129f6573d6000803e3d6000fd5b505050506040513d6020811015612a0c57600080fd5b5051613e54565b612a1b614a18565b601a54612a30903063100b510360e11b613e76565b601954601b5491925061149c916001600160a01b03909116908390613ea1565b60185460165460155460009283926001600160a01b039182169263268e5d1d92879230929082169116612a81614078565b604080516001600160e01b031960e089901b1681526001600160a01b03968716600482015294861660248601529285166044850152931660648301526084820192909252905160a48083019260209291908290030181600087803b158015612ae857600080fd5b505af1158015612afc573d6000803e3d6000fd5b505050506040513d6020811015612b1257600080fd5b50516001600160a01b038481166000818152600c602052604080822080546001600160a01b0319168587169081179091556007548251620c1d9360e91b81526004810195909552602485019190915290519495509092169263183b26009260448084019391929182900301818387803b158015612b8e57600080fd5b505af1158015612ba2573d6000803e3d6000fd5b509295945050505050565b60408051602080825281830190925260609160208201818036833750505060208101929092525090565b600082820183811015612c2f576040805162461bcd60e51b815260206004820152601b60248201527a536166654d6174683a206164646974696f6e206f766572666c6f7760281b604482015290519081900360640190fd5b90505b92915050565b601754604080516370a0823160e01b815230600482015290516000926001600160a01b0316916370a08231916024808301926020929190829003018186803b158015612c8357600080fd5b505afa158015612c97573d6000803e3d6000fd5b505050506040513d6020811015612cad57600080fd5b50516017546040805163db006a7560e01b81526004810184905290519293506001600160a01b039091169163db006a75916024808201926020929091908290030181600087803b158015612d0057600080fd5b505af1158015612d14573d6000803e3d6000fd5b505050506040513d6020811015612d2a57600080fd5b5050602654604080516370a0823160e01b815230600482015290516000926001600160a01b0316916370a08231916024808301926020929190829003018186803b158015612d7757600080fd5b505afa158015612d8b573d6000803e3d6000fd5b505050506040513d6020811015612da157600080fd5b50516026546040805163db006a7560e01b81526004810184905290519293506001600160a01b039091169163db006a759160248082019260009290919082900301818387803b158015612df357600080fd5b505af1158015612e07573d6000803e3d6000fd5b505050505050565b600082821115612e66576040805162461bcd60e51b815260206004820152601e60248201527f536166654d6174683a207375627472616374696f6e206f766572666c6f770000604482015290519081900360640190fd5b50900390565b600082612e7b57506000612c32565b82820282848281612e8857fe5b0414612c2f5760405162461bcd60e51b8152600401808060200182810382526021815260200180614c246021913960400191505060405180910390fd5b6000808080805b600b54811015612ff257600b8181548110612ee357fe5b60009182526020822001546040805163144e786960e11b815290516001600160a01b039092169263289cf0d29260048084019382900301818387803b158015612f2b57600080fd5b505af1158015612f3f573d6000803e3d6000fd5b505050506000600b8281548110612f5257fe5b60009182526020918290200154604080516332c3db0f60e11b815290516001600160a01b0390921692636587b61e92600480840193829003018186803b158015612f9b57600080fd5b505afa158015612faf573d6000803e3d6000fd5b505050506040513d6020811015612fc557600080fd5b505190506003811415612fd9576001909301925b8060051415612fe9576001909201915b50600101612ecc565b5090925090509091565b600b54601254600091606091839061302d9061301e908463ffffffff612e6c16565b600e549063ffffffff612e0f16565b60115460125491925060009161305691620f4240916120669162ffffff1663ffffffff612e6c16565b9050600061306f82601254612e0f90919063ffffffff16565b9050600061308785612066868c63ffffffff612e6c16565b6011549091506000906130b090620f4240906120669085906301000000900462ffffff16612e6c565b905060006130c88b612066888563ffffffff612e0f16565b90506060876001600160401b03811180156130e257600080fd5b5060405190808252806020026020018201604052801561310c578160200160208202803683370190505b50905060005b8881101561337c576000600b828154811061312957fe5b60009182526020918290200154604080516332c3db0f60e11b815290516001600160a01b0390921692636587b61e92600480840193829003018186803b15801561317257600080fd5b505afa158015613186573d6000803e3d6000fd5b505050506040513d602081101561319c57600080fd5b50519050600381141561325057600b82815481106131b657fe5b600091825260208220015460408051637db9abaf60e01b8152600481018b90526024810188905290516001600160a01b0390921692637db9abaf9260448084019382900301818387803b15801561320c57600080fd5b505af1158015613220573d6000803e3d6000fd5b505050506132378488612bd790919063ffffffff16565b83838151811061324357fe5b6020026020010181815250505b80600414156132ee57600b828154811061326657fe5b600091825260208220015460408051637db9abaf60e01b8152600481018b90526024810184905290516001600160a01b0390921692637db9abaf9260448084019382900301818387803b1580156132bc57600080fd5b505af11580156132d0573d6000803e3d6000fd5b50505050868383815181106132e157fe5b6020026020010181815250505b806005141561337357600b828154811061330457fe5b600091825260208220015460408051637db9abaf60e01b8152600481018490526024810184905290516001600160a01b0390921692637db9abaf9260448084019382900301818387803b15801561335a57600080fd5b505af115801561336e573d6000803e3d6000fd5b505050505b50600101613112565b506133898b848a896140b4565b9c909b509950505050505050505050565b60005b600b5481101561149c5760008282815181106133b557fe5b6020026020010151111561341a57601654600b805461341a926001600160a01b03169190849081106133e357fe5b9060005260206000200160009054906101000a90046001600160a01b031684848151811061340d57fe5b60200260200101516141df565b60010161339d565b60165460075461343f916001600160a01b039081169116836141df565b600754604080516307d4728360e51b81526004810184905290516001600160a01b039092169163fa8e50609160248082019260009290919082900301818387803b15801561348c57600080fd5b505af11580156134a0573d6000803e3d6000fd5b5050505050565b60005b600b54811015610aad576000600b82815481106134c357fe5b60009182526020918290200154604080516332c3db0f60e11b815290516001600160a01b0390921692636587b61e92600480840193829003018186803b15801561350c57600080fd5b505afa158015613520573d6000803e3d6000fd5b505050506040513d602081101561353657600080fd5b50519050600381141561364257600754600b80546001600160a01b03909216916387bfe18891908590811061356757fe5b600091825260209182902001546040805163b8f31a8160e01b815290516001600160a01b039092169263b8f31a8192600480840193829003018186803b1580156135b057600080fd5b505afa1580156135c4573d6000803e3d6000fd5b505050506040513d60208110156135da57600080fd5b5051604080516001600160e01b031960e085901b1681526001600160a01b0390921660048301526001602483015251604480830192600092919082900301818387803b15801561362957600080fd5b505af115801561363d573d6000803e3d6000fd5b505050505b806004141561374a57600754600b80546001600160a01b039092169163ff5d8f6391908590811061366f57fe5b600091825260209182902001546040805163b8f31a8160e01b815290516001600160a01b039092169263b8f31a8192600480840193829003018186803b1580156136b857600080fd5b505afa1580156136cc573d6000803e3d6000fd5b505050506040513d60208110156136e257600080fd5b5051604080516001600160e01b031960e085901b1681526001600160a01b0390921660048301526001602483015251604480830192600092919082900301818387803b15801561373157600080fd5b505af1158015613745573d6000803e3d6000fd5b505050505b806005141561385257600754600b80546001600160a01b039092169163ff5d8f6391908590811061377757fe5b600091825260209182902001546040805163b8f31a8160e01b815290516001600160a01b039092169263b8f31a8192600480840193829003018186803b1580156137c057600080fd5b505afa1580156137d4573d6000803e3d6000fd5b505050506040513d60208110156137ea57600080fd5b5051604080516001600160e01b031960e085901b1681526001600160a01b0390921660048301526002602483015251604480830192600092919082900301818387803b15801561383957600080fd5b505af115801561384d573d6000803e3d6000fd5b505050505b506001016134aa565b604080516000815260208101918290525161387891600b916149b7565b50613881611333565b6000600e556007805460ff60a81b191690556009805460ff19169055565b60008082116138f2576040805162461bcd60e51b815260206004820152601a602482015279536166654d6174683a206469766973696f6e206279207a65726f60301b604482015290519081900360640190fd5b60008284816138fd57fe5b04949350505050565b601654601754613923916001600160a01b03908116911683614342565b6017546040805163140e25ad60e31b81526004810184905290516001600160a01b039092169163a0712d68916024808201926020929091908290030181600087803b15801561397157600080fd5b505af1158015613985573d6000803e3d6000fd5b505050506040513d602081101561209a57600080fd5b6016546025546139b8916001600160a01b03908116911683614342565b6024805460165460408051636968703360e11b81526001600160a01b0392831660048201529384018590526000604485018190529051919092169263d2d0e06692606480830193919282900301818387803b15801561348c57600080fd5b602254613a2e9085906001600160a01b031684614342565b60408051600280825260608083018452926020830190803683370190505090508481600081518110613a5c57fe5b60200260200101906001600160a01b031690816001600160a01b0316815250508381600181518110613a8a57fe5b6001600160a01b039283166020918202929092018101919091526022546040516338ed173960e01b81526004810187815260006024830181905230606484018190526084840189905260a060448501908152885160a4860152885195909716966338ed1739968b9693958a9593948c94939260c49092019187810191028083838b5b83811015613b24578181015183820152602001613b0c565b505050509050019650505050505050600060405180830381600087803b158015613b4d57600080fd5b505af1158015613b61573d6000803e3d6000fd5b505050506040513d6000823e601f3d908101601f191682016040526020811015613b8a57600080fd5b8101908080516040519392919084600160201b821115613ba957600080fd5b908301906020820185811115613bbe57600080fd5b82518660208202830111600160201b82111715613bda57600080fd5b82525081516020918201928201910280838360005b83811015613c07578181015183820152602001613bef565b50505050905001604052505050505050505050565b60005b600a54811015610aad57600a8181548110613c3657fe5b60009182526020918290200154604080516332c3db0f60e11b815290516001600160a01b0390921692636587b61e92600480840193829003018186803b158015613c7f57600080fd5b505afa158015613c93573d6000803e3d6000fd5b505050506040513d6020811015613ca957600080fd5b505160011415613d6e57600a8181548110613cc057fe5b600091825260208220015460408051623c57d360e61b815290516001600160a01b0390921692630f15f4c09260048084019382900301818387803b158015613d0757600080fd5b505af1158015613d1b573d6000803e3d6000fd5b50505050600b600a8281548110613d2e57fe5b60009182526020808320909101548354600181018555938352912090910180546001600160a01b0319166001600160a01b03909216919091179055613ddc565b600a8181548110613d7b57fe5b600091825260208220015460408051633caccfcb60e11b815290516001600160a01b03909216926379599f969260048084019382900301818387803b158015613dc357600080fd5b505af1158015613dd7573d6000803e3d6000fd5b505050505b600101613c1f565b613dec614a18565b601d54613e019030630aab456960e01b613e76565b9050613e39604051806040016040528060058152602001641d5b9d1a5b60da1b8152506013544201836144a59092919063ffffffff16565b601c54601e5461149c916001600160a01b0316908390613ea1565b600380546001600160a01b0319166001600160a01b0392909216919091179055565b613e7e614a18565b613e86614a18565b613e988186868663ffffffff6144cf16565b95945050505050565b6005546040805130606090811b60208084019190915260348084018690528451808503909101815260549093018452825192810192909220908601939093526000838152600690915281812080546001600160a01b0319166001600160a01b038816179055905182917fb5e6e01e79f91267dc17b4e6314d5d4d03593d2ceee0fbb452b750bd70ea5af991a26003546001600160a01b0316634000aea08584613f498761450c565b6040518463ffffffff1660e01b815260040180846001600160a01b03166001600160a01b0316815260200183815260200180602001828103825283818151815260200191508051906020019080838360005b83811015613fb3578181015183820152602001613f9b565b50505050905090810190601f168015613fe05780820380516001836020036101000a031916815260200191505b50945050505050602060405180830381600087803b15801561400157600080fd5b505af1158015614015573d6000803e3d6000fd5b505050506040513d602081101561402b57600080fd5b50516140685760405162461bcd60e51b8152600401808060200182810382526023815260200180614b246023913960400191505060405180910390fd5b6005805460010190559392505050565b600061408261464c565b600f54600040186040516020018082815260200191505060405160208183030381529060405280519060200120905090565b600080600760009054906101000a90046001600160a01b03166001600160a01b031663e6fd604c6040518163ffffffff1660e01b815260040160206040518083038186803b15801561410557600080fd5b505afa158015614119573d6000803e3d6000fd5b505050506040513d602081101561412f57600080fd5b505160125490915060009061414b90889063ffffffff612e6c16565b9050600061416b620f42406120668962ffffff871663ffffffff612e6c16565b9050600061417f878a63ffffffff612e0f16565b905060006141af620f424061206662ffffff88166141a38b8763ffffffff612e6c16565b9063ffffffff612e6c16565b90506141d1816141c5868663ffffffff612bd716565b9063ffffffff612bd716565b9a9950505050505050505050565b604080516001600160a01b038481166024830152604480830185905283518084039091018152606490920183526020820180516001600160e01b031663a9059cbb60e01b178152925182516000946060949389169392918291908083835b6020831061425c5780518252601f19909201916020918201910161423d565b6001836020036101000a0380198251168184511680821785525050505050509050019150506000604051808303816000865af19150503d80600081146142be576040519150601f19603f3d011682016040523d82523d6000602084013e6142c3565b606091505b50915091508180156142f15750805115806142f157508080602001905160208110156142ee57600080fd5b50515b6134a0576040805162461bcd60e51b815260206004820152601f60248201527f5472616e7366657248656c7065723a205452414e534645525f4641494c454400604482015290519081900360640190fd5b604080516001600160a01b038481166024830152604480830185905283518084039091018152606490920183526020820180516001600160e01b031663095ea7b360e01b178152925182516000946060949389169392918291908083835b602083106143bf5780518252601f1990920191602091820191016143a0565b6001836020036101000a0380198251168184511680821785525050505050509050019150506000604051808303816000865af19150503d8060008114614421576040519150601f19603f3d011682016040523d82523d6000602084013e614426565b606091505b5091509150818015614454575080511580614454575080806020019051602081101561445157600080fd5b50515b6134a0576040805162461bcd60e51b815260206004820152601e60248201527f5472616e7366657248656c7065723a20415050524f56455f4641494c45440000604482015290519081900360640190fd5b60808301516144ba908363ffffffff61467516565b608083015161209a908263ffffffff61469216565b6144d7614a18565b6144e7856080015161010061469e565b50509183526001600160a01b031660208301526001600160e01b031916604082015290565b6060634042994660e01b6000808460000151856020015186604001518760600151600189608001516000015160405160240180896001600160a01b03166001600160a01b03168152602001888152602001878152602001866001600160a01b03166001600160a01b03168152602001856001600160e01b0319166001600160e01b031916815260200184815260200183815260200180602001828103825283818151815260200191508051906020019080838360005b838110156145da5781810151838201526020016145c2565b50505050905090810190601f1680156146075780820380516001836020036101000a031916815260200191505b5060408051601f198184030181529190526020810180516001600160e01b03166001600160e01b0319909d169c909c17909b5250989950505050505050505050919050565b600f80546040805160208082019390935281518082038401815290820190915280519101209055565b61468282600383516146d8565b61209a828263ffffffff6147e116565b61149c826000836146d8565b6146a6614a4d565b60208206156146bb5760208206602003820191505b506020828101829052604080518085526000815290920101905290565b601781116146ff576146f98360e0600585901b16831763ffffffff6147fb16565b5061209a565b60ff811161473557614722836018611fe0600586901b161763ffffffff6147fb16565b506146f98382600163ffffffff61481316565b61ffff811161476c57614759836019611fe0600586901b161763ffffffff6147fb16565b506146f98382600263ffffffff61481316565b63ffffffff81116147a55761479283601a611fe0600586901b161763ffffffff6147fb16565b506146f98382600463ffffffff61481316565b6001600160401b03811161209a576147ce83601b611fe0600586901b161763ffffffff6147fb16565b50611f578382600863ffffffff61481316565b6147e9614a4d565b612c2f83846000015151848551614834565b614803614a4d565b612c2f83846000015151846148e0565b61481b614a4d565b61482c84856000015151858561492b565b949350505050565b61483c614a4d565b825182111561484a57600080fd5b84602001518285011115614874576148748561486c8760200151878601614989565b6002026149a0565b6000808651805187602083010193508088870111156148935787860182525b505050602084015b602084106148ba5780518252601f19909301926020918201910161489b565b51815160001960208690036101000a019081169019919091161790525083949350505050565b6148e8614a4d565b83602001518310614904576149048485602001516002026149a0565b835180516020858301018481535080851415614921576001810182525b5093949350505050565b614933614a4d565b8460200151848301111561495057614950858584016002026149a0565b60006001836101000a03905085518386820101858319825116178152508051848701111561497e5783860181525b509495945050505050565b60008183111561499a575081612c32565b50919050565b81516149ac838361469e565b50611f5783826147e1565b828054828255906000526020600020908101928215614a0c579160200282015b82811115614a0c57825182546001600160a01b0319166001600160a01b039091161782556020909201916001909101906149d7565b5061172a929150614a67565b6040805160a081018252600080825260208201819052918101829052606081019190915260808101614a48614a4d565b905290565b604051806040016040528060608152602001600081525090565b61117791905b8082111561172a5780546001600160a01b0319168155600101614a6d56fe436c617373726f6f6d3a206e6f7420656e6f756768204c696e6b20746f6b656e734f776e61626c653a206e6577206f776e657220697320746865207a65726f2061646472657373436c617373726f6f6d3a2073747564656e7420646f65736e2774206861766520656e6f7567682073636f7265436c617373726f6f6d3a2063616e2774206368616e6765206368616c6c656e6765206e6f77756e61626c6520746f207472616e73666572416e6443616c6c20746f206f7261636c65436c617373726f6f6d3a206e6f7420656e6f7567682044414920746f2070726f63656564436c617373726f6f6d3a2072656164207065726d697373696f6e2064656e696564436c617373726f6f6d3a2063616e2774206265206d6f72652074686174203130302520696e2070706d556e69766572736974793a20736574757020756e697377617020666972737400436c617373726f6f6d3a2073747564656e7473206c697374206e6f7420656d707479436c617373726f6f6d3a2070726f666573736f722063616e277420626520697473206f776e2073747564656e74536166654d6174683a206d756c7469706c69636174696f6e206f766572666c6f77436c617373726f6f6d3a20746f6f20736f6f6e20746f2066696e69736820636f75727365436c617373726f6f6d3a206170706c69636174696f6e7320617265207374696c6c206f70656e4f776e61626c653a2063616c6c6572206973206e6f7420746865206f776e6572436c617373726f6f6d3a20696e7665737420616c6c2062616c616e6365206265666f726520626567696e8be0079c531659141344cd1fd0a4f28419497f9722a3daafe3b4186f6b6457e0436c617373726f6f6d3a206170706c69636174696f6e732061726520616c726561647920636c6f736564436c617373726f6f6d3a2073747564656e74206973206e6f742072656769737465726564436c617373726f6f6d3a206170706c69636174696f6e732061726520616c7265616479206f70656e6564536f75726365206d75737420626520746865206f7261636c65206f662074686520726571756573747cc135e0cebb02c3480ae5d74d377283180a2601f8f644edf7987b009316c63aa26469706673582212209129ce89428a212a1ff145384b20124264028c8cd7360aff02aafcefb833c88e64736f6c63430006060033",
  "immutableReferences": {},
  "source": "pragma solidity ^0.6.6;\n\nimport \"@openzeppelin/contracts/math/SafeMath.sol\";\nimport \"@openzeppelin/contracts/access/Ownable.sol\";\nimport \"@openzeppelin/contracts/token/ERC20/IERC20.sol\";\nimport \"@chainlink/contracts/src/v0.6/ChainlinkClient.sol\";\nimport \"@chainlink/contracts/src/v0.6/interfaces/LinkTokenInterface.sol\";\nimport \"@uniswap/v2-periphery/contracts/interfaces/IUniswapV2Router01.sol\";\nimport \"@uniswap/lib/contracts/libraries/TransferHelper.sol\";\nimport \"@nomiclabs/buidler/console.sol\";\nimport \"./interface/Aave/aToken.sol\";\nimport \"./interface/Aave/ILendingPool.sol\";\nimport \"./interface/Aave/ILendingPoolAddressesProvider.sol\";\nimport \"./interface/IUniversity.sol\";\nimport \"./interface/IStudent.sol\";\nimport \"./interface/IClassroom.sol\";\nimport \"./interface/IStudentApplication.sol\";\nimport \"./interface/IClassroomChallenge.sol\";\nimport \"./interface/IStudentApplicationFactory.sol\";\nimport \"./MyUtils.sol\";\n\n\ncontract Classroom is Ownable, ChainlinkClient, IClassroom {\n    IUniversity public university;\n    bool public openForApplication;\n    bool public courseFinished;\n    bool public classroomActive;\n    uint256 public startDate;\n    bool _timestampAlarm;\n    address[] _studentApplications;\n    address[] _validStudentApplications;\n    mapping(address => address) _studentApplicationsLink;\n    uint256 _endDate;\n    uint256 _courseBalance;\n    bytes32 _seed;\n\n    //Classroom parameters\n    bytes32 public name;\n    uint24 public principalCut;\n    uint24 public poolCut;\n    int32 public minScore;\n    uint256 public override entryPrice;\n    uint256 public duration;\n    uint256 public compoundApplyPercentage;\n    address public challengeAddress;\n\n    //Tokens\n    address public daiToken;\n    address public cDAI;\n\n    //Factory\n    IStudentApplicationFactory public studentApplicationFactory;\n\n    //Chainlink config\n    address public oracleRandom;\n    bytes32 public requestIdRandom;\n    uint256 public oraclePaymentRandom;\n    address public oracleTimestamp;\n    bytes32 public requestIdTimestamp;\n    uint256 public oraclePaymentTimestamp;\n    address public linkToken;\n\n    //Uniswap Config\n    address public uniswapDAI;\n    address public uniswapLINK;\n    IUniswapV2Router01 public uniswapRouter;\n\n    //Aave Config\n    ILendingPoolAddressesProvider public aaveProvider;\n    ILendingPool public aaveLendingPool;\n    address public aaveLendingPoolCore;\n    address public aTokenDAI;\n\n    constructor(\n        bytes32 name_,\n        uint24 principalCut_,\n        uint24 poolCut_,\n        int32 minScore_,\n        uint256 entryPrice_,\n        uint256 duration_,\n        address payable universityAddress,\n        address challengeAddress_,\n        address daiAddress,\n        address compoundDAIAddress,\n        address studentApplicationFactoryAddress\n    ) public {\n        name = name_;\n        principalCut = principalCut_;\n        poolCut = poolCut_;\n        minScore = minScore_;\n        entryPrice = entryPrice_;\n        duration = duration_;\n        compoundApplyPercentage = 0.5 * 1e6;\n        university = IUniversity(universityAddress);\n        challengeAddress = challengeAddress_;\n        openForApplication = false;\n        classroomActive = false;\n        daiToken = daiAddress;\n        cDAI = compoundDAIAddress;\n        studentApplicationFactory = IStudentApplicationFactory(\n            studentApplicationFactoryAddress\n        );\n    }\n\n    event LogOpenApplications();\n    event LogCloseApplications();\n    event LogCourseFinished();\n    event LogChangeChallenge(address);\n    event LogChangeName(bytes32);\n    event LogChangePrincipalCut(uint24);\n    event LogChangePoolCut(uint24);\n    event LogChangeMinScore(int32);\n    event LogChangeEntryPrice(uint256);\n    event LogChangeDuration(uint256);\n\n    // @dev \"Stack too deep\" error if done in the constructor\n    function configureOracles(\n        address oracleRandom_,\n        bytes32 requestIdRandom_,\n        uint256 oraclePaymentRandom_,\n        address oracleTimestamp_,\n        bytes32 requestIdTimestamp_,\n        uint256 oraclePaymentTimestamp_,\n        address linkToken_,\n        bool generateSeed\n    ) public onlyOwner {\n        oracleRandom = oracleRandom_;\n        requestIdRandom = requestIdRandom_;\n        oraclePaymentRandom = oraclePaymentRandom_;\n        oracleTimestamp = oracleTimestamp_;\n        requestIdTimestamp = requestIdTimestamp_;\n        oraclePaymentTimestamp = oraclePaymentTimestamp_;\n        linkToken = linkToken_;\n        setPublicChainlinkToken();\n        require(\n            LinkTokenInterface(linkToken).balanceOf(address(this)) >=\n                oraclePaymentRandom,\n            \"Classroom: not enough Link tokens\"\n        );\n        if (generateSeed) _generateSeed();\n        else _seed = blockhash(0);\n    }\n\n    function configureUniswap(\n        address uniswapDAI_,\n        address uniswapLINK_,\n        address uniswapRouter_\n    ) public onlyOwner {\n        uniswapDAI = uniswapDAI_;\n        uniswapLINK = uniswapLINK_;\n        uniswapRouter = IUniswapV2Router01(uniswapRouter_);\n    }\n\n    function configureAave(address lendingPoolAddressesProvider)\n        public\n        onlyOwner\n    {\n        aaveProvider = ILendingPoolAddressesProvider(\n            lendingPoolAddressesProvider\n        );\n        aaveLendingPoolCore = aaveProvider.getLendingPoolCore();\n        aaveLendingPool = ILendingPool(aaveProvider.getLendingPool());\n        aTokenDAI = ILendingPoolCore(aaveLendingPoolCore)\n            .getReserveATokenAddress(daiToken);\n    }\n\n    function transferOwnershipClassroom(address newOwner) public override {\n        transferOwnership(newOwner);\n    }\n\n    function ownerClassroom() public view override returns (address) {\n        return owner();\n    }\n\n    function changeName(bytes32 val) public onlyOwner {\n        name = val;\n        emit LogChangeName(name);\n    }\n\n    function changePrincipalCut(uint24 val) public onlyOwner {\n        principalCut = val;\n        emit LogChangePrincipalCut(principalCut);\n    }\n\n    function changePoolCut(uint24 val) public onlyOwner {\n        poolCut = val;\n        emit LogChangePoolCut(poolCut);\n    }\n\n    function changeMinScore(int32 val) public onlyOwner {\n        minScore = val;\n        emit LogChangeMinScore(minScore);\n    }\n\n    function changeEntryPrice(uint256 val) public onlyOwner {\n        entryPrice = val;\n        emit LogChangeEntryPrice(entryPrice);\n    }\n\n    function changeDuration(uint256 val) public onlyOwner {\n        duration = val;\n        emit LogChangeDuration(duration);\n    }\n\n    function changeCompoundApplyPercentage(uint256 ppm) public onlyOwner {\n        require(ppm <= 1e6, \"Classroom: can't be more that 100% in ppm\");\n        compoundApplyPercentage = ppm;\n    }\n\n    function changeChallenge(address addr) public onlyOwner {\n        require(isClassroomEmpty(), \"Classroom: can't change challenge now\");\n        challengeAddress = addr;\n        emit LogChangeChallenge(challengeAddress);\n    }\n\n    function viewMyApplication() public view override returns (address) {\n        return viewApplication(_msgSender());\n    }\n\n    function viewApplication(address addr) public view returns (address) {\n        require(\n            addr == _msgSender() || _msgSender() == owner(),\n            \"Classroom: read permission denied\"\n        );\n        return _studentApplicationsLink[addr];\n    }\n\n    function isClassroomEmpty() public view returns (bool) {\n        return\n            _studentApplications.length.add(_validStudentApplications.length) ==\n            0;\n    }\n\n    function isCourseOngoing() public view returns (bool) {\n        return _validStudentApplications.length > 0;\n    }\n\n    function openApplications() public onlyOwner {\n        require(oracleRandom != address(0), \"Classroom: setup oracles first\");\n        require(uniswapDAI != address(0), \"Classroom: setup Uniswap first\");\n        require(\n            aaveLendingPoolCore != address(0),\n            \"Classroom: setup Aave first\"\n        );\n        require(\n            !openForApplication,\n            \"Classroom: applications are already opened\"\n        );\n        require(\n            _studentApplications.length == 0,\n            \"Classroom: students list not empty\"\n        );\n        require(\n            LinkTokenInterface(linkToken).balanceOf(address(this)) >=\n                oraclePaymentTimestamp,\n            \"Classroom: not enough Link tokens\"\n        );\n        openForApplication = true;\n        emit LogOpenApplications();\n    }\n\n    function closeApplications() public onlyOwner {\n        require(\n            openForApplication,\n            \"Classroom: applications are already closed\"\n        );\n        openForApplication = false;\n        emit LogCloseApplications();\n    }\n\n    //public onlyOwner allow the professor to apply money before and after closing applications\n    function applyDAI() public onlyOwner {\n        uint256 balance = IERC20(daiToken).balanceOf(address(this));\n        if (balance <= 0) return;\n        uint256 compoundApply = compoundApplyPercentage.mul(balance).div(1e6);\n        uint256 aaveApply = balance.sub(compoundApply);\n        applyFundsCompound(compoundApply);\n        applyFundsAave(aaveApply);\n    }\n\n    function applyFundsCompound(uint256 val) internal {\n        TransferHelper.safeApprove(address(daiToken), address(cDAI), val);\n        CERC20(cDAI).mint(val);\n    }\n\n    function applyFundsAave(uint256 val) internal {\n        TransferHelper.safeApprove(\n            address(daiToken),\n            aaveLendingPoolCore,\n            val\n        );\n        aaveLendingPool.deposit(address(daiToken), val, 0);\n    }\n\n    function studentApply() public override {\n        require(\n            IStudent(_msgSender()).ownerStudent() != owner(),\n            \"Classroom: professor can't be its own student\"\n        );\n        require(\n            university.studentIsRegistered(_msgSender()),\n            \"Classroom: student is not registered\"\n        );\n        IStudent applicant = IStudent(_msgSender());\n        require(\n            applicant.score() >= minScore,\n            \"Classroom: student doesn't have enough score\"\n        );\n        require(openForApplication, \"Classroom: applications closed\");\n        address application = _createStudentApplication(address(applicant));\n        _studentApplications.push(application);\n    }\n\n    function _createStudentApplication(address student)\n        internal\n        returns (address)\n    {\n        address newApplication = studentApplicationFactory\n            .newStudentApplication(\n            student,\n            address(this),\n            address(daiToken),\n            challengeAddress,\n            generateNewSeed()\n        );\n        _studentApplicationsLink[student] = newApplication;\n        university.registerStudentApplication(student, newApplication);\n        return newApplication;\n    }\n\n    function generateNewSeed() internal returns (bytes32) {\n        _mutateSeed();\n        return keccak256(abi.encode(blockhash(0) ^ _seed));\n    }\n\n    function countNewApplications()\n        public\n        view\n        onlyOwner\n        returns (uint256 count)\n    {\n        for (uint256 i = 0; i < _studentApplications.length; i++) {\n            if (\n                IStudentApplication(_studentApplications[i])\n                    .applicationState() == 0\n            ) count++;\n        }\n    }\n\n    function countReadyApplications()\n        public\n        view\n        onlyOwner\n        returns (uint256 count)\n    {\n        for (uint256 i = 0; i < _studentApplications.length; i++) {\n            if (\n                IStudentApplication(_studentApplications[i])\n                    .applicationState() == 1\n            ) count++;\n        }\n    }\n\n    function beginCourse(bool setAlatm)\n        public\n        onlyOwner\n    {\n        require(!openForApplication, \"Classroom: applications are still open\");\n        require(!classroomActive, \"Classroom: course already open\");\n        require(\n            IERC20(daiToken).balanceOf(address(this)) == 0,\n            \"Classroom: invest all balance before begin\"\n        );\n        checkApplications();\n        _studentApplications = new address[](0);\n        if (_validStudentApplications.length == 0) return;\n        classroomActive = true;\n        startDate = block.timestamp;\n        if (setAlatm) _setAlarm();\n        else _timestampAlarm = true;\n    }\n\n    function checkApplications() internal {\n        for (uint256 i = 0; i < _studentApplications.length; i++) {\n            if (\n                IStudentApplication(_studentApplications[i])\n                    .applicationState() == 1\n            ) {\n                IStudentApplication(_studentApplications[i]).activate();\n                _validStudentApplications.push(_studentApplications[i]);\n            } else {\n                IStudentApplication(_studentApplications[i]).expire();\n            }\n        }\n    }\n\n    function finishCourse() public onlyOwner {\n        require(\n            _validStudentApplications.length > 0,\n            \"Classroom: no applications\"\n        );\n        require(_timestampAlarm, \"Classroom: too soon to finish course\");\n        _courseBalance = IERC20(daiToken).balanceOf(address(this));\n        _recoverInvestment();\n        courseFinished = true;\n        emit LogCourseFinished();\n    }\n\n    function courseBalance() public view onlyOwner() returns (uint256) {\n        return\n            courseFinished\n                ? IERC20(daiToken).balanceOf(address(this)).sub(_courseBalance)\n                : 0;\n    }\n\n    function _recoverInvestment() internal {\n        uint256 balanceCompound = CERC20(cDAI).balanceOf(address(this));\n        CERC20(cDAI).redeem(balanceCompound);\n        uint256 balanceAave = aToken(aTokenDAI).balanceOf(address(this));\n        aToken(aTokenDAI).redeem(balanceAave);\n    }\n\n    function processResults() public onlyOwner {\n        require(courseFinished, \"Classroom: course not finished\");\n        _courseBalance = courseBalance();\n        require(\n            _courseBalance >= entryPrice.mul(_validStudentApplications.length),\n            \"Classroom: not enough DAI to proceed\"\n        );\n        (uint256 successCount, uint256 emptyCount) = _startAnswerVerification();\n        (\n            uint256 universityCut,\n            uint256[] memory studentAllowances\n        ) = _accountValues(successCount, emptyCount);\n        _resolveStudentAllowances(studentAllowances);\n        _resolveUniversityCut(universityCut);\n        _updateStudentScores();\n        _clearClassroom();\n    }\n\n    function _startAnswerVerification() internal returns (uint256, uint256) {\n        uint256 successCount = 0;\n        uint256 emptyCount = 0;\n        for (uint256 i = 0; i < _validStudentApplications.length; i++) {\n            IStudentApplication(_validStudentApplications[i])\n                .registerFinalAnswer();\n            uint256 appState = IStudentApplication(_validStudentApplications[i])\n                .applicationState();\n            if (appState == 3) successCount++;\n            if (appState == 5) emptyCount++;\n        }\n        return (successCount, emptyCount);\n    }\n\n    function _accountValues(uint256 successCount, uint256 emptyCount)\n        internal\n        returns (uint256, uint256[] memory)\n    {\n        uint256 nStudents = _validStudentApplications.length;\n        uint256 returnsPool = _courseBalance.sub(entryPrice.mul(nStudents));\n        uint256 professorPaymentPerStudent = entryPrice.mul(principalCut).div(\n            1e6\n        );\n        uint256 studentPrincipalReturn = entryPrice.sub(\n            professorPaymentPerStudent\n        );\n        uint256 successPool = returnsPool.mul(successCount).div(nStudents);\n        uint256 professorTotalPoolSuccessShare = successPool.mul(poolCut).div(\n            1e6\n        );\n        uint256 successStudentPoolShare = returnsPool\n            .sub(professorTotalPoolSuccessShare)\n            .div(successCount);\n        uint256[] memory studentAllowances = new uint256[](nStudents);\n        for (uint256 i = 0; i < nStudents; i++) {\n            uint256 appState = IStudentApplication(_validStudentApplications[i])\n                .applicationState();\n            if (appState == 3) {\n                IStudentApplication(_validStudentApplications[i])\n                    .accountAllowance(\n                    studentPrincipalReturn,\n                    successStudentPoolShare\n                );\n                studentAllowances[i] = studentPrincipalReturn.add(\n                    successStudentPoolShare\n                );\n            }\n            if (appState == 4) {\n                IStudentApplication(_validStudentApplications[i])\n                    .accountAllowance(studentPrincipalReturn, 0);\n                studentAllowances[i] = studentPrincipalReturn;\n            }\n            if (appState == 5)\n                IStudentApplication(_validStudentApplications[i])\n                    .accountAllowance(0, 0);\n        }\n        \n        return (\n            _calculateUniversityShare(\n                emptyCount,\n                professorTotalPoolSuccessShare,\n                nStudents,\n                professorPaymentPerStudent\n            ),\n            studentAllowances\n        );\n    }\n\n    function _calculateUniversityShare(\n        uint256 emptyCount,\n        uint256 professorTotalPoolSuccessShare,\n        uint256 nStudents,\n        uint256 professorPaymentPerStudent\n    ) internal view returns (uint256) {\n        uint24 uCut = university.cut();\n        uint256 universityEmptyShare = emptyCount.mul(entryPrice);\n        uint256 universityPaymentShare = professorTotalPoolSuccessShare\n            .mul(uCut)\n            .div(1e6);\n        uint256 notEmptyCount = nStudents.sub(emptyCount);\n        uint256 universitySucessPoolShare = professorPaymentPerStudent\n            .mul(notEmptyCount)\n            .mul(uCut)\n            .div(1e6);\n        return\n            universityEmptyShare.add(universityPaymentShare).add(\n                universitySucessPoolShare\n            );\n    }\n\n    function _resolveStudentAllowances(uint256[] memory studentAllowances)\n        internal\n    {\n        for (uint256 i = 0; i < _validStudentApplications.length; i++) {\n            if (studentAllowances[i] > 0)\n                TransferHelper.safeTransfer(\n                    daiToken,\n                    address(_validStudentApplications[i]),\n                    studentAllowances[i]\n                );\n        }\n    }\n\n    function _resolveUniversityCut(uint256 universityCut) internal {\n        TransferHelper.safeTransfer(\n            address(daiToken),\n            address(university),\n            universityCut\n        );\n        university.accountRevenue(universityCut);\n    }\n\n    function _updateStudentScores() internal {\n        for (uint256 i = 0; i < _validStudentApplications.length; i++) {\n            uint256 appState = IStudentApplication(_validStudentApplications[i])\n                .applicationState();\n            if (appState == 3)\n                university.addStudentScore(\n                    IStudentApplication(_validStudentApplications[i])\n                        .studentAddress(),\n                    1\n                );\n            if (appState == 4)\n                university.subStudentScore(\n                    IStudentApplication(_validStudentApplications[i])\n                        .studentAddress(),\n                    1\n                );\n            if (appState == 5)\n                university.subStudentScore(\n                    IStudentApplication(_validStudentApplications[i])\n                        .studentAddress(),\n                    2\n                );\n        }\n    }\n\n    function _clearClassroom() internal {\n        _validStudentApplications = new address[](0);\n        withdrawAllResults();\n        _courseBalance = 0;\n        courseFinished = false;\n        _timestampAlarm = false;\n    }\n\n    function _mutateSeed() internal {\n        _seed = keccak256(abi.encode(_seed));\n    }\n\n    function withdrawAllResults() public onlyOwner {\n        IERC20(daiToken).transferFrom(\n            address(this),\n            owner(),\n            IERC20(daiToken).balanceOf(address(this))\n        );\n    }\n\n    function swapDAI_LINK(uint256 amount, uint256 deadline) public onlyOwner {\n        require(uniswapLINK != address(0), \"University: setup uniswap first\");\n        swapBlind(uniswapDAI, uniswapLINK, amount, deadline);\n    }\n\n    function swapLINK_DAI(uint256 amount, uint256 deadline) public onlyOwner {\n        require(uniswapLINK != address(0), \"University: setup uniswap first\");\n        swapBlind(uniswapLINK, uniswapDAI, amount, deadline);\n    }\n\n    function swapBlind(\n        address tokenA,\n        address tokenB,\n        uint256 amount,\n        uint256 deadline\n    ) internal {\n        TransferHelper.safeApprove(tokenA, address(uniswapRouter), amount);\n        address[] memory path = new address[](2);\n        path[0] = tokenA;\n        path[1] = tokenB;\n        uniswapRouter.swapExactTokensForTokens(\n            amount,\n            0,\n            path,\n            address(this),\n            deadline\n        );\n    }\n\n    function _generateSeed() internal {\n        Chainlink.Request memory req = buildChainlinkRequest(\n            requestIdRandom,\n            address(this),\n            this.fulfillGenerateSeed.selector\n        );\n        sendChainlinkRequestTo(oracleRandom, req, oraclePaymentRandom);\n    }\n\n    function fulfillGenerateSeed(bytes32 _requestId, uint256 data)\n        public\n        recordChainlinkFulfillment(_requestId)\n    {\n        _seed = keccak256(MyUtils._toBytes(data));\n    }\n\n    function _setAlarm() internal {\n        Chainlink.Request memory req = buildChainlinkRequest(\n            requestIdTimestamp,\n            address(this),\n            this.fulfillGetTimestamp.selector\n        );\n        req.addUint(\"until\", now + duration);\n        sendChainlinkRequestTo(oracleTimestamp, req, oraclePaymentTimestamp);\n    }\n\n    function fulfillGetTimestamp(bytes32 _requestId)\n        public\n        recordChainlinkFulfillment(_requestId)\n    {\n        _timestampAlarm = true;\n    }\n}\n",
  "sourcePath": "/mnt/e/Repositories/Uproot/contracts/Classroom.sol",
  "compiler": {
    "name": "solc",
    "version": "0.6.6+commit.6c089d02.Emscripten.clang"
  },
  "schemaVersion": "3.1.0",
  "updatedAt": "2020-05-20T12:05:11.001Z",
  "devdoc": {
    "methods": {
      "owner()": {
        "details": "Returns the address of the current owner."
      },
      "renounceOwnership()": {
        "details": "Leaves the contract without owner. It will not be possible to call `onlyOwner` functions anymore. Can only be called by the current owner.     * NOTE: Renouncing ownership will leave the contract without an owner, thereby removing any functionality that is only available to the owner."
      },
      "transferOwnership(address)": {
        "details": "Transfers ownership of the contract to a new account (`newOwner`). Can only be called by the current owner."
      }
    }
  },
  "userdoc": {
    "methods": {}
  }
}