{
  "contractName": "Classroom",
  "abi": [
    {
      "inputs": [
        {
          "internalType": "bytes32",
          "name": "name_",
          "type": "bytes32"
        },
        {
          "internalType": "uint24",
          "name": "principalCut_",
          "type": "uint24"
        },
        {
          "internalType": "uint24",
          "name": "poolCut_",
          "type": "uint24"
        },
        {
          "internalType": "int32",
          "name": "minScore_",
          "type": "int32"
        },
        {
          "internalType": "uint256",
          "name": "entryPrice_",
          "type": "uint256"
        },
        {
          "internalType": "uint256",
          "name": "duration_",
          "type": "uint256"
        },
        {
          "internalType": "address payable",
          "name": "universityAddress",
          "type": "address"
        },
        {
          "internalType": "address",
          "name": "challengeAddress_",
          "type": "address"
        },
        {
          "internalType": "address",
          "name": "daiAddress",
          "type": "address"
        },
        {
          "internalType": "address",
          "name": "compoundDAIAddress",
          "type": "address"
        },
        {
          "internalType": "address",
          "name": "studentApplicationFactoryAddress",
          "type": "address"
        }
      ],
      "stateMutability": "nonpayable",
      "type": "constructor"
    },
    {
      "anonymous": false,
      "inputs": [
        {
          "indexed": true,
          "internalType": "bytes32",
          "name": "id",
          "type": "bytes32"
        }
      ],
      "name": "ChainlinkCancelled",
      "type": "event"
    },
    {
      "anonymous": false,
      "inputs": [
        {
          "indexed": true,
          "internalType": "bytes32",
          "name": "id",
          "type": "bytes32"
        }
      ],
      "name": "ChainlinkFulfilled",
      "type": "event"
    },
    {
      "anonymous": false,
      "inputs": [
        {
          "indexed": true,
          "internalType": "bytes32",
          "name": "id",
          "type": "bytes32"
        }
      ],
      "name": "ChainlinkRequested",
      "type": "event"
    },
    {
      "anonymous": false,
      "inputs": [
        {
          "indexed": false,
          "internalType": "address",
          "name": "",
          "type": "address"
        }
      ],
      "name": "LogChangeChallenge",
      "type": "event"
    },
    {
      "anonymous": false,
      "inputs": [
        {
          "indexed": false,
          "internalType": "uint256",
          "name": "",
          "type": "uint256"
        }
      ],
      "name": "LogChangeDuration",
      "type": "event"
    },
    {
      "anonymous": false,
      "inputs": [
        {
          "indexed": false,
          "internalType": "uint256",
          "name": "",
          "type": "uint256"
        }
      ],
      "name": "LogChangeEntryPrice",
      "type": "event"
    },
    {
      "anonymous": false,
      "inputs": [
        {
          "indexed": false,
          "internalType": "int32",
          "name": "",
          "type": "int32"
        }
      ],
      "name": "LogChangeMinScore",
      "type": "event"
    },
    {
      "anonymous": false,
      "inputs": [
        {
          "indexed": false,
          "internalType": "bytes32",
          "name": "",
          "type": "bytes32"
        }
      ],
      "name": "LogChangeName",
      "type": "event"
    },
    {
      "anonymous": false,
      "inputs": [
        {
          "indexed": false,
          "internalType": "uint24",
          "name": "",
          "type": "uint24"
        }
      ],
      "name": "LogChangePoolCut",
      "type": "event"
    },
    {
      "anonymous": false,
      "inputs": [
        {
          "indexed": false,
          "internalType": "uint24",
          "name": "",
          "type": "uint24"
        }
      ],
      "name": "LogChangePrincipalCut",
      "type": "event"
    },
    {
      "anonymous": false,
      "inputs": [],
      "name": "LogCloseApplications",
      "type": "event"
    },
    {
      "anonymous": false,
      "inputs": [],
      "name": "LogCourseFinished",
      "type": "event"
    },
    {
      "anonymous": false,
      "inputs": [],
      "name": "LogOpenApplications",
      "type": "event"
    },
    {
      "anonymous": false,
      "inputs": [
        {
          "indexed": true,
          "internalType": "address",
          "name": "previousOwner",
          "type": "address"
        },
        {
          "indexed": true,
          "internalType": "address",
          "name": "newOwner",
          "type": "address"
        }
      ],
      "name": "OwnershipTransferred",
      "type": "event"
    },
    {
      "inputs": [],
      "name": "aTokenDAI",
      "outputs": [
        {
          "internalType": "address",
          "name": "",
          "type": "address"
        }
      ],
      "stateMutability": "view",
      "type": "function"
    },
    {
      "inputs": [],
      "name": "aaveLendingPool",
      "outputs": [
        {
          "internalType": "contract ILendingPool",
          "name": "",
          "type": "address"
        }
      ],
      "stateMutability": "view",
      "type": "function"
    },
    {
      "inputs": [],
      "name": "aaveLendingPoolCore",
      "outputs": [
        {
          "internalType": "address",
          "name": "",
          "type": "address"
        }
      ],
      "stateMutability": "view",
      "type": "function"
    },
    {
      "inputs": [],
      "name": "aaveProvider",
      "outputs": [
        {
          "internalType": "contract ILendingPoolAddressesProvider",
          "name": "",
          "type": "address"
        }
      ],
      "stateMutability": "view",
      "type": "function"
    },
    {
      "inputs": [],
      "name": "cDAI",
      "outputs": [
        {
          "internalType": "address",
          "name": "",
          "type": "address"
        }
      ],
      "stateMutability": "view",
      "type": "function"
    },
    {
      "inputs": [],
      "name": "challengeAddress",
      "outputs": [
        {
          "internalType": "address",
          "name": "",
          "type": "address"
        }
      ],
      "stateMutability": "view",
      "type": "function"
    },
    {
      "inputs": [],
      "name": "classroomActive",
      "outputs": [
        {
          "internalType": "bool",
          "name": "",
          "type": "bool"
        }
      ],
      "stateMutability": "view",
      "type": "function"
    },
    {
      "inputs": [],
      "name": "compoundApplyPercentage",
      "outputs": [
        {
          "internalType": "uint256",
          "name": "",
          "type": "uint256"
        }
      ],
      "stateMutability": "view",
      "type": "function"
    },
    {
      "inputs": [],
      "name": "courseFinished",
      "outputs": [
        {
          "internalType": "bool",
          "name": "",
          "type": "bool"
        }
      ],
      "stateMutability": "view",
      "type": "function"
    },
    {
      "inputs": [],
      "name": "daiToken",
      "outputs": [
        {
          "internalType": "address",
          "name": "",
          "type": "address"
        }
      ],
      "stateMutability": "view",
      "type": "function"
    },
    {
      "inputs": [],
      "name": "duration",
      "outputs": [
        {
          "internalType": "uint256",
          "name": "",
          "type": "uint256"
        }
      ],
      "stateMutability": "view",
      "type": "function"
    },
    {
      "inputs": [],
      "name": "entryPrice",
      "outputs": [
        {
          "internalType": "uint256",
          "name": "",
          "type": "uint256"
        }
      ],
      "stateMutability": "view",
      "type": "function"
    },
    {
      "inputs": [],
      "name": "linkToken",
      "outputs": [
        {
          "internalType": "address",
          "name": "",
          "type": "address"
        }
      ],
      "stateMutability": "view",
      "type": "function"
    },
    {
      "inputs": [],
      "name": "minScore",
      "outputs": [
        {
          "internalType": "int32",
          "name": "",
          "type": "int32"
        }
      ],
      "stateMutability": "view",
      "type": "function"
    },
    {
      "inputs": [],
      "name": "name",
      "outputs": [
        {
          "internalType": "bytes32",
          "name": "",
          "type": "bytes32"
        }
      ],
      "stateMutability": "view",
      "type": "function"
    },
    {
      "inputs": [],
      "name": "openForApplication",
      "outputs": [
        {
          "internalType": "bool",
          "name": "",
          "type": "bool"
        }
      ],
      "stateMutability": "view",
      "type": "function"
    },
    {
      "inputs": [],
      "name": "oraclePaymentRandom",
      "outputs": [
        {
          "internalType": "uint256",
          "name": "",
          "type": "uint256"
        }
      ],
      "stateMutability": "view",
      "type": "function"
    },
    {
      "inputs": [],
      "name": "oraclePaymentTimestamp",
      "outputs": [
        {
          "internalType": "uint256",
          "name": "",
          "type": "uint256"
        }
      ],
      "stateMutability": "view",
      "type": "function"
    },
    {
      "inputs": [],
      "name": "oracleRandom",
      "outputs": [
        {
          "internalType": "address",
          "name": "",
          "type": "address"
        }
      ],
      "stateMutability": "view",
      "type": "function"
    },
    {
      "inputs": [],
      "name": "oracleTimestamp",
      "outputs": [
        {
          "internalType": "address",
          "name": "",
          "type": "address"
        }
      ],
      "stateMutability": "view",
      "type": "function"
    },
    {
      "inputs": [],
      "name": "owner",
      "outputs": [
        {
          "internalType": "address",
          "name": "",
          "type": "address"
        }
      ],
      "stateMutability": "view",
      "type": "function"
    },
    {
      "inputs": [],
      "name": "poolCut",
      "outputs": [
        {
          "internalType": "uint24",
          "name": "",
          "type": "uint24"
        }
      ],
      "stateMutability": "view",
      "type": "function"
    },
    {
      "inputs": [],
      "name": "principalCut",
      "outputs": [
        {
          "internalType": "uint24",
          "name": "",
          "type": "uint24"
        }
      ],
      "stateMutability": "view",
      "type": "function"
    },
    {
      "inputs": [],
      "name": "renounceOwnership",
      "outputs": [],
      "stateMutability": "nonpayable",
      "type": "function"
    },
    {
      "inputs": [],
      "name": "requestIdRandom",
      "outputs": [
        {
          "internalType": "bytes32",
          "name": "",
          "type": "bytes32"
        }
      ],
      "stateMutability": "view",
      "type": "function"
    },
    {
      "inputs": [],
      "name": "requestIdTimestamp",
      "outputs": [
        {
          "internalType": "bytes32",
          "name": "",
          "type": "bytes32"
        }
      ],
      "stateMutability": "view",
      "type": "function"
    },
    {
      "inputs": [],
      "name": "startDate",
      "outputs": [
        {
          "internalType": "uint256",
          "name": "",
          "type": "uint256"
        }
      ],
      "stateMutability": "view",
      "type": "function"
    },
    {
      "inputs": [],
      "name": "studentApplicationFactory",
      "outputs": [
        {
          "internalType": "contract IStudentApplicationFactory",
          "name": "",
          "type": "address"
        }
      ],
      "stateMutability": "view",
      "type": "function"
    },
    {
      "inputs": [
        {
          "internalType": "address",
          "name": "newOwner",
          "type": "address"
        }
      ],
      "name": "transferOwnership",
      "outputs": [],
      "stateMutability": "nonpayable",
      "type": "function"
    },
    {
      "inputs": [],
      "name": "uniswapDAI",
      "outputs": [
        {
          "internalType": "address",
          "name": "",
          "type": "address"
        }
      ],
      "stateMutability": "view",
      "type": "function"
    },
    {
      "inputs": [],
      "name": "uniswapLINK",
      "outputs": [
        {
          "internalType": "address",
          "name": "",
          "type": "address"
        }
      ],
      "stateMutability": "view",
      "type": "function"
    },
    {
      "inputs": [],
      "name": "uniswapRouter",
      "outputs": [
        {
          "internalType": "contract IUniswapV2Router01",
          "name": "",
          "type": "address"
        }
      ],
      "stateMutability": "view",
      "type": "function"
    },
    {
      "inputs": [],
      "name": "university",
      "outputs": [
        {
          "internalType": "contract IUniversity",
          "name": "",
          "type": "address"
        }
      ],
      "stateMutability": "view",
      "type": "function"
    },
    {
      "inputs": [
        {
          "internalType": "address",
          "name": "oracleRandom_",
          "type": "address"
        },
        {
          "internalType": "bytes32",
          "name": "requestIdRandom_",
          "type": "bytes32"
        },
        {
          "internalType": "uint256",
          "name": "oraclePaymentRandom_",
          "type": "uint256"
        },
        {
          "internalType": "address",
          "name": "oracleTimestamp_",
          "type": "address"
        },
        {
          "internalType": "bytes32",
          "name": "requestIdTimestamp_",
          "type": "bytes32"
        },
        {
          "internalType": "uint256",
          "name": "oraclePaymentTimestamp_",
          "type": "uint256"
        },
        {
          "internalType": "address",
          "name": "linkToken_",
          "type": "address"
        },
        {
          "internalType": "bool",
          "name": "_____REMOVE_BEFORE_LAUNCH______MOCK",
          "type": "bool"
        }
      ],
      "name": "configureOracles",
      "outputs": [],
      "stateMutability": "nonpayable",
      "type": "function"
    },
    {
      "inputs": [
        {
          "internalType": "address",
          "name": "uniswapDAI_",
          "type": "address"
        },
        {
          "internalType": "address",
          "name": "uniswapLINK_",
          "type": "address"
        },
        {
          "internalType": "address",
          "name": "uniswapRouter_",
          "type": "address"
        }
      ],
      "name": "configureUniswap",
      "outputs": [],
      "stateMutability": "nonpayable",
      "type": "function"
    },
    {
      "inputs": [
        {
          "internalType": "address",
          "name": "lendingPoolAddressesProvider",
          "type": "address"
        }
      ],
      "name": "configureAave",
      "outputs": [],
      "stateMutability": "nonpayable",
      "type": "function"
    },
    {
      "inputs": [
        {
          "internalType": "address",
          "name": "newOwner",
          "type": "address"
        }
      ],
      "name": "transferOwnershipClassroom",
      "outputs": [],
      "stateMutability": "nonpayable",
      "type": "function"
    },
    {
      "inputs": [],
      "name": "ownerClassroom",
      "outputs": [
        {
          "internalType": "address",
          "name": "",
          "type": "address"
        }
      ],
      "stateMutability": "view",
      "type": "function"
    },
    {
      "inputs": [
        {
          "internalType": "bytes32",
          "name": "val",
          "type": "bytes32"
        }
      ],
      "name": "changeName",
      "outputs": [],
      "stateMutability": "nonpayable",
      "type": "function"
    },
    {
      "inputs": [
        {
          "internalType": "uint24",
          "name": "val",
          "type": "uint24"
        }
      ],
      "name": "changePrincipalCut",
      "outputs": [],
      "stateMutability": "nonpayable",
      "type": "function"
    },
    {
      "inputs": [
        {
          "internalType": "uint24",
          "name": "val",
          "type": "uint24"
        }
      ],
      "name": "changePoolCut",
      "outputs": [],
      "stateMutability": "nonpayable",
      "type": "function"
    },
    {
      "inputs": [
        {
          "internalType": "int32",
          "name": "val",
          "type": "int32"
        }
      ],
      "name": "changeMinScore",
      "outputs": [],
      "stateMutability": "nonpayable",
      "type": "function"
    },
    {
      "inputs": [
        {
          "internalType": "uint256",
          "name": "val",
          "type": "uint256"
        }
      ],
      "name": "changeEntryPrice",
      "outputs": [],
      "stateMutability": "nonpayable",
      "type": "function"
    },
    {
      "inputs": [
        {
          "internalType": "uint256",
          "name": "val",
          "type": "uint256"
        }
      ],
      "name": "changeDuration",
      "outputs": [],
      "stateMutability": "nonpayable",
      "type": "function"
    },
    {
      "inputs": [
        {
          "internalType": "uint256",
          "name": "ppm",
          "type": "uint256"
        }
      ],
      "name": "changeCompoundApplyPercentage",
      "outputs": [],
      "stateMutability": "nonpayable",
      "type": "function"
    },
    {
      "inputs": [
        {
          "internalType": "address",
          "name": "addr",
          "type": "address"
        }
      ],
      "name": "changeChallenge",
      "outputs": [],
      "stateMutability": "nonpayable",
      "type": "function"
    },
    {
      "inputs": [],
      "name": "viewMyApplication",
      "outputs": [
        {
          "internalType": "address",
          "name": "",
          "type": "address"
        }
      ],
      "stateMutability": "view",
      "type": "function"
    },
    {
      "inputs": [
        {
          "internalType": "address",
          "name": "addr",
          "type": "address"
        }
      ],
      "name": "viewApplication",
      "outputs": [
        {
          "internalType": "address",
          "name": "",
          "type": "address"
        }
      ],
      "stateMutability": "view",
      "type": "function"
    },
    {
      "inputs": [],
      "name": "isClassroomEmpty",
      "outputs": [
        {
          "internalType": "bool",
          "name": "",
          "type": "bool"
        }
      ],
      "stateMutability": "view",
      "type": "function"
    },
    {
      "inputs": [],
      "name": "isCourseOngoing",
      "outputs": [
        {
          "internalType": "bool",
          "name": "",
          "type": "bool"
        }
      ],
      "stateMutability": "view",
      "type": "function"
    },
    {
      "inputs": [],
      "name": "openApplications",
      "outputs": [],
      "stateMutability": "nonpayable",
      "type": "function"
    },
    {
      "inputs": [],
      "name": "closeApplications",
      "outputs": [],
      "stateMutability": "nonpayable",
      "type": "function"
    },
    {
      "inputs": [],
      "name": "applyDAI",
      "outputs": [],
      "stateMutability": "nonpayable",
      "type": "function"
    },
    {
      "inputs": [],
      "name": "studentApply",
      "outputs": [],
      "stateMutability": "nonpayable",
      "type": "function"
    },
    {
      "inputs": [],
      "name": "countNewApplications",
      "outputs": [
        {
          "internalType": "uint256",
          "name": "count",
          "type": "uint256"
        }
      ],
      "stateMutability": "view",
      "type": "function"
    },
    {
      "inputs": [],
      "name": "countReadyApplications",
      "outputs": [
        {
          "internalType": "uint256",
          "name": "count",
          "type": "uint256"
        }
      ],
      "stateMutability": "view",
      "type": "function"
    },
    {
      "inputs": [
        {
          "internalType": "bool",
          "name": "_____REMOVE_BEFORE_LAUNCH______MOCK",
          "type": "bool"
        }
      ],
      "name": "beginCourse",
      "outputs": [],
      "stateMutability": "nonpayable",
      "type": "function"
    },
    {
      "inputs": [],
      "name": "finishCourse",
      "outputs": [],
      "stateMutability": "nonpayable",
      "type": "function"
    },
    {
      "inputs": [],
      "name": "courseBalance",
      "outputs": [
        {
          "internalType": "uint256",
          "name": "",
          "type": "uint256"
        }
      ],
      "stateMutability": "view",
      "type": "function"
    },
    {
      "inputs": [],
      "name": "processResults",
      "outputs": [],
      "stateMutability": "nonpayable",
      "type": "function"
    },
    {
      "inputs": [],
      "name": "withdrawAllResults",
      "outputs": [],
      "stateMutability": "nonpayable",
      "type": "function"
    },
    {
      "inputs": [
        {
          "internalType": "uint256",
          "name": "amount",
          "type": "uint256"
        },
        {
          "internalType": "uint256",
          "name": "deadline",
          "type": "uint256"
        }
      ],
      "name": "swapDAI_LINK",
      "outputs": [],
      "stateMutability": "nonpayable",
      "type": "function"
    },
    {
      "inputs": [
        {
          "internalType": "uint256",
          "name": "amount",
          "type": "uint256"
        },
        {
          "internalType": "uint256",
          "name": "deadline",
          "type": "uint256"
        }
      ],
      "name": "swapLINK_DAI",
      "outputs": [],
      "stateMutability": "nonpayable",
      "type": "function"
    },
    {
      "inputs": [
        {
          "internalType": "bytes32",
          "name": "_requestId",
          "type": "bytes32"
        },
        {
          "internalType": "uint256",
          "name": "data",
          "type": "uint256"
        }
      ],
      "name": "fulfillGenerateSeed",
      "outputs": [],
      "stateMutability": "nonpayable",
      "type": "function"
    },
    {
      "inputs": [
        {
          "internalType": "bytes32",
          "name": "_requestId",
          "type": "bytes32"
        }
      ],
      "name": "fulfillGetTimestamp",
      "outputs": [],
      "stateMutability": "nonpayable",
      "type": "function"
    }
  ],
  "bytecode": "0x608060405260016005553480156200001657600080fd5b5060405162004eff38038062004eff83398181016040526101608110156200003d57600080fd5b508051602082015160408301516060840151608085015160a086015160c087015160e08801516101008901516101208a0151610140909a01519899979896979596949593949293919290919060006200009e6001600160e01b03620001c316565b600080546001600160a01b0319166001600160a01b0383169081178255604051929350917f8be0079c531659141344cd1fd0a4f28419497f9722a3daafe3b4186f6b6457e0908290a35060109a909a556011805462ffffff191662ffffff9a8b161765ffffff0000001916630100000099909a16989098029890981763ffffffff60301b1916660100000000000063ffffffff60039890980b9790971696909602959095179095556012929092556013556207a12060145560078054601580546001600160a01b03199081166001600160a01b03978816179091559081169285169290921762ff00ff60a01b191690556016805482169284169290921790915560178054821693831693909317909255601880549092169216919091179055620001c7565b3390565b614d2880620001d76000396000f3fe608060405234801561001057600080fd5b50600436106102fa5760003560e01c806384952ba41161019a57806384952ba4146105a65780638646bcec146105ae57806386c79e0b146105b657806387429a9c146105be578063898855ed146105c65780638b45fb67146105e35780638da5cb5b146105eb578063952f1c14146105f35780639e6e0b5f146105fb578063a2281a8514610603578063a3f73c2d1461060b578063a46268a814610631578063aa055a4014610639578063aaaed76f14610641578063ada02e1914610649578063adf45ef214610651578063ae12894e14610659578063b5365c3c14610661578063b56bc55314610669578063b594f08614610671578063be22f5461461068e578063bf96d53f14610696578063c2d0b3031461069e578063c799f5e2146106c1578063cdb3bff9146106e7578063d8e5ea58146106ef578063e804f164146106f7578063e9d337b814610719578063f0607e4314610721578063f2fde38b14610744578063f745adfc1461076a578063fa245bf014610772578063fe7da9e914610791576102fa565b80624f8411146102ff57806306fdde031461031e5780630aab4569146103385780630b78cb0e146103555780630b97bc86146103715780630fb5a6b41461037957806313c2bedc14610381578063149c6d10146103a257806318b9533b146103f95780631b9dbc601461041f5780632016a2061461042757806329d188791461044a5780632ed537731461046e57806331960027146104765780633bcd97d41461047e5780633ca5583314610486578063431a16ef1461048e5780634c5e7893146104965780634ffb660c1461049e57806357970e93146104be5780635aa33a2d146104c65780635b8f96de146104ce578063604d3943146105065780636ae88cc2146105265780636e8055a71461052e5780636f6941b914610536578063715018a61461053e578063735de9f71461054657806376eada911461054e5780637c0260cb146105745780638155e9771461057c578063834a320c1461059e575b600080fd5b61031c6004803603602081101561031557600080fd5b50356107ae565b005b61032661084d565b60408051918252519081900360200190f35b61031c6004803603602081101561034e57600080fd5b5035610853565b61035d6108ec565b604080519115158252519081900360200190f35b6103266108fc565b610326610902565b610389610908565b60408051600392830b90920b8252519081900360200190f35b61031c60048036036101008110156103b957600080fd5b506001600160a01b038135811691602081013591604082013591606081013582169160808201359160a08101359160c0820135169060e001351515610918565b61031c6004803603602081101561040f57600080fd5b50356001600160a01b0316610a84565b61031c610a90565b61031c6004803603604081101561043d57600080fd5b5080359060200135610d9a565b610452610e3b565b604080516001600160a01b039092168252519081900360200190f35b610326610e4a565b61031c610e50565b61035d61113a565b61045261115a565b61031c611169565b61031c611313565b61031c600480360360208110156104b457600080fd5b503560030b611480565b610452611542565b61035d611551565b61031c600480360360608110156104e457600080fd5b506001600160a01b038135811691602081013582169160409091013516611561565b61050e6115f8565b6040805162ffffff9092168252519081900360200190f35b61032661160a565b61045261170e565b610452611725565b61031c611734565b6104526117c4565b6104526004803603602081101561056457600080fd5b50356001600160a01b03166117d3565b61031c611875565b61031c6004803603602081101561059257600080fd5b503562ffffff1661194d565b6103266119f7565b610452611af1565b61050e611b00565b610326611b0b565b610452611b11565b61031c600480360360208110156105dc57600080fd5b5035611b20565b610452611bb3565b610452611bb9565b610326611bc8565b610326611cc4565b610452611cca565b61031c6004803603602081101561062157600080fd5b50356001600160a01b0316611cd9565b61035d611dce565b61031c611dde565b610452611f3d565b61031c611f4c565b61035d612080565b610452612088565b610452612097565b6104526120a6565b61031c6004803603602081101561068757600080fd5b50356120b5565b610452612148565b610326612157565b61031c600480360360408110156106b457600080fd5b508035906020013561215d565b61031c600480360360208110156106d757600080fd5b50356001600160a01b031661221e565b610452612433565b610326612442565b61031c6004803603602081101561070d57600080fd5b503562ffffff16612448565b610452612500565b61031c6004803603604081101561073757600080fd5b508035906020013561250f565b61031c6004803603602081101561075a57600080fd5b50356001600160a01b03166125d0565b6103266126b6565b61031c6004803603602081101561078857600080fd5b503515156126bc565b61031c600480360360208110156107a757600080fd5b50356128d8565b6107b661296b565b6000546001600160a01b03908116911614610806576040805162461bcd60e51b81526020600482018190526024820152600080516020614bc9833981519152604482015290519081900360640190fd5b620f42408111156108485760405162461bcd60e51b8152600401808060200182810382526029815260200180614ac66029913960400191505060405180910390fd5b601455565b60105481565b60008181526006602052604090205481906001600160a01b031633146108aa5760405162461bcd60e51b8152600401808060200182810382526028815260200180614cab6028913960400191505060405180910390fd5b60008181526006602052604080822080546001600160a01b0319169055518291600080516020614cd383398151915291a250506009805460ff19166001179055565b600754600160a01b900460ff1681565b60085481565b60135481565b601154600160301b900460030b81565b61092061296b565b6000546001600160a01b03908116911614610970576040805162461bcd60e51b81526020600482018190526024820152600080516020614bc9833981519152604482015290519081900360640190fd5b601980546001600160a01b03808b166001600160a01b031992831617909255601a899055601b889055601c8054888416908316179055601d869055601e859055601f805485841692169190911790819055604080516370a0823160e01b81523060048201529051899392909216916370a0823191602480820192602092909190829003018186803b158015610a0457600080fd5b505afa158015610a18573d6000803e3d6000fd5b505050506040513d6020811015610a2e57600080fd5b50511015610a6d5760405162461bcd60e51b81526004018080602001828103825260218152602001806149c66021913960400191505060405180910390fd5b80610a7a57610a7a61296f565b5050505050505050565b610a8d816125d0565b50565b610a98611bb9565b6001600160a01b0316610aa961296b565b6001600160a01b0316637a6c8b536040518163ffffffff1660e01b815260040160206040518083038186803b158015610ae157600080fd5b505afa158015610af5573d6000803e3d6000fd5b505050506040513d6020811015610b0b57600080fd5b50516001600160a01b03161415610b535760405162461bcd60e51b815260040180806020018281038252602d815260200180614b31602d913960400191505060405180910390fd5b6007546001600160a01b03166316ded1ce610b6c61296b565b6040518263ffffffff1660e01b815260040180826001600160a01b03166001600160a01b0316815260200191505060206040518083038186803b158015610bb257600080fd5b505afa158015610bc6573d6000803e3d6000fd5b505050506040513d6020811015610bdc57600080fd5b5051610c195760405162461bcd60e51b8152600401808060200182810382526024815260200180614c5d6024913960400191505060405180910390fd5b6000610c2361296b565b9050601160069054906101000a900460030b60030b816001600160a01b031663efedc6696040518163ffffffff1660e01b815260040160206040518083038186803b158015610c7157600080fd5b505afa158015610c85573d6000803e3d6000fd5b505050506040513d6020811015610c9b57600080fd5b505160030b1215610cdd5760405162461bcd60e51b815260040180806020018281038252602c815260200180614a0d602c913960400191505060405180910390fd5b600754600160a01b900460ff16610d3b576040805162461bcd60e51b815260206004820152601e60248201527f436c617373726f6f6d3a206170706c69636174696f6e7320636c6f7365640000604482015290519081900360640190fd5b6000610d46826129ac565b600a80546001810182556000919091527fc65a7bb8d6351c1cf70c95a316cc6a92839c986682d98bc35f958f4883f9d2a80180546001600160a01b0319166001600160a01b03929092169190911790555050565b60008281526006602052604090205482906001600160a01b03163314610df15760405162461bcd60e51b8152600401808060200182810382526028815260200180614cab6028913960400191505060405180910390fd5b60008181526006602052604080822080546001600160a01b0319169055518291600080516020614cd383398151915291a2610e2b82612b09565b8051602090910120600f55505050565b6015546001600160a01b031681565b601b5481565b610e5861296b565b6000546001600160a01b03908116911614610ea8576040805162461bcd60e51b81526020600482018190526024820152600080516020614bc9833981519152604482015290519081900360640190fd5b6019546001600160a01b0316610f05576040805162461bcd60e51b815260206004820152601e60248201527f436c617373726f6f6d3a207365747570206f7261636c65732066697273740000604482015290519081900360640190fd5b6020546001600160a01b0316610f62576040805162461bcd60e51b815260206004820152601e60248201527f436c617373726f6f6d3a20736574757020556e69737761702066697273740000604482015290519081900360640190fd5b6025546001600160a01b0316610fbd576040805162461bcd60e51b815260206004820152601b60248201527a10db185cdcdc9bdbdb4e881cd95d1d5c0810585d9948199a5c9cdd602a1b604482015290519081900360640190fd5b600754600160a01b900460ff16156110065760405162461bcd60e51b815260040180806020018281038252602a815260200180614c81602a913960400191505060405180910390fd5b600a54156110455760405162461bcd60e51b8152600401808060200182810382526022815260200180614b0f6022913960400191505060405180910390fd5b601e54601f54604080516370a0823160e01b815230600482015290516001600160a01b03909216916370a0823191602480820192602092909190829003018186803b15801561109357600080fd5b505afa1580156110a7573d6000803e3d6000fd5b505050506040513d60208110156110bd57600080fd5b505110156110fc5760405162461bcd60e51b81526004018080602001828103825260218152602001806149c66021913960400191505060405180910390fd5b6007805460ff60a01b1916600160a01b1790556040517fa5d188159e8a15dc503f9fde55e9da14c8b2ca589603e2567481c0ef90b7972090600090a1565b600b54600a54600091611153919063ffffffff612b3316565b1590505b90565b6025546001600160a01b031681565b61117161296b565b6000546001600160a01b039081169116146111c1576040805162461bcd60e51b81526020600482018190526024820152600080516020614bc9833981519152604482015290519081900360640190fd5b600b54611212576040805162461bcd60e51b815260206004820152601a602482015279436c617373726f6f6d3a206e6f206170706c69636174696f6e7360301b604482015290519081900360640190fd5b60095460ff166112535760405162461bcd60e51b8152600401808060200182810382526024815260200180614b7f6024913960400191505060405180910390fd5b601654604080516370a0823160e01b815230600482015290516001600160a01b03909216916370a0823191602480820192602092909190829003018186803b15801561129e57600080fd5b505afa1580156112b2573d6000803e3d6000fd5b505050506040513d60208110156112c857600080fd5b5051600e556112d5612b94565b6007805460ff60a81b1916600160a81b1790556040517fadfcc9bbc47b33710f82544eeff8bd0f98c6f78f190e915bd81f4a9dacfdc77790600090a1565b61131b61296b565b6000546001600160a01b0390811691161461136b576040805162461bcd60e51b81526020600482018190526024820152600080516020614bc9833981519152604482015290519081900360640190fd5b6016546001600160a01b03166323b872dd30611385611bb9565b601654604080516370a0823160e01b815230600482015290516001600160a01b03909216916370a0823191602480820192602092909190829003018186803b1580156113d057600080fd5b505afa1580156113e4573d6000803e3d6000fd5b505050506040513d60208110156113fa57600080fd5b5051604080516001600160e01b031960e087901b1681526001600160a01b0394851660048201529290931660248301526044820152905160648083019260209291908290030181600087803b15801561145257600080fd5b505af1158015611466573d6000803e3d6000fd5b505050506040513d602081101561147c57600080fd5b5050565b61148861296b565b6000546001600160a01b039081169116146114d8576040805162461bcd60e51b81526020600482018190526024820152600080516020614bc9833981519152604482015290519081900360640190fd5b60118054600383810b63ffffffff16600160301b90810263ffffffff60301b1990931692909217928390556040805192909304810b810b900b815290517f258981eaba02423980e2973ff2ae3bbbba3cc807a5b73faf8f0b068dd7b2af649181900360200190a150565b601f546001600160a01b031681565b600754600160a81b900460ff1681565b61156961296b565b6000546001600160a01b039081169116146115b9576040805162461bcd60e51b81526020600482018190526024820152600080516020614bc9833981519152604482015290519081900360640190fd5b602080546001600160a01b039485166001600160a01b031991821617909155602180549385169382169390931790925560228054919093169116179055565b6011546301000000900462ffffff1681565b600061161461296b565b6000546001600160a01b03908116911614611664576040805162461bcd60e51b81526020600482018190526024820152600080516020614bc9833981519152604482015290519081900360640190fd5b60005b600a5481101561170a57600a818154811061167e57fe5b60009182526020918290200154604080516332c3db0f60e11b815290516001600160a01b0390921692636587b61e92600480840193829003018186803b1580156116c757600080fd5b505afa1580156116db573d6000803e3d6000fd5b505050506040513d60208110156116f157600080fd5b505160011415611702576001909101905b600101611667565b5090565b600061172061171b61296b565b6117d3565b905090565b6017546001600160a01b031681565b61173c61296b565b6000546001600160a01b0390811691161461178c576040805162461bcd60e51b81526020600482018190526024820152600080516020614bc9833981519152604482015290519081900360640190fd5b600080546040516001600160a01b0390911690600080516020614c13833981519152908390a3600080546001600160a01b0319169055565b6022546001600160a01b031681565b60006117dd61296b565b6001600160a01b0316826001600160a01b0316148061181b57506117ff611bb9565b6001600160a01b031661181061296b565b6001600160a01b0316145b6118565760405162461bcd60e51b8152600401808060200182810382526021815260200180614aa56021913960400191505060405180910390fd5b506001600160a01b039081166000908152600c60205260409020541690565b61187d61296b565b6000546001600160a01b039081169116146118cd576040805162461bcd60e51b81526020600482018190526024820152600080516020614bc9833981519152604482015290519081900360640190fd5b600754600160a01b900460ff166119155760405162461bcd60e51b815260040180806020018281038252602a815260200180614c33602a913960400191505060405180910390fd5b6007805460ff60a01b191690556040517f747a4734f50e3ae237b3afeeac30a2d2c7cb965cc122fb9680050fd533b7c0f590600090a1565b61195561296b565b6000546001600160a01b039081169116146119a5576040805162461bcd60e51b81526020600482018190526024820152600080516020614bc9833981519152604482015290519081900360640190fd5b6011805462ffffff191662ffffff838116919091179182905560408051929091168252517fa24cdd22388a51f932026d20d3229c1d693385bb9ac176742e0e40b4586c2447916020908290030190a150565b6000611a0161296b565b6000546001600160a01b03908116911614611a51576040805162461bcd60e51b81526020600482018190526024820152600080516020614bc9833981519152604482015290519081900360640190fd5b600754600160a81b900460ff16611a69576000611720565b600e54601654604080516370a0823160e01b8152306004820152905161172093926001600160a01b0316916370a08231916024808301926020929190829003018186803b158015611ab957600080fd5b505afa158015611acd573d6000803e3d6000fd5b505050506040513d6020811015611ae357600080fd5b50519063ffffffff612d6b16565b6020546001600160a01b031681565b60115462ffffff1681565b601a5481565b6023546001600160a01b031681565b611b2861296b565b6000546001600160a01b03908116911614611b78576040805162461bcd60e51b81526020600482018190526024820152600080516020614bc9833981519152604482015290519081900360640190fd5b60108190556040805182815290517f9f8929be552430dd6434c446d106c34954b2040ca8c4dbf42a39323dd6cda3ca9181900360200190a150565b60006117205b6000546001600160a01b031690565b6000611bd261296b565b6000546001600160a01b03908116911614611c22576040805162461bcd60e51b81526020600482018190526024820152600080516020614bc9833981519152604482015290519081900360640190fd5b60005b600a5481101561170a57600a8181548110611c3c57fe5b60009182526020918290200154604080516332c3db0f60e11b815290516001600160a01b0390921692636587b61e92600480840193829003018186803b158015611c8557600080fd5b505afa158015611c99573d6000803e3d6000fd5b505050506040513d6020811015611caf57600080fd5b5051611cbc576001909101905b600101611c25565b60145481565b6019546001600160a01b031681565b611ce161296b565b6000546001600160a01b03908116911614611d31576040805162461bcd60e51b81526020600482018190526024820152600080516020614bc9833981519152604482015290519081900360640190fd5b611d3961113a565b611d745760405162461bcd60e51b8152600401808060200182810382526025815260200180614a396025913960400191505060405180910390fd5b601580546001600160a01b0319166001600160a01b03838116919091179182905560408051929091168252517fdc58b28697ffd1bd5879b16631587874caec982b482d7ed05df69a5302f6e018916020908290030190a150565b600754600160b01b900460ff1681565b611de661296b565b6000546001600160a01b03908116911614611e36576040805162461bcd60e51b81526020600482018190526024820152600080516020614bc9833981519152604482015290519081900360640190fd5b600754600160a81b900460ff16611e94576040805162461bcd60e51b815260206004820152601e60248201527f436c617373726f6f6d3a20636f75727365206e6f742066696e69736865640000604482015290519081900360640190fd5b611e9c6119f7565b600e55600b54601254611eb49163ffffffff612dc816565b600e541015611ef45760405162461bcd60e51b8152600401808060200182810382526024815260200180614a816024913960400191505060405180910390fd5b600080611eff612e21565b9150915060006060611f118484612f58565b91509150611f1e816132f6565b611f278261337e565b611f2f613403565b611f376137b7565b50505050565b6018546001600160a01b031681565b611f5461296b565b6000546001600160a01b03908116911614611fa4576040805162461bcd60e51b81526020600482018190526024820152600080516020614bc9833981519152604482015290519081900360640190fd5b601654604080516370a0823160e01b815230600482015290516000926001600160a01b0316916370a08231916024808301926020929190829003018186803b158015611fef57600080fd5b505afa158015612003573d6000803e3d6000fd5b505050506040513d602081101561201957600080fd5b5051905080612028575061207e565b6000612052620f424061204684601454612dc890919063ffffffff16565b9063ffffffff6137fb16565b90506000612066838363ffffffff612d6b16565b905061207182613862565b61207a816138f7565b5050505b565b600b54151590565b6007546001600160a01b031681565b6026546001600160a01b031681565b6021546001600160a01b031681565b6120bd61296b565b6000546001600160a01b0390811691161461210d576040805162461bcd60e51b81526020600482018190526024820152600080516020614bc9833981519152604482015290519081900360640190fd5b60138190556040805182815290517fa67f34afb53d068e81607cde52dc74c58cbf6a05eac699e5543b97d25e3ca5cb9181900360200190a150565b6016546001600160a01b031681565b601e5481565b61216561296b565b6000546001600160a01b039081169116146121b5576040805162461bcd60e51b81526020600482018190526024820152600080516020614bc9833981519152604482015290519081900360640190fd5b6021546001600160a01b0316612200576040805162461bcd60e51b815260206004820152601f6024820152600080516020614aef833981519152604482015290519081900360640190fd5b60205460215461147c916001600160a01b0390811691168484613972565b61222661296b565b6000546001600160a01b03908116911614612276576040805162461bcd60e51b81526020600482018190526024820152600080516020614bc9833981519152604482015290519081900360640190fd5b602380546001600160a01b0319166001600160a01b0383811691909117918290556040805163076b7fbb60e51b81529051929091169163ed6ff76091600480820192602092909190829003018186803b1580156122d257600080fd5b505afa1580156122e6573d6000803e3d6000fd5b505050506040513d60208110156122fc57600080fd5b5051602580546001600160a01b0319166001600160a01b0392831617905560235460408051630261bf8b60e01b815290519190921691630261bf8b916004808301926020929190829003018186803b15801561235757600080fd5b505afa15801561236b573d6000803e3d6000fd5b505050506040513d602081101561238157600080fd5b5051602480546001600160a01b0319166001600160a01b0392831617815560255460165460408051631a59df7760e11b815291851660048301525191909316926334b3beee9281810192602092909190829003018186803b1580156123e557600080fd5b505afa1580156123f9573d6000803e3d6000fd5b505050506040513d602081101561240f57600080fd5b5051602680546001600160a01b0319166001600160a01b0390921691909117905550565b601c546001600160a01b031681565b601d5481565b61245061296b565b6000546001600160a01b039081169116146124a0576040805162461bcd60e51b81526020600482018190526024820152600080516020614bc9833981519152604482015290519081900360640190fd5b6011805462ffffff808416630100000090810265ffffff000000199093169290921792839055604080519290930416815290517f9d9f9ef51b12eb719684b7a2e09fc2f7e916cb0e229aecf5658ce6326dfeb1c59181900360200190a150565b6024546001600160a01b031681565b61251761296b565b6000546001600160a01b03908116911614612567576040805162461bcd60e51b81526020600482018190526024820152600080516020614bc9833981519152604482015290519081900360640190fd5b6021546001600160a01b03166125b2576040805162461bcd60e51b815260206004820152601f6024820152600080516020614aef833981519152604482015290519081900360640190fd5b60215460205461147c916001600160a01b0390811691168484613972565b6125d861296b565b6000546001600160a01b03908116911614612628576040805162461bcd60e51b81526020600482018190526024820152600080516020614bc9833981519152604482015290519081900360640190fd5b6001600160a01b03811661266d5760405162461bcd60e51b81526004018080602001828103825260268152602001806149e76026913960400191505060405180910390fd5b600080546040516001600160a01b0380851693921691600080516020614c1383398151915291a3600080546001600160a01b0319166001600160a01b0392909216919091179055565b60125481565b6126c461296b565b6000546001600160a01b03908116911614612714576040805162461bcd60e51b81526020600482018190526024820152600080516020614bc9833981519152604482015290519081900360640190fd5b600754600160a01b900460ff161561275d5760405162461bcd60e51b8152600401808060200182810382526026815260200180614ba36026913960400191505060405180910390fd5b600754600160b01b900460ff16156127bc576040805162461bcd60e51b815260206004820152601e60248201527f436c617373726f6f6d3a20636f7572736520616c7265616479206f70656e0000604482015290519081900360640190fd5b601654604080516370a0823160e01b815230600482015290516001600160a01b03909216916370a0823191602480820192602092909190829003018186803b15801561280757600080fd5b505afa15801561281b573d6000803e3d6000fd5b505050506040513d602081101561283157600080fd5b50511561286f5760405162461bcd60e51b815260040180806020018281038252602a815260200180614be9602a913960400191505060405180910390fd5b612877613b78565b604080516000815260208101918290525161289491600a916148f1565b50600b546128a157610a8d565b6007805460ff60b01b1916600160b01b1790554260085580156128d0576009805460ff19166001179055610a8d565b610a8d613d40565b6128e061296b565b6000546001600160a01b03908116911614612930576040805162461bcd60e51b81526020600482018190526024820152600080516020614bc9833981519152604482015290519081900360640190fd5b60128190556040805182815290517f84e881bf3fcef92f709a2a62150da178a998fbff128c017f3e846787a2f7f5f59181900360200190a150565b3390565b612977614952565b601a5461298c903063100b510360e11b613db0565b601954601b5491925061147c916001600160a01b03909116908390613ddb565b60185460165460155460009283926001600160a01b039182169263268e5d1d928792309290821691166129dd613fb2565b604080516001600160e01b031960e089901b1681526001600160a01b03968716600482015294861660248601529285166044850152931660648301526084820192909252905160a48083019260209291908290030181600087803b158015612a4457600080fd5b505af1158015612a58573d6000803e3d6000fd5b505050506040513d6020811015612a6e57600080fd5b50516001600160a01b038481166000818152600c602052604080822080546001600160a01b0319168587169081179091556007548251620c1d9360e91b81526004810195909552602485019190915290519495509092169263183b26009260448084019391929182900301818387803b158015612aea57600080fd5b505af1158015612afe573d6000803e3d6000fd5b509295945050505050565b60408051602080825281830190925260609160208201818036833750505060208101929092525090565b600082820183811015612b8b576040805162461bcd60e51b815260206004820152601b60248201527a536166654d6174683a206164646974696f6e206f766572666c6f7760281b604482015290519081900360640190fd5b90505b92915050565b601754604080516370a0823160e01b815230600482015290516000926001600160a01b0316916370a08231916024808301926020929190829003018186803b158015612bdf57600080fd5b505afa158015612bf3573d6000803e3d6000fd5b505050506040513d6020811015612c0957600080fd5b50516017546040805163db006a7560e01b81526004810184905290519293506001600160a01b039091169163db006a75916024808201926020929091908290030181600087803b158015612c5c57600080fd5b505af1158015612c70573d6000803e3d6000fd5b505050506040513d6020811015612c8657600080fd5b5050602654604080516370a0823160e01b815230600482015290516000926001600160a01b0316916370a08231916024808301926020929190829003018186803b158015612cd357600080fd5b505afa158015612ce7573d6000803e3d6000fd5b505050506040513d6020811015612cfd57600080fd5b50516026546040805163db006a7560e01b81526004810184905290519293506001600160a01b039091169163db006a759160248082019260009290919082900301818387803b158015612d4f57600080fd5b505af1158015612d63573d6000803e3d6000fd5b505050505050565b600082821115612dc2576040805162461bcd60e51b815260206004820152601e60248201527f536166654d6174683a207375627472616374696f6e206f766572666c6f770000604482015290519081900360640190fd5b50900390565b600082612dd757506000612b8e565b82820282848281612de457fe5b0414612b8b5760405162461bcd60e51b8152600401808060200182810382526021815260200180614b5e6021913960400191505060405180910390fd5b6000808080805b600b54811015612f4e57600b8181548110612e3f57fe5b60009182526020822001546040805163144e786960e11b815290516001600160a01b039092169263289cf0d29260048084019382900301818387803b158015612e8757600080fd5b505af1158015612e9b573d6000803e3d6000fd5b505050506000600b8281548110612eae57fe5b60009182526020918290200154604080516332c3db0f60e11b815290516001600160a01b0390921692636587b61e92600480840193829003018186803b158015612ef757600080fd5b505afa158015612f0b573d6000803e3d6000fd5b505050506040513d6020811015612f2157600080fd5b505190506003811415612f35576001909301925b8060051415612f45576001909201915b50600101612e28565b5090925090509091565b600b546012546000916060918390612f8990612f7a908463ffffffff612dc816565b600e549063ffffffff612d6b16565b601154601254919250600091612fb291620f4240916120469162ffffff1663ffffffff612dc816565b90506000612fcb82601254612d6b90919063ffffffff16565b90506000612fe385612046868c63ffffffff612dc816565b60115490915060009061300c90620f4240906120469085906301000000900462ffffff16612dc8565b905060006130248b612046888563ffffffff612d6b16565b90506060876001600160401b038111801561303e57600080fd5b50604051908082528060200260200182016040528015613068578160200160208202803683370190505b50905060005b888110156132d8576000600b828154811061308557fe5b60009182526020918290200154604080516332c3db0f60e11b815290516001600160a01b0390921692636587b61e92600480840193829003018186803b1580156130ce57600080fd5b505afa1580156130e2573d6000803e3d6000fd5b505050506040513d60208110156130f857600080fd5b5051905060038114156131ac57600b828154811061311257fe5b600091825260208220015460408051637db9abaf60e01b8152600481018b90526024810188905290516001600160a01b0390921692637db9abaf9260448084019382900301818387803b15801561316857600080fd5b505af115801561317c573d6000803e3d6000fd5b505050506131938488612b3390919063ffffffff16565b83838151811061319f57fe5b6020026020010181815250505b806004141561324a57600b82815481106131c257fe5b600091825260208220015460408051637db9abaf60e01b8152600481018b90526024810184905290516001600160a01b0390921692637db9abaf9260448084019382900301818387803b15801561321857600080fd5b505af115801561322c573d6000803e3d6000fd5b505050508683838151811061323d57fe5b6020026020010181815250505b80600514156132cf57600b828154811061326057fe5b600091825260208220015460408051637db9abaf60e01b8152600481018490526024810184905290516001600160a01b0390921692637db9abaf9260448084019382900301818387803b1580156132b657600080fd5b505af11580156132ca573d6000803e3d6000fd5b505050505b5060010161306e565b506132e58b848a89613fee565b9c909b509950505050505050505050565b60005b600b5481101561147c57600082828151811061331157fe5b6020026020010151111561337657601654600b8054613376926001600160a01b031691908490811061333f57fe5b9060005260206000200160009054906101000a90046001600160a01b031684848151811061336957fe5b6020026020010151614119565b6001016132f9565b60165460075461339b916001600160a01b03908116911683614119565b600754604080516307d4728360e51b81526004810184905290516001600160a01b039092169163fa8e50609160248082019260009290919082900301818387803b1580156133e857600080fd5b505af11580156133fc573d6000803e3d6000fd5b5050505050565b60005b600b54811015610a8d576000600b828154811061341f57fe5b60009182526020918290200154604080516332c3db0f60e11b815290516001600160a01b0390921692636587b61e92600480840193829003018186803b15801561346857600080fd5b505afa15801561347c573d6000803e3d6000fd5b505050506040513d602081101561349257600080fd5b50519050600381141561359e57600754600b80546001600160a01b03909216916387bfe1889190859081106134c357fe5b600091825260209182902001546040805163b8f31a8160e01b815290516001600160a01b039092169263b8f31a8192600480840193829003018186803b15801561350c57600080fd5b505afa158015613520573d6000803e3d6000fd5b505050506040513d602081101561353657600080fd5b5051604080516001600160e01b031960e085901b1681526001600160a01b0390921660048301526001602483015251604480830192600092919082900301818387803b15801561358557600080fd5b505af1158015613599573d6000803e3d6000fd5b505050505b80600414156136a657600754600b80546001600160a01b039092169163ff5d8f639190859081106135cb57fe5b600091825260209182902001546040805163b8f31a8160e01b815290516001600160a01b039092169263b8f31a8192600480840193829003018186803b15801561361457600080fd5b505afa158015613628573d6000803e3d6000fd5b505050506040513d602081101561363e57600080fd5b5051604080516001600160e01b031960e085901b1681526001600160a01b0390921660048301526001602483015251604480830192600092919082900301818387803b15801561368d57600080fd5b505af11580156136a1573d6000803e3d6000fd5b505050505b80600514156137ae57600754600b80546001600160a01b039092169163ff5d8f639190859081106136d357fe5b600091825260209182902001546040805163b8f31a8160e01b815290516001600160a01b039092169263b8f31a8192600480840193829003018186803b15801561371c57600080fd5b505afa158015613730573d6000803e3d6000fd5b505050506040513d602081101561374657600080fd5b5051604080516001600160e01b031960e085901b1681526001600160a01b0390921660048301526002602483015251604480830192600092919082900301818387803b15801561379557600080fd5b505af11580156137a9573d6000803e3d6000fd5b505050505b50600101613406565b60408051600081526020810191829052516137d491600b916148f1565b506137dd611313565b6000600e556007805460ff60a81b191690556009805460ff19169055565b600080821161384e576040805162461bcd60e51b815260206004820152601a602482015279536166654d6174683a206469766973696f6e206279207a65726f60301b604482015290519081900360640190fd5b600082848161385957fe5b04949350505050565b60165460175461387f916001600160a01b0390811691168361427c565b6017546040805163140e25ad60e31b81526004810184905290516001600160a01b039092169163a0712d68916024808201926020929091908290030181600087803b1580156138cd57600080fd5b505af11580156138e1573d6000803e3d6000fd5b505050506040513d602081101561207a57600080fd5b601654602554613914916001600160a01b0390811691168361427c565b6024805460165460408051636968703360e11b81526001600160a01b0392831660048201529384018590526000604485018190529051919092169263d2d0e06692606480830193919282900301818387803b1580156133e857600080fd5b60225461398a9085906001600160a01b03168461427c565b604080516002808252606080830184529260208301908036833701905050905084816000815181106139b857fe5b60200260200101906001600160a01b031690816001600160a01b03168152505083816001815181106139e657fe5b6001600160a01b039283166020918202929092018101919091526022546040516338ed173960e01b81526004810187815260006024830181905230606484018190526084840189905260a060448501908152885160a4860152885195909716966338ed1739968b9693958a9593948c94939260c49092019187810191028083838b5b83811015613a80578181015183820152602001613a68565b505050509050019650505050505050600060405180830381600087803b158015613aa957600080fd5b505af1158015613abd573d6000803e3d6000fd5b505050506040513d6000823e601f3d908101601f191682016040526020811015613ae657600080fd5b8101908080516040519392919084600160201b821115613b0557600080fd5b908301906020820185811115613b1a57600080fd5b82518660208202830111600160201b82111715613b3657600080fd5b82525081516020918201928201910280838360005b83811015613b63578181015183820152602001613b4b565b50505050905001604052505050505050505050565b60005b600a54811015610a8d57600a8181548110613b9257fe5b60009182526020918290200154604080516332c3db0f60e11b815290516001600160a01b0390921692636587b61e92600480840193829003018186803b158015613bdb57600080fd5b505afa158015613bef573d6000803e3d6000fd5b505050506040513d6020811015613c0557600080fd5b505160011415613cca57600a8181548110613c1c57fe5b600091825260208220015460408051623c57d360e61b815290516001600160a01b0390921692630f15f4c09260048084019382900301818387803b158015613c6357600080fd5b505af1158015613c77573d6000803e3d6000fd5b50505050600b600a8281548110613c8a57fe5b60009182526020808320909101548354600181018555938352912090910180546001600160a01b0319166001600160a01b03909216919091179055613d38565b600a8181548110613cd757fe5b600091825260208220015460408051633caccfcb60e11b815290516001600160a01b03909216926379599f969260048084019382900301818387803b158015613d1f57600080fd5b505af1158015613d33573d6000803e3d6000fd5b505050505b600101613b7b565b613d48614952565b601d54613d5d9030630aab456960e01b613db0565b9050613d95604051806040016040528060058152602001641d5b9d1a5b60da1b8152506013544201836143df9092919063ffffffff16565b601c54601e5461147c916001600160a01b0316908390613ddb565b613db8614952565b613dc0614952565b613dd28186868663ffffffff61440916565b95945050505050565b6005546040805130606090811b60208084019190915260348084018690528451808503909101815260549093018452825192810192909220908601939093526000838152600690915281812080546001600160a01b0319166001600160a01b038816179055905182917fb5e6e01e79f91267dc17b4e6314d5d4d03593d2ceee0fbb452b750bd70ea5af991a26003546001600160a01b0316634000aea08584613e8387614446565b6040518463ffffffff1660e01b815260040180846001600160a01b03166001600160a01b0316815260200183815260200180602001828103825283818151815260200191508051906020019080838360005b83811015613eed578181015183820152602001613ed5565b50505050905090810190601f168015613f1a5780820380516001836020036101000a031916815260200191505b50945050505050602060405180830381600087803b158015613f3b57600080fd5b505af1158015613f4f573d6000803e3d6000fd5b505050506040513d6020811015613f6557600080fd5b5051613fa25760405162461bcd60e51b8152600401808060200182810382526023815260200180614a5e6023913960400191505060405180910390fd5b6005805460010190559392505050565b6000613fbc614586565b600f54600040186040516020018082815260200191505060405160208183030381529060405280519060200120905090565b600080600760009054906101000a90046001600160a01b03166001600160a01b031663e6fd604c6040518163ffffffff1660e01b815260040160206040518083038186803b15801561403f57600080fd5b505afa158015614053573d6000803e3d6000fd5b505050506040513d602081101561406957600080fd5b505160125490915060009061408590889063ffffffff612dc816565b905060006140a5620f42406120468962ffffff871663ffffffff612dc816565b905060006140b9878a63ffffffff612d6b16565b905060006140e9620f424061204662ffffff88166140dd8b8763ffffffff612dc816565b9063ffffffff612dc816565b905061410b816140ff868663ffffffff612b3316565b9063ffffffff612b3316565b9a9950505050505050505050565b604080516001600160a01b038481166024830152604480830185905283518084039091018152606490920183526020820180516001600160e01b031663a9059cbb60e01b178152925182516000946060949389169392918291908083835b602083106141965780518252601f199092019160209182019101614177565b6001836020036101000a0380198251168184511680821785525050505050509050019150506000604051808303816000865af19150503d80600081146141f8576040519150601f19603f3d011682016040523d82523d6000602084013e6141fd565b606091505b509150915081801561422b57508051158061422b575080806020019051602081101561422857600080fd5b50515b6133fc576040805162461bcd60e51b815260206004820152601f60248201527f5472616e7366657248656c7065723a205452414e534645525f4641494c454400604482015290519081900360640190fd5b604080516001600160a01b038481166024830152604480830185905283518084039091018152606490920183526020820180516001600160e01b031663095ea7b360e01b178152925182516000946060949389169392918291908083835b602083106142f95780518252601f1990920191602091820191016142da565b6001836020036101000a0380198251168184511680821785525050505050509050019150506000604051808303816000865af19150503d806000811461435b576040519150601f19603f3d011682016040523d82523d6000602084013e614360565b606091505b509150915081801561438e57508051158061438e575080806020019051602081101561438b57600080fd5b50515b6133fc576040805162461bcd60e51b815260206004820152601e60248201527f5472616e7366657248656c7065723a20415050524f56455f4641494c45440000604482015290519081900360640190fd5b60808301516143f4908363ffffffff6145af16565b608083015161207a908263ffffffff6145cc16565b614411614952565b61442185608001516101006145d8565b50509183526001600160a01b031660208301526001600160e01b031916604082015290565b6060634042994660e01b6000808460000151856020015186604001518760600151600189608001516000015160405160240180896001600160a01b03166001600160a01b03168152602001888152602001878152602001866001600160a01b03166001600160a01b03168152602001856001600160e01b0319166001600160e01b031916815260200184815260200183815260200180602001828103825283818151815260200191508051906020019080838360005b838110156145145781810151838201526020016144fc565b50505050905090810190601f1680156145415780820380516001836020036101000a031916815260200191505b5060408051601f198184030181529190526020810180516001600160e01b03166001600160e01b0319909d169c909c17909b5250989950505050505050505050919050565b600f80546040805160208082019390935281518082038401815290820190915280519101209055565b6145bc8260038351614612565b61207a828263ffffffff61471b16565b61147c82600083614612565b6145e0614987565b60208206156145f55760208206602003820191505b506020828101829052604080518085526000815290920101905290565b60178111614639576146338360e0600585901b16831763ffffffff61473516565b5061207a565b60ff811161466f5761465c836018611fe0600586901b161763ffffffff61473516565b506146338382600163ffffffff61474d16565b61ffff81116146a657614693836019611fe0600586901b161763ffffffff61473516565b506146338382600263ffffffff61474d16565b63ffffffff81116146df576146cc83601a611fe0600586901b161763ffffffff61473516565b506146338382600463ffffffff61474d16565b6001600160401b03811161207a5761470883601b611fe0600586901b161763ffffffff61473516565b50611f378382600863ffffffff61474d16565b614723614987565b612b8b8384600001515184855161476e565b61473d614987565b612b8b838460000151518461481a565b614755614987565b614766848560000151518585614865565b949350505050565b614776614987565b825182111561478457600080fd5b846020015182850111156147ae576147ae856147a687602001518786016148c3565b6002026148da565b6000808651805187602083010193508088870111156147cd5787860182525b505050602084015b602084106147f45780518252601f1990930192602091820191016147d5565b51815160001960208690036101000a019081169019919091161790525083949350505050565b614822614987565b8360200151831061483e5761483e8485602001516002026148da565b83518051602085830101848153508085141561485b576001810182525b5093949350505050565b61486d614987565b8460200151848301111561488a5761488a858584016002026148da565b60006001836101000a0390508551838682010185831982511617815250805184870111156148b85783860181525b509495945050505050565b6000818311156148d4575081612b8e565b50919050565b81516148e683836145d8565b50611f37838261471b565b828054828255906000526020600020908101928215614946579160200282015b8281111561494657825182546001600160a01b0319166001600160a01b03909116178255602090920191600190910190614911565b5061170a9291506149a1565b6040805160a081018252600080825260208201819052918101829052606081019190915260808101614982614987565b905290565b604051806040016040528060608152602001600081525090565b61115791905b8082111561170a5780546001600160a01b03191681556001016149a756fe436c617373726f6f6d3a206e6f7420656e6f756768204c696e6b20746f6b656e734f776e61626c653a206e6577206f776e657220697320746865207a65726f2061646472657373436c617373726f6f6d3a2073747564656e7420646f65736e2774206861766520656e6f7567682073636f7265436c617373726f6f6d3a2063616e2774206368616e6765206368616c6c656e6765206e6f77756e61626c6520746f207472616e73666572416e6443616c6c20746f206f7261636c65436c617373726f6f6d3a206e6f7420656e6f7567682044414920746f2070726f63656564436c617373726f6f6d3a2072656164207065726d697373696f6e2064656e696564436c617373726f6f6d3a2063616e2774206265206d6f72652074686174203130302520696e2070706d556e69766572736974793a20736574757020756e697377617020666972737400436c617373726f6f6d3a2073747564656e7473206c697374206e6f7420656d707479436c617373726f6f6d3a2070726f666573736f722063616e277420626520697473206f776e2073747564656e74536166654d6174683a206d756c7469706c69636174696f6e206f766572666c6f77436c617373726f6f6d3a20746f6f20736f6f6e20746f2066696e69736820636f75727365436c617373726f6f6d3a206170706c69636174696f6e7320617265207374696c6c206f70656e4f776e61626c653a2063616c6c6572206973206e6f7420746865206f776e6572436c617373726f6f6d3a20696e7665737420616c6c2062616c616e6365206265666f726520626567696e8be0079c531659141344cd1fd0a4f28419497f9722a3daafe3b4186f6b6457e0436c617373726f6f6d3a206170706c69636174696f6e732061726520616c726561647920636c6f736564436c617373726f6f6d3a2073747564656e74206973206e6f742072656769737465726564436c617373726f6f6d3a206170706c69636174696f6e732061726520616c7265616479206f70656e6564536f75726365206d75737420626520746865206f7261636c65206f662074686520726571756573747cc135e0cebb02c3480ae5d74d377283180a2601f8f644edf7987b009316c63aa2646970667358221220c7845c82c68347175f78a36f499cc0f76a0f346248a809a8d73d369de0beaa9c64736f6c63430006060033",
  "immutableReferences": {},
  "source": "pragma solidity ^0.6.6;\n\nimport \"@openzeppelin/contracts/math/SafeMath.sol\";\nimport \"@openzeppelin/contracts/access/Ownable.sol\";\nimport \"@openzeppelin/contracts/token/ERC20/IERC20.sol\";\nimport \"@chainlink/contracts/src/v0.6/ChainlinkClient.sol\";\nimport \"@chainlink/contracts/src/v0.6/interfaces/LinkTokenInterface.sol\";\nimport \"@uniswap/v2-periphery/contracts/interfaces/IUniswapV2Router01.sol\";\nimport \"@uniswap/lib/contracts/libraries/TransferHelper.sol\";\nimport \"@nomiclabs/buidler/console.sol\";\nimport \"./interface/Aave/aToken.sol\";\nimport \"./interface/Aave/ILendingPool.sol\";\nimport \"./interface/Aave/ILendingPoolAddressesProvider.sol\";\nimport \"./interface/IUniversity.sol\";\nimport \"./interface/IStudent.sol\";\nimport \"./interface/IClassroom.sol\";\nimport \"./interface/IStudentApplication.sol\";\nimport \"./interface/IClassroomChallenge.sol\";\nimport \"./interface/IStudentApplicationFactory.sol\";\nimport \"./MyUtils.sol\";\n\n\ncontract Classroom is Ownable, ChainlinkClient, IClassroom {\n    IUniversity public university;\n    bool public openForApplication;\n    bool public courseFinished;\n    bool public classroomActive;\n    uint256 public startDate;\n    bool _timestampAlarm;\n    address[] _studentApplications;\n    address[] _validStudentApplications;\n    mapping(address => address) _studentApplicationsLink;\n    uint256 _endDate;\n    uint256 _courseBalance;\n    bytes32 _seed;\n\n    //Classroom parameters\n    bytes32 public name;\n    uint24 public principalCut;\n    uint24 public poolCut;\n    int32 public minScore;\n    uint256 public override entryPrice;\n    uint256 public duration;\n    uint256 public compoundApplyPercentage;\n    address public challengeAddress;\n\n    //Tokens\n    address public daiToken;\n    address public cDAI;\n\n    //Factory\n    IStudentApplicationFactory public studentApplicationFactory;\n\n    //Chainlink config\n    address public oracleRandom;\n    bytes32 public requestIdRandom;\n    uint256 public oraclePaymentRandom;\n    address public oracleTimestamp;\n    bytes32 public requestIdTimestamp;\n    uint256 public oraclePaymentTimestamp;\n    address public linkToken;\n\n    //Uniswap Config\n    address public uniswapDAI;\n    address public uniswapLINK;\n    IUniswapV2Router01 public uniswapRouter;\n\n    //Aave Config\n    ILendingPoolAddressesProvider public aaveProvider;\n    ILendingPool public aaveLendingPool;\n    address public aaveLendingPoolCore;\n    address public aTokenDAI;\n\n    constructor(\n        bytes32 name_,\n        uint24 principalCut_,\n        uint24 poolCut_,\n        int32 minScore_,\n        uint256 entryPrice_,\n        uint256 duration_,\n        address payable universityAddress,\n        address challengeAddress_,\n        address daiAddress,\n        address compoundDAIAddress,\n        address studentApplicationFactoryAddress\n    ) public {\n        name = name_;\n        principalCut = principalCut_;\n        poolCut = poolCut_;\n        minScore = minScore_;\n        entryPrice = entryPrice_;\n        duration = duration_;\n        compoundApplyPercentage = 0.5 * 1e6;\n        university = IUniversity(universityAddress);\n        challengeAddress = challengeAddress_;\n        openForApplication = false;\n        classroomActive = false;\n        daiToken = daiAddress;\n        cDAI = compoundDAIAddress;\n        studentApplicationFactory = IStudentApplicationFactory(\n            studentApplicationFactoryAddress\n        );\n    }\n\n    event LogOpenApplications();\n    event LogCloseApplications();\n    event LogCourseFinished();\n    event LogChangeChallenge(address);\n    event LogChangeName(bytes32);\n    event LogChangePrincipalCut(uint24);\n    event LogChangePoolCut(uint24);\n    event LogChangeMinScore(int32);\n    event LogChangeEntryPrice(uint256);\n    event LogChangeDuration(uint256);\n\n    // @dev \"Stack too deep\" error if done in the constructor\n    function configureOracles(\n        address oracleRandom_,\n        bytes32 requestIdRandom_,\n        uint256 oraclePaymentRandom_,\n        address oracleTimestamp_,\n        bytes32 requestIdTimestamp_,\n        uint256 oraclePaymentTimestamp_,\n        address linkToken_,\n        bool _____REMOVE_BEFORE_LAUNCH______MOCK\n    ) public onlyOwner {\n        oracleRandom = oracleRandom_;\n        requestIdRandom = requestIdRandom_;\n        oraclePaymentRandom = oraclePaymentRandom_;\n        oracleTimestamp = oracleTimestamp_;\n        requestIdTimestamp = requestIdTimestamp_;\n        oraclePaymentTimestamp = oraclePaymentTimestamp_;\n        linkToken = linkToken_;\n        require(\n            LinkTokenInterface(linkToken).balanceOf(address(this)) >=\n                oraclePaymentRandom,\n            \"Classroom: not enough Link tokens\"\n        );\n        if (!_____REMOVE_BEFORE_LAUNCH______MOCK) _generateSeed();\n    }\n\n    function configureUniswap(\n        address uniswapDAI_,\n        address uniswapLINK_,\n        address uniswapRouter_\n    ) public onlyOwner {\n        uniswapDAI = uniswapDAI_;\n        uniswapLINK = uniswapLINK_;\n        uniswapRouter = IUniswapV2Router01(uniswapRouter_);\n    }\n\n    function configureAave(address lendingPoolAddressesProvider)\n        public\n        onlyOwner\n    {\n        aaveProvider = ILendingPoolAddressesProvider(\n            lendingPoolAddressesProvider\n        );\n        aaveLendingPoolCore = aaveProvider.getLendingPoolCore();\n        aaveLendingPool = ILendingPool(aaveProvider.getLendingPool());\n        aTokenDAI = ILendingPoolCore(aaveLendingPoolCore)\n            .getReserveATokenAddress(daiToken);\n    }\n\n    function transferOwnershipClassroom(address newOwner) public override {\n        transferOwnership(newOwner);\n    }\n\n    function ownerClassroom() public view override returns (address) {\n        return owner();\n    }\n\n    function changeName(bytes32 val) public onlyOwner {\n        name = val;\n        emit LogChangeName(name);\n    }\n\n    function changePrincipalCut(uint24 val) public onlyOwner {\n        principalCut = val;\n        emit LogChangePrincipalCut(principalCut);\n    }\n\n    function changePoolCut(uint24 val) public onlyOwner {\n        poolCut = val;\n        emit LogChangePoolCut(poolCut);\n    }\n\n    function changeMinScore(int32 val) public onlyOwner {\n        minScore = val;\n        emit LogChangeMinScore(minScore);\n    }\n\n    function changeEntryPrice(uint256 val) public onlyOwner {\n        entryPrice = val;\n        emit LogChangeEntryPrice(entryPrice);\n    }\n\n    function changeDuration(uint256 val) public onlyOwner {\n        duration = val;\n        emit LogChangeDuration(duration);\n    }\n\n    function changeCompoundApplyPercentage(uint256 ppm) public onlyOwner {\n        require(ppm <= 1e6, \"Classroom: can't be more that 100% in ppm\");\n        compoundApplyPercentage = ppm;\n    }\n\n    function changeChallenge(address addr) public onlyOwner {\n        require(isClassroomEmpty(), \"Classroom: can't change challenge now\");\n        challengeAddress = addr;\n        emit LogChangeChallenge(challengeAddress);\n    }\n\n    function viewMyApplication() public view override returns (address) {\n        return viewApplication(_msgSender());\n    }\n\n    function viewApplication(address addr) public view returns (address) {\n        require(\n            addr == _msgSender() || _msgSender() == owner(),\n            \"Classroom: read permission denied\"\n        );\n        return _studentApplicationsLink[addr];\n    }\n\n    function isClassroomEmpty() public view returns (bool) {\n        return\n            _studentApplications.length.add(_validStudentApplications.length) ==\n            0;\n    }\n\n    function isCourseOngoing() public view returns (bool) {\n        return _validStudentApplications.length > 0;\n    }\n\n    function openApplications() public onlyOwner {\n        require(oracleRandom != address(0), \"Classroom: setup oracles first\");\n        require(uniswapDAI != address(0), \"Classroom: setup Uniswap first\");\n        require(\n            aaveLendingPoolCore != address(0),\n            \"Classroom: setup Aave first\"\n        );\n        require(\n            !openForApplication,\n            \"Classroom: applications are already opened\"\n        );\n        require(\n            _studentApplications.length == 0,\n            \"Classroom: students list not empty\"\n        );\n        require(\n            LinkTokenInterface(linkToken).balanceOf(address(this)) >=\n                oraclePaymentTimestamp,\n            \"Classroom: not enough Link tokens\"\n        );\n        openForApplication = true;\n        emit LogOpenApplications();\n    }\n\n    function closeApplications() public onlyOwner {\n        require(\n            openForApplication,\n            \"Classroom: applications are already closed\"\n        );\n        openForApplication = false;\n        emit LogCloseApplications();\n    }\n\n    //public onlyOwner allow the professor to apply money before and after closing applications\n    function applyDAI() public onlyOwner {\n        uint256 balance = IERC20(daiToken).balanceOf(address(this));\n        if (balance <= 0) return;\n        uint256 compoundApply = compoundApplyPercentage.mul(balance).div(1e6);\n        uint256 aaveApply = balance.sub(compoundApply);\n        applyFundsCompound(compoundApply);\n        applyFundsAave(aaveApply);\n    }\n\n    function applyFundsCompound(uint256 val) internal {\n        TransferHelper.safeApprove(address(daiToken), address(cDAI), val);\n        CERC20(cDAI).mint(val);\n    }\n\n    function applyFundsAave(uint256 val) internal {\n        TransferHelper.safeApprove(\n            address(daiToken),\n            aaveLendingPoolCore,\n            val\n        );\n        aaveLendingPool.deposit(address(daiToken), val, 0);\n    }\n\n    function studentApply() public override {\n        require(\n            IStudent(_msgSender()).ownerStudent() != owner(),\n            \"Classroom: professor can't be its own student\"\n        );\n        require(\n            university.studentIsRegistered(_msgSender()),\n            \"Classroom: student is not registered\"\n        );\n        IStudent applicant = IStudent(_msgSender());\n        require(\n            applicant.score() >= minScore,\n            \"Classroom: student doesn't have enough score\"\n        );\n        require(openForApplication, \"Classroom: applications closed\");\n        address application = _createStudentApplication(address(applicant));\n        _studentApplications.push(application);\n    }\n\n    function _createStudentApplication(address student)\n        internal\n        returns (address)\n    {\n        address newApplication = studentApplicationFactory\n            .newStudentApplication(\n            student,\n            address(this),\n            address(daiToken),\n            challengeAddress,\n            generateNewSeed()\n        );\n        _studentApplicationsLink[student] = newApplication;\n        university.registerStudentApplication(student, newApplication);\n        return newApplication;\n    }\n\n    function generateNewSeed() internal returns (bytes32) {\n        _mutateSeed();\n        return keccak256(abi.encode(blockhash(0) ^ _seed));\n    }\n\n    function countNewApplications()\n        public\n        view\n        onlyOwner\n        returns (uint256 count)\n    {\n        for (uint256 i = 0; i < _studentApplications.length; i++) {\n            if (\n                IStudentApplication(_studentApplications[i])\n                    .applicationState() == 0\n            ) count++;\n        }\n    }\n\n    function countReadyApplications()\n        public\n        view\n        onlyOwner\n        returns (uint256 count)\n    {\n        for (uint256 i = 0; i < _studentApplications.length; i++) {\n            if (\n                IStudentApplication(_studentApplications[i])\n                    .applicationState() == 1\n            ) count++;\n        }\n    }\n\n    function beginCourse(bool _____REMOVE_BEFORE_LAUNCH______MOCK)\n        public\n        onlyOwner\n    {\n        require(!openForApplication, \"Classroom: applications are still open\");\n        require(!classroomActive, \"Classroom: course already open\");\n        require(\n            IERC20(daiToken).balanceOf(address(this)) == 0,\n            \"Classroom: invest all balance before begin\"\n        );\n        checkApplications();\n        _studentApplications = new address[](0);\n        if (_validStudentApplications.length == 0) return;\n        classroomActive = true;\n        startDate = block.timestamp;\n        if (_____REMOVE_BEFORE_LAUNCH______MOCK) _timestampAlarm = true;\n        else _setAlarm();\n    }\n\n    function checkApplications() internal {\n        for (uint256 i = 0; i < _studentApplications.length; i++) {\n            if (\n                IStudentApplication(_studentApplications[i])\n                    .applicationState() == 1\n            ) {\n                IStudentApplication(_studentApplications[i]).activate();\n                _validStudentApplications.push(_studentApplications[i]);\n            } else {\n                IStudentApplication(_studentApplications[i]).expire();\n            }\n        }\n    }\n\n    function finishCourse() public onlyOwner {\n        require(\n            _validStudentApplications.length > 0,\n            \"Classroom: no applications\"\n        );\n        require(_timestampAlarm, \"Classroom: too soon to finish course\");\n        _courseBalance = IERC20(daiToken).balanceOf(address(this));\n        _recoverInvestment();\n        courseFinished = true;\n        emit LogCourseFinished();\n    }\n\n    function courseBalance() public view onlyOwner() returns (uint256) {\n        return\n            courseFinished\n                ? IERC20(daiToken).balanceOf(address(this)).sub(_courseBalance)\n                : 0;\n    }\n\n    function _recoverInvestment() internal {\n        uint256 balanceCompound = CERC20(cDAI).balanceOf(address(this));\n        CERC20(cDAI).redeem(balanceCompound);\n        uint256 balanceAave = aToken(aTokenDAI).balanceOf(address(this));\n        aToken(aTokenDAI).redeem(balanceAave);\n    }\n\n    function processResults() public onlyOwner {\n        require(courseFinished, \"Classroom: course not finished\");\n        _courseBalance = courseBalance();\n        require(\n            _courseBalance >= entryPrice.mul(_validStudentApplications.length),\n            \"Classroom: not enough DAI to proceed\"\n        );\n        (uint256 successCount, uint256 emptyCount) = _startAnswerVerification();\n        (\n            uint256 universityCut,\n            uint256[] memory studentAllowances\n        ) = _accountValues(successCount, emptyCount);\n        _resolveStudentAllowances(studentAllowances);\n        _resolveUniversityCut(universityCut);\n        _updateStudentScores();\n        _clearClassroom();\n    }\n\n    function _startAnswerVerification() internal returns (uint256, uint256) {\n        uint256 successCount = 0;\n        uint256 emptyCount = 0;\n        for (uint256 i = 0; i < _validStudentApplications.length; i++) {\n            IStudentApplication(_validStudentApplications[i])\n                .registerFinalAnswer();\n            uint256 appState = IStudentApplication(_validStudentApplications[i])\n                .applicationState();\n            if (appState == 3) successCount++;\n            if (appState == 5) emptyCount++;\n        }\n        return (successCount, emptyCount);\n    }\n\n    function _accountValues(uint256 successCount, uint256 emptyCount)\n        internal\n        returns (uint256, uint256[] memory)\n    {\n        uint256 nStudents = _validStudentApplications.length;\n        uint256 returnsPool = _courseBalance.sub(entryPrice.mul(nStudents));\n        uint256 professorPaymentPerStudent = entryPrice.mul(principalCut).div(\n            1e6\n        );\n        uint256 studentPrincipalReturn = entryPrice.sub(\n            professorPaymentPerStudent\n        );\n        uint256 successPool = returnsPool.mul(successCount).div(nStudents);\n        uint256 professorTotalPoolSuccessShare = successPool.mul(poolCut).div(\n            1e6\n        );\n        uint256 successStudentPoolShare = returnsPool\n            .sub(professorTotalPoolSuccessShare)\n            .div(successCount);\n        uint256[] memory studentAllowances = new uint256[](nStudents);\n        for (uint256 i = 0; i < nStudents; i++) {\n            uint256 appState = IStudentApplication(_validStudentApplications[i])\n                .applicationState();\n            if (appState == 3) {\n                IStudentApplication(_validStudentApplications[i])\n                    .accountAllowance(\n                    studentPrincipalReturn,\n                    successStudentPoolShare\n                );\n                studentAllowances[i] = studentPrincipalReturn.add(\n                    successStudentPoolShare\n                );\n            }\n            if (appState == 4) {\n                IStudentApplication(_validStudentApplications[i])\n                    .accountAllowance(studentPrincipalReturn, 0);\n                studentAllowances[i] = studentPrincipalReturn;\n            }\n            if (appState == 5)\n                IStudentApplication(_validStudentApplications[i])\n                    .accountAllowance(0, 0);\n        }\n        \n        return (\n            _calculateUniversityShare(\n                emptyCount,\n                professorTotalPoolSuccessShare,\n                nStudents,\n                professorPaymentPerStudent\n            ),\n            studentAllowances\n        );\n    }\n\n    function _calculateUniversityShare(\n        uint256 emptyCount,\n        uint256 professorTotalPoolSuccessShare,\n        uint256 nStudents,\n        uint256 professorPaymentPerStudent\n    ) internal view returns (uint256) {\n        uint24 uCut = university.cut();\n        uint256 universityEmptyShare = emptyCount.mul(entryPrice);\n        uint256 universityPaymentShare = professorTotalPoolSuccessShare\n            .mul(uCut)\n            .div(1e6);\n        uint256 notEmptyCount = nStudents.sub(emptyCount);\n        uint256 universitySucessPoolShare = professorPaymentPerStudent\n            .mul(notEmptyCount)\n            .mul(uCut)\n            .div(1e6);\n        return\n            universityEmptyShare.add(universityPaymentShare).add(\n                universitySucessPoolShare\n            );\n    }\n\n    function _resolveStudentAllowances(uint256[] memory studentAllowances)\n        internal\n    {\n        for (uint256 i = 0; i < _validStudentApplications.length; i++) {\n            if (studentAllowances[i] > 0)\n                TransferHelper.safeTransfer(\n                    daiToken,\n                    address(_validStudentApplications[i]),\n                    studentAllowances[i]\n                );\n        }\n    }\n\n    function _resolveUniversityCut(uint256 universityCut) internal {\n        TransferHelper.safeTransfer(\n            address(daiToken),\n            address(university),\n            universityCut\n        );\n        university.accountRevenue(universityCut);\n    }\n\n    function _updateStudentScores() internal {\n        for (uint256 i = 0; i < _validStudentApplications.length; i++) {\n            uint256 appState = IStudentApplication(_validStudentApplications[i])\n                .applicationState();\n            if (appState == 3)\n                university.addStudentScore(\n                    IStudentApplication(_validStudentApplications[i])\n                        .studentAddress(),\n                    1\n                );\n            if (appState == 4)\n                university.subStudentScore(\n                    IStudentApplication(_validStudentApplications[i])\n                        .studentAddress(),\n                    1\n                );\n            if (appState == 5)\n                university.subStudentScore(\n                    IStudentApplication(_validStudentApplications[i])\n                        .studentAddress(),\n                    2\n                );\n        }\n    }\n\n    function _clearClassroom() internal {\n        _validStudentApplications = new address[](0);\n        withdrawAllResults();\n        _courseBalance = 0;\n        courseFinished = false;\n        _timestampAlarm = false;\n    }\n\n    function _mutateSeed() internal {\n        _seed = keccak256(abi.encode(_seed));\n    }\n\n    function withdrawAllResults() public onlyOwner {\n        IERC20(daiToken).transferFrom(\n            address(this),\n            owner(),\n            IERC20(daiToken).balanceOf(address(this))\n        );\n    }\n\n    function swapDAI_LINK(uint256 amount, uint256 deadline) public onlyOwner {\n        require(uniswapLINK != address(0), \"University: setup uniswap first\");\n        swapBlind(uniswapDAI, uniswapLINK, amount, deadline);\n    }\n\n    function swapLINK_DAI(uint256 amount, uint256 deadline) public onlyOwner {\n        require(uniswapLINK != address(0), \"University: setup uniswap first\");\n        swapBlind(uniswapLINK, uniswapDAI, amount, deadline);\n    }\n\n    function swapBlind(\n        address tokenA,\n        address tokenB,\n        uint256 amount,\n        uint256 deadline\n    ) internal {\n        TransferHelper.safeApprove(tokenA, address(uniswapRouter), amount);\n        address[] memory path = new address[](2);\n        path[0] = tokenA;\n        path[1] = tokenB;\n        uniswapRouter.swapExactTokensForTokens(\n            amount,\n            0,\n            path,\n            address(this),\n            deadline\n        );\n    }\n\n    function _generateSeed() internal {\n        Chainlink.Request memory req = buildChainlinkRequest(\n            requestIdRandom,\n            address(this),\n            this.fulfillGenerateSeed.selector\n        );\n        sendChainlinkRequestTo(oracleRandom, req, oraclePaymentRandom);\n    }\n\n    function fulfillGenerateSeed(bytes32 _requestId, uint256 data)\n        public\n        recordChainlinkFulfillment(_requestId)\n    {\n        _seed = keccak256(MyUtils._toBytes(data));\n    }\n\n    function _setAlarm() internal {\n        Chainlink.Request memory req = buildChainlinkRequest(\n            requestIdTimestamp,\n            address(this),\n            this.fulfillGetTimestamp.selector\n        );\n        req.addUint(\"until\", now + duration);\n        sendChainlinkRequestTo(oracleTimestamp, req, oraclePaymentTimestamp);\n    }\n\n    function fulfillGetTimestamp(bytes32 _requestId)\n        public\n        recordChainlinkFulfillment(_requestId)\n    {\n        _timestampAlarm = true;\n    }\n}\n",
  "sourcePath": "/mnt/e/Repositories/Uproot/contracts/Classroom.sol",
  "compiler": {
    "name": "solc",
    "version": "0.6.6+commit.6c089d02.Emscripten.clang"
  },
  "schemaVersion": "3.1.0",
  "updatedAt": "2020-05-19T16:25:54.762Z",
  "devdoc": {
    "methods": {
      "owner()": {
        "details": "Returns the address of the current owner."
      },
      "renounceOwnership()": {
        "details": "Leaves the contract without owner. It will not be possible to call `onlyOwner` functions anymore. Can only be called by the current owner.     * NOTE: Renouncing ownership will leave the contract without an owner, thereby removing any functionality that is only available to the owner."
      },
      "transferOwnership(address)": {
        "details": "Transfers ownership of the contract to a new account (`newOwner`). Can only be called by the current owner."
      }
    }
  },
  "userdoc": {
    "methods": {}
  }
}