{
  "contractName": "Classroom",
  "abi": [
    {
      "inputs": [
        {
          "internalType": "bytes32",
          "name": "name_",
          "type": "bytes32"
        },
        {
          "internalType": "uint24",
          "name": "principalCut_",
          "type": "uint24"
        },
        {
          "internalType": "uint24",
          "name": "poolCut_",
          "type": "uint24"
        },
        {
          "internalType": "int32",
          "name": "minScore_",
          "type": "int32"
        },
        {
          "internalType": "uint256",
          "name": "entryPrice_",
          "type": "uint256"
        },
        {
          "internalType": "uint256",
          "name": "duration_",
          "type": "uint256"
        },
        {
          "internalType": "address payable",
          "name": "universityAddress",
          "type": "address"
        },
        {
          "internalType": "address",
          "name": "challengeAddress_",
          "type": "address"
        },
        {
          "internalType": "address",
          "name": "daiAddress",
          "type": "address"
        },
        {
          "internalType": "address",
          "name": "compoundDAIAddress",
          "type": "address"
        },
        {
          "internalType": "address",
          "name": "studentApplicationFactoryAddress",
          "type": "address"
        }
      ],
      "stateMutability": "nonpayable",
      "type": "constructor"
    },
    {
      "anonymous": false,
      "inputs": [
        {
          "indexed": true,
          "internalType": "bytes32",
          "name": "id",
          "type": "bytes32"
        }
      ],
      "name": "ChainlinkCancelled",
      "type": "event"
    },
    {
      "anonymous": false,
      "inputs": [
        {
          "indexed": true,
          "internalType": "bytes32",
          "name": "id",
          "type": "bytes32"
        }
      ],
      "name": "ChainlinkFulfilled",
      "type": "event"
    },
    {
      "anonymous": false,
      "inputs": [
        {
          "indexed": true,
          "internalType": "bytes32",
          "name": "id",
          "type": "bytes32"
        }
      ],
      "name": "ChainlinkRequested",
      "type": "event"
    },
    {
      "anonymous": false,
      "inputs": [
        {
          "indexed": false,
          "internalType": "address",
          "name": "",
          "type": "address"
        }
      ],
      "name": "LogChangeChallenge",
      "type": "event"
    },
    {
      "anonymous": false,
      "inputs": [
        {
          "indexed": false,
          "internalType": "uint256",
          "name": "",
          "type": "uint256"
        }
      ],
      "name": "LogChangeDuration",
      "type": "event"
    },
    {
      "anonymous": false,
      "inputs": [
        {
          "indexed": false,
          "internalType": "uint256",
          "name": "",
          "type": "uint256"
        }
      ],
      "name": "LogChangeEntryPrice",
      "type": "event"
    },
    {
      "anonymous": false,
      "inputs": [
        {
          "indexed": false,
          "internalType": "int32",
          "name": "",
          "type": "int32"
        }
      ],
      "name": "LogChangeMinScore",
      "type": "event"
    },
    {
      "anonymous": false,
      "inputs": [
        {
          "indexed": false,
          "internalType": "bytes32",
          "name": "",
          "type": "bytes32"
        }
      ],
      "name": "LogChangeName",
      "type": "event"
    },
    {
      "anonymous": false,
      "inputs": [
        {
          "indexed": false,
          "internalType": "uint24",
          "name": "",
          "type": "uint24"
        }
      ],
      "name": "LogChangePoolCut",
      "type": "event"
    },
    {
      "anonymous": false,
      "inputs": [
        {
          "indexed": false,
          "internalType": "uint24",
          "name": "",
          "type": "uint24"
        }
      ],
      "name": "LogChangePrincipalCut",
      "type": "event"
    },
    {
      "anonymous": false,
      "inputs": [],
      "name": "LogCloseApplications",
      "type": "event"
    },
    {
      "anonymous": false,
      "inputs": [],
      "name": "LogCourseFinished",
      "type": "event"
    },
    {
      "anonymous": false,
      "inputs": [],
      "name": "LogOpenApplications",
      "type": "event"
    },
    {
      "anonymous": false,
      "inputs": [
        {
          "indexed": true,
          "internalType": "address",
          "name": "previousOwner",
          "type": "address"
        },
        {
          "indexed": true,
          "internalType": "address",
          "name": "newOwner",
          "type": "address"
        }
      ],
      "name": "OwnershipTransferred",
      "type": "event"
    },
    {
      "inputs": [],
      "name": "aTokenDAI",
      "outputs": [
        {
          "internalType": "address",
          "name": "",
          "type": "address"
        }
      ],
      "stateMutability": "view",
      "type": "function"
    },
    {
      "inputs": [],
      "name": "aaveLendingPool",
      "outputs": [
        {
          "internalType": "contract ILendingPool",
          "name": "",
          "type": "address"
        }
      ],
      "stateMutability": "view",
      "type": "function"
    },
    {
      "inputs": [],
      "name": "aaveLendingPoolCore",
      "outputs": [
        {
          "internalType": "address",
          "name": "",
          "type": "address"
        }
      ],
      "stateMutability": "view",
      "type": "function"
    },
    {
      "inputs": [],
      "name": "aaveProvider",
      "outputs": [
        {
          "internalType": "contract ILendingPoolAddressesProvider",
          "name": "",
          "type": "address"
        }
      ],
      "stateMutability": "view",
      "type": "function"
    },
    {
      "inputs": [],
      "name": "cDAI",
      "outputs": [
        {
          "internalType": "address",
          "name": "",
          "type": "address"
        }
      ],
      "stateMutability": "view",
      "type": "function"
    },
    {
      "inputs": [],
      "name": "challengeAddress",
      "outputs": [
        {
          "internalType": "address",
          "name": "",
          "type": "address"
        }
      ],
      "stateMutability": "view",
      "type": "function"
    },
    {
      "inputs": [],
      "name": "classroomActive",
      "outputs": [
        {
          "internalType": "bool",
          "name": "",
          "type": "bool"
        }
      ],
      "stateMutability": "view",
      "type": "function"
    },
    {
      "inputs": [],
      "name": "compoundApplyPercentage",
      "outputs": [
        {
          "internalType": "uint256",
          "name": "",
          "type": "uint256"
        }
      ],
      "stateMutability": "view",
      "type": "function"
    },
    {
      "inputs": [],
      "name": "courseFinished",
      "outputs": [
        {
          "internalType": "bool",
          "name": "",
          "type": "bool"
        }
      ],
      "stateMutability": "view",
      "type": "function"
    },
    {
      "inputs": [],
      "name": "daiToken",
      "outputs": [
        {
          "internalType": "address",
          "name": "",
          "type": "address"
        }
      ],
      "stateMutability": "view",
      "type": "function"
    },
    {
      "inputs": [],
      "name": "duration",
      "outputs": [
        {
          "internalType": "uint256",
          "name": "",
          "type": "uint256"
        }
      ],
      "stateMutability": "view",
      "type": "function"
    },
    {
      "inputs": [],
      "name": "entryPrice",
      "outputs": [
        {
          "internalType": "uint256",
          "name": "",
          "type": "uint256"
        }
      ],
      "stateMutability": "view",
      "type": "function"
    },
    {
      "inputs": [],
      "name": "linkToken",
      "outputs": [
        {
          "internalType": "address",
          "name": "",
          "type": "address"
        }
      ],
      "stateMutability": "view",
      "type": "function"
    },
    {
      "inputs": [],
      "name": "minScore",
      "outputs": [
        {
          "internalType": "int32",
          "name": "",
          "type": "int32"
        }
      ],
      "stateMutability": "view",
      "type": "function"
    },
    {
      "inputs": [],
      "name": "name",
      "outputs": [
        {
          "internalType": "bytes32",
          "name": "",
          "type": "bytes32"
        }
      ],
      "stateMutability": "view",
      "type": "function"
    },
    {
      "inputs": [],
      "name": "openForApplication",
      "outputs": [
        {
          "internalType": "bool",
          "name": "",
          "type": "bool"
        }
      ],
      "stateMutability": "view",
      "type": "function"
    },
    {
      "inputs": [],
      "name": "oraclePaymentRandom",
      "outputs": [
        {
          "internalType": "uint256",
          "name": "",
          "type": "uint256"
        }
      ],
      "stateMutability": "view",
      "type": "function"
    },
    {
      "inputs": [],
      "name": "oraclePaymentTimestamp",
      "outputs": [
        {
          "internalType": "uint256",
          "name": "",
          "type": "uint256"
        }
      ],
      "stateMutability": "view",
      "type": "function"
    },
    {
      "inputs": [],
      "name": "oracleRandom",
      "outputs": [
        {
          "internalType": "address",
          "name": "",
          "type": "address"
        }
      ],
      "stateMutability": "view",
      "type": "function"
    },
    {
      "inputs": [],
      "name": "oracleTimestamp",
      "outputs": [
        {
          "internalType": "address",
          "name": "",
          "type": "address"
        }
      ],
      "stateMutability": "view",
      "type": "function"
    },
    {
      "inputs": [],
      "name": "owner",
      "outputs": [
        {
          "internalType": "address",
          "name": "",
          "type": "address"
        }
      ],
      "stateMutability": "view",
      "type": "function"
    },
    {
      "inputs": [],
      "name": "poolCut",
      "outputs": [
        {
          "internalType": "uint24",
          "name": "",
          "type": "uint24"
        }
      ],
      "stateMutability": "view",
      "type": "function"
    },
    {
      "inputs": [],
      "name": "principalCut",
      "outputs": [
        {
          "internalType": "uint24",
          "name": "",
          "type": "uint24"
        }
      ],
      "stateMutability": "view",
      "type": "function"
    },
    {
      "inputs": [],
      "name": "renounceOwnership",
      "outputs": [],
      "stateMutability": "nonpayable",
      "type": "function"
    },
    {
      "inputs": [],
      "name": "requestIdRandom",
      "outputs": [
        {
          "internalType": "bytes32",
          "name": "",
          "type": "bytes32"
        }
      ],
      "stateMutability": "view",
      "type": "function"
    },
    {
      "inputs": [],
      "name": "requestIdTimestamp",
      "outputs": [
        {
          "internalType": "bytes32",
          "name": "",
          "type": "bytes32"
        }
      ],
      "stateMutability": "view",
      "type": "function"
    },
    {
      "inputs": [],
      "name": "startDate",
      "outputs": [
        {
          "internalType": "uint256",
          "name": "",
          "type": "uint256"
        }
      ],
      "stateMutability": "view",
      "type": "function"
    },
    {
      "inputs": [],
      "name": "studentApplicationFactory",
      "outputs": [
        {
          "internalType": "contract IStudentApplicationFactory",
          "name": "",
          "type": "address"
        }
      ],
      "stateMutability": "view",
      "type": "function"
    },
    {
      "inputs": [
        {
          "internalType": "address",
          "name": "newOwner",
          "type": "address"
        }
      ],
      "name": "transferOwnership",
      "outputs": [],
      "stateMutability": "nonpayable",
      "type": "function"
    },
    {
      "inputs": [],
      "name": "uniswapDAI",
      "outputs": [
        {
          "internalType": "address",
          "name": "",
          "type": "address"
        }
      ],
      "stateMutability": "view",
      "type": "function"
    },
    {
      "inputs": [],
      "name": "uniswapLINK",
      "outputs": [
        {
          "internalType": "address",
          "name": "",
          "type": "address"
        }
      ],
      "stateMutability": "view",
      "type": "function"
    },
    {
      "inputs": [],
      "name": "uniswapRouter",
      "outputs": [
        {
          "internalType": "contract IUniswapV2Router01",
          "name": "",
          "type": "address"
        }
      ],
      "stateMutability": "view",
      "type": "function"
    },
    {
      "inputs": [],
      "name": "university",
      "outputs": [
        {
          "internalType": "contract IUniversity",
          "name": "",
          "type": "address"
        }
      ],
      "stateMutability": "view",
      "type": "function"
    },
    {
      "inputs": [
        {
          "internalType": "address",
          "name": "oracleRandom_",
          "type": "address"
        },
        {
          "internalType": "bytes32",
          "name": "requestIdRandom_",
          "type": "bytes32"
        },
        {
          "internalType": "uint256",
          "name": "oraclePaymentRandom_",
          "type": "uint256"
        },
        {
          "internalType": "address",
          "name": "oracleTimestamp_",
          "type": "address"
        },
        {
          "internalType": "bytes32",
          "name": "requestIdTimestamp_",
          "type": "bytes32"
        },
        {
          "internalType": "uint256",
          "name": "oraclePaymentTimestamp_",
          "type": "uint256"
        },
        {
          "internalType": "address",
          "name": "linkToken_",
          "type": "address"
        }
      ],
      "name": "configureOracles",
      "outputs": [],
      "stateMutability": "nonpayable",
      "type": "function"
    },
    {
      "inputs": [
        {
          "internalType": "address",
          "name": "uniswapDAI_",
          "type": "address"
        },
        {
          "internalType": "address",
          "name": "uniswapLINK_",
          "type": "address"
        },
        {
          "internalType": "address",
          "name": "uniswapRouter_",
          "type": "address"
        }
      ],
      "name": "configureUniswap",
      "outputs": [],
      "stateMutability": "nonpayable",
      "type": "function"
    },
    {
      "inputs": [
        {
          "internalType": "address",
          "name": "lendingPoolAddressesProvider",
          "type": "address"
        }
      ],
      "name": "configureAave",
      "outputs": [],
      "stateMutability": "nonpayable",
      "type": "function"
    },
    {
      "inputs": [
        {
          "internalType": "address",
          "name": "newOwner",
          "type": "address"
        }
      ],
      "name": "transferOwnershipClassroom",
      "outputs": [],
      "stateMutability": "nonpayable",
      "type": "function"
    },
    {
      "inputs": [],
      "name": "ownerClassroom",
      "outputs": [
        {
          "internalType": "address",
          "name": "",
          "type": "address"
        }
      ],
      "stateMutability": "view",
      "type": "function"
    },
    {
      "inputs": [
        {
          "internalType": "bytes32",
          "name": "val",
          "type": "bytes32"
        }
      ],
      "name": "changeName",
      "outputs": [],
      "stateMutability": "nonpayable",
      "type": "function"
    },
    {
      "inputs": [
        {
          "internalType": "uint24",
          "name": "val",
          "type": "uint24"
        }
      ],
      "name": "changePrincipalCut",
      "outputs": [],
      "stateMutability": "nonpayable",
      "type": "function"
    },
    {
      "inputs": [
        {
          "internalType": "uint24",
          "name": "val",
          "type": "uint24"
        }
      ],
      "name": "changePoolCut",
      "outputs": [],
      "stateMutability": "nonpayable",
      "type": "function"
    },
    {
      "inputs": [
        {
          "internalType": "int32",
          "name": "val",
          "type": "int32"
        }
      ],
      "name": "changeMinScore",
      "outputs": [],
      "stateMutability": "nonpayable",
      "type": "function"
    },
    {
      "inputs": [
        {
          "internalType": "uint256",
          "name": "val",
          "type": "uint256"
        }
      ],
      "name": "changeEntryPrice",
      "outputs": [],
      "stateMutability": "nonpayable",
      "type": "function"
    },
    {
      "inputs": [
        {
          "internalType": "uint256",
          "name": "val",
          "type": "uint256"
        }
      ],
      "name": "changeDuration",
      "outputs": [],
      "stateMutability": "nonpayable",
      "type": "function"
    },
    {
      "inputs": [
        {
          "internalType": "uint256",
          "name": "ppm",
          "type": "uint256"
        }
      ],
      "name": "changeCompoundApplyPercentage",
      "outputs": [],
      "stateMutability": "nonpayable",
      "type": "function"
    },
    {
      "inputs": [
        {
          "internalType": "address",
          "name": "addr",
          "type": "address"
        }
      ],
      "name": "changeChallenge",
      "outputs": [],
      "stateMutability": "nonpayable",
      "type": "function"
    },
    {
      "inputs": [],
      "name": "viewMyApplication",
      "outputs": [
        {
          "internalType": "address",
          "name": "",
          "type": "address"
        }
      ],
      "stateMutability": "view",
      "type": "function"
    },
    {
      "inputs": [
        {
          "internalType": "address",
          "name": "addr",
          "type": "address"
        }
      ],
      "name": "viewApplication",
      "outputs": [
        {
          "internalType": "address",
          "name": "",
          "type": "address"
        }
      ],
      "stateMutability": "view",
      "type": "function"
    },
    {
      "inputs": [],
      "name": "isClassroomEmpty",
      "outputs": [
        {
          "internalType": "bool",
          "name": "",
          "type": "bool"
        }
      ],
      "stateMutability": "view",
      "type": "function"
    },
    {
      "inputs": [],
      "name": "isCourseOngoing",
      "outputs": [
        {
          "internalType": "bool",
          "name": "",
          "type": "bool"
        }
      ],
      "stateMutability": "view",
      "type": "function"
    },
    {
      "inputs": [],
      "name": "openApplications",
      "outputs": [],
      "stateMutability": "nonpayable",
      "type": "function"
    },
    {
      "inputs": [],
      "name": "closeApplications",
      "outputs": [],
      "stateMutability": "nonpayable",
      "type": "function"
    },
    {
      "inputs": [],
      "name": "applyDAI",
      "outputs": [],
      "stateMutability": "nonpayable",
      "type": "function"
    },
    {
      "inputs": [],
      "name": "studentApply",
      "outputs": [],
      "stateMutability": "nonpayable",
      "type": "function"
    },
    {
      "inputs": [],
      "name": "countNewApplications",
      "outputs": [
        {
          "internalType": "uint256",
          "name": "count",
          "type": "uint256"
        }
      ],
      "stateMutability": "view",
      "type": "function"
    },
    {
      "inputs": [],
      "name": "countReadyApplications",
      "outputs": [
        {
          "internalType": "uint256",
          "name": "count",
          "type": "uint256"
        }
      ],
      "stateMutability": "view",
      "type": "function"
    },
    {
      "inputs": [],
      "name": "beginCourse",
      "outputs": [],
      "stateMutability": "nonpayable",
      "type": "function"
    },
    {
      "inputs": [],
      "name": "finishCourse",
      "outputs": [],
      "stateMutability": "nonpayable",
      "type": "function"
    },
    {
      "inputs": [],
      "name": "courseBalance",
      "outputs": [
        {
          "internalType": "uint256",
          "name": "",
          "type": "uint256"
        }
      ],
      "stateMutability": "view",
      "type": "function"
    },
    {
      "inputs": [],
      "name": "processResults",
      "outputs": [],
      "stateMutability": "nonpayable",
      "type": "function"
    },
    {
      "inputs": [],
      "name": "withdrawAllResults",
      "outputs": [],
      "stateMutability": "nonpayable",
      "type": "function"
    },
    {
      "inputs": [
        {
          "internalType": "uint256",
          "name": "amount",
          "type": "uint256"
        },
        {
          "internalType": "uint256",
          "name": "deadline",
          "type": "uint256"
        }
      ],
      "name": "swapDAI_LINK",
      "outputs": [],
      "stateMutability": "nonpayable",
      "type": "function"
    },
    {
      "inputs": [
        {
          "internalType": "uint256",
          "name": "amount",
          "type": "uint256"
        },
        {
          "internalType": "uint256",
          "name": "deadline",
          "type": "uint256"
        }
      ],
      "name": "swapLINK_DAI",
      "outputs": [],
      "stateMutability": "nonpayable",
      "type": "function"
    },
    {
      "inputs": [
        {
          "internalType": "bytes32",
          "name": "_requestId",
          "type": "bytes32"
        },
        {
          "internalType": "uint256",
          "name": "data",
          "type": "uint256"
        }
      ],
      "name": "fulfillGenerateSeed",
      "outputs": [],
      "stateMutability": "nonpayable",
      "type": "function"
    },
    {
      "inputs": [
        {
          "internalType": "bytes32",
          "name": "_requestId",
          "type": "bytes32"
        }
      ],
      "name": "fulfillGetTimestamp",
      "outputs": [],
      "stateMutability": "nonpayable",
      "type": "function"
    }
  ],
  "bytecode": "0x608060405260016005553480156200001657600080fd5b5060405162004f7938038062004f7983398181016040526101608110156200003d57600080fd5b508051602082015160408301516060840151608085015160a086015160c087015160e08801516101008901516101208a0151610140909a01519899979896979596949593949293919290919060006200009e6001600160e01b03620001c316565b600080546001600160a01b0319166001600160a01b0383169081178255604051929350917f8be0079c531659141344cd1fd0a4f28419497f9722a3daafe3b4186f6b6457e0908290a35060109a909a556011805462ffffff191662ffffff9a8b161765ffffff0000001916630100000099909a16989098029890981763ffffffff60301b1916660100000000000063ffffffff60039890980b9790971696909602959095179095556012929092556013556207a12060145560078054601580546001600160a01b03199081166001600160a01b03978816179091559081169285169290921762ff00ff60a01b191690556016805482169284169290921790915560178054821693831693909317909255601880549092169216919091179055620001c7565b3390565b614da280620001d76000396000f3fe608060405234801561001057600080fd5b50600436106102fa5760003560e01c806384952ba41161019a57806384952ba41461059f5780638646bcec146105a757806386c79e0b146105af57806387429a9c146105b7578063898855ed146105bf5780638b45fb67146105dc5780638da5cb5b146105e4578063952f1c14146105ec5780639e6e0b5f146105f4578063a2281a85146105fc578063a3f73c2d14610604578063a46268a81461062a578063aa055a4014610632578063aaaed76f1461063a578063ada02e1914610642578063adf45ef21461064a578063ae12894e14610652578063b5365c3c1461065a578063b56bc55314610662578063b594f0861461066a578063bbe3b92614610687578063be22f5461461068f578063bf96d53f14610697578063c2d0b3031461069f578063c799f5e2146106c2578063cdb3bff9146106e8578063d8e5ea58146106f0578063e804f164146106f8578063e9d337b81461071a578063f0607e4314610722578063f2fde38b14610745578063f745adfc1461076b578063fe7da9e914610773576102fa565b80624f8411146102ff57806306fdde031461031e5780630aab4569146103385780630b78cb0e146103555780630b97bc86146103715780630fb5a6b41461037957806313c2bedc1461038157806318b9533b146103a25780631b9dbc60146103c85780632016a206146103d057806329d18879146103f35780632ed5377314610417578063319600271461041f5780633bcd97d4146104275780633ca558331461042f578063431a16ef146104375780634c5e78931461043f5780634ffb660c1461044757806357970e93146104675780635aa33a2d1461046f5780635b8f96de146104775780635ca8f92c146104af578063604d3943146104ff5780636ae88cc21461051f5780636e8055a7146105275780636f6941b91461052f578063715018a614610537578063735de9f71461053f57806376eada91146105475780637c0260cb1461056d5780638155e97714610575578063834a320c14610597575b600080fd5b61031c6004803603602081101561031557600080fd5b5035610790565b005b61032661082f565b60408051918252519081900360200190f35b61031c6004803603602081101561034e57600080fd5b5035610835565b61035d6108ce565b604080519115158252519081900360200190f35b6103266108de565b6103266108e4565b6103896108ea565b60408051600392830b90920b8252519081900360200190f35b61031c600480360360208110156103b857600080fd5b50356001600160a01b03166108fa565b61031c610906565b61031c600480360360408110156103e657600080fd5b5080359060200135610c10565b6103fb610cb1565b604080516001600160a01b039092168252519081900360200190f35b610326610cc0565b61031c610cc6565b61035d610fb0565b6103fb610fd0565b61031c610fdf565b61031c611189565b61031c6004803603602081101561045d57600080fd5b503560030b6112f6565b6103fb6113b8565b61035d6113c7565b61031c6004803603606081101561048d57600080fd5b506001600160a01b0381358116916020810135821691604090910135166113d7565b61031c600480360360e08110156104c557600080fd5b506001600160a01b038135811691602081013591604082013591606081013582169160808201359160a08101359160c0909101351661146e565b6105076115e7565b6040805162ffffff9092168252519081900360200190f35b6103266115f9565b6103fb6116fd565b6103fb611714565b61031c611723565b6103fb6117b3565b6103fb6004803603602081101561055d57600080fd5b50356001600160a01b03166117c2565b61031c611864565b61031c6004803603602081101561058b57600080fd5b503562ffffff1661193c565b6103266119e6565b6103fb611ae0565b610507611aef565b610326611afa565b6103fb611b00565b61031c600480360360208110156105d557600080fd5b5035611b0f565b6103fb611ba2565b6103fb611ba8565b610326611bb7565b610326611cb3565b6103fb611cb9565b61031c6004803603602081101561061a57600080fd5b50356001600160a01b0316611cc8565b61035d611dbd565b61031c611dcd565b6103fb611f2c565b61031c611f3b565b61035d61206f565b6103fb612077565b6103fb612086565b6103fb612095565b61031c6004803603602081101561068057600080fd5b50356120a4565b61031c612137565b6103fb61233b565b61032661234a565b61031c600480360360408110156106b557600080fd5b5080359060200135612350565b61031c600480360360208110156106d857600080fd5b50356001600160a01b0316612411565b6103fb612626565b610326612635565b61031c6004803603602081101561070e57600080fd5b503562ffffff1661263b565b6103fb6126f3565b61031c6004803603604081101561073857600080fd5b5080359060200135612702565b61031c6004803603602081101561075b57600080fd5b50356001600160a01b03166127c3565b6103266128a9565b61031c6004803603602081101561078957600080fd5b50356128af565b610798612942565b6000546001600160a01b039081169116146107e8576040805162461bcd60e51b81526020600482018190526024820152600080516020614c43833981519152604482015290519081900360640190fd5b620f424081111561082a5760405162461bcd60e51b8152600401808060200182810382526029815260200180614b406029913960400191505060405180910390fd5b601455565b60105481565b60008181526006602052604090205481906001600160a01b0316331461088c5760405162461bcd60e51b8152600401808060200182810382526028815260200180614d256028913960400191505060405180910390fd5b60008181526006602052604080822080546001600160a01b0319169055518291600080516020614d4d83398151915291a250506009805460ff19166001179055565b600754600160a01b900460ff1681565b60085481565b60135481565b601154600160301b900460030b81565b610903816127c3565b50565b61090e611ba8565b6001600160a01b031661091f612942565b6001600160a01b0316637a6c8b536040518163ffffffff1660e01b815260040160206040518083038186803b15801561095757600080fd5b505afa15801561096b573d6000803e3d6000fd5b505050506040513d602081101561098157600080fd5b50516001600160a01b031614156109c95760405162461bcd60e51b815260040180806020018281038252602d815260200180614bab602d913960400191505060405180910390fd5b6007546001600160a01b03166316ded1ce6109e2612942565b6040518263ffffffff1660e01b815260040180826001600160a01b03166001600160a01b0316815260200191505060206040518083038186803b158015610a2857600080fd5b505afa158015610a3c573d6000803e3d6000fd5b505050506040513d6020811015610a5257600080fd5b5051610a8f5760405162461bcd60e51b8152600401808060200182810382526024815260200180614cd76024913960400191505060405180910390fd5b6000610a99612942565b9050601160069054906101000a900460030b60030b816001600160a01b031663efedc6696040518163ffffffff1660e01b815260040160206040518083038186803b158015610ae757600080fd5b505afa158015610afb573d6000803e3d6000fd5b505050506040513d6020811015610b1157600080fd5b505160030b1215610b535760405162461bcd60e51b815260040180806020018281038252602c815260200180614a87602c913960400191505060405180910390fd5b600754600160a01b900460ff16610bb1576040805162461bcd60e51b815260206004820152601e60248201527f436c617373726f6f6d3a206170706c69636174696f6e7320636c6f7365640000604482015290519081900360640190fd5b6000610bbc82612946565b600a80546001810182556000919091527fc65a7bb8d6351c1cf70c95a316cc6a92839c986682d98bc35f958f4883f9d2a80180546001600160a01b0319166001600160a01b03929092169190911790555050565b60008281526006602052604090205482906001600160a01b03163314610c675760405162461bcd60e51b8152600401808060200182810382526028815260200180614d256028913960400191505060405180910390fd5b60008181526006602052604080822080546001600160a01b0319169055518291600080516020614d4d83398151915291a2610ca182612aa3565b8051602090910120600f55505050565b6015546001600160a01b031681565b601b5481565b610cce612942565b6000546001600160a01b03908116911614610d1e576040805162461bcd60e51b81526020600482018190526024820152600080516020614c43833981519152604482015290519081900360640190fd5b6019546001600160a01b0316610d7b576040805162461bcd60e51b815260206004820152601e60248201527f436c617373726f6f6d3a207365747570206f7261636c65732066697273740000604482015290519081900360640190fd5b6020546001600160a01b0316610dd8576040805162461bcd60e51b815260206004820152601e60248201527f436c617373726f6f6d3a20736574757020556e69737761702066697273740000604482015290519081900360640190fd5b6025546001600160a01b0316610e33576040805162461bcd60e51b815260206004820152601b60248201527a10db185cdcdc9bdbdb4e881cd95d1d5c0810585d9948199a5c9cdd602a1b604482015290519081900360640190fd5b600754600160a01b900460ff1615610e7c5760405162461bcd60e51b815260040180806020018281038252602a815260200180614cfb602a913960400191505060405180910390fd5b600a5415610ebb5760405162461bcd60e51b8152600401808060200182810382526022815260200180614b896022913960400191505060405180910390fd5b601e54601f54604080516370a0823160e01b815230600482015290516001600160a01b03909216916370a0823191602480820192602092909190829003018186803b158015610f0957600080fd5b505afa158015610f1d573d6000803e3d6000fd5b505050506040513d6020811015610f3357600080fd5b50511015610f725760405162461bcd60e51b8152600401808060200182810382526021815260200180614a406021913960400191505060405180910390fd5b6007805460ff60a01b1916600160a01b1790556040517fa5d188159e8a15dc503f9fde55e9da14c8b2ca589603e2567481c0ef90b7972090600090a1565b600b54600a54600091610fc9919063ffffffff612acd16565b1590505b90565b6025546001600160a01b031681565b610fe7612942565b6000546001600160a01b03908116911614611037576040805162461bcd60e51b81526020600482018190526024820152600080516020614c43833981519152604482015290519081900360640190fd5b600b54611088576040805162461bcd60e51b815260206004820152601a602482015279436c617373726f6f6d3a206e6f206170706c69636174696f6e7360301b604482015290519081900360640190fd5b60095460ff166110c95760405162461bcd60e51b8152600401808060200182810382526024815260200180614bf96024913960400191505060405180910390fd5b601654604080516370a0823160e01b815230600482015290516001600160a01b03909216916370a0823191602480820192602092909190829003018186803b15801561111457600080fd5b505afa158015611128573d6000803e3d6000fd5b505050506040513d602081101561113e57600080fd5b5051600e5561114b612b2e565b6007805460ff60a81b1916600160a81b1790556040517fadfcc9bbc47b33710f82544eeff8bd0f98c6f78f190e915bd81f4a9dacfdc77790600090a1565b611191612942565b6000546001600160a01b039081169116146111e1576040805162461bcd60e51b81526020600482018190526024820152600080516020614c43833981519152604482015290519081900360640190fd5b6016546001600160a01b03166323b872dd306111fb611ba8565b601654604080516370a0823160e01b815230600482015290516001600160a01b03909216916370a0823191602480820192602092909190829003018186803b15801561124657600080fd5b505afa15801561125a573d6000803e3d6000fd5b505050506040513d602081101561127057600080fd5b5051604080516001600160e01b031960e087901b1681526001600160a01b0394851660048201529290931660248301526044820152905160648083019260209291908290030181600087803b1580156112c857600080fd5b505af11580156112dc573d6000803e3d6000fd5b505050506040513d60208110156112f257600080fd5b5050565b6112fe612942565b6000546001600160a01b0390811691161461134e576040805162461bcd60e51b81526020600482018190526024820152600080516020614c43833981519152604482015290519081900360640190fd5b60118054600383810b63ffffffff16600160301b90810263ffffffff60301b1990931692909217928390556040805192909304810b810b900b815290517f258981eaba02423980e2973ff2ae3bbbba3cc807a5b73faf8f0b068dd7b2af649181900360200190a150565b601f546001600160a01b031681565b600754600160a81b900460ff1681565b6113df612942565b6000546001600160a01b0390811691161461142f576040805162461bcd60e51b81526020600482018190526024820152600080516020614c43833981519152604482015290519081900360640190fd5b602080546001600160a01b039485166001600160a01b031991821617909155602180549385169382169390931790925560228054919093169116179055565b611476612942565b6000546001600160a01b039081169116146114c6576040805162461bcd60e51b81526020600482018190526024820152600080516020614c43833981519152604482015290519081900360640190fd5b601980546001600160a01b03808a166001600160a01b031992831617909255601a889055601b879055601c8054878416908316179055601d859055601e849055601f80549284169290911691909117905561151f612d05565b601b54601f54604080516370a0823160e01b815230600482015290516001600160a01b03909216916370a0823191602480820192602092909190829003018186803b15801561156d57600080fd5b505afa158015611581573d6000803e3d6000fd5b505050506040513d602081101561159757600080fd5b505110156115d65760405162461bcd60e51b8152600401808060200182810382526021815260200180614a406021913960400191505060405180910390fd5b6115de612d86565b50505050505050565b6011546301000000900462ffffff1681565b6000611603612942565b6000546001600160a01b03908116911614611653576040805162461bcd60e51b81526020600482018190526024820152600080516020614c43833981519152604482015290519081900360640190fd5b60005b600a548110156116f957600a818154811061166d57fe5b60009182526020918290200154604080516332c3db0f60e11b815290516001600160a01b0390921692636587b61e92600480840193829003018186803b1580156116b657600080fd5b505afa1580156116ca573d6000803e3d6000fd5b505050506040513d60208110156116e057600080fd5b5051600114156116f1576001909101905b600101611656565b5090565b600061170f61170a612942565b6117c2565b905090565b6017546001600160a01b031681565b61172b612942565b6000546001600160a01b0390811691161461177b576040805162461bcd60e51b81526020600482018190526024820152600080516020614c43833981519152604482015290519081900360640190fd5b600080546040516001600160a01b0390911690600080516020614c8d833981519152908390a3600080546001600160a01b0319169055565b6022546001600160a01b031681565b60006117cc612942565b6001600160a01b0316826001600160a01b0316148061180a57506117ee611ba8565b6001600160a01b03166117ff612942565b6001600160a01b0316145b6118455760405162461bcd60e51b8152600401808060200182810382526021815260200180614b1f6021913960400191505060405180910390fd5b506001600160a01b039081166000908152600c60205260409020541690565b61186c612942565b6000546001600160a01b039081169116146118bc576040805162461bcd60e51b81526020600482018190526024820152600080516020614c43833981519152604482015290519081900360640190fd5b600754600160a01b900460ff166119045760405162461bcd60e51b815260040180806020018281038252602a815260200180614cad602a913960400191505060405180910390fd5b6007805460ff60a01b191690556040517f747a4734f50e3ae237b3afeeac30a2d2c7cb965cc122fb9680050fd533b7c0f590600090a1565b611944612942565b6000546001600160a01b03908116911614611994576040805162461bcd60e51b81526020600482018190526024820152600080516020614c43833981519152604482015290519081900360640190fd5b6011805462ffffff191662ffffff838116919091179182905560408051929091168252517fa24cdd22388a51f932026d20d3229c1d693385bb9ac176742e0e40b4586c2447916020908290030190a150565b60006119f0612942565b6000546001600160a01b03908116911614611a40576040805162461bcd60e51b81526020600482018190526024820152600080516020614c43833981519152604482015290519081900360640190fd5b600754600160a81b900460ff16611a5857600061170f565b600e54601654604080516370a0823160e01b8152306004820152905161170f93926001600160a01b0316916370a08231916024808301926020929190829003018186803b158015611aa857600080fd5b505afa158015611abc573d6000803e3d6000fd5b505050506040513d6020811015611ad257600080fd5b50519063ffffffff612dc316565b6020546001600160a01b031681565b60115462ffffff1681565b601a5481565b6023546001600160a01b031681565b611b17612942565b6000546001600160a01b03908116911614611b67576040805162461bcd60e51b81526020600482018190526024820152600080516020614c43833981519152604482015290519081900360640190fd5b60108190556040805182815290517f9f8929be552430dd6434c446d106c34954b2040ca8c4dbf42a39323dd6cda3ca9181900360200190a150565b600061170f5b6000546001600160a01b031690565b6000611bc1612942565b6000546001600160a01b03908116911614611c11576040805162461bcd60e51b81526020600482018190526024820152600080516020614c43833981519152604482015290519081900360640190fd5b60005b600a548110156116f957600a8181548110611c2b57fe5b60009182526020918290200154604080516332c3db0f60e11b815290516001600160a01b0390921692636587b61e92600480840193829003018186803b158015611c7457600080fd5b505afa158015611c88573d6000803e3d6000fd5b505050506040513d6020811015611c9e57600080fd5b5051611cab576001909101905b600101611c14565b60145481565b6019546001600160a01b031681565b611cd0612942565b6000546001600160a01b03908116911614611d20576040805162461bcd60e51b81526020600482018190526024820152600080516020614c43833981519152604482015290519081900360640190fd5b611d28610fb0565b611d635760405162461bcd60e51b8152600401808060200182810382526025815260200180614ab36025913960400191505060405180910390fd5b601580546001600160a01b0319166001600160a01b03838116919091179182905560408051929091168252517fdc58b28697ffd1bd5879b16631587874caec982b482d7ed05df69a5302f6e018916020908290030190a150565b600754600160b01b900460ff1681565b611dd5612942565b6000546001600160a01b03908116911614611e25576040805162461bcd60e51b81526020600482018190526024820152600080516020614c43833981519152604482015290519081900360640190fd5b600754600160a81b900460ff16611e83576040805162461bcd60e51b815260206004820152601e60248201527f436c617373726f6f6d3a20636f75727365206e6f742066696e69736865640000604482015290519081900360640190fd5b611e8b6119e6565b600e55600b54601254611ea39163ffffffff612e2016565b600e541015611ee35760405162461bcd60e51b8152600401808060200182810382526024815260200180614afb6024913960400191505060405180910390fd5b600080611eee612e79565b9150915060006060611f008484612fb0565b91509150611f0d8161334e565b611f16826133d6565b611f1e61345b565b611f2661380f565b50505050565b6018546001600160a01b031681565b611f43612942565b6000546001600160a01b03908116911614611f93576040805162461bcd60e51b81526020600482018190526024820152600080516020614c43833981519152604482015290519081900360640190fd5b601654604080516370a0823160e01b815230600482015290516000926001600160a01b0316916370a08231916024808301926020929190829003018186803b158015611fde57600080fd5b505afa158015611ff2573d6000803e3d6000fd5b505050506040513d602081101561200857600080fd5b5051905080612017575061206d565b6000612041620f424061203584601454612e2090919063ffffffff16565b9063ffffffff61385316565b90506000612055838363ffffffff612dc316565b9050612060826138ba565b6120698161394f565b5050505b565b600b54151590565b6007546001600160a01b031681565b6026546001600160a01b031681565b6021546001600160a01b031681565b6120ac612942565b6000546001600160a01b039081169116146120fc576040805162461bcd60e51b81526020600482018190526024820152600080516020614c43833981519152604482015290519081900360640190fd5b60138190556040805182815290517fa67f34afb53d068e81607cde52dc74c58cbf6a05eac699e5543b97d25e3ca5cb9181900360200190a150565b61213f612942565b6000546001600160a01b0390811691161461218f576040805162461bcd60e51b81526020600482018190526024820152600080516020614c43833981519152604482015290519081900360640190fd5b600754600160a01b900460ff16156121d85760405162461bcd60e51b8152600401808060200182810382526026815260200180614c1d6026913960400191505060405180910390fd5b600754600160b01b900460ff1615612237576040805162461bcd60e51b815260206004820152601e60248201527f436c617373726f6f6d3a20636f7572736520616c7265616479206f70656e0000604482015290519081900360640190fd5b601654604080516370a0823160e01b815230600482015290516001600160a01b03909216916370a0823191602480820192602092909190829003018186803b15801561228257600080fd5b505afa158015612296573d6000803e3d6000fd5b505050506040513d60208110156122ac57600080fd5b5051156122ea5760405162461bcd60e51b815260040180806020018281038252602a815260200180614c63602a913960400191505060405180910390fd5b6122f26139ca565b604080516000815260208101918290525161230f91600a9161496b565b50600b5461231c5761206d565b6007805460ff60b01b1916600160b01b1790554260085561206d613b92565b6016546001600160a01b031681565b601e5481565b612358612942565b6000546001600160a01b039081169116146123a8576040805162461bcd60e51b81526020600482018190526024820152600080516020614c43833981519152604482015290519081900360640190fd5b6021546001600160a01b03166123f3576040805162461bcd60e51b815260206004820152601f6024820152600080516020614b69833981519152604482015290519081900360640190fd5b6020546021546112f2916001600160a01b0390811691168484613c02565b612419612942565b6000546001600160a01b03908116911614612469576040805162461bcd60e51b81526020600482018190526024820152600080516020614c43833981519152604482015290519081900360640190fd5b602380546001600160a01b0319166001600160a01b0383811691909117918290556040805163076b7fbb60e51b81529051929091169163ed6ff76091600480820192602092909190829003018186803b1580156124c557600080fd5b505afa1580156124d9573d6000803e3d6000fd5b505050506040513d60208110156124ef57600080fd5b5051602580546001600160a01b0319166001600160a01b0392831617905560235460408051630261bf8b60e01b815290519190921691630261bf8b916004808301926020929190829003018186803b15801561254a57600080fd5b505afa15801561255e573d6000803e3d6000fd5b505050506040513d602081101561257457600080fd5b5051602480546001600160a01b0319166001600160a01b0392831617815560255460165460408051631a59df7760e11b815291851660048301525191909316926334b3beee9281810192602092909190829003018186803b1580156125d857600080fd5b505afa1580156125ec573d6000803e3d6000fd5b505050506040513d602081101561260257600080fd5b5051602680546001600160a01b0319166001600160a01b0390921691909117905550565b601c546001600160a01b031681565b601d5481565b612643612942565b6000546001600160a01b03908116911614612693576040805162461bcd60e51b81526020600482018190526024820152600080516020614c43833981519152604482015290519081900360640190fd5b6011805462ffffff808416630100000090810265ffffff000000199093169290921792839055604080519290930416815290517f9d9f9ef51b12eb719684b7a2e09fc2f7e916cb0e229aecf5658ce6326dfeb1c59181900360200190a150565b6024546001600160a01b031681565b61270a612942565b6000546001600160a01b0390811691161461275a576040805162461bcd60e51b81526020600482018190526024820152600080516020614c43833981519152604482015290519081900360640190fd5b6021546001600160a01b03166127a5576040805162461bcd60e51b815260206004820152601f6024820152600080516020614b69833981519152604482015290519081900360640190fd5b6021546020546112f2916001600160a01b0390811691168484613c02565b6127cb612942565b6000546001600160a01b0390811691161461281b576040805162461bcd60e51b81526020600482018190526024820152600080516020614c43833981519152604482015290519081900360640190fd5b6001600160a01b0381166128605760405162461bcd60e51b8152600401808060200182810382526026815260200180614a616026913960400191505060405180910390fd5b600080546040516001600160a01b0380851693921691600080516020614c8d83398151915291a3600080546001600160a01b0319166001600160a01b0392909216919091179055565b60125481565b6128b7612942565b6000546001600160a01b03908116911614612907576040805162461bcd60e51b81526020600482018190526024820152600080516020614c43833981519152604482015290519081900360640190fd5b60128190556040805182815290517f84e881bf3fcef92f709a2a62150da178a998fbff128c017f3e846787a2f7f5f59181900360200190a150565b3390565b60185460165460155460009283926001600160a01b039182169263268e5d1d92879230929082169116612977613e08565b604080516001600160e01b031960e089901b1681526001600160a01b03968716600482015294861660248601529285166044850152931660648301526084820192909252905160a48083019260209291908290030181600087803b1580156129de57600080fd5b505af11580156129f2573d6000803e3d6000fd5b505050506040513d6020811015612a0857600080fd5b50516001600160a01b038481166000818152600c602052604080822080546001600160a01b0319168587169081179091556007548251620c1d9360e91b81526004810195909552602485019190915290519495509092169263183b26009260448084019391929182900301818387803b158015612a8457600080fd5b505af1158015612a98573d6000803e3d6000fd5b509295945050505050565b60408051602080825281830190925260609160208201818036833750505060208101929092525090565b600082820183811015612b25576040805162461bcd60e51b815260206004820152601b60248201527a536166654d6174683a206164646974696f6e206f766572666c6f7760281b604482015290519081900360640190fd5b90505b92915050565b601754604080516370a0823160e01b815230600482015290516000926001600160a01b0316916370a08231916024808301926020929190829003018186803b158015612b7957600080fd5b505afa158015612b8d573d6000803e3d6000fd5b505050506040513d6020811015612ba357600080fd5b50516017546040805163db006a7560e01b81526004810184905290519293506001600160a01b039091169163db006a75916024808201926020929091908290030181600087803b158015612bf657600080fd5b505af1158015612c0a573d6000803e3d6000fd5b505050506040513d6020811015612c2057600080fd5b5050602654604080516370a0823160e01b815230600482015290516000926001600160a01b0316916370a08231916024808301926020929190829003018186803b158015612c6d57600080fd5b505afa158015612c81573d6000803e3d6000fd5b505050506040513d6020811015612c9757600080fd5b50516026546040805163db006a7560e01b81526004810184905290519293506001600160a01b039091169163db006a759160248082019260009290919082900301818387803b158015612ce957600080fd5b505af1158015612cfd573d6000803e3d6000fd5b505050505050565b61206d73c89bd4e1632d3a43cb03aaad5262cbe4038bc5716001600160a01b03166338cc48316040518163ffffffff1660e01b815260040160206040518083038186803b158015612d5557600080fd5b505afa158015612d69573d6000803e3d6000fd5b505050506040513d6020811015612d7f57600080fd5b5051613e44565b612d8e6149cc565b601a54612da3903063100b510360e11b613e66565b601954601b549192506112f2916001600160a01b03909116908390613e91565b600082821115612e1a576040805162461bcd60e51b815260206004820152601e60248201527f536166654d6174683a207375627472616374696f6e206f766572666c6f770000604482015290519081900360640190fd5b50900390565b600082612e2f57506000612b28565b82820282848281612e3c57fe5b0414612b255760405162461bcd60e51b8152600401808060200182810382526021815260200180614bd86021913960400191505060405180910390fd5b6000808080805b600b54811015612fa657600b8181548110612e9757fe5b60009182526020822001546040805163144e786960e11b815290516001600160a01b039092169263289cf0d29260048084019382900301818387803b158015612edf57600080fd5b505af1158015612ef3573d6000803e3d6000fd5b505050506000600b8281548110612f0657fe5b60009182526020918290200154604080516332c3db0f60e11b815290516001600160a01b0390921692636587b61e92600480840193829003018186803b158015612f4f57600080fd5b505afa158015612f63573d6000803e3d6000fd5b505050506040513d6020811015612f7957600080fd5b505190506003811415612f8d576001909301925b8060051415612f9d576001909201915b50600101612e80565b5090925090509091565b600b546012546000916060918390612fe190612fd2908463ffffffff612e2016565b600e549063ffffffff612dc316565b60115460125491925060009161300a91620f4240916120359162ffffff1663ffffffff612e2016565b9050600061302382601254612dc390919063ffffffff16565b9050600061303b85612035868c63ffffffff612e2016565b60115490915060009061306490620f4240906120359085906301000000900462ffffff16612e20565b9050600061307c8b612035888563ffffffff612dc316565b90506060876001600160401b038111801561309657600080fd5b506040519080825280602002602001820160405280156130c0578160200160208202803683370190505b50905060005b88811015613330576000600b82815481106130dd57fe5b60009182526020918290200154604080516332c3db0f60e11b815290516001600160a01b0390921692636587b61e92600480840193829003018186803b15801561312657600080fd5b505afa15801561313a573d6000803e3d6000fd5b505050506040513d602081101561315057600080fd5b50519050600381141561320457600b828154811061316a57fe5b600091825260208220015460408051637db9abaf60e01b8152600481018b90526024810188905290516001600160a01b0390921692637db9abaf9260448084019382900301818387803b1580156131c057600080fd5b505af11580156131d4573d6000803e3d6000fd5b505050506131eb8488612acd90919063ffffffff16565b8383815181106131f757fe5b6020026020010181815250505b80600414156132a257600b828154811061321a57fe5b600091825260208220015460408051637db9abaf60e01b8152600481018b90526024810184905290516001600160a01b0390921692637db9abaf9260448084019382900301818387803b15801561327057600080fd5b505af1158015613284573d6000803e3d6000fd5b505050508683838151811061329557fe5b6020026020010181815250505b806005141561332757600b82815481106132b857fe5b600091825260208220015460408051637db9abaf60e01b8152600481018490526024810184905290516001600160a01b0390921692637db9abaf9260448084019382900301818387803b15801561330e57600080fd5b505af1158015613322573d6000803e3d6000fd5b505050505b506001016130c6565b5061333d8b848a89614068565b9c909b509950505050505050505050565b60005b600b548110156112f257600082828151811061336957fe5b602002602001015111156133ce57601654600b80546133ce926001600160a01b031691908490811061339757fe5b9060005260206000200160009054906101000a90046001600160a01b03168484815181106133c157fe5b6020026020010151614193565b600101613351565b6016546007546133f3916001600160a01b03908116911683614193565b600754604080516307d4728360e51b81526004810184905290516001600160a01b039092169163fa8e50609160248082019260009290919082900301818387803b15801561344057600080fd5b505af1158015613454573d6000803e3d6000fd5b5050505050565b60005b600b54811015610903576000600b828154811061347757fe5b60009182526020918290200154604080516332c3db0f60e11b815290516001600160a01b0390921692636587b61e92600480840193829003018186803b1580156134c057600080fd5b505afa1580156134d4573d6000803e3d6000fd5b505050506040513d60208110156134ea57600080fd5b5051905060038114156135f657600754600b80546001600160a01b03909216916387bfe18891908590811061351b57fe5b600091825260209182902001546040805163b8f31a8160e01b815290516001600160a01b039092169263b8f31a8192600480840193829003018186803b15801561356457600080fd5b505afa158015613578573d6000803e3d6000fd5b505050506040513d602081101561358e57600080fd5b5051604080516001600160e01b031960e085901b1681526001600160a01b0390921660048301526001602483015251604480830192600092919082900301818387803b1580156135dd57600080fd5b505af11580156135f1573d6000803e3d6000fd5b505050505b80600414156136fe57600754600b80546001600160a01b039092169163ff5d8f6391908590811061362357fe5b600091825260209182902001546040805163b8f31a8160e01b815290516001600160a01b039092169263b8f31a8192600480840193829003018186803b15801561366c57600080fd5b505afa158015613680573d6000803e3d6000fd5b505050506040513d602081101561369657600080fd5b5051604080516001600160e01b031960e085901b1681526001600160a01b0390921660048301526001602483015251604480830192600092919082900301818387803b1580156136e557600080fd5b505af11580156136f9573d6000803e3d6000fd5b505050505b806005141561380657600754600b80546001600160a01b039092169163ff5d8f6391908590811061372b57fe5b600091825260209182902001546040805163b8f31a8160e01b815290516001600160a01b039092169263b8f31a8192600480840193829003018186803b15801561377457600080fd5b505afa158015613788573d6000803e3d6000fd5b505050506040513d602081101561379e57600080fd5b5051604080516001600160e01b031960e085901b1681526001600160a01b0390921660048301526002602483015251604480830192600092919082900301818387803b1580156137ed57600080fd5b505af1158015613801573d6000803e3d6000fd5b505050505b5060010161345e565b604080516000815260208101918290525161382c91600b9161496b565b50613835611189565b6000600e556007805460ff60a81b191690556009805460ff19169055565b60008082116138a6576040805162461bcd60e51b815260206004820152601a602482015279536166654d6174683a206469766973696f6e206279207a65726f60301b604482015290519081900360640190fd5b60008284816138b157fe5b04949350505050565b6016546017546138d7916001600160a01b039081169116836142f6565b6017546040805163140e25ad60e31b81526004810184905290516001600160a01b039092169163a0712d68916024808201926020929091908290030181600087803b15801561392557600080fd5b505af1158015613939573d6000803e3d6000fd5b505050506040513d602081101561206957600080fd5b60165460255461396c916001600160a01b039081169116836142f6565b6024805460165460408051636968703360e11b81526001600160a01b0392831660048201529384018590526000604485018190529051919092169263d2d0e06692606480830193919282900301818387803b15801561344057600080fd5b60005b600a5481101561090357600a81815481106139e457fe5b60009182526020918290200154604080516332c3db0f60e11b815290516001600160a01b0390921692636587b61e92600480840193829003018186803b158015613a2d57600080fd5b505afa158015613a41573d6000803e3d6000fd5b505050506040513d6020811015613a5757600080fd5b505160011415613b1c57600a8181548110613a6e57fe5b600091825260208220015460408051623c57d360e61b815290516001600160a01b0390921692630f15f4c09260048084019382900301818387803b158015613ab557600080fd5b505af1158015613ac9573d6000803e3d6000fd5b50505050600b600a8281548110613adc57fe5b60009182526020808320909101548354600181018555938352912090910180546001600160a01b0319166001600160a01b03909216919091179055613b8a565b600a8181548110613b2957fe5b600091825260208220015460408051633caccfcb60e11b815290516001600160a01b03909216926379599f969260048084019382900301818387803b158015613b7157600080fd5b505af1158015613b85573d6000803e3d6000fd5b505050505b6001016139cd565b613b9a6149cc565b601d54613baf9030630aab456960e01b613e66565b9050613be7604051806040016040528060058152602001641d5b9d1a5b60da1b8152506013544201836144599092919063ffffffff16565b601c54601e546112f2916001600160a01b0316908390613e91565b602254613c1a9085906001600160a01b0316846142f6565b60408051600280825260608083018452926020830190803683370190505090508481600081518110613c4857fe5b60200260200101906001600160a01b031690816001600160a01b0316815250508381600181518110613c7657fe5b6001600160a01b039283166020918202929092018101919091526022546040516338ed173960e01b81526004810187815260006024830181905230606484018190526084840189905260a060448501908152885160a4860152885195909716966338ed1739968b9693958a9593948c94939260c49092019187810191028083838b5b83811015613d10578181015183820152602001613cf8565b505050509050019650505050505050600060405180830381600087803b158015613d3957600080fd5b505af1158015613d4d573d6000803e3d6000fd5b505050506040513d6000823e601f3d908101601f191682016040526020811015613d7657600080fd5b8101908080516040519392919084600160201b821115613d9557600080fd5b908301906020820185811115613daa57600080fd5b82518660208202830111600160201b82111715613dc657600080fd5b82525081516020918201928201910280838360005b83811015613df3578181015183820152602001613ddb565b50505050905001604052505050505050505050565b6000613e12614483565b600f54600040186040516020018082815260200191505060405160208183030381529060405280519060200120905090565b600380546001600160a01b0319166001600160a01b0392909216919091179055565b613e6e6149cc565b613e766149cc565b613e888186868663ffffffff6144ac16565b95945050505050565b6005546040805130606090811b60208084019190915260348084018690528451808503909101815260549093018452825192810192909220908601939093526000838152600690915281812080546001600160a01b0319166001600160a01b038816179055905182917fb5e6e01e79f91267dc17b4e6314d5d4d03593d2ceee0fbb452b750bd70ea5af991a26003546001600160a01b0316634000aea08584613f39876144e9565b6040518463ffffffff1660e01b815260040180846001600160a01b03166001600160a01b0316815260200183815260200180602001828103825283818151815260200191508051906020019080838360005b83811015613fa3578181015183820152602001613f8b565b50505050905090810190601f168015613fd05780820380516001836020036101000a031916815260200191505b50945050505050602060405180830381600087803b158015613ff157600080fd5b505af1158015614005573d6000803e3d6000fd5b505050506040513d602081101561401b57600080fd5b50516140585760405162461bcd60e51b8152600401808060200182810382526023815260200180614ad86023913960400191505060405180910390fd5b6005805460010190559392505050565b600080600760009054906101000a90046001600160a01b03166001600160a01b031663e6fd604c6040518163ffffffff1660e01b815260040160206040518083038186803b1580156140b957600080fd5b505afa1580156140cd573d6000803e3d6000fd5b505050506040513d60208110156140e357600080fd5b50516012549091506000906140ff90889063ffffffff612e2016565b9050600061411f620f42406120358962ffffff871663ffffffff612e2016565b90506000614133878a63ffffffff612dc316565b90506000614163620f424061203562ffffff88166141578b8763ffffffff612e2016565b9063ffffffff612e2016565b905061418581614179868663ffffffff612acd16565b9063ffffffff612acd16565b9a9950505050505050505050565b604080516001600160a01b038481166024830152604480830185905283518084039091018152606490920183526020820180516001600160e01b031663a9059cbb60e01b178152925182516000946060949389169392918291908083835b602083106142105780518252601f1990920191602091820191016141f1565b6001836020036101000a0380198251168184511680821785525050505050509050019150506000604051808303816000865af19150503d8060008114614272576040519150601f19603f3d011682016040523d82523d6000602084013e614277565b606091505b50915091508180156142a55750805115806142a557508080602001905160208110156142a257600080fd5b50515b613454576040805162461bcd60e51b815260206004820152601f60248201527f5472616e7366657248656c7065723a205452414e534645525f4641494c454400604482015290519081900360640190fd5b604080516001600160a01b038481166024830152604480830185905283518084039091018152606490920183526020820180516001600160e01b031663095ea7b360e01b178152925182516000946060949389169392918291908083835b602083106143735780518252601f199092019160209182019101614354565b6001836020036101000a0380198251168184511680821785525050505050509050019150506000604051808303816000865af19150503d80600081146143d5576040519150601f19603f3d011682016040523d82523d6000602084013e6143da565b606091505b5091509150818015614408575080511580614408575080806020019051602081101561440557600080fd5b50515b613454576040805162461bcd60e51b815260206004820152601e60248201527f5472616e7366657248656c7065723a20415050524f56455f4641494c45440000604482015290519081900360640190fd5b608083015161446e908363ffffffff61462916565b6080830151612069908263ffffffff61464616565b600f80546040805160208082019390935281518082038401815290820190915280519101209055565b6144b46149cc565b6144c48560800151610100614652565b50509183526001600160a01b031660208301526001600160e01b031916604082015290565b6060634042994660e01b6000808460000151856020015186604001518760600151600189608001516000015160405160240180896001600160a01b03166001600160a01b03168152602001888152602001878152602001866001600160a01b03166001600160a01b03168152602001856001600160e01b0319166001600160e01b031916815260200184815260200183815260200180602001828103825283818151815260200191508051906020019080838360005b838110156145b757818101518382015260200161459f565b50505050905090810190601f1680156145e45780820380516001836020036101000a031916815260200191505b5060408051601f198184030181529190526020810180516001600160e01b03166001600160e01b0319909d169c909c17909b5250989950505050505050505050919050565b614636826003835161468c565b612069828263ffffffff61479516565b6112f28260008361468c565b61465a614a01565b602082061561466f5760208206602003820191505b506020828101829052604080518085526000815290920101905290565b601781116146b3576146ad8360e0600585901b16831763ffffffff6147af16565b50612069565b60ff81116146e9576146d6836018611fe0600586901b161763ffffffff6147af16565b506146ad8382600163ffffffff6147c716565b61ffff81116147205761470d836019611fe0600586901b161763ffffffff6147af16565b506146ad8382600263ffffffff6147c716565b63ffffffff81116147595761474683601a611fe0600586901b161763ffffffff6147af16565b506146ad8382600463ffffffff6147c716565b6001600160401b0381116120695761478283601b611fe0600586901b161763ffffffff6147af16565b50611f268382600863ffffffff6147c716565b61479d614a01565b612b25838460000151518485516147e8565b6147b7614a01565b612b258384600001515184614894565b6147cf614a01565b6147e08485600001515185856148df565b949350505050565b6147f0614a01565b82518211156147fe57600080fd5b846020015182850111156148285761482885614820876020015187860161493d565b600202614954565b6000808651805187602083010193508088870111156148475787860182525b505050602084015b6020841061486e5780518252601f19909301926020918201910161484f565b51815160001960208690036101000a019081169019919091161790525083949350505050565b61489c614a01565b836020015183106148b8576148b8848560200151600202614954565b8351805160208583010184815350808514156148d5576001810182525b5093949350505050565b6148e7614a01565b846020015184830111156149045761490485858401600202614954565b60006001836101000a0390508551838682010185831982511617815250805184870111156149325783860181525b509495945050505050565b60008183111561494e575081612b28565b50919050565b81516149608383614652565b50611f268382614795565b8280548282559060005260206000209081019282156149c0579160200282015b828111156149c057825182546001600160a01b0319166001600160a01b0390911617825560209092019160019091019061498b565b506116f9929150614a1b565b6040805160a0810182526000808252602082018190529181018290526060810191909152608081016149fc614a01565b905290565b604051806040016040528060608152602001600081525090565b610fcd91905b808211156116f95780546001600160a01b0319168155600101614a2156fe436c617373726f6f6d3a206e6f7420656e6f756768204c696e6b20746f6b656e734f776e61626c653a206e6577206f776e657220697320746865207a65726f2061646472657373436c617373726f6f6d3a2073747564656e7420646f65736e2774206861766520656e6f7567682073636f7265436c617373726f6f6d3a2063616e2774206368616e6765206368616c6c656e6765206e6f77756e61626c6520746f207472616e73666572416e6443616c6c20746f206f7261636c65436c617373726f6f6d3a206e6f7420656e6f7567682044414920746f2070726f63656564436c617373726f6f6d3a2072656164207065726d697373696f6e2064656e696564436c617373726f6f6d3a2063616e2774206265206d6f72652074686174203130302520696e2070706d556e69766572736974793a20736574757020756e697377617020666972737400436c617373726f6f6d3a2073747564656e7473206c697374206e6f7420656d707479436c617373726f6f6d3a2070726f666573736f722063616e277420626520697473206f776e2073747564656e74536166654d6174683a206d756c7469706c69636174696f6e206f766572666c6f77436c617373726f6f6d3a20746f6f20736f6f6e20746f2066696e69736820636f75727365436c617373726f6f6d3a206170706c69636174696f6e7320617265207374696c6c206f70656e4f776e61626c653a2063616c6c6572206973206e6f7420746865206f776e6572436c617373726f6f6d3a20696e7665737420616c6c2062616c616e6365206265666f726520626567696e8be0079c531659141344cd1fd0a4f28419497f9722a3daafe3b4186f6b6457e0436c617373726f6f6d3a206170706c69636174696f6e732061726520616c726561647920636c6f736564436c617373726f6f6d3a2073747564656e74206973206e6f742072656769737465726564436c617373726f6f6d3a206170706c69636174696f6e732061726520616c7265616479206f70656e6564536f75726365206d75737420626520746865206f7261636c65206f662074686520726571756573747cc135e0cebb02c3480ae5d74d377283180a2601f8f644edf7987b009316c63aa264697066735822122045589d31132a222a6cb7b8801285a43fa82e81920a2e0966a0d2b3cb217df45e64736f6c63430006060033",
  "immutableReferences": {},
  "source": "pragma solidity ^0.6.6;\n\nimport \"@openzeppelin/contracts/math/SafeMath.sol\";\nimport \"@openzeppelin/contracts/access/Ownable.sol\";\nimport \"@openzeppelin/contracts/token/ERC20/IERC20.sol\";\nimport \"@chainlink/contracts/src/v0.6/ChainlinkClient.sol\";\nimport \"@chainlink/contracts/src/v0.6/interfaces/LinkTokenInterface.sol\";\nimport \"@uniswap/v2-periphery/contracts/interfaces/IUniswapV2Router01.sol\";\nimport \"@uniswap/lib/contracts/libraries/TransferHelper.sol\";\nimport \"@nomiclabs/buidler/console.sol\";\nimport \"./interface/Aave/aToken.sol\";\nimport \"./interface/Aave/ILendingPool.sol\";\nimport \"./interface/Aave/ILendingPoolAddressesProvider.sol\";\nimport \"./interface/IUniversity.sol\";\nimport \"./interface/IStudent.sol\";\nimport \"./interface/IClassroom.sol\";\nimport \"./interface/IStudentApplication.sol\";\nimport \"./interface/IClassroomChallenge.sol\";\nimport \"./interface/IStudentApplicationFactory.sol\";\nimport \"./MyUtils.sol\";\n\n\ncontract Classroom is Ownable, ChainlinkClient, IClassroom {\n    IUniversity public university;\n    bool public openForApplication;\n    bool public courseFinished;\n    bool public classroomActive;\n    uint256 public startDate;\n    bool _timestampAlarm;\n    address[] _studentApplications;\n    address[] _validStudentApplications;\n    mapping(address => address) _studentApplicationsLink;\n    uint256 _endDate;\n    uint256 _courseBalance;\n    bytes32 _seed;\n\n    //Classroom parameters\n    bytes32 public name;\n    uint24 public principalCut;\n    uint24 public poolCut;\n    int32 public minScore;\n    uint256 public override entryPrice;\n    uint256 public duration;\n    uint256 public compoundApplyPercentage;\n    address public challengeAddress;\n\n    //Tokens\n    address public daiToken;\n    address public cDAI;\n\n    //Factory\n    IStudentApplicationFactory public studentApplicationFactory;\n\n    //Chainlink config\n    address public oracleRandom;\n    bytes32 public requestIdRandom;\n    uint256 public oraclePaymentRandom;\n    address public oracleTimestamp;\n    bytes32 public requestIdTimestamp;\n    uint256 public oraclePaymentTimestamp;\n    address public linkToken;\n\n    //Uniswap Config\n    address public uniswapDAI;\n    address public uniswapLINK;\n    IUniswapV2Router01 public uniswapRouter;\n\n    //Aave Config\n    ILendingPoolAddressesProvider public aaveProvider;\n    ILendingPool public aaveLendingPool;\n    address public aaveLendingPoolCore;\n    address public aTokenDAI;\n\n    constructor(\n        bytes32 name_,\n        uint24 principalCut_,\n        uint24 poolCut_,\n        int32 minScore_,\n        uint256 entryPrice_,\n        uint256 duration_,\n        address payable universityAddress,\n        address challengeAddress_,\n        address daiAddress,\n        address compoundDAIAddress,\n        address studentApplicationFactoryAddress\n    ) public {\n        name = name_;\n        principalCut = principalCut_;\n        poolCut = poolCut_;\n        minScore = minScore_;\n        entryPrice = entryPrice_;\n        duration = duration_;\n        compoundApplyPercentage = 0.5 * 1e6;\n        university = IUniversity(universityAddress);\n        challengeAddress = challengeAddress_;\n        openForApplication = false;\n        classroomActive = false;\n        daiToken = daiAddress;\n        cDAI = compoundDAIAddress;\n        studentApplicationFactory = IStudentApplicationFactory(\n            studentApplicationFactoryAddress\n        );\n    }\n\n    event LogOpenApplications();\n    event LogCloseApplications();\n    event LogCourseFinished();\n    event LogChangeChallenge(address);\n    event LogChangeName(bytes32);\n    event LogChangePrincipalCut(uint24);\n    event LogChangePoolCut(uint24);\n    event LogChangeMinScore(int32);\n    event LogChangeEntryPrice(uint256);\n    event LogChangeDuration(uint256);\n\n    // @dev \"Stack too deep\" error if done in the constructor\n    function configureOracles(\n        address oracleRandom_,\n        bytes32 requestIdRandom_,\n        uint256 oraclePaymentRandom_,\n        address oracleTimestamp_,\n        bytes32 requestIdTimestamp_,\n        uint256 oraclePaymentTimestamp_,\n        address linkToken_\n    ) public onlyOwner {\n        oracleRandom = oracleRandom_;\n        requestIdRandom = requestIdRandom_;\n        oraclePaymentRandom = oraclePaymentRandom_;\n        oracleTimestamp = oracleTimestamp_;\n        requestIdTimestamp = requestIdTimestamp_;\n        oraclePaymentTimestamp = oraclePaymentTimestamp_;\n        linkToken = linkToken_;\n        setPublicChainlinkToken();\n        require(\n            LinkTokenInterface(linkToken).balanceOf(address(this)) >=\n                oraclePaymentRandom,\n            \"Classroom: not enough Link tokens\"\n        );\n        _generateSeed();\n    }\n\n    function configureUniswap(\n        address uniswapDAI_,\n        address uniswapLINK_,\n        address uniswapRouter_\n    ) public onlyOwner {\n        uniswapDAI = uniswapDAI_;\n        uniswapLINK = uniswapLINK_;\n        uniswapRouter = IUniswapV2Router01(uniswapRouter_);\n    }\n\n    function configureAave(address lendingPoolAddressesProvider)\n        public\n        onlyOwner\n    {\n        aaveProvider = ILendingPoolAddressesProvider(\n            lendingPoolAddressesProvider\n        );\n        aaveLendingPoolCore = aaveProvider.getLendingPoolCore();\n        aaveLendingPool = ILendingPool(aaveProvider.getLendingPool());\n        aTokenDAI = ILendingPoolCore(aaveLendingPoolCore)\n            .getReserveATokenAddress(daiToken);\n    }\n\n    function transferOwnershipClassroom(address newOwner) public override {\n        transferOwnership(newOwner);\n    }\n\n    function ownerClassroom() public view override returns (address) {\n        return owner();\n    }\n\n    function changeName(bytes32 val) public onlyOwner {\n        name = val;\n        emit LogChangeName(name);\n    }\n\n    function changePrincipalCut(uint24 val) public onlyOwner {\n        principalCut = val;\n        emit LogChangePrincipalCut(principalCut);\n    }\n\n    function changePoolCut(uint24 val) public onlyOwner {\n        poolCut = val;\n        emit LogChangePoolCut(poolCut);\n    }\n\n    function changeMinScore(int32 val) public onlyOwner {\n        minScore = val;\n        emit LogChangeMinScore(minScore);\n    }\n\n    function changeEntryPrice(uint256 val) public onlyOwner {\n        entryPrice = val;\n        emit LogChangeEntryPrice(entryPrice);\n    }\n\n    function changeDuration(uint256 val) public onlyOwner {\n        duration = val;\n        emit LogChangeDuration(duration);\n    }\n\n    function changeCompoundApplyPercentage(uint256 ppm) public onlyOwner {\n        require(ppm <= 1e6, \"Classroom: can't be more that 100% in ppm\");\n        compoundApplyPercentage = ppm;\n    }\n\n    function changeChallenge(address addr) public onlyOwner {\n        require(isClassroomEmpty(), \"Classroom: can't change challenge now\");\n        challengeAddress = addr;\n        emit LogChangeChallenge(challengeAddress);\n    }\n\n    function viewMyApplication() public view override returns (address) {\n        return viewApplication(_msgSender());\n    }\n\n    function viewApplication(address addr) public view returns (address) {\n        require(\n            addr == _msgSender() || _msgSender() == owner(),\n            \"Classroom: read permission denied\"\n        );\n        return _studentApplicationsLink[addr];\n    }\n\n    function isClassroomEmpty() public view returns (bool) {\n        return\n            _studentApplications.length.add(_validStudentApplications.length) ==\n            0;\n    }\n\n    function isCourseOngoing() public view returns (bool) {\n        return _validStudentApplications.length > 0;\n    }\n\n    function openApplications() public onlyOwner {\n        require(oracleRandom != address(0), \"Classroom: setup oracles first\");\n        require(uniswapDAI != address(0), \"Classroom: setup Uniswap first\");\n        require(\n            aaveLendingPoolCore != address(0),\n            \"Classroom: setup Aave first\"\n        );\n        require(\n            !openForApplication,\n            \"Classroom: applications are already opened\"\n        );\n        require(\n            _studentApplications.length == 0,\n            \"Classroom: students list not empty\"\n        );\n        require(\n            LinkTokenInterface(linkToken).balanceOf(address(this)) >=\n                oraclePaymentTimestamp,\n            \"Classroom: not enough Link tokens\"\n        );\n        openForApplication = true;\n        emit LogOpenApplications();\n    }\n\n    function closeApplications() public onlyOwner {\n        require(\n            openForApplication,\n            \"Classroom: applications are already closed\"\n        );\n        openForApplication = false;\n        emit LogCloseApplications();\n    }\n\n    //public onlyOwner allow the professor to apply money before and after closing applications\n    function applyDAI() public onlyOwner {\n        uint256 balance = IERC20(daiToken).balanceOf(address(this));\n        if (balance <= 0) return;\n        uint256 compoundApply = compoundApplyPercentage.mul(balance).div(1e6);\n        uint256 aaveApply = balance.sub(compoundApply);\n        applyFundsCompound(compoundApply);\n        applyFundsAave(aaveApply);\n    }\n\n    function applyFundsCompound(uint256 val) internal {\n        TransferHelper.safeApprove(address(daiToken), address(cDAI), val);\n        CERC20(cDAI).mint(val);\n    }\n\n    function applyFundsAave(uint256 val) internal {\n        TransferHelper.safeApprove(\n            address(daiToken),\n            aaveLendingPoolCore,\n            val\n        );\n        aaveLendingPool.deposit(address(daiToken), val, 0);\n    }\n\n    function studentApply() public override {\n        require(\n            IStudent(_msgSender()).ownerStudent() != owner(),\n            \"Classroom: professor can't be its own student\"\n        );\n        require(\n            university.studentIsRegistered(_msgSender()),\n            \"Classroom: student is not registered\"\n        );\n        IStudent applicant = IStudent(_msgSender());\n        require(\n            applicant.score() >= minScore,\n            \"Classroom: student doesn't have enough score\"\n        );\n        require(openForApplication, \"Classroom: applications closed\");\n        address application = _createStudentApplication(address(applicant));\n        _studentApplications.push(application);\n    }\n\n    function _createStudentApplication(address student)\n        internal\n        returns (address)\n    {\n        address newApplication = studentApplicationFactory\n            .newStudentApplication(\n            student,\n            address(this),\n            address(daiToken),\n            challengeAddress,\n            generateNewSeed()\n        );\n        _studentApplicationsLink[student] = newApplication;\n        university.registerStudentApplication(student, newApplication);\n        return newApplication;\n    }\n\n    function generateNewSeed() internal returns (bytes32) {\n        _mutateSeed();\n        return keccak256(abi.encode(blockhash(0) ^ _seed));\n    }\n\n    function countNewApplications()\n        public\n        view\n        onlyOwner\n        returns (uint256 count)\n    {\n        for (uint256 i = 0; i < _studentApplications.length; i++) {\n            if (\n                IStudentApplication(_studentApplications[i])\n                    .applicationState() == 0\n            ) count++;\n        }\n    }\n\n    function countReadyApplications()\n        public\n        view\n        onlyOwner\n        returns (uint256 count)\n    {\n        for (uint256 i = 0; i < _studentApplications.length; i++) {\n            if (\n                IStudentApplication(_studentApplications[i])\n                    .applicationState() == 1\n            ) count++;\n        }\n    }\n\n    function beginCourse()\n        public\n        onlyOwner\n    {\n        require(!openForApplication, \"Classroom: applications are still open\");\n        require(!classroomActive, \"Classroom: course already open\");\n        require(\n            IERC20(daiToken).balanceOf(address(this)) == 0,\n            \"Classroom: invest all balance before begin\"\n        );\n        checkApplications();\n        _studentApplications = new address[](0);\n        if (_validStudentApplications.length == 0) return;\n        classroomActive = true;\n        startDate = block.timestamp;\n        _setAlarm();\n    }\n\n    function checkApplications() internal {\n        for (uint256 i = 0; i < _studentApplications.length; i++) {\n            if (\n                IStudentApplication(_studentApplications[i])\n                    .applicationState() == 1\n            ) {\n                IStudentApplication(_studentApplications[i]).activate();\n                _validStudentApplications.push(_studentApplications[i]);\n            } else {\n                IStudentApplication(_studentApplications[i]).expire();\n            }\n        }\n    }\n\n    function finishCourse() public onlyOwner {\n        require(\n            _validStudentApplications.length > 0,\n            \"Classroom: no applications\"\n        );\n        require(_timestampAlarm, \"Classroom: too soon to finish course\");\n        _courseBalance = IERC20(daiToken).balanceOf(address(this));\n        _recoverInvestment();\n        courseFinished = true;\n        emit LogCourseFinished();\n    }\n\n    function courseBalance() public view onlyOwner() returns (uint256) {\n        return\n            courseFinished\n                ? IERC20(daiToken).balanceOf(address(this)).sub(_courseBalance)\n                : 0;\n    }\n\n    function _recoverInvestment() internal {\n        uint256 balanceCompound = CERC20(cDAI).balanceOf(address(this));\n        CERC20(cDAI).redeem(balanceCompound);\n        uint256 balanceAave = aToken(aTokenDAI).balanceOf(address(this));\n        aToken(aTokenDAI).redeem(balanceAave);\n    }\n\n    function processResults() public onlyOwner {\n        require(courseFinished, \"Classroom: course not finished\");\n        _courseBalance = courseBalance();\n        require(\n            _courseBalance >= entryPrice.mul(_validStudentApplications.length),\n            \"Classroom: not enough DAI to proceed\"\n        );\n        (uint256 successCount, uint256 emptyCount) = _startAnswerVerification();\n        (\n            uint256 universityCut,\n            uint256[] memory studentAllowances\n        ) = _accountValues(successCount, emptyCount);\n        _resolveStudentAllowances(studentAllowances);\n        _resolveUniversityCut(universityCut);\n        _updateStudentScores();\n        _clearClassroom();\n    }\n\n    function _startAnswerVerification() internal returns (uint256, uint256) {\n        uint256 successCount = 0;\n        uint256 emptyCount = 0;\n        for (uint256 i = 0; i < _validStudentApplications.length; i++) {\n            IStudentApplication(_validStudentApplications[i])\n                .registerFinalAnswer();\n            uint256 appState = IStudentApplication(_validStudentApplications[i])\n                .applicationState();\n            if (appState == 3) successCount++;\n            if (appState == 5) emptyCount++;\n        }\n        return (successCount, emptyCount);\n    }\n\n    function _accountValues(uint256 successCount, uint256 emptyCount)\n        internal\n        returns (uint256, uint256[] memory)\n    {\n        uint256 nStudents = _validStudentApplications.length;\n        uint256 returnsPool = _courseBalance.sub(entryPrice.mul(nStudents));\n        uint256 professorPaymentPerStudent = entryPrice.mul(principalCut).div(\n            1e6\n        );\n        uint256 studentPrincipalReturn = entryPrice.sub(\n            professorPaymentPerStudent\n        );\n        uint256 successPool = returnsPool.mul(successCount).div(nStudents);\n        uint256 professorTotalPoolSuccessShare = successPool.mul(poolCut).div(\n            1e6\n        );\n        uint256 successStudentPoolShare = returnsPool\n            .sub(professorTotalPoolSuccessShare)\n            .div(successCount);\n        uint256[] memory studentAllowances = new uint256[](nStudents);\n        for (uint256 i = 0; i < nStudents; i++) {\n            uint256 appState = IStudentApplication(_validStudentApplications[i])\n                .applicationState();\n            if (appState == 3) {\n                IStudentApplication(_validStudentApplications[i])\n                    .accountAllowance(\n                    studentPrincipalReturn,\n                    successStudentPoolShare\n                );\n                studentAllowances[i] = studentPrincipalReturn.add(\n                    successStudentPoolShare\n                );\n            }\n            if (appState == 4) {\n                IStudentApplication(_validStudentApplications[i])\n                    .accountAllowance(studentPrincipalReturn, 0);\n                studentAllowances[i] = studentPrincipalReturn;\n            }\n            if (appState == 5)\n                IStudentApplication(_validStudentApplications[i])\n                    .accountAllowance(0, 0);\n        }\n        \n        return (\n            _calculateUniversityShare(\n                emptyCount,\n                professorTotalPoolSuccessShare,\n                nStudents,\n                professorPaymentPerStudent\n            ),\n            studentAllowances\n        );\n    }\n\n    function _calculateUniversityShare(\n        uint256 emptyCount,\n        uint256 professorTotalPoolSuccessShare,\n        uint256 nStudents,\n        uint256 professorPaymentPerStudent\n    ) internal view returns (uint256) {\n        uint24 uCut = university.cut();\n        uint256 universityEmptyShare = emptyCount.mul(entryPrice);\n        uint256 universityPaymentShare = professorTotalPoolSuccessShare\n            .mul(uCut)\n            .div(1e6);\n        uint256 notEmptyCount = nStudents.sub(emptyCount);\n        uint256 universitySucessPoolShare = professorPaymentPerStudent\n            .mul(notEmptyCount)\n            .mul(uCut)\n            .div(1e6);\n        return\n            universityEmptyShare.add(universityPaymentShare).add(\n                universitySucessPoolShare\n            );\n    }\n\n    function _resolveStudentAllowances(uint256[] memory studentAllowances)\n        internal\n    {\n        for (uint256 i = 0; i < _validStudentApplications.length; i++) {\n            if (studentAllowances[i] > 0)\n                TransferHelper.safeTransfer(\n                    daiToken,\n                    address(_validStudentApplications[i]),\n                    studentAllowances[i]\n                );\n        }\n    }\n\n    function _resolveUniversityCut(uint256 universityCut) internal {\n        TransferHelper.safeTransfer(\n            address(daiToken),\n            address(university),\n            universityCut\n        );\n        university.accountRevenue(universityCut);\n    }\n\n    function _updateStudentScores() internal {\n        for (uint256 i = 0; i < _validStudentApplications.length; i++) {\n            uint256 appState = IStudentApplication(_validStudentApplications[i])\n                .applicationState();\n            if (appState == 3)\n                university.addStudentScore(\n                    IStudentApplication(_validStudentApplications[i])\n                        .studentAddress(),\n                    1\n                );\n            if (appState == 4)\n                university.subStudentScore(\n                    IStudentApplication(_validStudentApplications[i])\n                        .studentAddress(),\n                    1\n                );\n            if (appState == 5)\n                university.subStudentScore(\n                    IStudentApplication(_validStudentApplications[i])\n                        .studentAddress(),\n                    2\n                );\n        }\n    }\n\n    function _clearClassroom() internal {\n        _validStudentApplications = new address[](0);\n        withdrawAllResults();\n        _courseBalance = 0;\n        courseFinished = false;\n        _timestampAlarm = false;\n    }\n\n    function _mutateSeed() internal {\n        _seed = keccak256(abi.encode(_seed));\n    }\n\n    function withdrawAllResults() public onlyOwner {\n        IERC20(daiToken).transferFrom(\n            address(this),\n            owner(),\n            IERC20(daiToken).balanceOf(address(this))\n        );\n    }\n\n    function swapDAI_LINK(uint256 amount, uint256 deadline) public onlyOwner {\n        require(uniswapLINK != address(0), \"University: setup uniswap first\");\n        swapBlind(uniswapDAI, uniswapLINK, amount, deadline);\n    }\n\n    function swapLINK_DAI(uint256 amount, uint256 deadline) public onlyOwner {\n        require(uniswapLINK != address(0), \"University: setup uniswap first\");\n        swapBlind(uniswapLINK, uniswapDAI, amount, deadline);\n    }\n\n    function swapBlind(\n        address tokenA,\n        address tokenB,\n        uint256 amount,\n        uint256 deadline\n    ) internal {\n        TransferHelper.safeApprove(tokenA, address(uniswapRouter), amount);\n        address[] memory path = new address[](2);\n        path[0] = tokenA;\n        path[1] = tokenB;\n        uniswapRouter.swapExactTokensForTokens(\n            amount,\n            0,\n            path,\n            address(this),\n            deadline\n        );\n    }\n\n    function _generateSeed() internal {\n        Chainlink.Request memory req = buildChainlinkRequest(\n            requestIdRandom,\n            address(this),\n            this.fulfillGenerateSeed.selector\n        );\n        sendChainlinkRequestTo(oracleRandom, req, oraclePaymentRandom);\n    }\n\n    function fulfillGenerateSeed(bytes32 _requestId, uint256 data)\n        public\n        recordChainlinkFulfillment(_requestId)\n    {\n        _seed = keccak256(MyUtils._toBytes(data));\n    }\n\n    function _setAlarm() internal {\n        Chainlink.Request memory req = buildChainlinkRequest(\n            requestIdTimestamp,\n            address(this),\n            this.fulfillGetTimestamp.selector\n        );\n        req.addUint(\"until\", now + duration);\n        sendChainlinkRequestTo(oracleTimestamp, req, oraclePaymentTimestamp);\n    }\n\n    function fulfillGetTimestamp(bytes32 _requestId)\n        public\n        recordChainlinkFulfillment(_requestId)\n    {\n        _timestampAlarm = true;\n    }\n}\n",
  "sourcePath": "/mnt/e/Repositories/Uproot/contracts/Classroom.sol",
  "compiler": {
    "name": "solc",
    "version": "0.6.6+commit.6c089d02.Emscripten.clang"
  },
  "schemaVersion": "3.1.0",
  "updatedAt": "2020-05-19T22:58:25.111Z",
  "devdoc": {
    "methods": {
      "owner()": {
        "details": "Returns the address of the current owner."
      },
      "renounceOwnership()": {
        "details": "Leaves the contract without owner. It will not be possible to call `onlyOwner` functions anymore. Can only be called by the current owner.     * NOTE: Renouncing ownership will leave the contract without an owner, thereby removing any functionality that is only available to the owner."
      },
      "transferOwnership(address)": {
        "details": "Transfers ownership of the contract to a new account (`newOwner`). Can only be called by the current owner."
      }
    }
  },
  "userdoc": {
    "methods": {}
  }
}