{
  "contractName": "ClassroomFactory",
  "abi": [
    {
      "inputs": [
        {
          "internalType": "bytes32",
          "name": "name",
          "type": "bytes32"
        },
        {
          "internalType": "uint24",
          "name": "principalCut",
          "type": "uint24"
        },
        {
          "internalType": "uint24",
          "name": "poolCut",
          "type": "uint24"
        },
        {
          "internalType": "int32",
          "name": "minScore",
          "type": "int32"
        },
        {
          "internalType": "uint256",
          "name": "entryPrice",
          "type": "uint256"
        },
        {
          "internalType": "uint256",
          "name": "duration",
          "type": "uint256"
        },
        {
          "internalType": "address payable",
          "name": "universityAddress",
          "type": "address"
        },
        {
          "internalType": "address",
          "name": "challengeAddress",
          "type": "address"
        },
        {
          "internalType": "address",
          "name": "daiAddress",
          "type": "address"
        },
        {
          "internalType": "address",
          "name": "compoundAddress",
          "type": "address"
        },
        {
          "internalType": "address",
          "name": "studentApplicationFactoryAddress",
          "type": "address"
        }
      ],
      "name": "newClassroom",
      "outputs": [
        {
          "internalType": "address",
          "name": "classroomAddress",
          "type": "address"
        }
      ],
      "stateMutability": "nonpayable",
      "type": "function"
    }
  ],
  "bytecode": "0x608060405234801561001057600080fd5b50615167806100206000396000f3fe608060405234801561001057600080fd5b506004361061002b5760003560e01c8063f9a84f9614610030575b600080fd5b6100ac600480360361016081101561004757600080fd5b5080359062ffffff6020820135811691604081013590911690606081013560030b9060808101359060a0810135906001600160a01b0360c082013581169160e081013582169161010082013581169161012081013582169161014090910135166100c8565b604080516001600160a01b039092168252519081900360200190f35b6000808c8c8c8c8c8c8c8c8c8c8c6040516100e2906101e1565b9a8b5262ffffff998a1660208c0152979098166040808b0191909152600396870b90960b60608a0152608089019490945260a08801929092526001600160a01b0390811660c088015290811660e08701529081166101008601529283166101208501529116610140830152519081900361016001906000f08015801561016c573d6000803e3d6000fd5b506040805163f2fde38b60e01b815233600482015290519192506001600160a01b0383169163f2fde38b9160248082019260009290919082900301818387803b1580156101b857600080fd5b505af11580156101cc573d6000803e3d6000fd5b50929f9e505050505050505050505050505050565b614f43806101ef8339019056fe608060405260016005553480156200001657600080fd5b5060405162004f4338038062004f4383398181016040526101608110156200003d57600080fd5b508051602082015160408301516060840151608085015160a086015160c087015160e08801516101008901516101208a0151610140909a01519899979896979596949593949293919290919060006200009e6001600160e01b03620001c316565b600080546001600160a01b0319166001600160a01b0383169081178255604051929350917f8be0079c531659141344cd1fd0a4f28419497f9722a3daafe3b4186f6b6457e0908290a35060109a909a556011805462ffffff191662ffffff9a8b161765ffffff0000001916630100000099909a16989098029890981763ffffffff60301b1916660100000000000063ffffffff60039890980b9790971696909602959095179095556012929092556013556207a12060145560078054601580546001600160a01b03199081166001600160a01b03978816179091559081169285169290921762ff00ff60a01b191690556016805482169284169290921790915560178054821693831693909317909255601880549092169216919091179055620001c7565b3390565b614d6c80620001d76000396000f3fe608060405234801561001057600080fd5b50600436106102fa5760003560e01c806384952ba41161019a57806384952ba4146105a65780638646bcec146105ae57806386c79e0b146105b657806387429a9c146105be578063898855ed146105c65780638b45fb67146105e35780638da5cb5b146105eb578063952f1c14146105f35780639e6e0b5f146105fb578063a2281a8514610603578063a3f73c2d1461060b578063a46268a814610631578063aa055a4014610639578063aaaed76f14610641578063ada02e1914610649578063adf45ef214610651578063ae12894e14610659578063b5365c3c14610661578063b56bc55314610669578063b594f08614610671578063be22f5461461068e578063bf96d53f14610696578063c2d0b3031461069e578063c799f5e2146106c1578063cdb3bff9146106e7578063d8e5ea58146106ef578063e804f164146106f7578063e9d337b814610719578063f0607e4314610721578063f2fde38b14610744578063f745adfc1461076a578063fa245bf014610772578063fe7da9e914610791576102fa565b80624f8411146102ff57806306fdde031461031e5780630aab4569146103385780630b78cb0e146103555780630b97bc86146103715780630fb5a6b41461037957806313c2bedc14610381578063149c6d10146103a257806318b9533b146103f95780631b9dbc601461041f5780632016a2061461042757806329d188791461044a5780632ed537731461046e57806331960027146104765780633bcd97d41461047e5780633ca5583314610486578063431a16ef1461048e5780634c5e7893146104965780634ffb660c1461049e57806357970e93146104be5780635aa33a2d146104c65780635b8f96de146104ce578063604d3943146105065780636ae88cc2146105265780636e8055a71461052e5780636f6941b914610536578063715018a61461053e578063735de9f71461054657806376eada911461054e5780637c0260cb146105745780638155e9771461057c578063834a320c1461059e575b600080fd5b61031c6004803603602081101561031557600080fd5b50356107ae565b005b61032661084d565b60408051918252519081900360200190f35b61031c6004803603602081101561034e57600080fd5b5035610853565b61035d6108ec565b604080519115158252519081900360200190f35b6103266108fc565b610326610902565b610389610908565b60408051600392830b90920b8252519081900360200190f35b61031c60048036036101008110156103b957600080fd5b506001600160a01b038135811691602081013591604082013591606081013582169160808201359160a08101359160c0820135169060e001351515610918565b61031c6004803603602081101561040f57600080fd5b50356001600160a01b0316610aa5565b61031c610ab1565b61031c6004803603604081101561043d57600080fd5b5080359060200135610dbb565b610452610e5c565b604080516001600160a01b039092168252519081900360200190f35b610326610e6b565b61031c610e71565b61035d61115b565b61045261117b565b61031c61118a565b61031c611334565b61031c600480360360208110156104b457600080fd5b503560030b611466565b610452611528565b61035d611537565b61031c600480360360608110156104e457600080fd5b506001600160a01b038135811691602081013582169160409091013516611547565b61050e6115de565b6040805162ffffff9092168252519081900360200190f35b6103266115f0565b6104526116f4565b61045261170b565b61031c61171a565b6104526117aa565b6104526004803603602081101561056457600080fd5b50356001600160a01b03166117b9565b61031c61185b565b61031c6004803603602081101561059257600080fd5b503562ffffff16611933565b6103266119dd565b610452611ad7565b61050e611ae6565b610326611af1565b610452611af7565b61031c600480360360208110156105dc57600080fd5b5035611b06565b610452611b99565b610452611b9f565b610326611bae565b610326611caa565b610452611cb0565b61031c6004803603602081101561062157600080fd5b50356001600160a01b0316611cbf565b61035d611db4565b61031c611dc4565b610452611f23565b61031c611f32565b61035d612065565b61045261206d565b61045261207c565b61045261208b565b61031c6004803603602081101561068757600080fd5b503561209a565b61045261212d565b61032661213c565b61031c600480360360408110156106b457600080fd5b5080359060200135612142565b61031c600480360360208110156106d757600080fd5b50356001600160a01b0316612207565b61045261241c565b61032661242b565b61031c6004803603602081101561070d57600080fd5b503562ffffff16612431565b6104526124e9565b61031c6004803603604081101561073757600080fd5b50803590602001356124f8565b61031c6004803603602081101561075a57600080fd5b50356001600160a01b03166125b9565b61032661269f565b61031c6004803603602081101561078857600080fd5b503515156126a5565b61031c600480360360208110156107a757600080fd5b50356128c4565b6107b6612957565b6000546001600160a01b03908116911614610806576040805162461bcd60e51b81526020600482018190526024820152600080516020614beb833981519152604482015290519081900360640190fd5b620f42408111156108485760405162461bcd60e51b8152600401808060200182810382526029815260200180614ae86029913960400191505060405180910390fd5b601455565b60105481565b60008181526006602052604090205481906001600160a01b031633146108aa5760405162461bcd60e51b8152600401808060200182810382526028815260200180614ccd6028913960400191505060405180910390fd5b60008181526006602052604080822080546001600160a01b0319169055518291600080516020614cf583398151915291a250506009805460ff19166001179055565b600754600160a01b900460ff1681565b60085481565b60135481565b601154600160301b900460030b81565b610920612957565b6000546001600160a01b03908116911614610970576040805162461bcd60e51b81526020600482018190526024820152600080516020614beb833981519152604482015290519081900360640190fd5b601980546001600160a01b03808b166001600160a01b031992831617909255601a899055601b889055601c8054888416908316179055601d869055601e859055601f8054928516929091169190911790556109ca8261295b565b601b54601f54604080516370a0823160e01b815230600482015290516001600160a01b03909216916370a0823191602480820192602092909190829003018186803b158015610a1857600080fd5b505afa158015610a2c573d6000803e3d6000fd5b505050506040513d6020811015610a4257600080fd5b50511015610a815760405162461bcd60e51b81526004018080602001828103825260218152602001806149e86021913960400191505060405180910390fd5b8015610a9457610a8f61297d565b610a9b565b600040600f555b5050505050505050565b610aae816125b9565b50565b610ab9611b9f565b6001600160a01b0316610aca612957565b6001600160a01b0316637a6c8b536040518163ffffffff1660e01b815260040160206040518083038186803b158015610b0257600080fd5b505afa158015610b16573d6000803e3d6000fd5b505050506040513d6020811015610b2c57600080fd5b50516001600160a01b03161415610b745760405162461bcd60e51b815260040180806020018281038252602d815260200180614b53602d913960400191505060405180910390fd5b6007546001600160a01b03166316ded1ce610b8d612957565b6040518263ffffffff1660e01b815260040180826001600160a01b03166001600160a01b0316815260200191505060206040518083038186803b158015610bd357600080fd5b505afa158015610be7573d6000803e3d6000fd5b505050506040513d6020811015610bfd57600080fd5b5051610c3a5760405162461bcd60e51b8152600401808060200182810382526024815260200180614c7f6024913960400191505060405180910390fd5b6000610c44612957565b9050601160069054906101000a900460030b60030b816001600160a01b031663efedc6696040518163ffffffff1660e01b815260040160206040518083038186803b158015610c9257600080fd5b505afa158015610ca6573d6000803e3d6000fd5b505050506040513d6020811015610cbc57600080fd5b505160030b1215610cfe5760405162461bcd60e51b815260040180806020018281038252602c815260200180614a2f602c913960400191505060405180910390fd5b600754600160a01b900460ff16610d5c576040805162461bcd60e51b815260206004820152601e60248201527f436c617373726f6f6d3a206170706c69636174696f6e7320636c6f7365640000604482015290519081900360640190fd5b6000610d67826129ba565b600a80546001810182556000919091527fc65a7bb8d6351c1cf70c95a316cc6a92839c986682d98bc35f958f4883f9d2a80180546001600160a01b0319166001600160a01b03929092169190911790555050565b60008281526006602052604090205482906001600160a01b03163314610e125760405162461bcd60e51b8152600401808060200182810382526028815260200180614ccd6028913960400191505060405180910390fd5b60008181526006602052604080822080546001600160a01b0319169055518291600080516020614cf583398151915291a2610e4c82612b17565b8051602090910120600f55505050565b6015546001600160a01b031681565b601b5481565b610e79612957565b6000546001600160a01b03908116911614610ec9576040805162461bcd60e51b81526020600482018190526024820152600080516020614beb833981519152604482015290519081900360640190fd5b6019546001600160a01b0316610f26576040805162461bcd60e51b815260206004820152601e60248201527f436c617373726f6f6d3a207365747570206f7261636c65732066697273740000604482015290519081900360640190fd5b6020546001600160a01b0316610f83576040805162461bcd60e51b815260206004820152601e60248201527f436c617373726f6f6d3a20736574757020556e69737761702066697273740000604482015290519081900360640190fd5b6025546001600160a01b0316610fde576040805162461bcd60e51b815260206004820152601b60248201527a10db185cdcdc9bdbdb4e881cd95d1d5c0810585d9948199a5c9cdd602a1b604482015290519081900360640190fd5b600754600160a01b900460ff16156110275760405162461bcd60e51b815260040180806020018281038252602a815260200180614ca3602a913960400191505060405180910390fd5b600a54156110665760405162461bcd60e51b8152600401808060200182810382526022815260200180614b316022913960400191505060405180910390fd5b601e54601f54604080516370a0823160e01b815230600482015290516001600160a01b03909216916370a0823191602480820192602092909190829003018186803b1580156110b457600080fd5b505afa1580156110c8573d6000803e3d6000fd5b505050506040513d60208110156110de57600080fd5b5051101561111d5760405162461bcd60e51b81526004018080602001828103825260218152602001806149e86021913960400191505060405180910390fd5b6007805460ff60a01b1916600160a01b1790556040517fa5d188159e8a15dc503f9fde55e9da14c8b2ca589603e2567481c0ef90b7972090600090a1565b600b54600a54600091611174919063ffffffff612b4116565b1590505b90565b6025546001600160a01b031681565b611192612957565b6000546001600160a01b039081169116146111e2576040805162461bcd60e51b81526020600482018190526024820152600080516020614beb833981519152604482015290519081900360640190fd5b600b54611233576040805162461bcd60e51b815260206004820152601a602482015279436c617373726f6f6d3a206e6f206170706c69636174696f6e7360301b604482015290519081900360640190fd5b60095460ff166112745760405162461bcd60e51b8152600401808060200182810382526024815260200180614ba16024913960400191505060405180910390fd5b601654604080516370a0823160e01b815230600482015290516001600160a01b03909216916370a0823191602480820192602092909190829003018186803b1580156112bf57600080fd5b505afa1580156112d3573d6000803e3d6000fd5b505050506040513d60208110156112e957600080fd5b5051600e556112f6612ba2565b6007805460ff60a81b1916600160a81b1790556040517fadfcc9bbc47b33710f82544eeff8bd0f98c6f78f190e915bd81f4a9dacfdc77790600090a1565b61133c612957565b6000546001600160a01b0390811691161461138c576040805162461bcd60e51b81526020600482018190526024820152600080516020614beb833981519152604482015290519081900360640190fd5b61139461115b565b156113d05760405162461bcd60e51b8152600401808060200182810382526022815260200180614d156022913960400191505060405180910390fd5b601654611464906001600160a01b03166113e8611b9f565b601654604080516370a0823160e01b815230600482015290516001600160a01b03909216916370a0823191602480820192602092909190829003018186803b15801561143357600080fd5b505afa158015611447573d6000803e3d6000fd5b505050506040513d602081101561145d57600080fd5b5051612d79565b565b61146e612957565b6000546001600160a01b039081169116146114be576040805162461bcd60e51b81526020600482018190526024820152600080516020614beb833981519152604482015290519081900360640190fd5b60118054600383810b63ffffffff16600160301b90810263ffffffff60301b1990931692909217928390556040805192909304810b810b900b815290517f258981eaba02423980e2973ff2ae3bbbba3cc807a5b73faf8f0b068dd7b2af649181900360200190a150565b601f546001600160a01b031681565b600754600160a81b900460ff1681565b61154f612957565b6000546001600160a01b0390811691161461159f576040805162461bcd60e51b81526020600482018190526024820152600080516020614beb833981519152604482015290519081900360640190fd5b602080546001600160a01b039485166001600160a01b031991821617909155602180549385169382169390931790925560228054919093169116179055565b6011546301000000900462ffffff1681565b60006115fa612957565b6000546001600160a01b0390811691161461164a576040805162461bcd60e51b81526020600482018190526024820152600080516020614beb833981519152604482015290519081900360640190fd5b60005b600a548110156116f057600a818154811061166457fe5b60009182526020918290200154604080516332c3db0f60e11b815290516001600160a01b0390921692636587b61e92600480840193829003018186803b1580156116ad57600080fd5b505afa1580156116c1573d6000803e3d6000fd5b505050506040513d60208110156116d757600080fd5b5051600114156116e8576001909101905b60010161164d565b5090565b6000611706611701612957565b6117b9565b905090565b6017546001600160a01b031681565b611722612957565b6000546001600160a01b03908116911614611772576040805162461bcd60e51b81526020600482018190526024820152600080516020614beb833981519152604482015290519081900360640190fd5b600080546040516001600160a01b0390911690600080516020614c35833981519152908390a3600080546001600160a01b0319169055565b6022546001600160a01b031681565b60006117c3612957565b6001600160a01b0316826001600160a01b0316148061180157506117e5611b9f565b6001600160a01b03166117f6612957565b6001600160a01b0316145b61183c5760405162461bcd60e51b8152600401808060200182810382526021815260200180614ac76021913960400191505060405180910390fd5b506001600160a01b039081166000908152600c60205260409020541690565b611863612957565b6000546001600160a01b039081169116146118b3576040805162461bcd60e51b81526020600482018190526024820152600080516020614beb833981519152604482015290519081900360640190fd5b600754600160a01b900460ff166118fb5760405162461bcd60e51b815260040180806020018281038252602a815260200180614c55602a913960400191505060405180910390fd5b6007805460ff60a01b191690556040517f747a4734f50e3ae237b3afeeac30a2d2c7cb965cc122fb9680050fd533b7c0f590600090a1565b61193b612957565b6000546001600160a01b0390811691161461198b576040805162461bcd60e51b81526020600482018190526024820152600080516020614beb833981519152604482015290519081900360640190fd5b6011805462ffffff191662ffffff838116919091179182905560408051929091168252517fa24cdd22388a51f932026d20d3229c1d693385bb9ac176742e0e40b4586c2447916020908290030190a150565b60006119e7612957565b6000546001600160a01b03908116911614611a37576040805162461bcd60e51b81526020600482018190526024820152600080516020614beb833981519152604482015290519081900360640190fd5b600754600160a81b900460ff16611a4f576000611706565b600e54601654604080516370a0823160e01b8152306004820152905161170693926001600160a01b0316916370a08231916024808301926020929190829003018186803b158015611a9f57600080fd5b505afa158015611ab3573d6000803e3d6000fd5b505050506040513d6020811015611ac957600080fd5b50519063ffffffff612ee316565b6020546001600160a01b031681565b60115462ffffff1681565b601a5481565b6023546001600160a01b031681565b611b0e612957565b6000546001600160a01b03908116911614611b5e576040805162461bcd60e51b81526020600482018190526024820152600080516020614beb833981519152604482015290519081900360640190fd5b60108190556040805182815290517f9f8929be552430dd6434c446d106c34954b2040ca8c4dbf42a39323dd6cda3ca9181900360200190a150565b60006117065b6000546001600160a01b031690565b6000611bb8612957565b6000546001600160a01b03908116911614611c08576040805162461bcd60e51b81526020600482018190526024820152600080516020614beb833981519152604482015290519081900360640190fd5b60005b600a548110156116f057600a8181548110611c2257fe5b60009182526020918290200154604080516332c3db0f60e11b815290516001600160a01b0390921692636587b61e92600480840193829003018186803b158015611c6b57600080fd5b505afa158015611c7f573d6000803e3d6000fd5b505050506040513d6020811015611c9557600080fd5b5051611ca2576001909101905b600101611c0b565b60145481565b6019546001600160a01b031681565b611cc7612957565b6000546001600160a01b03908116911614611d17576040805162461bcd60e51b81526020600482018190526024820152600080516020614beb833981519152604482015290519081900360640190fd5b611d1f61115b565b611d5a5760405162461bcd60e51b8152600401808060200182810382526025815260200180614a5b6025913960400191505060405180910390fd5b601580546001600160a01b0319166001600160a01b03838116919091179182905560408051929091168252517fdc58b28697ffd1bd5879b16631587874caec982b482d7ed05df69a5302f6e018916020908290030190a150565b600754600160b01b900460ff1681565b611dcc612957565b6000546001600160a01b03908116911614611e1c576040805162461bcd60e51b81526020600482018190526024820152600080516020614beb833981519152604482015290519081900360640190fd5b600754600160a81b900460ff16611e7a576040805162461bcd60e51b815260206004820152601e60248201527f436c617373726f6f6d3a20636f75727365206e6f742066696e69736865640000604482015290519081900360640190fd5b611e826119dd565b600e55600b54601254611e9a9163ffffffff612f4016565b600e541015611eda5760405162461bcd60e51b8152600401808060200182810382526024815260200180614aa36024913960400191505060405180910390fd5b600080611ee5612f99565b9150915060006060611ef784846130d0565b91509150611f048161346e565b611f0d826134f6565b611f15613574565b611f1d613928565b50505050565b6018546001600160a01b031681565b611f3a612957565b6000546001600160a01b03908116911614611f8a576040805162461bcd60e51b81526020600482018190526024820152600080516020614beb833981519152604482015290519081900360640190fd5b601654604080516370a0823160e01b815230600482015290516000926001600160a01b0316916370a08231916024808301926020929190829003018186803b158015611fd557600080fd5b505afa158015611fe9573d6000803e3d6000fd5b505050506040513d6020811015611fff57600080fd5b505190508061200e5750611464565b6000612038620f424061202c84601454612f4090919063ffffffff16565b9063ffffffff61396c16565b9050600061204c838363ffffffff612ee316565b9050612057826139d3565b61206081613a72565b505050565b600b54151590565b6007546001600160a01b031681565b6026546001600160a01b031681565b6021546001600160a01b031681565b6120a2612957565b6000546001600160a01b039081169116146120f2576040805162461bcd60e51b81526020600482018190526024820152600080516020614beb833981519152604482015290519081900360640190fd5b60138190556040805182815290517fa67f34afb53d068e81607cde52dc74c58cbf6a05eac699e5543b97d25e3ca5cb9181900360200190a150565b6016546001600160a01b031681565b601e5481565b61214a612957565b6000546001600160a01b0390811691161461219a576040805162461bcd60e51b81526020600482018190526024820152600080516020614beb833981519152604482015290519081900360640190fd5b6021546001600160a01b03166121e5576040805162461bcd60e51b815260206004820152601f6024820152600080516020614b11833981519152604482015290519081900360640190fd5b602054602154612203916001600160a01b0390811691168484613af7565b5050565b61220f612957565b6000546001600160a01b0390811691161461225f576040805162461bcd60e51b81526020600482018190526024820152600080516020614beb833981519152604482015290519081900360640190fd5b602380546001600160a01b0319166001600160a01b0383811691909117918290556040805163076b7fbb60e51b81529051929091169163ed6ff76091600480820192602092909190829003018186803b1580156122bb57600080fd5b505afa1580156122cf573d6000803e3d6000fd5b505050506040513d60208110156122e557600080fd5b5051602580546001600160a01b0319166001600160a01b0392831617905560235460408051630261bf8b60e01b815290519190921691630261bf8b916004808301926020929190829003018186803b15801561234057600080fd5b505afa158015612354573d6000803e3d6000fd5b505050506040513d602081101561236a57600080fd5b5051602480546001600160a01b0319166001600160a01b0392831617815560255460165460408051631a59df7760e11b815291851660048301525191909316926334b3beee9281810192602092909190829003018186803b1580156123ce57600080fd5b505afa1580156123e2573d6000803e3d6000fd5b505050506040513d60208110156123f857600080fd5b5051602680546001600160a01b0319166001600160a01b0390921691909117905550565b601c546001600160a01b031681565b601d5481565b612439612957565b6000546001600160a01b03908116911614612489576040805162461bcd60e51b81526020600482018190526024820152600080516020614beb833981519152604482015290519081900360640190fd5b6011805462ffffff808416630100000090810265ffffff000000199093169290921792839055604080519290930416815290517f9d9f9ef51b12eb719684b7a2e09fc2f7e916cb0e229aecf5658ce6326dfeb1c59181900360200190a150565b6024546001600160a01b031681565b612500612957565b6000546001600160a01b03908116911614612550576040805162461bcd60e51b81526020600482018190526024820152600080516020614beb833981519152604482015290519081900360640190fd5b6021546001600160a01b031661259b576040805162461bcd60e51b815260206004820152601f6024820152600080516020614b11833981519152604482015290519081900360640190fd5b602154602054612203916001600160a01b0390811691168484613af7565b6125c1612957565b6000546001600160a01b03908116911614612611576040805162461bcd60e51b81526020600482018190526024820152600080516020614beb833981519152604482015290519081900360640190fd5b6001600160a01b0381166126565760405162461bcd60e51b8152600401808060200182810382526026815260200180614a096026913960400191505060405180910390fd5b600080546040516001600160a01b0380851693921691600080516020614c3583398151915291a3600080546001600160a01b0319166001600160a01b0392909216919091179055565b60125481565b6126ad612957565b6000546001600160a01b039081169116146126fd576040805162461bcd60e51b81526020600482018190526024820152600080516020614beb833981519152604482015290519081900360640190fd5b600754600160a01b900460ff16156127465760405162461bcd60e51b8152600401808060200182810382526026815260200180614bc56026913960400191505060405180910390fd5b600754600160b01b900460ff16156127a5576040805162461bcd60e51b815260206004820152601e60248201527f436c617373726f6f6d3a20636f7572736520616c7265616479206f70656e0000604482015290519081900360640190fd5b601654604080516370a0823160e01b815230600482015290516001600160a01b03909216916370a0823191602480820192602092909190829003018186803b1580156127f057600080fd5b505afa158015612804573d6000803e3d6000fd5b505050506040513d602081101561281a57600080fd5b5051156128585760405162461bcd60e51b815260040180806020018281038252602a815260200180614c0b602a913960400191505060405180910390fd5b612860613cfd565b604080516000815260208101918290525161287d91600a91614913565b50600b5461288a57610aae565b6007805460ff60b01b1916600160b01b1790554260085580156128b4576128af613ec5565b610aae565b6009805460ff1916600117905550565b6128cc612957565b6000546001600160a01b0390811691161461291c576040805162461bcd60e51b81526020600482018190526024820152600080516020614beb833981519152604482015290519081900360640190fd5b60128190556040805182815290517f84e881bf3fcef92f709a2a62150da178a998fbff128c017f3e846787a2f7f5f59181900360200190a150565b3390565b600380546001600160a01b0319166001600160a01b0392909216919091179055565b612985614974565b601a5461299a903063100b510360e11b613f35565b601954601b54919250612203916001600160a01b03909116908390613f60565b60185460165460155460009283926001600160a01b039182169263268e5d1d928792309290821691166129eb614137565b604080516001600160e01b031960e089901b1681526001600160a01b03968716600482015294861660248601529285166044850152931660648301526084820192909252905160a48083019260209291908290030181600087803b158015612a5257600080fd5b505af1158015612a66573d6000803e3d6000fd5b505050506040513d6020811015612a7c57600080fd5b50516001600160a01b038481166000818152600c602052604080822080546001600160a01b0319168587169081179091556007548251620c1d9360e91b81526004810195909552602485019190915290519495509092169263183b26009260448084019391929182900301818387803b158015612af857600080fd5b505af1158015612b0c573d6000803e3d6000fd5b509295945050505050565b60408051602080825281830190925260609160208201818036833750505060208101929092525090565b600082820183811015612b99576040805162461bcd60e51b815260206004820152601b60248201527a536166654d6174683a206164646974696f6e206f766572666c6f7760281b604482015290519081900360640190fd5b90505b92915050565b601754604080516370a0823160e01b815230600482015290516000926001600160a01b0316916370a08231916024808301926020929190829003018186803b158015612bed57600080fd5b505afa158015612c01573d6000803e3d6000fd5b505050506040513d6020811015612c1757600080fd5b50516017546040805163db006a7560e01b81526004810184905290519293506001600160a01b039091169163db006a75916024808201926020929091908290030181600087803b158015612c6a57600080fd5b505af1158015612c7e573d6000803e3d6000fd5b505050506040513d6020811015612c9457600080fd5b5050602654604080516370a0823160e01b815230600482015290516000926001600160a01b0316916370a08231916024808301926020929190829003018186803b158015612ce157600080fd5b505afa158015612cf5573d6000803e3d6000fd5b505050506040513d6020811015612d0b57600080fd5b50516026546040805163db006a7560e01b81526004810184905290519293506001600160a01b039091169163db006a759160248082019260009290919082900301818387803b158015612d5d57600080fd5b505af1158015612d71573d6000803e3d6000fd5b505050505050565b604080516001600160a01b038481166024830152604480830185905283518084039091018152606490920183526020820180516001600160e01b031663a9059cbb60e01b178152925182516000946060949389169392918291908083835b60208310612df65780518252601f199092019160209182019101612dd7565b6001836020036101000a0380198251168184511680821785525050505050509050019150506000604051808303816000865af19150503d8060008114612e58576040519150601f19603f3d011682016040523d82523d6000602084013e612e5d565b606091505b5091509150818015612e8b575080511580612e8b5750808060200190516020811015612e8857600080fd5b50515b612edc576040805162461bcd60e51b815260206004820152601f60248201527f5472616e7366657248656c7065723a205452414e534645525f4641494c454400604482015290519081900360640190fd5b5050505050565b600082821115612f3a576040805162461bcd60e51b815260206004820152601e60248201527f536166654d6174683a207375627472616374696f6e206f766572666c6f770000604482015290519081900360640190fd5b50900390565b600082612f4f57506000612b9c565b82820282848281612f5c57fe5b0414612b995760405162461bcd60e51b8152600401808060200182810382526021815260200180614b806021913960400191505060405180910390fd5b6000808080805b600b548110156130c657600b8181548110612fb757fe5b60009182526020822001546040805163144e786960e11b815290516001600160a01b039092169263289cf0d29260048084019382900301818387803b158015612fff57600080fd5b505af1158015613013573d6000803e3d6000fd5b505050506000600b828154811061302657fe5b60009182526020918290200154604080516332c3db0f60e11b815290516001600160a01b0390921692636587b61e92600480840193829003018186803b15801561306f57600080fd5b505afa158015613083573d6000803e3d6000fd5b505050506040513d602081101561309957600080fd5b5051905060038114156130ad576001909301925b80600514156130bd576001909201915b50600101612fa0565b5090925090509091565b600b546012546000916060918390613101906130f2908463ffffffff612f4016565b600e549063ffffffff612ee316565b60115460125491925060009161312a91620f42409161202c9162ffffff1663ffffffff612f4016565b9050600061314382601254612ee390919063ffffffff16565b9050600061315b8561202c868c63ffffffff612f4016565b60115490915060009061318490620f42409061202c9085906301000000900462ffffff16612f40565b9050600061319c8b61202c888563ffffffff612ee316565b90506060876001600160401b03811180156131b657600080fd5b506040519080825280602002602001820160405280156131e0578160200160208202803683370190505b50905060005b88811015613450576000600b82815481106131fd57fe5b60009182526020918290200154604080516332c3db0f60e11b815290516001600160a01b0390921692636587b61e92600480840193829003018186803b15801561324657600080fd5b505afa15801561325a573d6000803e3d6000fd5b505050506040513d602081101561327057600080fd5b50519050600381141561332457600b828154811061328a57fe5b600091825260208220015460408051637db9abaf60e01b8152600481018b90526024810188905290516001600160a01b0390921692637db9abaf9260448084019382900301818387803b1580156132e057600080fd5b505af11580156132f4573d6000803e3d6000fd5b5050505061330b8488612b4190919063ffffffff16565b83838151811061331757fe5b6020026020010181815250505b80600414156133c257600b828154811061333a57fe5b600091825260208220015460408051637db9abaf60e01b8152600481018b90526024810184905290516001600160a01b0390921692637db9abaf9260448084019382900301818387803b15801561339057600080fd5b505af11580156133a4573d6000803e3d6000fd5b50505050868383815181106133b557fe5b6020026020010181815250505b806005141561344757600b82815481106133d857fe5b600091825260208220015460408051637db9abaf60e01b8152600481018490526024810184905290516001600160a01b0390921692637db9abaf9260448084019382900301818387803b15801561342e57600080fd5b505af1158015613442573d6000803e3d6000fd5b505050505b506001016131e6565b5061345d8b848a89614173565b9c909b509950505050505050505050565b60005b600b5481101561220357600082828151811061348957fe5b602002602001015111156134ee57601654600b80546134ee926001600160a01b03169190849081106134b757fe5b9060005260206000200160009054906101000a90046001600160a01b03168484815181106134e157fe5b6020026020010151612d79565b600101613471565b601654600754613513916001600160a01b03908116911683612d79565b600754604080516307d4728360e51b81526004810184905290516001600160a01b039092169163fa8e50609160248082019260009290919082900301818387803b15801561356057600080fd5b505af1158015612edc573d6000803e3d6000fd5b60005b600b54811015610aae576000600b828154811061359057fe5b60009182526020918290200154604080516332c3db0f60e11b815290516001600160a01b0390921692636587b61e92600480840193829003018186803b1580156135d957600080fd5b505afa1580156135ed573d6000803e3d6000fd5b505050506040513d602081101561360357600080fd5b50519050600381141561370f57600754600b80546001600160a01b03909216916387bfe18891908590811061363457fe5b600091825260209182902001546040805163b8f31a8160e01b815290516001600160a01b039092169263b8f31a8192600480840193829003018186803b15801561367d57600080fd5b505afa158015613691573d6000803e3d6000fd5b505050506040513d60208110156136a757600080fd5b5051604080516001600160e01b031960e085901b1681526001600160a01b0390921660048301526001602483015251604480830192600092919082900301818387803b1580156136f657600080fd5b505af115801561370a573d6000803e3d6000fd5b505050505b806004141561381757600754600b80546001600160a01b039092169163ff5d8f6391908590811061373c57fe5b600091825260209182902001546040805163b8f31a8160e01b815290516001600160a01b039092169263b8f31a8192600480840193829003018186803b15801561378557600080fd5b505afa158015613799573d6000803e3d6000fd5b505050506040513d60208110156137af57600080fd5b5051604080516001600160e01b031960e085901b1681526001600160a01b0390921660048301526001602483015251604480830192600092919082900301818387803b1580156137fe57600080fd5b505af1158015613812573d6000803e3d6000fd5b505050505b806005141561391f57600754600b80546001600160a01b039092169163ff5d8f6391908590811061384457fe5b600091825260209182902001546040805163b8f31a8160e01b815290516001600160a01b039092169263b8f31a8192600480840193829003018186803b15801561388d57600080fd5b505afa1580156138a1573d6000803e3d6000fd5b505050506040513d60208110156138b757600080fd5b5051604080516001600160e01b031960e085901b1681526001600160a01b0390921660048301526002602483015251604480830192600092919082900301818387803b15801561390657600080fd5b505af115801561391a573d6000803e3d6000fd5b505050505b50600101613577565b604080516000815260208101918290525161394591600b91614913565b5061394e611334565b6000600e556007805460ff60a81b191690556009805460ff19169055565b60008082116139bf576040805162461bcd60e51b815260206004820152601a602482015279536166654d6174683a206469766973696f6e206279207a65726f60301b604482015290519081900360640190fd5b60008284816139ca57fe5b04949350505050565b806139dd57610aae565b6016546017546139fa916001600160a01b0390811691168361429e565b6017546040805163140e25ad60e31b81526004810184905290516001600160a01b039092169163a0712d68916024808201926020929091908290030181600087803b158015613a4857600080fd5b505af1158015613a5c573d6000803e3d6000fd5b505050506040513d602081101561206057600080fd5b80613a7c57610aae565b601654602554613a99916001600160a01b0390811691168361429e565b6024805460165460408051636968703360e11b81526001600160a01b0392831660048201529384018590526000604485018190529051919092169263d2d0e06692606480830193919282900301818387803b15801561356057600080fd5b602254613b0f9085906001600160a01b03168461429e565b60408051600280825260608083018452926020830190803683370190505090508481600081518110613b3d57fe5b60200260200101906001600160a01b031690816001600160a01b0316815250508381600181518110613b6b57fe5b6001600160a01b039283166020918202929092018101919091526022546040516338ed173960e01b81526004810187815260006024830181905230606484018190526084840189905260a060448501908152885160a4860152885195909716966338ed1739968b9693958a9593948c94939260c49092019187810191028083838b5b83811015613c05578181015183820152602001613bed565b505050509050019650505050505050600060405180830381600087803b158015613c2e57600080fd5b505af1158015613c42573d6000803e3d6000fd5b505050506040513d6000823e601f3d908101601f191682016040526020811015613c6b57600080fd5b8101908080516040519392919084600160201b821115613c8a57600080fd5b908301906020820185811115613c9f57600080fd5b82518660208202830111600160201b82111715613cbb57600080fd5b82525081516020918201928201910280838360005b83811015613ce8578181015183820152602001613cd0565b50505050905001604052505050505050505050565b60005b600a54811015610aae57600a8181548110613d1757fe5b60009182526020918290200154604080516332c3db0f60e11b815290516001600160a01b0390921692636587b61e92600480840193829003018186803b158015613d6057600080fd5b505afa158015613d74573d6000803e3d6000fd5b505050506040513d6020811015613d8a57600080fd5b505160011415613e4f57600a8181548110613da157fe5b600091825260208220015460408051623c57d360e61b815290516001600160a01b0390921692630f15f4c09260048084019382900301818387803b158015613de857600080fd5b505af1158015613dfc573d6000803e3d6000fd5b50505050600b600a8281548110613e0f57fe5b60009182526020808320909101548354600181018555938352912090910180546001600160a01b0319166001600160a01b03909216919091179055613ebd565b600a8181548110613e5c57fe5b600091825260208220015460408051633caccfcb60e11b815290516001600160a01b03909216926379599f969260048084019382900301818387803b158015613ea457600080fd5b505af1158015613eb8573d6000803e3d6000fd5b505050505b600101613d00565b613ecd614974565b601d54613ee29030630aab456960e01b613f35565b9050613f1a604051806040016040528060058152602001641d5b9d1a5b60da1b8152506013544201836144019092919063ffffffff16565b601c54601e54612203916001600160a01b0316908390613f60565b613f3d614974565b613f45614974565b613f578186868663ffffffff61442b16565b95945050505050565b6005546040805130606090811b60208084019190915260348084018690528451808503909101815260549093018452825192810192909220908601939093526000838152600690915281812080546001600160a01b0319166001600160a01b038816179055905182917fb5e6e01e79f91267dc17b4e6314d5d4d03593d2ceee0fbb452b750bd70ea5af991a26003546001600160a01b0316634000aea0858461400887614468565b6040518463ffffffff1660e01b815260040180846001600160a01b03166001600160a01b0316815260200183815260200180602001828103825283818151815260200191508051906020019080838360005b8381101561407257818101518382015260200161405a565b50505050905090810190601f16801561409f5780820380516001836020036101000a031916815260200191505b50945050505050602060405180830381600087803b1580156140c057600080fd5b505af11580156140d4573d6000803e3d6000fd5b505050506040513d60208110156140ea57600080fd5b50516141275760405162461bcd60e51b8152600401808060200182810382526023815260200180614a806023913960400191505060405180910390fd5b6005805460010190559392505050565b60006141416145a8565b600f54600040186040516020018082815260200191505060405160208183030381529060405280519060200120905090565b600080600760009054906101000a90046001600160a01b03166001600160a01b031663e6fd604c6040518163ffffffff1660e01b815260040160206040518083038186803b1580156141c457600080fd5b505afa1580156141d8573d6000803e3d6000fd5b505050506040513d60208110156141ee57600080fd5b505160125490915060009061420a90889063ffffffff612f4016565b9050600061422a620f424061202c8962ffffff871663ffffffff612f4016565b9050600061423e878a63ffffffff612ee316565b9050600061426e620f424061202c62ffffff88166142628b8763ffffffff612f4016565b9063ffffffff612f4016565b905061429081614284868663ffffffff612b4116565b9063ffffffff612b4116565b9a9950505050505050505050565b604080516001600160a01b038481166024830152604480830185905283518084039091018152606490920183526020820180516001600160e01b031663095ea7b360e01b178152925182516000946060949389169392918291908083835b6020831061431b5780518252601f1990920191602091820191016142fc565b6001836020036101000a0380198251168184511680821785525050505050509050019150506000604051808303816000865af19150503d806000811461437d576040519150601f19603f3d011682016040523d82523d6000602084013e614382565b606091505b50915091508180156143b05750805115806143b057508080602001905160208110156143ad57600080fd5b50515b612edc576040805162461bcd60e51b815260206004820152601e60248201527f5472616e7366657248656c7065723a20415050524f56455f4641494c45440000604482015290519081900360640190fd5b6080830151614416908363ffffffff6145d116565b6080830151612060908263ffffffff6145ee16565b614433614974565b61444385608001516101006145fa565b50509183526001600160a01b031660208301526001600160e01b031916604082015290565b6060634042994660e01b6000808460000151856020015186604001518760600151600189608001516000015160405160240180896001600160a01b03166001600160a01b03168152602001888152602001878152602001866001600160a01b03166001600160a01b03168152602001856001600160e01b0319166001600160e01b031916815260200184815260200183815260200180602001828103825283818151815260200191508051906020019080838360005b8381101561453657818101518382015260200161451e565b50505050905090810190601f1680156145635780820380516001836020036101000a031916815260200191505b5060408051601f198184030181529190526020810180516001600160e01b03166001600160e01b0319909d169c909c17909b5250989950505050505050505050919050565b600f80546040805160208082019390935281518082038401815290820190915280519101209055565b6145de8260038351614634565b612060828263ffffffff61473d16565b61220382600083614634565b6146026149a9565b60208206156146175760208206602003820191505b506020828101829052604080518085526000815290920101905290565b6017811161465b576146558360e0600585901b16831763ffffffff61475716565b50612060565b60ff81116146915761467e836018611fe0600586901b161763ffffffff61475716565b506146558382600163ffffffff61476f16565b61ffff81116146c8576146b5836019611fe0600586901b161763ffffffff61475716565b506146558382600263ffffffff61476f16565b63ffffffff8111614701576146ee83601a611fe0600586901b161763ffffffff61475716565b506146558382600463ffffffff61476f16565b6001600160401b0381116120605761472a83601b611fe0600586901b161763ffffffff61475716565b50611f1d8382600863ffffffff61476f16565b6147456149a9565b612b9983846000015151848551614790565b61475f6149a9565b612b99838460000151518461483c565b6147776149a9565b614788848560000151518585614887565b949350505050565b6147986149a9565b82518211156147a657600080fd5b846020015182850111156147d0576147d0856147c887602001518786016148e5565b6002026148fc565b6000808651805187602083010193508088870111156147ef5787860182525b505050602084015b602084106148165780518252601f1990930192602091820191016147f7565b51815160001960208690036101000a019081169019919091161790525083949350505050565b6148446149a9565b83602001518310614860576148608485602001516002026148fc565b83518051602085830101848153508085141561487d576001810182525b5093949350505050565b61488f6149a9565b846020015184830111156148ac576148ac858584016002026148fc565b60006001836101000a0390508551838682010185831982511617815250805184870111156148da5783860181525b509495945050505050565b6000818311156148f6575081612b9c565b50919050565b815161490883836145fa565b50611f1d838261473d565b828054828255906000526020600020908101928215614968579160200282015b8281111561496857825182546001600160a01b0319166001600160a01b03909116178255602090920191600190910190614933565b506116f09291506149c3565b6040805160a0810182526000808252602082018190529181018290526060810191909152608081016149a46149a9565b905290565b604051806040016040528060608152602001600081525090565b61117891905b808211156116f05780546001600160a01b03191681556001016149c956fe436c617373726f6f6d3a206e6f7420656e6f756768204c696e6b20746f6b656e734f776e61626c653a206e6577206f776e657220697320746865207a65726f2061646472657373436c617373726f6f6d3a2073747564656e7420646f65736e2774206861766520656e6f7567682073636f7265436c617373726f6f6d3a2063616e2774206368616e6765206368616c6c656e6765206e6f77756e61626c6520746f207472616e73666572416e6443616c6c20746f206f7261636c65436c617373726f6f6d3a206e6f7420656e6f7567682044414920746f2070726f63656564436c617373726f6f6d3a2072656164207065726d697373696f6e2064656e696564436c617373726f6f6d3a2063616e2774206265206d6f72652074686174203130302520696e2070706d556e69766572736974793a20736574757020756e697377617020666972737400436c617373726f6f6d3a2073747564656e7473206c697374206e6f7420656d707479436c617373726f6f6d3a2070726f666573736f722063616e277420626520697473206f776e2073747564656e74536166654d6174683a206d756c7469706c69636174696f6e206f766572666c6f77436c617373726f6f6d3a20746f6f20736f6f6e20746f2066696e69736820636f75727365436c617373726f6f6d3a206170706c69636174696f6e7320617265207374696c6c206f70656e4f776e61626c653a2063616c6c6572206973206e6f7420746865206f776e6572436c617373726f6f6d3a20696e7665737420616c6c2062616c616e6365206265666f726520626567696e8be0079c531659141344cd1fd0a4f28419497f9722a3daafe3b4186f6b6457e0436c617373726f6f6d3a206170706c69636174696f6e732061726520616c726561647920636c6f736564436c617373726f6f6d3a2073747564656e74206973206e6f742072656769737465726564436c617373726f6f6d3a206170706c69636174696f6e732061726520616c7265616479206f70656e6564536f75726365206d75737420626520746865206f7261636c65206f662074686520726571756573747cc135e0cebb02c3480ae5d74d377283180a2601f8f644edf7987b009316c63a43616e2774207769746864726177207769746820636c617373726f6f6d2066756c6ca2646970667358221220fb27f7079d6235f4bd455c51be0133d4328427029c93be89c73ceeb7c7cca91564736f6c63430006060033a2646970667358221220d792f44a52174220d87bac7781e067c54d5e2653d6ef11deccc1292a62feb59164736f6c63430006060033",
  "immutableReferences": {},
  "source": "pragma solidity ^0.6.6;\n\nimport \"./interface/IClassroomFactory.sol\";\nimport \"./Classroom.sol\";\n\n\ncontract ClassroomFactory is IClassroomFactory {\n    function newClassroom(\n        bytes32 name,\n        uint24 principalCut,\n        uint24 poolCut,\n        int32 minScore,\n        uint256 entryPrice,\n        uint256 duration,\n        address payable universityAddress,\n        address challengeAddress,\n        address daiAddress,\n        address compoundAddress,\n        address studentApplicationFactoryAddress\n    ) public override returns (address classroomAddress) {\n        Classroom classroom = new Classroom(\n            name,\n            principalCut,\n            poolCut,\n            minScore,\n            entryPrice,\n            duration,\n            universityAddress,\n            challengeAddress,\n            daiAddress,\n            compoundAddress,\n            studentApplicationFactoryAddress\n        );\n        classroom.transferOwnership(msg.sender);\n        classroomAddress = address(classroom);\n    }\n}\n",
  "sourcePath": "/mnt/e/Repositories/Uproot/contracts/ClassroomFactory.sol",
  "compiler": {
    "name": "solc",
    "version": "0.6.6+commit.6c089d02.Emscripten.clang"
  },
  "schemaVersion": "3.1.0",
  "updatedAt": "2020-05-22T17:49:43.435Z",
  "networkType": "ethereum",
  "devdoc": {
    "methods": {}
  },
  "userdoc": {
    "methods": {}
  }
}