{
  "contractName": "ExampleStudentAnswer",
  "abi": [
    {
      "inputs": [
        {
          "internalType": "address",
          "name": "application",
          "type": "address"
        }
      ],
      "stateMutability": "nonpayable",
      "type": "constructor"
    },
    {
      "anonymous": false,
      "inputs": [
        {
          "indexed": true,
          "internalType": "address",
          "name": "previousOwner",
          "type": "address"
        },
        {
          "indexed": true,
          "internalType": "address",
          "name": "newOwner",
          "type": "address"
        }
      ],
      "name": "OwnershipTransferred",
      "type": "event"
    },
    {
      "inputs": [],
      "name": "owner",
      "outputs": [
        {
          "internalType": "address",
          "name": "",
          "type": "address"
        }
      ],
      "stateMutability": "view",
      "type": "function"
    },
    {
      "inputs": [],
      "name": "renounceOwnership",
      "outputs": [],
      "stateMutability": "nonpayable",
      "type": "function"
    },
    {
      "inputs": [
        {
          "internalType": "address",
          "name": "newOwner",
          "type": "address"
        }
      ],
      "name": "transferOwnership",
      "outputs": [],
      "stateMutability": "nonpayable",
      "type": "function"
    },
    {
      "inputs": [],
      "name": "getOwner",
      "outputs": [
        {
          "internalType": "address",
          "name": "",
          "type": "address"
        }
      ],
      "stateMutability": "view",
      "type": "function"
    },
    {
      "inputs": [],
      "name": "getSeed",
      "outputs": [
        {
          "internalType": "bytes32",
          "name": "",
          "type": "bytes32"
        }
      ],
      "stateMutability": "view",
      "type": "function"
    },
    {
      "inputs": [
        {
          "internalType": "bytes32",
          "name": "secret",
          "type": "bytes32"
        }
      ],
      "name": "solve",
      "outputs": [],
      "stateMutability": "nonpayable",
      "type": "function"
    }
  ],
  "bytecode": "0x608060405234801561001057600080fd5b506040516105c13803806105c18339818101604052602081101561003357600080fd5b505160006100486001600160e01b036100b716565b600080546001600160a01b0319166001600160a01b0383169081178255604051929350917f8be0079c531659141344cd1fd0a4f28419497f9722a3daafe3b4186f6b6457e0908290a350600280546001600160a01b0319166001600160a01b03929092169190911790556100bb565b3390565b6104f7806100ca6000396000f3fe608060405234801561001057600080fd5b50600436106100625760003560e01c8063183b468a1461006757806339e7357c14610086578063715018a6146100a0578063893d20e8146100a85780638da5cb5b146100cc578063f2fde38b146100d4575b600080fd5b6100846004803603602081101561007d57600080fd5b50356100fa565b005b61008e6102bd565b60408051918252519081900360200190f35b6100846102c3565b6100b0610353565b604080516001600160a01b039092168252519081900360200190f35b6100b0610362565b610084600480360360208110156100ea57600080fd5b50356001600160a01b0316610371565b610102610457565b6000546001600160a01b03908116911614610152576040805162461bcd60e51b81526020600482018190526024820152600080516020610482833981519152604482015290519081900360640190fd5b6002546040805163b462f7cd60e01b81526004810184905290516001600160a01b039092169163b462f7cd9160248082019260009290919082900301818387803b15801561019f57600080fd5b505af11580156101b3573d6000803e3d6000fd5b5050600254604080516308d1393b60e21b815260006004820181905291519194506001600160a01b039092169250632344e4ec91602480820192602092909190829003018186803b15801561020757600080fd5b505afa15801561021b573d6000803e3d6000fd5b505050506040513d602081101561023157600080fd5b5051600254604080516308d1393b60e21b81526001600482015290519293506000926001600160a01b0390921691632344e4ec91602480820192602092909190829003018186803b15801561028557600080fd5b505afa158015610299573d6000803e3d6000fd5b505050506040513d60208110156102af57600080fd5b505191909118196001555050565b60015490565b6102cb610457565b6000546001600160a01b0390811691161461031b576040805162461bcd60e51b81526020600482018190526024820152600080516020610482833981519152604482015290519081900360640190fd5b600080546040516001600160a01b03909116906000805160206104a2833981519152908390a3600080546001600160a01b0319169055565b600061035d610362565b905090565b6000546001600160a01b031690565b610379610457565b6000546001600160a01b039081169116146103c9576040805162461bcd60e51b81526020600482018190526024820152600080516020610482833981519152604482015290519081900360640190fd5b6001600160a01b03811661040e5760405162461bcd60e51b815260040180806020018281038252602681526020018061045c6026913960400191505060405180910390fd5b600080546040516001600160a01b03808516939216916000805160206104a283398151915291a3600080546001600160a01b0319166001600160a01b0392909216919091179055565b339056fe4f776e61626c653a206e6577206f776e657220697320746865207a65726f20616464726573734f776e61626c653a2063616c6c6572206973206e6f7420746865206f776e65728be0079c531659141344cd1fd0a4f28419497f9722a3daafe3b4186f6b6457e0a264697066735822122070a0a6cf3591d048f4d48e4a54105e7ecba3dcb9b4935b98b02c56cfbe0f550564736f6c63430006060033",
  "immutableReferences": {},
  "source": "pragma solidity ^0.6.6;\n\nimport \"./interface/IStudentAnswer.sol\";\nimport \"./interface/IStudentApplication.sol\";\n\n\ncontract ExampleStudentAnswer is IStudentAnswer, Ownable {\n    bytes32 _seedAnswer;\n    IStudentApplication _application;\n\n    constructor(address application) public {\n        _application = IStudentApplication(application);\n    }\n\n    function getOwner() external view override returns (address) {\n        // note: the student address may be hardcoded and still the answer would pass the check. Perhaps it is good enough if the student somehow don't need protection in his answer contract\n        return owner();\n    }\n\n    function getSeed() external view override returns (bytes32) {\n        return _seedAnswer;\n    }\n\n    function solve(bytes32 secret) public onlyOwner {\n        _application.registerAnswer(secret);\n        bytes32 hint1 = _application.getHint(0);\n        bytes32 hint2 = _application.getHint(1);\n        _seedAnswer = ~(hint1 ^ hint2);\n    }\n}\n",
  "sourcePath": "/mnt/e/Repositories/Uproot/contracts/ExampleStudentAnswer.sol",
  "compiler": {
    "name": "solc",
    "version": "0.6.6+commit.6c089d02.Emscripten.clang"
  },
  "schemaVersion": "3.1.0",
  "updatedAt": "2020-05-15T22:18:25.795Z",
  "devdoc": {
    "methods": {
      "owner()": {
        "details": "Returns the address of the current owner."
      },
      "renounceOwnership()": {
        "details": "Leaves the contract without owner. It will not be possible to call `onlyOwner` functions anymore. Can only be called by the current owner.     * NOTE: Renouncing ownership will leave the contract without an owner, thereby removing any functionality that is only available to the owner."
      },
      "transferOwnership(address)": {
        "details": "Transfers ownership of the contract to a new account (`newOwner`). Can only be called by the current owner."
      }
    }
  },
  "userdoc": {
    "methods": {}
  }
}