{
  "contractName": "ExampleChallenge",
  "abi": [
    {
      "inputs": [],
      "name": "hintsCount",
      "outputs": [
        {
          "internalType": "uint256",
          "name": "",
          "type": "uint256"
        }
      ],
      "stateMutability": "pure",
      "type": "function",
      "constant": true
    },
    {
      "inputs": [
        {
          "internalType": "uint256",
          "name": "index",
          "type": "uint256"
        },
        {
          "internalType": "bytes32",
          "name": "seed",
          "type": "bytes32"
        }
      ],
      "name": "getHint",
      "outputs": [
        {
          "internalType": "bytes32",
          "name": "",
          "type": "bytes32"
        }
      ],
      "stateMutability": "view",
      "type": "function",
      "constant": true
    },
    {
      "inputs": [],
      "name": "viewMaterial",
      "outputs": [
        {
          "internalType": "string",
          "name": "",
          "type": "string"
        }
      ],
      "stateMutability": "pure",
      "type": "function",
      "constant": true
    }
  ],
  "bytecode": "0x608060405234801561001057600080fd5b5061019c806100206000396000f3fe608060405234801561001057600080fd5b50600436106100415760003560e01c80630b435c54146100465780637244654314610060578063cee0510f146100dd575b600080fd5b61004e610100565b60408051918252519081900360200190f35b610068610105565b6040805160208082528351818301528351919283929083019185019080838360005b838110156100a257818101518382015260200161008a565b50505050905090810190601f1680156100cf5780820380516001836020036101000a031916815260200191505b509250505060405180910390f35b61004e600480360360408110156100f357600080fd5b5080359060200135610127565b600290565b60408051808201909152600881526713585d195c9a585b60c21b602082015290565b6000826101435750684841434b4d4f4e455960b81b8117610160565b82600114156101605750600168b7bebcb4b2b0b1baa760b81b0381175b9291505056fea264697066735822122005774aee48ef185e6350f388a91c28fa3e5f44841129da38439dbc6be5f66d2b64736f6c63430006060033",
  "immutableReferences": {},
  "source": "pragma solidity ^0.6.6;\n\nimport \"./interface/IClassroomChallenge.sol\";\n\n\ncontract ExampleChallenge is IClassroomChallenge {\n    function hintsCount() \n        external\n        pure\n        override\n        returns (uint256) \n    {\n        return 2;\n    }\n\n    function getHint(uint256 index, bytes32 seed)\n        public\n        view\n        override\n        returns (bytes32)\n    {\n        if (index == 0) return bytes32(\"HACKMONEY\") | seed;\n        if (index == 1) return ~bytes32(\"HACKMONEY\") | seed;\n    }\n\n    function viewMaterial()\n        external\n        pure\n        override\n        returns (string memory) \n    {\n        return \"Material\";\n        //TODO: point a link to material hosted at IPFS/SIA using ENS\n    }\n}\n",
  "sourcePath": "/mnt/e/Repositories/Uproot/contracts/ExampleChallenge.sol",
  "compiler": {
    "name": "solc",
    "version": "0.6.6+commit.6c089d02.Emscripten.clang"
  },
  "schemaVersion": "3.1.0",
  "updatedAt": "2020-05-20T12:16:25.392Z",
  "networkType": "ethereum",
  "devdoc": {
    "methods": {}
  },
  "userdoc": {
    "methods": {}
  }
}