{
  "contractName": "ExampleFundsManager",
  "abi": [
    {
      "inputs": [
        {
          "internalType": "address",
          "name": "universityAddress",
          "type": "address"
        }
      ],
      "stateMutability": "nonpayable",
      "type": "constructor"
    },
    {
      "anonymous": false,
      "inputs": [
        {
          "indexed": true,
          "internalType": "address",
          "name": "previousOwner",
          "type": "address"
        },
        {
          "indexed": true,
          "internalType": "address",
          "name": "newOwner",
          "type": "address"
        }
      ],
      "name": "OwnershipTransferred",
      "type": "event"
    },
    {
      "inputs": [],
      "name": "owner",
      "outputs": [
        {
          "internalType": "address",
          "name": "",
          "type": "address"
        }
      ],
      "stateMutability": "view",
      "type": "function"
    },
    {
      "inputs": [],
      "name": "renounceOwnership",
      "outputs": [],
      "stateMutability": "nonpayable",
      "type": "function"
    },
    {
      "inputs": [
        {
          "internalType": "address",
          "name": "newOwner",
          "type": "address"
        }
      ],
      "name": "transferOwnership",
      "outputs": [],
      "stateMutability": "nonpayable",
      "type": "function"
    },
    {
      "inputs": [],
      "name": "university",
      "outputs": [
        {
          "internalType": "contract IUniversity",
          "name": "",
          "type": "address"
        }
      ],
      "stateMutability": "view",
      "type": "function"
    },
    {
      "inputs": [],
      "name": "universityFund",
      "outputs": [
        {
          "internalType": "contract IUniversityFund",
          "name": "",
          "type": "address"
        }
      ],
      "stateMutability": "view",
      "type": "function"
    },
    {
      "inputs": [
        {
          "internalType": "uint256",
          "name": "val",
          "type": "uint256"
        }
      ],
      "name": "changeSaveDai",
      "outputs": [],
      "stateMutability": "nonpayable",
      "type": "function"
    },
    {
      "inputs": [
        {
          "internalType": "uint24",
          "name": "val",
          "type": "uint24"
        }
      ],
      "name": "changeRatio",
      "outputs": [],
      "stateMutability": "nonpayable",
      "type": "function"
    },
    {
      "inputs": [],
      "name": "triggerUpdate",
      "outputs": [],
      "stateMutability": "nonpayable",
      "type": "function"
    }
  ],
  "bytecode": "0x608060405234801561001057600080fd5b50604051610c91380380610c918339818101604052602081101561003357600080fd5b505160006100486001600160e01b036101a516565b600080546001600160a01b0319166001600160a01b0383169081178255604051929350917f8be0079c531659141344cd1fd0a4f28419497f9722a3daafe3b4186f6b6457e0908290a350600180546001600160a01b0319166001600160a01b03838116919091179182905560408051633a8f03f160e21b815290516000939092169163ea3c0fc491600480820192602092909190829003018186803b1580156100f057600080fd5b505afa158015610104573d6000803e3d6000fd5b505050506040513d602081101561011a57600080fd5b505190506001600160a01b0381166101635760405162461bcd60e51b815260040180806020018281038252603b815260200180610c56603b913960400191505060405180910390fd5b5050600280546001600160a01b031981166001600160a01b03909116179055683635c9adc5dea000006003556004805462ffffff19166207a1201790556101a9565b3390565b610a9e806101b86000396000f3fe608060405234801561001057600080fd5b50600436106100785760003560e01c806343f7b7aa1461007d578063715018a6146100875780637c1067c21461008f5780638da5cb5b146100b1578063a86779e4146100d5578063ae12894e146100f2578063ea3c0fc4146100fa578063f2fde38b14610102575b600080fd5b610085610128565b005b610085610263565b610085600480360360208110156100a557600080fd5b503562ffffff166102f3565b6100b96103ac565b604080516001600160a01b039092168252519081900360200190f35b610085600480360360208110156100eb57600080fd5b50356103bb565b6100b9610418565b6100b9610427565b6100856004803603602081101561011857600080fd5b50356001600160a01b0316610436565b61013061051c565b6000546001600160a01b03908116911614610180576040805162461bcd60e51b81526020600482018190526024820152600080516020610a29833981519152604482015290519081900360640190fd5b600154604080516350136e6160e11b815290516000926001600160a01b03169163a026dcc2916004808301926020929190829003018186803b1580156101c557600080fd5b505afa1580156101d9573d6000803e3d6000fd5b505050506040513d60208110156101ef57600080fd5b505160035490915081101561021f5760035461021a90610215908363ffffffff61052016565b61056b565b610260565b678ac7230489e8000061023d6003548361052090919063ffffffff16565b11156102605761026061025b6003548361052090919063ffffffff16565b6106de565b50565b61026b61051c565b6000546001600160a01b039081169116146102bb576040805162461bcd60e51b81526020600482018190526024820152600080516020610a29833981519152604482015290519081900360640190fd5b600080546040516001600160a01b0390911690600080516020610a49833981519152908390a3600080546001600160a01b0319169055565b6102fb61051c565b6000546001600160a01b0390811691161461034b576040805162461bcd60e51b81526020600482018190526024820152600080516020610a29833981519152604482015290519081900360640190fd5b620f42408162ffffff1611156103925760405162461bcd60e51b81526004018080602001828103825260298152602001806109df6029913960400191505060405180910390fd5b6004805462ffffff191662ffffff92909216919091179055565b6000546001600160a01b031690565b6103c361051c565b6000546001600160a01b03908116911614610413576040805162461bcd60e51b81526020600482018190526024820152600080516020610a29833981519152604482015290519081900360640190fd5b600355565b6001546001600160a01b031681565b6002546001600160a01b031681565b61043e61051c565b6000546001600160a01b0390811691161461048e576040805162461bcd60e51b81526020600482018190526024820152600080516020610a29833981519152604482015290519081900360640190fd5b6001600160a01b0381166104d35760405162461bcd60e51b81526004018080602001828103825260268152602001806109b96026913960400191505060405180910390fd5b600080546040516001600160a01b0380851693921691600080516020610a4983398151915291a3600080546001600160a01b0319166001600160a01b0392909216919091179055565b3390565b600061056283836040518060400160405280601e81526020017f536166654d6174683a207375627472616374696f6e206f766572666c6f770000815250610829565b90505b92915050565b60045460009061059c90620f42409061059090859062ffffff1663ffffffff6108c016565b9063ffffffff61091916565b6002546040805163377ef77f60e01b81526004810184905290519293506001600160a01b039091169163377ef77f9160248082019260009290919082900301818387803b1580156105ec57600080fd5b505af1158015610600573d6000803e3d6000fd5b50506002546001600160a01b0316915063f686484a9050610627848463ffffffff61052016565b6040518263ffffffff1660e01b815260040180828152602001915050600060405180830381600087803b15801561065d57600080fd5b505af1158015610671573d6000803e3d6000fd5b505060015460408051634ab358c760e01b81526004810187905290516001600160a01b039092169350634ab358c7925060248082019260009290919082900301818387803b1580156106c257600080fd5b505af11580156106d6573d6000803e3d6000fd5b505050505050565b60015460408051630610250760e51b81526004810184905290516001600160a01b039092169163c204a0e09160248082019260009290919082900301818387803b15801561072b57600080fd5b505af115801561073f573d6000803e3d6000fd5b5050600454600092506107689150620f42409061059090859062ffffff1663ffffffff6108c016565b6002546040805163401c048360e11b81526004810184905290519293506001600160a01b039091169163803809069160248082019260009290919082900301818387803b1580156107b857600080fd5b505af11580156107cc573d6000803e3d6000fd5b50506002546001600160a01b03169150639b5dbe7890506107f3848463ffffffff61052016565b6040518263ffffffff1660e01b815260040180828152602001915050600060405180830381600087803b1580156106c257600080fd5b600081848411156108b85760405162461bcd60e51b81526004018080602001828103825283818151815260200191508051906020019080838360005b8381101561087d578181015183820152602001610865565b50505050905090810190601f1680156108aa5780820380516001836020036101000a031916815260200191505b509250505060405180910390fd5b505050900390565b6000826108cf57506000610565565b828202828482816108dc57fe5b04146105625760405162461bcd60e51b8152600401808060200182810382526021815260200180610a086021913960400191505060405180910390fd5b600061056283836040518060400160405280601a815260200179536166654d6174683a206469766973696f6e206279207a65726f60301b815250600081836109a25760405162461bcd60e51b815260206004820181815283516024840152835190928392604490910191908501908083836000831561087d578181015183820152602001610865565b5060008385816109ae57fe5b049594505050505056fe4f776e61626c653a206e6577206f776e657220697320746865207a65726f2061646472657373436c617373726f6f6d3a2063616e2774206265206d6f72652074686174203130302520696e2070706d536166654d6174683a206d756c7469706c69636174696f6e206f766572666c6f774f776e61626c653a2063616c6c6572206973206e6f7420746865206f776e65728be0079c531659141344cd1fd0a4f28419497f9722a3daafe3b4186f6b6457e0a26469706673582212201bedc97103d099ac15d1512746e975f5e8c1644cd37f4edc1c18c3dd7b28cf0464736f6c634300060600334578616d706c6546756e64734d616e616765723a20756e697665727369747920646f6e2774206861766520616e2061747461636865642066756e64",
  "immutableReferences": {},
  "source": "pragma solidity ^0.6.6;\n\nimport \"@openzeppelin/contracts/math/SafeMath.sol\";\nimport \"@openzeppelin/contracts/access/Ownable.sol\";\nimport \"./interface/IUniversity.sol\";\nimport \"./interface/IUniversityFund.sol\";\n\n\ncontract ExampleFundsManager is Ownable {\n    using SafeMath for uint256;\n\n    IUniversity public university;\n    IUniversityFund public universityFund;\n    uint256 _saveDAIForGrants;\n    uint24 _compoundRatio;\n\n    constructor(address universityAddress) public {\n        university = IUniversity(universityAddress);\n        address universityFundAddress = university.universityFund();\n        require(universityFundAddress != address(0), \"ExampleFundsManager: university don't have an attached fund\");\n        universityFund = IUniversityFund(universityFund);\n        _saveDAIForGrants = 1000 * 1e18;\n        _compoundRatio = 0.5 * 1e6;\n    }\n\n    function changeSaveDai(uint256 val) public onlyOwner {\n        _saveDAIForGrants = val;\n    }\n\n    function changeRatio(uint24 val) public onlyOwner {\n        require(val <= 1e6, \"Classroom: can't be more that 100% in ppm\");\n        _compoundRatio = val;\n    }\n\n    function triggerUpdate() public onlyOwner {\n        uint256 funds = university.availableFundsForInvestment();\n        if (funds < _saveDAIForGrants) redeem(_saveDAIForGrants.sub(funds));\n        else if (funds.sub(_saveDAIForGrants) > 10 * 1e18)\n            invest(funds.sub(_saveDAIForGrants));\n    }\n\n    function redeem(uint256 val) internal {\n        uint256 compoundRedeem = val.mul(_compoundRatio).div(1e6);\n        universityFund.recoverFundsCompound(compoundRedeem);\n        universityFund.recoverFundsAave(val.sub(compoundRedeem));\n        university.recoverFunds(val);\n    }\n\n    function invest(uint256 val) internal {\n        university.applyFunds(val);\n        uint256 compoundApply = val.mul(_compoundRatio).div(1e6);\n        universityFund.applyFundsCompound(compoundApply);\n        universityFund.applyFundsAave(val.sub(compoundApply));\n    }\n}\n",
  "sourcePath": "/mnt/e/Repositories/Uproot/contracts/ExampleFundsManager.sol",
  "compiler": {
    "name": "solc",
    "version": "0.6.6+commit.6c089d02.Emscripten.clang"
  },
  "schemaVersion": "3.1.0",
  "updatedAt": "2020-05-15T22:18:25.788Z",
  "devdoc": {
    "methods": {
      "owner()": {
        "details": "Returns the address of the current owner."
      },
      "renounceOwnership()": {
        "details": "Leaves the contract without owner. It will not be possible to call `onlyOwner` functions anymore. Can only be called by the current owner.     * NOTE: Renouncing ownership will leave the contract without an owner, thereby removing any functionality that is only available to the owner."
      },
      "transferOwnership(address)": {
        "details": "Transfers ownership of the contract to a new account (`newOwner`). Can only be called by the current owner."
      }
    }
  },
  "userdoc": {
    "methods": {}
  }
}