{
  "contractName": "ExampleGrantsManager",
  "abi": [
    {
      "inputs": [
        {
          "internalType": "address",
          "name": "universityAddress",
          "type": "address"
        }
      ],
      "stateMutability": "nonpayable",
      "type": "constructor"
    },
    {
      "anonymous": false,
      "inputs": [
        {
          "indexed": true,
          "internalType": "address",
          "name": "previousOwner",
          "type": "address"
        },
        {
          "indexed": true,
          "internalType": "address",
          "name": "newOwner",
          "type": "address"
        }
      ],
      "name": "OwnershipTransferred",
      "type": "event"
    },
    {
      "inputs": [],
      "name": "owner",
      "outputs": [
        {
          "internalType": "address",
          "name": "",
          "type": "address"
        }
      ],
      "stateMutability": "view",
      "type": "function"
    },
    {
      "inputs": [],
      "name": "renounceOwnership",
      "outputs": [],
      "stateMutability": "nonpayable",
      "type": "function"
    },
    {
      "inputs": [
        {
          "internalType": "address",
          "name": "newOwner",
          "type": "address"
        }
      ],
      "name": "transferOwnership",
      "outputs": [],
      "stateMutability": "nonpayable",
      "type": "function"
    },
    {
      "inputs": [
        {
          "internalType": "uint32",
          "name": "val",
          "type": "uint32"
        }
      ],
      "name": "changeRequiredAvg",
      "outputs": [],
      "stateMutability": "nonpayable",
      "type": "function"
    },
    {
      "inputs": [
        {
          "internalType": "uint32",
          "name": "val",
          "type": "uint32"
        }
      ],
      "name": "changeRequiredCount",
      "outputs": [],
      "stateMutability": "nonpayable",
      "type": "function"
    },
    {
      "inputs": [
        {
          "internalType": "uint256",
          "name": "val",
          "type": "uint256"
        }
      ],
      "name": "changeMaximumPrice",
      "outputs": [],
      "stateMutability": "nonpayable",
      "type": "function"
    },
    {
      "inputs": [
        {
          "internalType": "address",
          "name": "student",
          "type": "address"
        },
        {
          "internalType": "bool",
          "name": "val",
          "type": "bool"
        }
      ],
      "name": "markStudent",
      "outputs": [],
      "stateMutability": "nonpayable",
      "type": "function"
    },
    {
      "inputs": [],
      "name": "viewAllStudents",
      "outputs": [
        {
          "internalType": "address[]",
          "name": "",
          "type": "address[]"
        }
      ],
      "stateMutability": "nonpayable",
      "type": "function"
    },
    {
      "inputs": [
        {
          "internalType": "address",
          "name": "student",
          "type": "address"
        }
      ],
      "name": "viewAllGrantsForStudent",
      "outputs": [
        {
          "internalType": "uint256[]",
          "name": "",
          "type": "uint256[]"
        }
      ],
      "stateMutability": "nonpayable",
      "type": "function"
    },
    {
      "inputs": [
        {
          "internalType": "uint256",
          "name": "price",
          "type": "uint256"
        },
        {
          "internalType": "address",
          "name": "studentApplication",
          "type": "address"
        }
      ],
      "name": "studentRequestGrant",
      "outputs": [
        {
          "internalType": "bool",
          "name": "",
          "type": "bool"
        }
      ],
      "stateMutability": "nonpayable",
      "type": "function"
    }
  ],
  "bytecode": "0x608060405234801561001057600080fd5b50604051610e79380380610e798339818101604052602081101561003357600080fd5b505160006100486001600160e01b036100b716565b600080546001600160a01b0319166001600160a01b0383169081178255604051929350917f8be0079c531659141344cd1fd0a4f28419497f9722a3daafe3b4186f6b6457e0908290a350600180546001600160a01b0319166001600160a01b03929092169190911790556100bb565b3390565b610daf806100ca6000396000f3fe608060405234801561001057600080fd5b506004361061008e5760003560e01c806326cfff0d146100935780633541ae4b146100c357806369e7af43146100e0578063715018a6146101385780638da5cb5b1461014057806392cdf65f14610164578063e60d0f4a14610187578063e6cff597146101ad578063efe633a0146101d0578063f2fde38b14610210575b600080fd5b6100c1600480360360408110156100a957600080fd5b506001600160a01b0381351690602001351515610236565b005b6100c1600480360360208110156100d957600080fd5b50356102b9565b6100e8610316565b60408051602080825283518183015283519192839290830191858101910280838360005b8381101561012457818101518382015260200161010c565b505050509050019250505060405180910390f35b6100c16103fc565b61014861048c565b604080516001600160a01b039092168252519081900360200190f35b6100c16004803603602081101561017a57600080fd5b503563ffffffff1661049b565b6100e86004803603602081101561019d57600080fd5b50356001600160a01b0316610519565b6100c1600480360360208110156101c357600080fd5b503563ffffffff166105b5565b6101fc600480360360408110156101e657600080fd5b50803590602001356001600160a01b0316610629565b604080519115158252519081900360200190f35b6100c16004803603602081101561022657600080fd5b50356001600160a01b0316610836565b61023e61091c565b6000546001600160a01b0390811691161461028e576040805162461bcd60e51b81526020600482018190526024820152600080516020610cbc833981519152604482015290519081900360640190fd5b6001600160a01b03919091166000908152600460205260409020805460ff1916911515919091179055565b6102c161091c565b6000546001600160a01b03908116911614610311576040805162461bcd60e51b81526020600482018190526024820152600080516020610cbc833981519152604482015290519081900360640190fd5b600655565b6001546060906001600160a01b031661032d61091c565b6001600160a01b03161480610361575061034561048c565b6001600160a01b031661035661091c565b6001600160a01b0316145b61039c5760405162461bcd60e51b8152600401808060200182810382526025815260200180610d556025913960400191505060405180910390fd5b60038054806020026020016040519081016040528092919081815260200182805480156103f257602002820191906000526020600020905b81546001600160a01b031681526001909101906020018083116103d4575b5050505050905090565b61040461091c565b6000546001600160a01b03908116911614610454576040805162461bcd60e51b81526020600482018190526024820152600080516020610cbc833981519152604482015290519081900360640190fd5b600080546040516001600160a01b0390911690600080516020610cdc833981519152908390a3600080546001600160a01b0319169055565b6000546001600160a01b031690565b6104a361091c565b6000546001600160a01b039081169116146104f3576040805162461bcd60e51b81526020600482018190526024820152600080516020610cbc833981519152604482015290519081900360640190fd5b6005805463ffffffff909216600160201b0263ffffffff60201b19909216919091179055565b6001546060906001600160a01b031661053061091c565b6001600160a01b03161480610564575061054861048c565b6001600160a01b031661055961091c565b6001600160a01b0316145b61059f5760405162461bcd60e51b8152600401808060200182810382526025815260200180610d556025913960400191505060405180910390fd5b6001600160a01b03909116600052600260205290565b6105bd61091c565b6000546001600160a01b0390811691161461060d576040805162461bcd60e51b81526020600482018190526024820152600080516020610cbc833981519152604482015290519081900360640190fd5b6005805463ffffffff191663ffffffff92909216919091179055565b6001546000906001600160a01b03166316ded1ce61064561091c565b6040518263ffffffff1660e01b815260040180826001600160a01b03166001600160a01b0316815260200191505060206040518083038186803b15801561068b57600080fd5b505afa15801561069f573d6000803e3d6000fd5b505050506040513d60208110156106b557600080fd5b50516106f25760405162461bcd60e51b8152600401808060200182810382526028815260200180610cfc6028913960400191505060405180910390fd5b6006548311156107335760405162461bcd60e51b815260040180806020018281038252602a815260200180610c6c602a913960400191505060405180910390fd5b6004600061073f61091c565b6001600160a01b0316815260208101919091526040016000205460ff1680610772575061077261076d61091c565b610920565b6107ad5760405162461bcd60e51b8152600401808060200182810382526031815260200180610d246031913960400191505060405180910390fd5b6107b78284610b12565b60036107c161091c565b81546001810183556000928352602083200180546001600160a01b0319166001600160a01b03929092169190911790556002906107fc61091c565b6001600160a01b03168152602080820192909252604001600090812080546001818101835591835292909120909101849055905092915050565b61083e61091c565b6000546001600160a01b0390811691161461088e576040805162461bcd60e51b81526020600482018190526024820152600080516020610cbc833981519152604482015290519081900360640190fd5b6001600160a01b0381166108d35760405162461bcd60e51b8152600401808060200182810382526026815260200180610c966026913960400191505060405180910390fd5b600080546040516001600160a01b0380851693921691600080516020610cdc83398151915291a3600080546001600160a01b0319166001600160a01b0392909216919091179055565b3390565b600080826001600160a01b031663efedc6696040518163ffffffff1660e01b815260040160206040518083038186803b15801561095c57600080fd5b505afa158015610970573d6000803e3d6000fd5b505050506040513d602081101561098657600080fd5b505190506000600382900b12156109a1576000915050610b0d565b600154604080516369e2b82760e11b81526001600160a01b0386811660048301529151600093929092169163d3c5704e916024808201928692909190829003018186803b1580156109f157600080fd5b505afa158015610a05573d6000803e3d6000fd5b505050506040513d6000823e601f3d908101601f191682016040526020811015610a2e57600080fd5b8101908080516040519392919084600160201b821115610a4d57600080fd5b908301906020820185811115610a6257600080fd5b82518660208202830111600160201b82111715610a7e57600080fd5b82525081516020918201928201910280838360005b83811015610aab578181015183820152602001610a93565b50505050905001604052505050519050600560049054906101000a900463ffffffff1663ffffffff16811015610ae657600092505050610b0d565b6000610afc600384900b8363ffffffff610b8316565b60055463ffffffff16111593505050505b919050565b60015460408051631857299b60e31b81526001600160a01b038581166004830152602482018590529151919092169163c2b94cd891604480830192600092919082900301818387803b158015610b6757600080fd5b505af1158015610b7b573d6000803e3d6000fd5b505050505050565b6000610bc283836040518060400160405280601a815260200179536166654d6174683a206469766973696f6e206279207a65726f60301b815250610bc9565b9392505050565b60008183610c555760405162461bcd60e51b81526004018080602001828103825283818151815260200191508051906020019080838360005b83811015610c1a578181015183820152602001610c02565b50505050905090810190601f168015610c475780820380516001836020036101000a031916815260200191505b509250505060405180910390fd5b506000838581610c6157fe5b049594505050505056fe4772616e74734d616e616765723a20436c617373726f6f6d20707269636520697320746f6f20686967684f776e61626c653a206e6577206f776e657220697320746865207a65726f20616464726573734f776e61626c653a2063616c6c6572206973206e6f7420746865206f776e65728be0079c531659141344cd1fd0a4f28419497f9722a3daafe3b4186f6b6457e04772616e74734d616e616765723a2053747564656e74206973206e6f7420726567697374657265644772616e74734d616e616765723a2053747564656e7420646f65736e2774206d65657420746865206372697465726961734772616e74734d616e616765723a2052656164207065726d697373696f6e2064656e696564a2646970667358221220b22422a766931af314fe463c1740564d7306b71db7526b56df736309c2c2acdf64736f6c63430006060033",
  "immutableReferences": {},
  "source": "pragma solidity ^0.6.6;\n\nimport \"@openzeppelin/contracts/access/Ownable.sol\";\nimport \"@openzeppelin/contracts/math/SafeMath.sol\";\nimport \"@nomiclabs/buidler/console.sol\";\nimport \"./interface/IUniversity.sol\";\nimport \"./interface/IGrantsManager.sol\";\nimport \"./interface/IStudent.sol\";\nimport \"./interface/IStudentApplication.sol\";\n\n\ncontract ExampleGrantsManager is Ownable, IGrantsManager {\n    using SafeMath for uint256;\n\n    address _universityAddress;\n\n    mapping(address => uint256[]) _grantsLookup;\n    address[] _studentsLookup;\n    mapping(address => bool) _preApprovedStudents;\n    uint32 _requiredAvg;\n    uint32 _requiredCount;\n    uint256 _maximumPrice;\n\n    constructor(address universityAddress) public {\n        _universityAddress = universityAddress;\n    }\n\n    function changeRequiredAvg(uint32 val) public onlyOwner {\n        _requiredAvg = val;\n    }\n\n    function changeRequiredCount(uint32 val) public onlyOwner {\n        _requiredCount = val;\n    }\n\n    function changeMaximumPrice(uint256 val) public onlyOwner {\n        _maximumPrice = val;\n    }\n\n    function markStudent(address student, bool val) public onlyOwner {\n        _preApprovedStudents[student] = val;\n    }\n\n    function viewAllStudents() public override returns (address[] memory) {\n        require(\n            _msgSender() == _universityAddress || _msgSender() == owner(),\n            \"GrantsManager: Read permission denied\"\n        );\n        return _studentsLookup;\n    }\n\n    function viewAllGrantsForStudent(address student) public override returns (uint256[] memory){\n        require(\n            _msgSender() == _universityAddress || _msgSender() == owner(),\n            \"GrantsManager: Read permission denied\"\n        );\n        _grantsLookup[student];\n    }\n\n    function giveGrant(address studentApplication, uint price) internal {\n        IUniversity(_universityAddress).giveGrant(studentApplication, price);\n    }\n\n    function studentRequestGrant(uint256 price, address studentApplication)\n        public\n        override\n        returns (bool)\n    {\n        require(\n            IUniversity(_universityAddress).studentIsRegistered(_msgSender()),\n            \"GrantsManager: Student is not registered\"\n        );\n        require(\n            price <= _maximumPrice,\n            \"GrantsManager: Classroom price is too high\"\n        );\n        require(\n            _preApprovedStudents[_msgSender()] || _approvalCriteria(_msgSender()),\n            \"GrantsManager: Student doesn't meet the criterias\"\n        );\n        giveGrant(studentApplication, price);\n        _studentsLookup.push(_msgSender());\n        _grantsLookup[_msgSender()].push(price);\n        return true;\n    }\n\n    function _approvalCriteria(address student) internal view returns (bool) {\n        int32 score = IStudent(student).score();\n        if (score < 0) return false;\n        uint256 count = IUniversity(_universityAddress)\n            .viewStudentApplications(student)\n            .length;\n        if (count < _requiredCount) return false;\n        uint256 avgScore = uint256(score).div(count);\n        return avgScore >= _requiredAvg;\n    }\n}\n",
  "sourcePath": "/mnt/e/Repositories/Uproot/contracts/ExampleGrantsManager.sol",
  "compiler": {
    "name": "solc",
    "version": "0.6.6+commit.6c089d02.Emscripten.clang"
  },
  "schemaVersion": "3.1.0",
  "updatedAt": "2020-05-15T22:18:25.791Z",
  "devdoc": {
    "methods": {
      "owner()": {
        "details": "Returns the address of the current owner."
      },
      "renounceOwnership()": {
        "details": "Leaves the contract without owner. It will not be possible to call `onlyOwner` functions anymore. Can only be called by the current owner.     * NOTE: Renouncing ownership will leave the contract without an owner, thereby removing any functionality that is only available to the owner."
      },
      "transferOwnership(address)": {
        "details": "Transfers ownership of the contract to a new account (`newOwner`). Can only be called by the current owner."
      }
    }
  },
  "userdoc": {
    "methods": {}
  }
}