{
  "contractName": "StudentApplication",
  "abi": [
    {
      "inputs": [
        {
          "internalType": "address",
          "name": "studentAddress",
          "type": "address"
        },
        {
          "internalType": "address",
          "name": "classroomAddress_",
          "type": "address"
        },
        {
          "internalType": "address",
          "name": "daiAddress",
          "type": "address"
        },
        {
          "internalType": "address",
          "name": "challengeAddress",
          "type": "address"
        },
        {
          "internalType": "bytes32",
          "name": "seed",
          "type": "bytes32"
        }
      ],
      "stateMutability": "nonpayable",
      "type": "constructor"
    },
    {
      "anonymous": false,
      "inputs": [
        {
          "indexed": true,
          "internalType": "address",
          "name": "previousOwner",
          "type": "address"
        },
        {
          "indexed": true,
          "internalType": "address",
          "name": "newOwner",
          "type": "address"
        }
      ],
      "name": "OwnershipTransferred",
      "type": "event"
    },
    {
      "inputs": [],
      "name": "classroomAddress",
      "outputs": [
        {
          "internalType": "address",
          "name": "",
          "type": "address"
        }
      ],
      "stateMutability": "view",
      "type": "function"
    },
    {
      "inputs": [],
      "name": "daiToken",
      "outputs": [
        {
          "internalType": "contract IERC20",
          "name": "",
          "type": "address"
        }
      ],
      "stateMutability": "view",
      "type": "function"
    },
    {
      "inputs": [],
      "name": "owner",
      "outputs": [
        {
          "internalType": "address",
          "name": "",
          "type": "address"
        }
      ],
      "stateMutability": "view",
      "type": "function"
    },
    {
      "inputs": [],
      "name": "renounceOwnership",
      "outputs": [],
      "stateMutability": "nonpayable",
      "type": "function"
    },
    {
      "inputs": [
        {
          "internalType": "address",
          "name": "newOwner",
          "type": "address"
        }
      ],
      "name": "transferOwnership",
      "outputs": [],
      "stateMutability": "nonpayable",
      "type": "function"
    },
    {
      "inputs": [],
      "name": "studentAddress",
      "outputs": [
        {
          "internalType": "address",
          "name": "",
          "type": "address"
        }
      ],
      "stateMutability": "view",
      "type": "function"
    },
    {
      "inputs": [],
      "name": "applicationState",
      "outputs": [
        {
          "internalType": "uint256",
          "name": "",
          "type": "uint256"
        }
      ],
      "stateMutability": "view",
      "type": "function"
    },
    {
      "inputs": [],
      "name": "entryPrice",
      "outputs": [
        {
          "internalType": "uint256",
          "name": "",
          "type": "uint256"
        }
      ],
      "stateMutability": "view",
      "type": "function"
    },
    {
      "inputs": [],
      "name": "challengeAddress",
      "outputs": [
        {
          "internalType": "address",
          "name": "",
          "type": "address"
        }
      ],
      "stateMutability": "view",
      "type": "function"
    },
    {
      "inputs": [],
      "name": "payEntryPrice",
      "outputs": [],
      "stateMutability": "nonpayable",
      "type": "function"
    },
    {
      "inputs": [],
      "name": "activate",
      "outputs": [],
      "stateMutability": "nonpayable",
      "type": "function"
    },
    {
      "inputs": [],
      "name": "expire",
      "outputs": [],
      "stateMutability": "nonpayable",
      "type": "function"
    },
    {
      "inputs": [
        {
          "internalType": "bytes32",
          "name": "secret",
          "type": "bytes32"
        }
      ],
      "name": "setAnswerSecret",
      "outputs": [],
      "stateMutability": "nonpayable",
      "type": "function"
    },
    {
      "inputs": [
        {
          "internalType": "bytes32",
          "name": "secret",
          "type": "bytes32"
        }
      ],
      "name": "registerAnswer",
      "outputs": [],
      "stateMutability": "nonpayable",
      "type": "function"
    },
    {
      "inputs": [],
      "name": "viewChallengeMaterial",
      "outputs": [
        {
          "internalType": "string",
          "name": "",
          "type": "string"
        }
      ],
      "stateMutability": "view",
      "type": "function"
    },
    {
      "inputs": [
        {
          "internalType": "uint256",
          "name": "index",
          "type": "uint256"
        }
      ],
      "name": "getHint",
      "outputs": [
        {
          "internalType": "bytes32",
          "name": "",
          "type": "bytes32"
        }
      ],
      "stateMutability": "view",
      "type": "function"
    },
    {
      "inputs": [],
      "name": "verifyAnswer",
      "outputs": [
        {
          "internalType": "bool",
          "name": "",
          "type": "bool"
        }
      ],
      "stateMutability": "view",
      "type": "function"
    },
    {
      "inputs": [],
      "name": "registerFinalAnswer",
      "outputs": [],
      "stateMutability": "nonpayable",
      "type": "function"
    },
    {
      "inputs": [
        {
          "internalType": "uint256",
          "name": "principal",
          "type": "uint256"
        },
        {
          "internalType": "uint256",
          "name": "prize",
          "type": "uint256"
        }
      ],
      "name": "accountAllowance",
      "outputs": [],
      "stateMutability": "nonpayable",
      "type": "function"
    },
    {
      "inputs": [],
      "name": "viewPrincipalReturned",
      "outputs": [
        {
          "internalType": "uint256",
          "name": "",
          "type": "uint256"
        }
      ],
      "stateMutability": "view",
      "type": "function"
    },
    {
      "inputs": [],
      "name": "viewPrizeReturned",
      "outputs": [
        {
          "internalType": "uint256",
          "name": "",
          "type": "uint256"
        }
      ],
      "stateMutability": "view",
      "type": "function"
    },
    {
      "inputs": [
        {
          "internalType": "address",
          "name": "to",
          "type": "address"
        }
      ],
      "name": "withdrawAllResults",
      "outputs": [],
      "stateMutability": "nonpayable",
      "type": "function"
    },
    {
      "inputs": [
        {
          "internalType": "address",
          "name": "to",
          "type": "address"
        },
        {
          "internalType": "uint256",
          "name": "val",
          "type": "uint256"
        }
      ],
      "name": "withdrawResults",
      "outputs": [],
      "stateMutability": "nonpayable",
      "type": "function"
    }
  ],
  "bytecode": "0x608060405234801561001057600080fd5b50604051611d28380380611d28833981810160405260a081101561003357600080fd5b5080516020820151604083015160608401516080909401519293919290919060006100656001600160e01b0361018516565b600080546001600160a01b0319166001600160a01b0383169081178255604051929350917f8be0079c531659141344cd1fd0a4f28419497f9722a3daafe3b4186f6b6457e0908290a3506003805460ff60a01b19169055600480546001600160a01b03199081166001600160a01b0388811691909117835560058054831688831617908190556007805460ff191690556001805484168884161790556006859055600280549093168683161790925560408051633dd16b7f60e21b81529051929091169263f745adfc928282019260209290829003018186803b15801561014b57600080fd5b505afa15801561015f573d6000803e3d6000fd5b505050506040513d602081101561017557600080fd5b5051600a55506101899350505050565b3390565b611b90806101986000396000f3fe608060405234801561001057600080fd5b506004361061011d5760003560e01c80630bb8ebf6146101225780630f15f4c01461013e57806310dfb08e146101485780631a16e41f146101625780632344e4ec1461017f578063289cf0d21461019c57806329d18879146101a45780632d24947b146101c857806337edd7e7146101d05780633db0bfd21461024d5780636587b61e1461027957806366995a4614610281578063715018a6146102a757806379599f96146102af5780637c42236e146102b75780637db9abaf146102bf5780638da5cb5b146102e25780638f395371146102ea578063b462f7cd146102f2578063b8f31a811461030f578063be22f54614610317578063f2fde38b1461031f578063f745adfc14610345575b600080fd5b61012a61034d565b604080519115158252519081900360200190f35b6101466103cd565b005b610150610498565b60408051918252519081900360200190f35b6101466004803603602081101561017857600080fd5b503561058b565b6101506004803603602081101561019557600080fd5b5035610625565b610146610801565b6101ac6108c4565b604080516001600160a01b039092168252519081900360200190f35b61014661095a565b6101d8610ac4565b6040805160208082528351818301528351919283929083019185019080838360005b838110156102125781810151838201526020016101fa565b50505050905090810190601f16801561023f5780820380516001836020036101000a031916815260200191505b509250505060405180910390f35b6101466004803603604081101561026357600080fd5b506001600160a01b038135169060200135610c88565b610150610d42565b6101466004803603602081101561029757600080fd5b50356001600160a01b0316610de5565b610146610df8565b610146610e88565b610150610f50565b610146600480360360408110156102d557600080fd5b5080359060200135611043565b6101ac6110ec565b6101ac6110fb565b6101466004803603602081101561030857600080fd5b503561110a565b6101ac61135f565b6101ac6113f5565b6101466004803603602081101561033557600080fd5b50356001600160a01b0316611404565b6101506114ea565b60035460408051630e79cd5f60e21b815290516000926001600160a01b0316916339e7357c916004808301926020929190829003018186803b15801561039257600080fd5b505afa9250505080156103b757506040513d60208110156103b257600080fd5b505160015b6103c3575060006103ca565b6006541490505b90565b6103d5611577565b6000546001600160a01b03908116911614610425576040805162461bcd60e51b81526020600482018190526024820152600080516020611998833981519152604482015290519081900360640190fd5b6001600354600160a01b900460ff16600681111561043f57fe5b1461047b5760405162461bcd60e51b815260040180806020018281038252602c815260200180611914602c913960400191505060405180910390fd5b600380546002919060ff60a01b1916600160a01b835b0217905550565b6004546000906001600160a01b03166104af611577565b6001600160a01b0316148061054957506004805460408051637a6c8b5360e01b815290516001600160a01b0390921692637a6c8b53928282019260209290829003018186803b15801561050157600080fd5b505afa158015610515573d6000803e3d6000fd5b505050506040513d602081101561052b57600080fd5b50516001600160a01b031661053e611577565b6001600160a01b0316145b6105845760405162461bcd60e51b815260040180806020018281038252602a815260200180611ab3602a913960400191505060405180910390fd5b5060085490565b6004546001600160a01b031661059f611577565b6001600160a01b0316146105e45760405162461bcd60e51b815260040180806020018281038252602b815260200180611a5c602b913960400191505060405180910390fd5b806106205760405162461bcd60e51b815260040180806020018281038252602b815260200180611940602b913960400191505060405180910390fd5b600b55565b60075460009060ff166106695760405162461bcd60e51b81526004018080602001828103825260298152602001806118be6029913960400191505060405180910390fd5b6003546001600160a01b031661067d611577565b6001600160a01b0316146106c25760405162461bcd60e51b81526004018080602001828103825260258152602001806118996025913960400191505060405180910390fd5b600260009054906101000a90046001600160a01b03166001600160a01b0316630b435c546040518163ffffffff1660e01b815260040160206040518083038186803b15801561071057600080fd5b505afa158015610724573d6000803e3d6000fd5b505050506040513d602081101561073a57600080fd5b505182106107795760405162461bcd60e51b8152600401808060200182810382526026815260200180611b116026913960400191505060405180910390fd5b6002546006546040805163cee0510f60e01b8152600481018690526024810192909252516001600160a01b039092169163cee0510f91604480820192602092909190829003018186803b1580156107cf57600080fd5b505afa1580156107e3573d6000803e3d6000fd5b505050506040513d60208110156107f957600080fd5b505192915050565b610809611577565b6000546001600160a01b03908116911614610859576040805162461bcd60e51b81526020600482018190526024820152600080516020611998833981519152604482015290519081900360640190fd5b60075460ff1661088357600380546005919060ff60a01b1916600160a01b835b02179055506108c2565b61088b61034d565b156108a85760038054819060ff60a01b1916600160a01b82610879565b600380546004919060ff60a01b1916600160a01b83610491565b565b6004546000906001600160a01b03166108db611577565b6001600160a01b0316148061090f57506108f36110ec565b6001600160a01b0316610904611577565b6001600160a01b0316145b61094a5760405162461bcd60e51b815260040180806020018281038252602a815260200180611ab3602a913960400191505060405180910390fd5b506002546001600160a01b031690565b6000600354600160a01b900460ff16600681111561097457fe5b146109b05760405162461bcd60e51b815260040180806020018281038252602a815260200180611a32602a913960400191505060405180910390fd5b600a546001546001600160a01b03166370a082316109cc611577565b6040518263ffffffff1660e01b815260040180826001600160a01b03166001600160a01b0316815260200191505060206040518083038186803b158015610a1257600080fd5b505afa158015610a26573d6000803e3d6000fd5b505050506040513d6020811015610a3c57600080fd5b50511015610a7b5760405162461bcd60e51b8152600401808060200182810382526034815260200180611add6034913960400191505060405180910390fd5b600154610aaa906001600160a01b0316610a93611577565b600554600a546001600160a01b039091169061157b565b600380546001919060ff60a01b1916600160a01b83610491565b6004546060906001600160a01b0316610adb611577565b6001600160a01b03161480610b0f5750610af36110ec565b6001600160a01b0316610b04611577565b6001600160a01b0316145b610b4a5760405162461bcd60e51b815260040180806020018281038252602a815260200180611ab3602a913960400191505060405180910390fd5b600260009054906101000a90046001600160a01b03166001600160a01b031663724465436040518163ffffffff1660e01b815260040160006040518083038186803b158015610b9857600080fd5b505afa158015610bac573d6000803e3d6000fd5b505050506040513d6000823e601f3d908101601f191682016040526020811015610bd557600080fd5b8101908080516040519392919084600160201b821115610bf457600080fd5b908301906020820185811115610c0957600080fd5b8251600160201b811182820188101715610c2257600080fd5b82525081516020918201929091019080838360005b83811015610c4f578181015183820152602001610c37565b50505050905090810190601f168015610c7c5780820380516001836020036101000a031916815260200191505b50604052505050905090565b6004546001600160a01b0316610c9c611577565b6001600160a01b031614610ce15760405162461bcd60e51b815260040180806020018281038252602d8152602001806118e7602d913960400191505060405180910390fd5b6002610ceb610d42565b11610d275760405162461bcd60e51b815260040180806020018281038252602c815260200180611a87602c913960400191505060405180910390fd5b600154610d3e906001600160a01b031683836116d8565b5050565b6004546000906001600160a01b0316610d59611577565b6001600160a01b03161480610d8d5750610d716110ec565b6001600160a01b0316610d82611577565b6001600160a01b0316145b610dc85760405162461bcd60e51b815260040180806020018281038252602a815260200180611ab3602a913960400191505060405180910390fd5b600354600160a01b900460ff166006811115610de057fe5b905090565b610df58160095460085401610c88565b50565b610e00611577565b6000546001600160a01b03908116911614610e50576040805162461bcd60e51b81526020600482018190526024820152600080516020611998833981519152604482015290519081900360640190fd5b600080546040516001600160a01b0390911690600080516020611a12833981519152908390a3600080546001600160a01b0319169055565b610e90611577565b6000546001600160a01b03908116911614610ee0576040805162461bcd60e51b81526020600482018190526024820152600080516020611998833981519152604482015290519081900360640190fd5b6000600354600160a01b900460ff166006811115610efa57fe5b14610f365760405162461bcd60e51b815260040180806020018281038252602a815260200180611a32602a913960400191505060405180910390fd5b600380546006919060ff60a01b1916600160a01b83610491565b6004546000906001600160a01b0316610f67611577565b6001600160a01b0316148061100157506004805460408051637a6c8b5360e01b815290516001600160a01b0390921692637a6c8b53928282019260209290829003018186803b158015610fb957600080fd5b505afa158015610fcd573d6000803e3d6000fd5b505050506040513d6020811015610fe357600080fd5b50516001600160a01b0316610ff6611577565b6001600160a01b0316145b61103c5760405162461bcd60e51b815260040180806020018281038252602a815260200180611ab3602a913960400191505060405180910390fd5b5060095490565b61104b611577565b6000546001600160a01b0390811691161461109b576040805162461bcd60e51b81526020600482018190526024820152600080516020611998833981519152604482015290519081900360640190fd5b60026110a5610d42565b116110e15760405162461bcd60e51b81526004018080602001828103825260308152602001806118436030913960400191505060405180910390fd5b600891909155600955565b6000546001600160a01b031690565b6005546001600160a01b031681565b600b546111485760405162461bcd60e51b815260040180806020018281038252602e8152602001806119b8602e913960400191505060405180910390fd5b600b54811461119e576040805162461bcd60e51b815260206004820181905260248201527f53747564656e744170706c69636174696f6e3a2077726f6e6720736563726574604482015290519081900360640190fd5b6002600354600160a01b900460ff1660068111156111b857fe5b146111f45760405162461bcd60e51b815260040180806020018281038252602d81526020018061196b602d913960400191505060405180910390fd5b60006111fe611577565b9050600460009054906101000a90046001600160a01b03166001600160a01b0316637a6c8b536040518163ffffffff1660e01b815260040160206040518083038186803b15801561124e57600080fd5b505afa158015611262573d6000803e3d6000fd5b505050506040513d602081101561127857600080fd5b505160408051631127a41d60e31b815290516001600160a01b039283169284169163893d20e8916004808301926020929190829003018186803b1580156112be57600080fd5b505afa1580156112d2573d6000803e3d6000fd5b505050506040513d60208110156112e857600080fd5b50516001600160a01b03161461132f5760405162461bcd60e51b815260040180806020018281038252602c8152602001806119e6602c913960400191505060405180910390fd5b600380546001600160a01b0319166001600160a01b0392909216919091179055506007805460ff19166001179055565b6004546000906001600160a01b0316611376611577565b6001600160a01b031614806113aa575061138e6110ec565b6001600160a01b031661139f611577565b6001600160a01b0316145b6113e55760405162461bcd60e51b815260040180806020018281038252602a815260200180611ab3602a913960400191505060405180910390fd5b506004546001600160a01b031690565b6001546001600160a01b031681565b61140c611577565b6000546001600160a01b0390811691161461145c576040805162461bcd60e51b81526020600482018190526024820152600080516020611998833981519152604482015290519081900360640190fd5b6001600160a01b0381166114a15760405162461bcd60e51b81526004018080602001828103825260268152602001806118736026913960400191505060405180910390fd5b600080546040516001600160a01b0380851693921691600080516020611a1283398151915291a3600080546001600160a01b0319166001600160a01b0392909216919091179055565b6004546000906001600160a01b0316611501611577565b6001600160a01b0316148061153557506115196110ec565b6001600160a01b031661152a611577565b6001600160a01b0316145b6115705760405162461bcd60e51b815260040180806020018281038252602a815260200180611ab3602a913960400191505060405180910390fd5b50600a5490565b3390565b604080516001600160a01b0385811660248301528481166044830152606480830185905283518084039091018152608490920183526020820180516001600160e01b03166323b872dd60e01b17815292518251600094606094938a169392918291908083835b602083106116005780518252601f1990920191602091820191016115e1565b6001836020036101000a0380198251168184511680821785525050505050509050019150506000604051808303816000865af19150503d8060008114611662576040519150601f19603f3d011682016040523d82523d6000602084013e611667565b606091505b5091509150818015611695575080511580611695575080806020019051602081101561169257600080fd5b50515b6116d05760405162461bcd60e51b8152600401808060200182810382526024815260200180611b376024913960400191505060405180910390fd5b505050505050565b604080516001600160a01b038481166024830152604480830185905283518084039091018152606490920183526020820180516001600160e01b031663a9059cbb60e01b178152925182516000946060949389169392918291908083835b602083106117555780518252601f199092019160209182019101611736565b6001836020036101000a0380198251168184511680821785525050505050509050019150506000604051808303816000865af19150503d80600081146117b7576040519150601f19603f3d011682016040523d82523d6000602084013e6117bc565b606091505b50915091508180156117ea5750805115806117ea57508080602001905160208110156117e757600080fd5b50515b61183b576040805162461bcd60e51b815260206004820152601f60248201527f5472616e7366657248656c7065723a205452414e534645525f4641494c454400604482015290519081900360640190fd5b505050505056fe53747564656e744170706c69636174696f6e3a206170706c69636174696f6e206e6f742066696e6973686564207965744f776e61626c653a206e6577206f776e657220697320746865207a65726f206164647265737353747564656e744170706c69636174696f6e3a2061726520796f75206368656174696e673f53747564656e744170706c69636174696f6e3a20616e73776572206e6f74207265676973746572656453747564656e744170706c69636174696f6e3a206f6e6c792073747564656e742063616e20776974686472617753747564656e744170706c69636174696f6e3a206170706c69636174696f6e206973206e6f7420526561647953747564656e744170706c69636174696f6e3a206d7573742073657420612076616c69642073656372657453747564656e744170706c69636174696f6e3a206170706c69636174696f6e206973206e6f74206163746976654f776e61626c653a2063616c6c6572206973206e6f7420746865206f776e657253747564656e744170706c69636174696f6e3a206170706c69636174696f6e20736563726574206e6f742073657453747564656e744170706c69636174696f6e3a206765744f776e657220726573756c742069732077726f6e678be0079c531659141344cd1fd0a4f28419497f9722a3daafe3b4186f6b6457e053747564656e744170706c69636174696f6e3a206170706c69636174696f6e206973206e6f74204e657753747564656e744170706c69636174696f6e3a207772697465207065726d697373696f6e2064656e69656453747564656e744170706c69636174696f6e3a206170706c69636174696f6e206e6f742066696e697368656453747564656e744170706c69636174696f6e3a2072656164207065726d697373696f6e2064656e69656453747564656e744170706c69636174696f6e3a2073656e6465722063616e2774207061792074686520656e74727920707269636553747564656e744170706c69636174696f6e3a2068696e74206e6f7420617661696c61626c655472616e7366657248656c7065723a205452414e534645525f46524f4d5f4641494c4544a264697066735822122086990a74ed1bc485887b8306d132ff189e6b424f9ac4fd044181a5e4b7b201f564736f6c63430006060033",
  "immutableReferences": {},
  "source": "pragma solidity ^0.6.6;\n\nimport \"@openzeppelin/contracts/math/SafeMath.sol\";\nimport \"@openzeppelin/contracts/access/AccessControl.sol\";\nimport \"@openzeppelin/contracts/access/Ownable.sol\";\nimport \"@openzeppelin/contracts/token/ERC20/IERC20.sol\";\nimport \"@openzeppelin/contracts/utils/Address.sol\";\nimport \"@uniswap/lib/contracts/libraries/TransferHelper.sol\";\nimport \"./interface/IUniversity.sol\";\nimport \"./interface/IStudent.sol\";\nimport \"./interface/IClassroom.sol\";\nimport \"./interface/IStudentApplication.sol\";\nimport \"./interface/IStudentAnswer.sol\";\nimport \"./interface/IClassroomChallenge.sol\";\n\n\ncontract StudentApplication is Ownable, IStudentApplication {\n    using SafeMath for uint256;\n\n    IERC20 public daiToken;\n    IClassroomChallenge _challenge;\n\n    enum ApplicationState {New, Ready, Active, Success, Failed, Empty, Expired}\n\n    IStudentAnswer _answer;\n    ApplicationState _applicationState;\n    address _studentAddress;\n    address public classroomAddress;\n    bytes32 _seed;\n    bool _hasAnswer;\n    uint256 _principalReturned;\n    uint256 _completionPrize;\n    uint256 _entryPrice;\n    bytes32 _answerSecret;\n\n    constructor(\n        address studentAddress,\n        address classroomAddress_,\n        address daiAddress,\n        address challengeAddress,\n        bytes32 seed\n    ) public {\n        _applicationState = ApplicationState.New;\n        _studentAddress = studentAddress;\n        classroomAddress = classroomAddress_;\n        _hasAnswer = false;\n        daiToken = IERC20(daiAddress);\n        _seed = seed;\n        _challenge = IClassroomChallenge(challengeAddress);\n        _entryPrice = IClassroom(classroomAddress).entryPrice();\n    }\n\n    function studentAddress() public view override returns (address) {\n        require(\n            _msgSender() == _studentAddress || _msgSender() == owner(),\n            \"StudentApplication: read permission denied\"\n        );\n        return _studentAddress;\n    }\n\n    function applicationState() public view override returns (uint256) {\n        require(\n            _msgSender() == _studentAddress || _msgSender() == owner(),\n            \"StudentApplication: read permission denied\"\n        );\n        return uint256(_applicationState);\n    }\n\n    function entryPrice() public view override returns (uint256) {\n        require(\n            _msgSender() == _studentAddress || _msgSender() == owner(),\n            \"StudentApplication: read permission denied\"\n        );\n        return _entryPrice;\n    }\n\n    function challengeAddress() public view returns (address) {\n        require(\n            _msgSender() == _studentAddress || _msgSender() == owner(),\n            \"StudentApplication: read permission denied\"\n        );\n        return address(_challenge);\n    }\n\n    function payEntryPrice() external override {\n        require(\n            _applicationState == ApplicationState.New,\n            \"StudentApplication: application is not New\"\n        );\n        require(\n            daiToken.balanceOf(_msgSender()) >= _entryPrice,\n            \"StudentApplication: sender can't pay the entry price\"\n        );\n        TransferHelper.safeTransferFrom(\n            address(daiToken),\n            _msgSender(),\n            classroomAddress,\n            _entryPrice\n        );\n        _applicationState = ApplicationState.Ready;\n    }\n\n    function activate() public override onlyOwner {\n        require(\n            _applicationState == ApplicationState.Ready,\n            \"StudentApplication: application is not Ready\"\n        );\n        _applicationState = ApplicationState.Active;\n    }\n\n    function expire() public override onlyOwner {\n        require(\n            _applicationState == ApplicationState.New,\n            \"StudentApplication: application is not New\"\n        );\n        _applicationState = ApplicationState.Expired;\n    }\n\n    function setAnswerSecret(bytes32 secret) public override {\n        require(\n            _msgSender() == _studentAddress,\n            \"StudentApplication: write permission denied\"\n        );\n        require(\n            secret != bytes32(0),\n            \"StudentApplication: must set a valid secret\"\n        );\n        _answerSecret = secret;\n    }\n\n    function registerAnswer(bytes32 secret) public override {\n        require(\n            _answerSecret != bytes32(0),\n            \"StudentApplication: application secret not set\"\n        );\n        require(\n            secret == _answerSecret, \n            \"StudentApplication: wrong secret\"\n        );\n        require(\n            _applicationState == ApplicationState.Active,\n            \"StudentApplication: application is not active\"\n        );\n        IStudentAnswer answer = IStudentAnswer(_msgSender());\n        require(\n            answer.getOwner() == IStudent(_studentAddress).ownerStudent(),\n            \"StudentApplication: getOwner result is wrong\"\n        );\n        _answer = answer;\n        _hasAnswer = true;\n    }\n\n    function viewChallengeMaterial() public view override returns (string memory) {\n        require(\n            _msgSender() == _studentAddress || _msgSender() == owner(),\n            \"StudentApplication: read permission denied\"\n        );\n        return _challenge.viewMaterial();\n    }\n\n    function getHint(uint256 index) public view override returns (bytes32) {\n        require(_hasAnswer, \"StudentApplication: answer not registered\");\n        require(\n            _msgSender() == address(_answer),\n            \"StudentApplication: are you cheating?\"\n        );\n        require(\n            index < _challenge.hintsCount(),\n            \"StudentApplication: hint not available\"\n        );\n        return _challenge.getHint(index, _seed);\n    }\n\n    function verifyAnswer() public view returns (bool) {\n        try _answer.getSeed() returns (bytes32 seed) {\n            return seed == _seed;\n        } catch {\n            return false;\n        }\n    }\n\n    function registerFinalAnswer() public override onlyOwner {\n        if (!_hasAnswer) {\n            _applicationState = ApplicationState.Empty;\n        } else {\n            if (verifyAnswer()) _applicationState = ApplicationState.Success;\n            else _applicationState = ApplicationState.Failed;\n        }\n    }\n\n    function accountAllowance(uint256 principal, uint256 prize)\n        public\n        override\n        onlyOwner\n    {\n        require(\n            applicationState() > 2,\n            \"StudentApplication: application not finished yet\"\n        );\n        _principalReturned = principal;\n        _completionPrize = prize;\n    }\n\n    function viewPrincipalReturned() public view returns (uint256) {\n        require(\n            _msgSender() == _studentAddress || _msgSender() == IStudent(_studentAddress).ownerStudent(),\n            \"StudentApplication: read permission denied\"\n        );\n        return _principalReturned;\n    }\n\n    function viewPrizeReturned() public view returns (uint256) {\n        require(\n            _msgSender() == _studentAddress || _msgSender() == IStudent(_studentAddress).ownerStudent(),\n            \"StudentApplication: read permission denied\"\n        );\n        return _completionPrize;\n    }\n\n    function withdrawAllResults(address to) public override {\n        withdrawResults(to, _principalReturned + _completionPrize);\n    }\n\n    function withdrawResults(address to, uint256 val) public override {\n        require(\n            _msgSender() == _studentAddress,\n            \"StudentApplication: only student can withdraw\"\n        );\n        require(\n            applicationState() > 2,\n            \"StudentApplication: application not finished\"\n        );\n        TransferHelper.safeTransfer(address(daiToken), to, val);\n    }\n}\n",
  "sourcePath": "/mnt/e/Repositories/Uproot/contracts/StudentApplication.sol",
  "compiler": {
    "name": "solc",
    "version": "0.6.6+commit.6c089d02.Emscripten.clang"
  },
  "schemaVersion": "3.1.0",
  "updatedAt": "2020-05-19T16:25:54.803Z",
  "devdoc": {
    "methods": {
      "owner()": {
        "details": "Returns the address of the current owner."
      },
      "renounceOwnership()": {
        "details": "Leaves the contract without owner. It will not be possible to call `onlyOwner` functions anymore. Can only be called by the current owner.     * NOTE: Renouncing ownership will leave the contract without an owner, thereby removing any functionality that is only available to the owner."
      },
      "transferOwnership(address)": {
        "details": "Transfers ownership of the contract to a new account (`newOwner`). Can only be called by the current owner."
      }
    }
  },
  "userdoc": {
    "methods": {}
  }
}