{
  "contractName": "StudentFactory",
  "abi": [
    {
      "inputs": [
        {
          "internalType": "bytes32",
          "name": "name",
          "type": "bytes32"
        },
        {
          "internalType": "address payable",
          "name": "university",
          "type": "address"
        }
      ],
      "name": "newStudent",
      "outputs": [
        {
          "internalType": "address",
          "name": "studentAddress",
          "type": "address"
        }
      ],
      "stateMutability": "nonpayable",
      "type": "function"
    }
  ],
  "bytecode": "0x608060405234801561001057600080fd5b50612cb9806100206000396000f3fe608060405234801561001057600080fd5b506004361061002b5760003560e01c80638ebf1d2714610030575b600080fd5b61005c6004803603604081101561004657600080fd5b50803590602001356001600160a01b0316610078565b604080516001600160a01b039092168252519081900360200190f35b600080838360405161008990610125565b9182526001600160a01b03166020820152604080519182900301906000f0801580156100b9573d6000803e3d6000fd5b506040805163f2fde38b60e01b815233600482015290519192506001600160a01b0383169163f2fde38b9160248082019260009290919082900301818387803b15801561010557600080fd5b505af1158015610119573d6000803e3d6000fd5b50929695505050505050565b612b51806101338339019056fe60806040523480156200001157600080fd5b5060405162002b5138038062002b518339810160408190526200003491620006b6565b6000620000496001600160e01b036200018e16565b600080546001600160a01b0319166001600160a01b0383169081178255604051929350917f8be0079c531659141344cd1fd0a4f28419497f9722a3daafe3b4186f6b6457e0908290a35060038290556006805463ffffffff19169055600480546001600160a01b0319166001600160a01b038316179055620000df6000620000d06200018e565b6001600160e01b03620001ab16565b6200010a604051620000f1906200070e565b604051908190039020826001600160e01b03620001c416565b6001600160a01b038116620001276001600160e01b036200018e16565b6001600160a01b031614620001865762000148604051620000f190620006f3565b6200015e6000826001600160e01b03620001c416565b620001866000620001776001600160e01b036200018e16565b6001600160e01b036200022516565b5050620007ec565b6000620001a56200028060201b6200168f1760201c565b90505b90565b620001c082826001600160e01b036200031d16565b5050565b600082815260016020526040902060020154620001fd90620001ee6001600160e01b036200018e16565b6001600160e01b03620003a116565b620001ab5760405162461bcd60e51b81526004016200021c906200074e565b60405180910390fd5b620002386001600160e01b036200018e16565b6001600160a01b0316816001600160a01b0316146200026b5760405162461bcd60e51b81526004016200021c906200079d565b620001c082826001600160e01b03620003d016565b600060183610801590620002b75750620002a26001600160e01b036200045416565b6001600160a01b0316336001600160a01b0316145b156200031857620003106000368080601f01602080910402602001604051908101604052809392919081815260200183838082843760009201919091525050366013190191505062000463602090811b6200179c17901c565b9050620001a8565b503390565b60008281526001602090815260409091206200034491839062001711620004b6821b17901c565b15620001c0576200035d6001600160e01b036200018e16565b6001600160a01b0316816001600160a01b0316837f2f8788117e7eff1d82e926ec794901d17c78024a50270940304540a733656f0d60405160405180910390a45050565b60008281526001602090815260408220620003c79184906200166f620004d6821b17901c565b90505b92915050565b6000828152600160209081526040909120620003f791839062001726620004f6821b17901c565b15620001c057620004106001600160e01b036200018e16565b6001600160a01b0316816001600160a01b0316837ff6391f5c32d9c69d2a47ea670b442974b53935d1edc7fd64eb21e047a839171b60405160405180910390a45050565b6002546001600160a01b031690565b60008160140183511015620004a457620004a46200049360048551856014016200051660201b620018e41760201c565b6200057260201b6200193e1760201c565b5001601401516001600160a01b031690565b6000620003c7836001600160a01b0384166001600160e01b036200057a16565b6000620003c7836001600160a01b0384166001600160e01b03620005d216565b6000620003c7836001600160a01b0384166001600160e01b03620005ea16565b6060632800659560e01b84848460405160240162000537939291906200072b565b60408051601f198184030181529190526020810180516001600160e01b03166001600160e01b03199093169290921790915290509392505050565b805160208201fd5b60006200059183836001600160e01b03620005d216565b620005c957508154600181810184556000848152602080822090930184905584548482528286019093526040902091909155620003ca565b506000620003ca565b60009081526001919091016020526040902054151590565b60008181526001830160205260408120548015620006ab57835460001980830191908101906000908790839081106200061f57fe5b90600052602060002001549050808760000184815481106200063d57fe5b6000918252602080832090910192909255828152600189810190925260409020908401905586548790806200066e57fe5b60019003818190600052602060002001600090559055866001016000878152602001908152602001600020600090556001945050505050620003ca565b6000915050620003ca565b60008060408385031215620006c9578182fd5b825160208401519092506001600160a01b0381168114620006e8578182fd5b809150509250929050565b6e524541445f53434f52455f524f4c4560881b8152600f0190565b704d4f444946595f53434f52455f524f4c4560781b815260110190565b60608101600885106200073a57fe5b938152602081019290925260409091015290565b6020808252602f908201527f416363657373436f6e74726f6c3a2073656e646572206d75737420626520616e60408201526e0818591b5a5b881d1bc819dc985b9d608a1b606082015260800190565b6020808252602f908201527f416363657373436f6e74726f6c3a2063616e206f6e6c792072656e6f756e636560408201526e103937b632b9903337b91039b2b63360891b606082015260800190565b61235580620007fc6000396000f3fe608060405234801561001057600080fd5b50600436106101cd5760003560e01c806306fdde03146101d257806318a9e948146101f05780631b99219f14610205578063222baa3a1461020d578063248a9ca314610215578063295869be146102285780632f2ff15d1461023b57806331fb5fde1461024e57806336568abe146102615780635227c670146102745780635bfd3b7d146102875780636542c1591461029a57806368651350146102ba578063715018a6146102cd5780637206f3d6146102d55780637a6c8b53146102dd57806380274db7146102f25780638257770b14610305578063898855ed146103185780638da5cb5b1461032b5780639010d07c1461033357806391d14854146103465780639fcb17de14610366578063a217fddf14610379578063a880941014610381578063aa4f38c714610394578063ae12894e146103a7578063b1ed031f146103af578063ba6019d3146103c2578063be22f546146103d5578063ca15c873146103dd578063ce1b815f146103f0578063d547741f146103f8578063db4d5e871461040b578063dc0985dd1461041e578063efedc66914610431578063f2fde38b14610446578063fbfbd0f214610459578063fd5bf30a1461046c575b600080fd5b6101da61047f565b6040516101e79190611e98565b60405180910390f35b6102036101fe3660046119b1565b610485565b005b6101da6104ae565b6102036104c5565b6101da610223366004611b32565b610551565b6102036102363660046119e9565b610566565b610203610249366004611b4a565b610622565b61020361025c3660046119b1565b610666565b61020361026f366004611b4a565b6107f9565b6101da6102823660046119b1565b61083b565b610203610295366004611a61565b6109fa565b6102ad6102a83660046119b1565b610a99565b6040516101e79190611ea1565b6102036102c8366004611c4f565b610b53565b610203610be1565b6101da610c4e565b6102e5610c5a565b6040516101e79190611df3565b6101da610300366004611b8f565b610c6a565b6102e5610313366004611b32565b610c72565b610203610326366004611b32565b610c99565b6102e5610d0e565b6102e5610341366004611b6e565b610d1d565b610359610354366004611b4a565b610d3b565b6040516101e79190611e8d565b610203610374366004611a21565b610d59565b6101da610df3565b61020361038f366004611a8c565b610df8565b6102036103a2366004611c4f565b610ec7565b6102e5610f44565b6102ad6103bd366004611d04565b610f53565b6102036103d0366004611a21565b610fcd565b6102e5611082565b6101da6103eb366004611b32565b611098565b6102e56110af565b610203610406366004611b4a565b6110be565b6102036104193660046119e9565b6110f8565b61020361042c3660046119e9565b611159565b61043961135d565b6040516101e79190611ed6565b6102036104543660046119b1565b611394565b610203610467366004611bce565b610a91565b6102e561047a3660046119b1565b611438565b60035481565b6104a260405161049490611dbb565b604051809103902082610622565b6104ab81611394565b50565b6040516104ba90611dbb565b604051809103902081565b60005b6005548110156104ab576104da61157b565b6001600160a01b0316600582815481106104f057fe5b6000918252602090912001546001600160a01b031614156105495760006005828154811061051a57fe5b9060005260206000200160006101000a8154816001600160a01b0302191690836001600160a01b031602179055505b6001016104c8565b60009081526001602052604090206002015490565b61056e61157b565b6000546001600160a01b039081169116146105a45760405162461bcd60e51b815260040161059b90612128565b60405180910390fd5b61061e826001600160a01b0316636e8055a76040518163ffffffff1660e01b815260040160206040518083038186803b1580156105e057600080fd5b505afa1580156105f4573d6000803e3d6000fd5b505050506040513d601f19601f8201168201806040525081019061061891906119cd565b826110f8565b5050565b6000828152600160205260409020600201546106409061035461157b565b61065c5760405162461bcd60e51b815260040161059b90611f26565b61061e8282611585565b61066e61157b565b6000546001600160a01b0390811691161461069b5760405162461bcd60e51b815260040161059b90612128565b600480546040516385dade6160e01b81526001600160a01b03909116916385dade61916106ca91859101611df3565b60206040518083038186803b1580156106e257600080fd5b505afa1580156106f6573d6000803e3d6000fd5b505050506040513d601f19601f8201168201806040525081019061071a9190611b16565b6107365760405162461bcd60e51b815260040161059b9061222c565b61075360405161074590611dbb565b60405180910390208261065c565b806001600160a01b0316631b9dbc606040518163ffffffff1660e01b8152600401600060405180830381600087803b15801561078e57600080fd5b505af11580156107a2573d6000803e3d6000fd5b5050600580546001810182556000919091527f036b6384b5eca791c62761152d0c79bb0604c104a5fb6f4eb0703f3154bb3db00180546001600160a01b0319166001600160a01b0394909416939093179092555050565b61080161157b565b6001600160a01b0316816001600160a01b0316146108315760405162461bcd60e51b815260040161059b906121dd565b61061e82826115f4565b600061084561157b565b6000546001600160a01b039081169116146108725760405162461bcd60e51b815260040161059b90612128565b600480546040516385dade6160e01b81526001600160a01b03909116916385dade61916108a191869101611df3565b60206040518083038186803b1580156108b957600080fd5b505afa1580156108cd573d6000803e3d6000fd5b505050506040513d601f19601f820116820180604052508101906108f19190611b16565b61090d5760405162461bcd60e51b815260040161059b9061222c565b6000826001600160a01b0316636e8055a76040518163ffffffff1660e01b815260040160206040518083038186803b15801561094857600080fd5b505afa15801561095c573d6000803e3d6000fd5b505050506040513d601f19601f8201168201806040525081019061098091906119cd565b9050806001600160a01b0316636587b61e6040518163ffffffff1660e01b815260040160206040518083038186803b1580156109bb57600080fd5b505afa1580156109cf573d6000803e3d6000fd5b505050506040513d601f19601f820116820180604052508101906109f39190611d77565b9392505050565b610a0261157b565b6000546001600160a01b03908116911614610a2f5760405162461bcd60e51b815260040161059b90612128565b610a3882611438565b6001600160a01b0316631a16e41f826040518263ffffffff1660e01b8152600401610a639190611e98565b600060405180830381600087803b158015610a7d57600080fd5b505af1158015610a91573d6000803e3d6000fd5b505050505050565b6060610aa361157b565b6000546001600160a01b03908116911614610ad05760405162461bcd60e51b815260040161059b90612128565b610ad982611438565b6001600160a01b03166337edd7e76040518163ffffffff1660e01b815260040160006040518083038186803b158015610b1157600080fd5b505afa158015610b25573d6000803e3d6000fd5b505050506040513d6000823e601f3d908101601f19168201604052610b4d9190810190611c6a565b92915050565b610b72604051610b6290611dd6565b604051809103902061035461157b565b610b8e5760405162461bcd60e51b815260040161059b90611f63565b600654600390810b828103820b910b13610bba5760405162461bcd60e51b815260040161059b906120f2565b60068054600381810b9390930390920b63ffffffff1663ffffffff19909216919091179055565b610be961157b565b6000546001600160a01b03908116911614610c165760405162461bcd60e51b815260040161059b90612128565b600080546040516001600160a01b03909116906000805160206122e0833981519152908390a3600080546001600160a01b0319169055565b6040516104ba90611dd6565b6000610c64610d0e565b90505b90565b600092915050565b60058181548110610c7f57fe5b6000918252602090912001546001600160a01b0316905081565b610ca161157b565b6000546001600160a01b03908116911614610cce5760405162461bcd60e51b815260040161059b90612128565b60038190556040517f9f8929be552430dd6434c446d106c34954b2040ca8c4dbf42a39323dd6cda3ca90610d03908390611e98565b60405180910390a150565b6000546001600160a01b031690565b60008281526001602052604081206109f3908363ffffffff61166316565b60008281526001602052604081206109f3908363ffffffff61166f16565b610d6161157b565b6000546001600160a01b03908116911614610d8e5760405162461bcd60e51b815260040161059b90612128565b604051631ed85fe960e11b81526001600160a01b03841690633db0bfd290610dbc9085908590600401611e74565b600060405180830381600087803b158015610dd657600080fd5b505af1158015610dea573d6000803e3d6000fd5b50505050505050565b600081565b610e0061157b565b6000546001600160a01b03908116911614610e2d5760405162461bcd60e51b815260040161059b90612128565b60048054604051630ffab82160e31b81526001600160a01b0390911691637fd5c10891610e6a918c918c918c918c918c918c918c918c9101611e07565b602060405180830381600087803b158015610e8457600080fd5b505af1158015610e98573d6000803e3d6000fd5b505050506040513d601f19601f82011682018060405250810190610ebc91906119cd565b505050505050505050565b610ed6604051610b6290611dd6565b610ef25760405162461bcd60e51b815260040161059b90611f63565b600654600390810b808301820b910b12610f1e5760405162461bcd60e51b815260040161059b906121a6565b60068054600381810b90930190920b63ffffffff1663ffffffff19909216919091179055565b6004546001600160a01b031681565b6060610f5d610d0e565b6001600160a01b0316610f6e61157b565b6001600160a01b031614610f945760405162461bcd60e51b815260040161059b9061215d565b610fa160208601866119b1565b6000604051602001610fb4929190611e58565b6040516020818303038152906040529050949350505050565b610fd561157b565b6000546001600160a01b039081169116146110025760405162461bcd60e51b815260040161059b90612128565b61107d836001600160a01b0316636e8055a76040518163ffffffff1660e01b815260040160206040518083038186803b15801561103e57600080fd5b505afa158015611052573d6000803e3d6000fd5b505050506040513d601f19601f8201168201806040525081019061107691906119cd565b8383610d59565b505050565b600654600160201b90046001600160a01b031681565b6000818152600160205260408120610b4d90611684565b6002546001600160a01b031690565b6000828152600160205260409020600201546110dc9061035461157b565b6108315760405162461bcd60e51b815260040161059b906120b4565b61110061157b565b6000546001600160a01b0390811691161461112d5760405162461bcd60e51b815260040161059b90612128565b60405163334cad2360e11b81526001600160a01b038316906366995a4690610a63908490600401611df3565b61116161157b565b6000546001600160a01b0390811691161461118e5760405162461bcd60e51b815260040161059b90612128565b306001600160a01b0316816001600160a01b031663b8f31a816040518163ffffffff1660e01b815260040160206040518083038186803b1580156111d157600080fd5b505afa1580156111e5573d6000803e3d6000fd5b505050506040513d601f19601f8201168201806040525081019061120991906119cd565b6001600160a01b03161461122f5760405162461bcd60e51b815260040161059b90612026565b6000816001600160a01b031663f745adfc6040518163ffffffff1660e01b815260040160206040518083038186803b15801561126a57600080fd5b505afa15801561127e573d6000803e3d6000fd5b505050506040513d601f19601f820116820180604052508101906112a29190611d77565b90506112c16040516112b390611dbb565b60405180910390208461065c565b60405163077f319d60e51b81526001600160a01b0384169063efe633a0906112ef9084908690600401612275565b602060405180830381600087803b15801561130957600080fd5b505af115801561131d573d6000803e3d6000fd5b505050506040513d601f19601f820116820180604052508101906113419190611b16565b61107d5760405162461bcd60e51b815260040161059b90611ff7565b600061136e604051610b6290611dbb565b61138a5760405162461bcd60e51b815260040161059b90612068565b5060065460030b90565b61139c61157b565b6000546001600160a01b039081169116146113c95760405162461bcd60e51b815260040161059b90612128565b6001600160a01b0381166113ef5760405162461bcd60e51b815260040161059b90611fb1565b600080546040516001600160a01b03808516939216916000805160206122e083398151915291a3600080546001600160a01b0319166001600160a01b0392909216919091179055565b600061144261157b565b6000546001600160a01b0390811691161461146f5760405162461bcd60e51b815260040161059b90612128565b600480546040516385dade6160e01b81526001600160a01b03909116916385dade619161149e91869101611df3565b60206040518083038186803b1580156114b657600080fd5b505afa1580156114ca573d6000803e3d6000fd5b505050506040513d601f19601f820116820180604052508101906114ee9190611b16565b61150a5760405162461bcd60e51b815260040161059b9061222c565b816001600160a01b0316636e8055a76040518163ffffffff1660e01b815260040160206040518083038186803b15801561154357600080fd5b505afa158015611557573d6000803e3d6000fd5b505050506040513d601f19601f82011682018060405250810190610b4d91906119cd565b6000610c6461168f565b60008281526001602052604090206115a3908263ffffffff61171116565b1561061e576115b061157b565b6001600160a01b0316816001600160a01b0316837f2f8788117e7eff1d82e926ec794901d17c78024a50270940304540a733656f0d60405160405180910390a45050565b6000828152600160205260409020611612908263ffffffff61172616565b1561061e5761161f61157b565b6001600160a01b0316816001600160a01b0316837ff6391f5c32d9c69d2a47ea670b442974b53935d1edc7fd64eb21e047a839171b60405160405180910390a45050565b60006109f3838361173b565b60006109f3836001600160a01b038416611780565b6000610b4d82611798565b6000601836108015906116ba57506116a56110af565b6001600160a01b0316336001600160a01b0316145b1561170c576117056000368080601f016020809104026020016040519081016040528093929190818152602001838380828437600092019190915250506013193601915061179c9050565b9050610c67565b503390565b60006109f3836001600160a01b0384166117d4565b60006109f3836001600160a01b03841661181e565b8154600090821061175e5760405162461bcd60e51b815260040161059b90611ee4565b82600001828154811061176d57fe5b9060005260206000200154905092915050565b60009081526001919091016020526040902054151590565b5490565b600081601401835110156117c2576117c26117bd60048551856014016118e4565b61193e565b5001601401516001600160a01b031690565b60006117e08383611780565b61181657508154600181810184556000848152602080822090930184905584548482528286019093526040902091909155610b4d565b506000610b4d565b600081815260018301602052604081205480156118da578354600019808301919081019060009087908390811061185157fe5b906000526020600020015490508087600001848154811061186e57fe5b60009182526020808320909101929092558281526001898101909252604090209084019055865487908061189e57fe5b60019003818190600052602060002001600090559055866001016000878152602001908152602001600020600090556001945050505050610b4d565b6000915050610b4d565b6060632800659560e01b84848460405160240161190393929190611eb4565b60408051601f198184030181529190526020810180516001600160e01b03166001600160e01b03199093169290921790915290509392505050565b805160208201fd5b60008083601f840112611957578182fd5b5081356001600160401b0381111561196d578182fd5b60208301915083602082850101111561198557600080fd5b9250929050565b8035600381900b8114610b4d57600080fd5b803562ffffff81168114610b4d57600080fd5b6000602082840312156119c2578081fd5b81356109f3816122bc565b6000602082840312156119de578081fd5b81516109f3816122bc565b600080604083850312156119fb578081fd5b8235611a06816122bc565b91506020830135611a16816122bc565b809150509250929050565b600080600060608486031215611a35578081fd5b8335611a40816122bc565b92506020840135611a50816122bc565b929592945050506040919091013590565b60008060408385031215611a73578182fd5b8235611a7e816122bc565b946020939093013593505050565b600080600080600080600080610100898b031215611aa8578384fd5b8835611ab3816122bc565b975060208901359650611ac98a60408b0161199e565b9550611ad88a60608b0161199e565b9450611ae78a60808b0161198c565b935060a0890135925060c0890135915060e0890135611b05816122bc565b809150509295985092959890939650565b600060208284031215611b27578081fd5b81516109f3816122d1565b600060208284031215611b43578081fd5b5035919050565b60008060408385031215611b5c578182fd5b823591506020830135611a16816122bc565b60008060408385031215611b80578182fd5b50508035926020909101359150565b60008060208385031215611ba1578182fd5b82356001600160401b03811115611bb6578283fd5b611bc285828601611946565b90969095509350505050565b600080600080600080868803610100811215611be8578485fd5b87356001600160401b03811115611bfd578586fd5b611c098a828b01611946565b9098509650506020880135611c1d816122d1565b945060408801359350606088013592506080607f1982011215611c3e578182fd5b506080870190509295509295509295565b600060208284031215611c60578081fd5b6109f3838361198c565b600060208284031215611c7b578081fd5b81516001600160401b0380821115611c91578283fd5b81840185601f820112611ca2578384fd5b8051925081831115611cb2578384fd5b604051601f8401601f191681016020018381118282101715611cd2578586fd5b604052838152818401602001871015611ce9578485fd5b611cfa84602083016020850161228c565b9695505050505050565b60008060008060608587031215611d19578182fd5b84356001600160401b0380821115611d2f578384fd5b818701610140818a031215611d42578485fd5b95506020870135915080821115611d57578384fd5b50611d6487828801611946565b9598909750949560400135949350505050565b600060208284031215611d88578081fd5b5051919050565b60008151808452611da781602086016020860161228c565b601f01601f19169290920160200192915050565b6e524541445f53434f52455f524f4c4560881b8152600f0190565b704d4f444946595f53434f52455f524f4c4560781b815260110190565b6001600160a01b0391909116815260200190565b6001600160a01b039889168152602081019790975262ffffff958616604088015293909416606086015260039190910b608085015260a084015260c083019190915290911660e08201526101000190565b6001600160a01b0392909216825260ff16602082015260400190565b6001600160a01b03929092168252602082015260400190565b901515815260200190565b90815260200190565b6000602082526109f36020830184611d8f565b6060810160088510611ec257fe5b938152602081019290925260409091015290565b60039190910b815260200190565b60208082526022908201527f456e756d657261626c655365743a20696e646578206f7574206f6620626f756e604082015261647360f01b606082015260800190565b6020808252602f9082015260008051602061230083398151915260408201526e0818591b5a5b881d1bc819dc985b9d608a1b606082015260800190565b6020808252602e908201527f53747564656e743a2063616c6c657220646f65736e27742068617665204d4f4460408201526d4946595f53434f52455f524f4c4560901b606082015260800190565b60208082526026908201527f4f776e61626c653a206e6577206f776e657220697320746865207a65726f206160408201526564647265737360d01b606082015260800190565b60208082526015908201527414dd1d59195b9d0e8819dc985b9d0819195b9a5959605a1b604082015260600190565b60208082526022908201527f53747564656e743a2077726f6e67206170706c69636174696f6e206164647265604082015261737360f01b606082015260800190565b6020808252602c908201527f53747564656e743a2063616c6c657220646f65736e277420686176652052454160408201526b445f53434f52455f524f4c4560a01b606082015260800190565b602080825260309082015260008051602061230083398151915260408201526f2061646d696e20746f207265766f6b6560801b606082015260800190565b6020808252601c908201527b53747564656e743a2062616420677261646573206f766572666c6f7760201b604082015260600190565b6020808252818101527f4f776e61626c653a2063616c6c6572206973206e6f7420746865206f776e6572604082015260600190565b60208082526029908201527f53747564656e743a2047534e20656e61626c6564206f6e6c7920666f7220746860408201526819481cdd1d59195b9d60ba1b606082015260800190565b6020808252601d908201527f53747564656e743a20676f6f6420677261646573206f766572666c6f77000000604082015260600190565b6020808252602f908201527f416363657373436f6e74726f6c3a2063616e206f6e6c792072656e6f756e636560408201526e103937b632b9903337b91039b2b63360891b606082015260800190565b60208082526029908201527f53747564656e743a2061646472657373206973206e6f7420612076616c696420604082015268636c617373726f6f6d60b81b606082015260800190565b9182526001600160a01b0316602082015260400190565b60005b838110156122a757818101518382015260200161228f565b838111156122b6576000848401525b50505050565b6001600160a01b03811681146104ab57600080fd5b80151581146104ab57600080fdfe8be0079c531659141344cd1fd0a4f28419497f9722a3daafe3b4186f6b6457e0416363657373436f6e74726f6c3a2073656e646572206d75737420626520616ea2646970667358221220da7f51b3af71803863a25a8e45d2729436284b292e948eec0a77a7333049e04e64736f6c63430006060033a264697066735822122083a8f63154e5b614c0c1f8cdbc66b9301e72c8282a36ee1e3a6ac0a556b773d364736f6c63430006060033",
  "immutableReferences": {},
  "source": "pragma solidity ^0.6.6;\n\nimport \"./interface/IStudentFactory.sol\";\nimport \"./Student.sol\";\n\ncontract StudentFactory is IStudentFactory {\n\n    function newStudent(bytes32 name, address payable university) public override returns (address studentAddress) {\n        Student student = new Student(name, university);\n        student.transferOwnership(msg.sender);\n        studentAddress = address(student);\n    }\n    \n}",
  "sourcePath": "/mnt/e/Repositories/Uproot/contracts/StudentFactory.sol",
  "compiler": {
    "name": "solc",
    "version": "0.6.6+commit.6c089d02.Emscripten.clang"
  },
  "schemaVersion": "3.1.0",
  "updatedAt": "2020-05-19T16:40:05.684Z",
  "networkType": "ethereum",
  "devdoc": {
    "methods": {}
  },
  "userdoc": {
    "methods": {}
  }
}