{
  "contractName": "University",
  "abi": [
    {
      "inputs": [
        {
          "internalType": "bytes32",
          "name": "name_",
          "type": "bytes32"
        },
        {
          "internalType": "uint24",
          "name": "cut_",
          "type": "uint24"
        },
        {
          "internalType": "uint256",
          "name": "studentGSNDeposit",
          "type": "uint256"
        },
        {
          "internalType": "address",
          "name": "daiAddress",
          "type": "address"
        },
        {
          "internalType": "address",
          "name": "compoundDai",
          "type": "address"
        },
        {
          "internalType": "address",
          "name": "relayHubAddress",
          "type": "address"
        },
        {
          "internalType": "address",
          "name": "classroomFactoryAddress",
          "type": "address"
        },
        {
          "internalType": "address",
          "name": "studentFactoryAddress",
          "type": "address"
        },
        {
          "internalType": "address",
          "name": "studentApplicationFactoryAddress",
          "type": "address"
        }
      ],
      "stateMutability": "nonpayable",
      "type": "constructor"
    },
    {
      "anonymous": false,
      "inputs": [
        {
          "indexed": false,
          "internalType": "uint24",
          "name": "",
          "type": "uint24"
        }
      ],
      "name": "LogChangeCut",
      "type": "event"
    },
    {
      "anonymous": false,
      "inputs": [
        {
          "indexed": false,
          "internalType": "bytes32",
          "name": "",
          "type": "bytes32"
        }
      ],
      "name": "LogChangeName",
      "type": "event"
    },
    {
      "anonymous": false,
      "inputs": [
        {
          "indexed": false,
          "internalType": "address",
          "name": "",
          "type": "address"
        },
        {
          "indexed": false,
          "internalType": "uint256",
          "name": "",
          "type": "uint256"
        }
      ],
      "name": "LogDonation",
      "type": "event"
    },
    {
      "anonymous": false,
      "inputs": [
        {
          "indexed": false,
          "internalType": "bytes32",
          "name": "",
          "type": "bytes32"
        },
        {
          "indexed": false,
          "internalType": "address",
          "name": "",
          "type": "address"
        }
      ],
      "name": "LogNewClassroom",
      "type": "event"
    },
    {
      "anonymous": false,
      "inputs": [
        {
          "indexed": false,
          "internalType": "bytes32",
          "name": "",
          "type": "bytes32"
        },
        {
          "indexed": false,
          "internalType": "address",
          "name": "",
          "type": "address"
        }
      ],
      "name": "LogNewStudent",
      "type": "event"
    },
    {
      "anonymous": false,
      "inputs": [
        {
          "indexed": false,
          "internalType": "address",
          "name": "",
          "type": "address"
        },
        {
          "indexed": false,
          "internalType": "uint256",
          "name": "",
          "type": "uint256"
        }
      ],
      "name": "LogReceived",
      "type": "event"
    },
    {
      "anonymous": false,
      "inputs": [
        {
          "indexed": false,
          "internalType": "address",
          "name": "",
          "type": "address"
        },
        {
          "indexed": false,
          "internalType": "uint256",
          "name": "",
          "type": "uint256"
        }
      ],
      "name": "LogReturn",
      "type": "event"
    },
    {
      "anonymous": false,
      "inputs": [
        {
          "indexed": false,
          "internalType": "address",
          "name": "",
          "type": "address"
        },
        {
          "indexed": false,
          "internalType": "uint256",
          "name": "",
          "type": "uint256"
        }
      ],
      "name": "LogRevenue",
      "type": "event"
    },
    {
      "anonymous": false,
      "inputs": [
        {
          "indexed": true,
          "internalType": "address",
          "name": "previousOwner",
          "type": "address"
        },
        {
          "indexed": true,
          "internalType": "address",
          "name": "newOwner",
          "type": "address"
        }
      ],
      "name": "OwnershipTransferred",
      "type": "event"
    },
    {
      "anonymous": false,
      "inputs": [
        {
          "indexed": true,
          "internalType": "bytes32",
          "name": "role",
          "type": "bytes32"
        },
        {
          "indexed": true,
          "internalType": "address",
          "name": "account",
          "type": "address"
        },
        {
          "indexed": true,
          "internalType": "address",
          "name": "sender",
          "type": "address"
        }
      ],
      "name": "RoleGranted",
      "type": "event"
    },
    {
      "anonymous": false,
      "inputs": [
        {
          "indexed": true,
          "internalType": "bytes32",
          "name": "role",
          "type": "bytes32"
        },
        {
          "indexed": true,
          "internalType": "address",
          "name": "account",
          "type": "address"
        },
        {
          "indexed": true,
          "internalType": "address",
          "name": "sender",
          "type": "address"
        }
      ],
      "name": "RoleRevoked",
      "type": "event"
    },
    {
      "inputs": [],
      "name": "CLASSLIST_ADMIN_ROLE",
      "outputs": [
        {
          "internalType": "bytes32",
          "name": "",
          "type": "bytes32"
        }
      ],
      "stateMutability": "view",
      "type": "function"
    },
    {
      "inputs": [],
      "name": "CLASSROOM_PROFESSOR_ROLE",
      "outputs": [
        {
          "internalType": "bytes32",
          "name": "",
          "type": "bytes32"
        }
      ],
      "stateMutability": "view",
      "type": "function"
    },
    {
      "inputs": [],
      "name": "DEFAULT_ADMIN_ROLE",
      "outputs": [
        {
          "internalType": "bytes32",
          "name": "",
          "type": "bytes32"
        }
      ],
      "stateMutability": "view",
      "type": "function"
    },
    {
      "inputs": [],
      "name": "FUNDS_MANAGER_ROLE",
      "outputs": [
        {
          "internalType": "bytes32",
          "name": "",
          "type": "bytes32"
        }
      ],
      "stateMutability": "view",
      "type": "function"
    },
    {
      "inputs": [],
      "name": "GRANTS_MANAGER_ROLE",
      "outputs": [
        {
          "internalType": "bytes32",
          "name": "",
          "type": "bytes32"
        }
      ],
      "stateMutability": "view",
      "type": "function"
    },
    {
      "inputs": [],
      "name": "READ_STUDENT_LIST_ROLE",
      "outputs": [
        {
          "internalType": "bytes32",
          "name": "",
          "type": "bytes32"
        }
      ],
      "stateMutability": "view",
      "type": "function"
    },
    {
      "inputs": [],
      "name": "REGISTERED_SUPPLIER_ROLE",
      "outputs": [
        {
          "internalType": "bytes32",
          "name": "",
          "type": "bytes32"
        }
      ],
      "stateMutability": "view",
      "type": "function"
    },
    {
      "inputs": [],
      "name": "STUDENT_IDENTITY_ROLE",
      "outputs": [
        {
          "internalType": "bytes32",
          "name": "",
          "type": "bytes32"
        }
      ],
      "stateMutability": "view",
      "type": "function"
    },
    {
      "inputs": [],
      "name": "UNIVERSITY_OVERSEER_ROLE",
      "outputs": [
        {
          "internalType": "bytes32",
          "name": "",
          "type": "bytes32"
        }
      ],
      "stateMutability": "view",
      "type": "function"
    },
    {
      "inputs": [],
      "name": "cDAI",
      "outputs": [
        {
          "internalType": "address",
          "name": "",
          "type": "address"
        }
      ],
      "stateMutability": "view",
      "type": "function"
    },
    {
      "inputs": [],
      "name": "cut",
      "outputs": [
        {
          "internalType": "uint24",
          "name": "",
          "type": "uint24"
        }
      ],
      "stateMutability": "view",
      "type": "function"
    },
    {
      "inputs": [],
      "name": "daiToken",
      "outputs": [
        {
          "internalType": "address",
          "name": "",
          "type": "address"
        }
      ],
      "stateMutability": "view",
      "type": "function"
    },
    {
      "inputs": [],
      "name": "donationsReceived",
      "outputs": [
        {
          "internalType": "uint256",
          "name": "",
          "type": "uint256"
        }
      ],
      "stateMutability": "view",
      "type": "function"
    },
    {
      "inputs": [
        {
          "internalType": "address",
          "name": "",
          "type": "address"
        }
      ],
      "name": "donators",
      "outputs": [
        {
          "internalType": "uint256",
          "name": "",
          "type": "uint256"
        }
      ],
      "stateMutability": "view",
      "type": "function"
    },
    {
      "inputs": [],
      "name": "endowmentLocked",
      "outputs": [
        {
          "internalType": "uint256",
          "name": "",
          "type": "uint256"
        }
      ],
      "stateMutability": "view",
      "type": "function"
    },
    {
      "inputs": [
        {
          "internalType": "bytes32",
          "name": "role",
          "type": "bytes32"
        }
      ],
      "name": "getRoleAdmin",
      "outputs": [
        {
          "internalType": "bytes32",
          "name": "",
          "type": "bytes32"
        }
      ],
      "stateMutability": "view",
      "type": "function"
    },
    {
      "inputs": [
        {
          "internalType": "bytes32",
          "name": "role",
          "type": "bytes32"
        },
        {
          "internalType": "uint256",
          "name": "index",
          "type": "uint256"
        }
      ],
      "name": "getRoleMember",
      "outputs": [
        {
          "internalType": "address",
          "name": "",
          "type": "address"
        }
      ],
      "stateMutability": "view",
      "type": "function"
    },
    {
      "inputs": [
        {
          "internalType": "bytes32",
          "name": "role",
          "type": "bytes32"
        }
      ],
      "name": "getRoleMemberCount",
      "outputs": [
        {
          "internalType": "uint256",
          "name": "",
          "type": "uint256"
        }
      ],
      "stateMutability": "view",
      "type": "function"
    },
    {
      "inputs": [],
      "name": "getTrustedForwarder",
      "outputs": [
        {
          "internalType": "address",
          "name": "",
          "type": "address"
        }
      ],
      "stateMutability": "view",
      "type": "function"
    },
    {
      "inputs": [
        {
          "internalType": "bytes32",
          "name": "role",
          "type": "bytes32"
        },
        {
          "internalType": "address",
          "name": "account",
          "type": "address"
        }
      ],
      "name": "grantRole",
      "outputs": [],
      "stateMutability": "nonpayable",
      "type": "function"
    },
    {
      "inputs": [
        {
          "internalType": "bytes32",
          "name": "role",
          "type": "bytes32"
        },
        {
          "internalType": "address",
          "name": "account",
          "type": "address"
        }
      ],
      "name": "hasRole",
      "outputs": [
        {
          "internalType": "bool",
          "name": "",
          "type": "bool"
        }
      ],
      "stateMutability": "view",
      "type": "function"
    },
    {
      "inputs": [],
      "name": "name",
      "outputs": [
        {
          "internalType": "bytes32",
          "name": "",
          "type": "bytes32"
        }
      ],
      "stateMutability": "view",
      "type": "function"
    },
    {
      "inputs": [],
      "name": "operationalBudget",
      "outputs": [
        {
          "internalType": "uint256",
          "name": "",
          "type": "uint256"
        }
      ],
      "stateMutability": "view",
      "type": "function"
    },
    {
      "inputs": [],
      "name": "owner",
      "outputs": [
        {
          "internalType": "address",
          "name": "",
          "type": "address"
        }
      ],
      "stateMutability": "view",
      "type": "function"
    },
    {
      "inputs": [],
      "name": "relayHub",
      "outputs": [
        {
          "internalType": "contract IRelayHub",
          "name": "",
          "type": "address"
        }
      ],
      "stateMutability": "view",
      "type": "function"
    },
    {
      "inputs": [],
      "name": "renounceOwnership",
      "outputs": [],
      "stateMutability": "nonpayable",
      "type": "function"
    },
    {
      "inputs": [
        {
          "internalType": "bytes32",
          "name": "role",
          "type": "bytes32"
        },
        {
          "internalType": "address",
          "name": "account",
          "type": "address"
        }
      ],
      "name": "renounceRole",
      "outputs": [],
      "stateMutability": "nonpayable",
      "type": "function"
    },
    {
      "inputs": [],
      "name": "returnsReceived",
      "outputs": [
        {
          "internalType": "uint256",
          "name": "",
          "type": "uint256"
        }
      ],
      "stateMutability": "view",
      "type": "function"
    },
    {
      "inputs": [],
      "name": "revenueReceived",
      "outputs": [
        {
          "internalType": "uint256",
          "name": "",
          "type": "uint256"
        }
      ],
      "stateMutability": "view",
      "type": "function"
    },
    {
      "inputs": [
        {
          "internalType": "bytes32",
          "name": "role",
          "type": "bytes32"
        },
        {
          "internalType": "address",
          "name": "account",
          "type": "address"
        }
      ],
      "name": "revokeRole",
      "outputs": [],
      "stateMutability": "nonpayable",
      "type": "function"
    },
    {
      "inputs": [
        {
          "internalType": "address",
          "name": "newOwner",
          "type": "address"
        }
      ],
      "name": "transferOwnership",
      "outputs": [],
      "stateMutability": "nonpayable",
      "type": "function"
    },
    {
      "inputs": [],
      "name": "universityFund",
      "outputs": [
        {
          "internalType": "address",
          "name": "",
          "type": "address"
        }
      ],
      "stateMutability": "view",
      "type": "function"
    },
    {
      "stateMutability": "payable",
      "type": "receive"
    },
    {
      "inputs": [
        {
          "internalType": "uint256",
          "name": "val",
          "type": "uint256"
        }
      ],
      "name": "withdraw",
      "outputs": [],
      "stateMutability": "nonpayable",
      "type": "function"
    },
    {
      "inputs": [
        {
          "internalType": "address",
          "name": "addr",
          "type": "address"
        }
      ],
      "name": "attachFund",
      "outputs": [],
      "stateMutability": "nonpayable",
      "type": "function"
    },
    {
      "inputs": [
        {
          "internalType": "bytes32",
          "name": "val",
          "type": "bytes32"
        }
      ],
      "name": "changeName",
      "outputs": [],
      "stateMutability": "nonpayable",
      "type": "function"
    },
    {
      "inputs": [
        {
          "internalType": "uint24",
          "name": "val",
          "type": "uint24"
        }
      ],
      "name": "changeCut",
      "outputs": [],
      "stateMutability": "nonpayable",
      "type": "function"
    },
    {
      "inputs": [
        {
          "internalType": "uint256",
          "name": "val",
          "type": "uint256"
        }
      ],
      "name": "changeStudentGSNDeposit",
      "outputs": [],
      "stateMutability": "nonpayable",
      "type": "function"
    },
    {
      "inputs": [],
      "name": "availableFundsForInvestment",
      "outputs": [
        {
          "internalType": "uint256",
          "name": "",
          "type": "uint256"
        }
      ],
      "stateMutability": "view",
      "type": "function"
    },
    {
      "inputs": [],
      "name": "availableFunds",
      "outputs": [
        {
          "internalType": "uint256",
          "name": "",
          "type": "uint256"
        }
      ],
      "stateMutability": "view",
      "type": "function"
    },
    {
      "inputs": [
        {
          "internalType": "address",
          "name": "classroom",
          "type": "address"
        }
      ],
      "name": "isValidClassroom",
      "outputs": [
        {
          "internalType": "bool",
          "name": "",
          "type": "bool"
        }
      ],
      "stateMutability": "view",
      "type": "function"
    },
    {
      "inputs": [
        {
          "internalType": "address",
          "name": "student",
          "type": "address"
        }
      ],
      "name": "studentIsRegistered",
      "outputs": [
        {
          "internalType": "bool",
          "name": "",
          "type": "bool"
        }
      ],
      "stateMutability": "view",
      "type": "function"
    },
    {
      "inputs": [],
      "name": "viewMyApplications",
      "outputs": [
        {
          "internalType": "address[]",
          "name": "",
          "type": "address[]"
        }
      ],
      "stateMutability": "view",
      "type": "function"
    },
    {
      "inputs": [
        {
          "internalType": "address",
          "name": "student",
          "type": "address"
        }
      ],
      "name": "viewMyStudentApplications",
      "outputs": [
        {
          "internalType": "address[]",
          "name": "",
          "type": "address[]"
        }
      ],
      "stateMutability": "view",
      "type": "function"
    },
    {
      "inputs": [
        {
          "internalType": "address",
          "name": "addr",
          "type": "address"
        }
      ],
      "name": "viewStudentApplications",
      "outputs": [
        {
          "internalType": "address[]",
          "name": "",
          "type": "address[]"
        }
      ],
      "stateMutability": "view",
      "type": "function"
    },
    {
      "inputs": [
        {
          "internalType": "bytes32",
          "name": "sName",
          "type": "bytes32"
        }
      ],
      "name": "studentSelfRegisterGSN",
      "outputs": [],
      "stateMutability": "nonpayable",
      "type": "function"
    },
    {
      "inputs": [
        {
          "internalType": "bytes32",
          "name": "sName",
          "type": "bytes32"
        }
      ],
      "name": "studentSelfRegister",
      "outputs": [],
      "stateMutability": "nonpayable",
      "type": "function"
    },
    {
      "inputs": [
        {
          "internalType": "address",
          "name": "owner",
          "type": "address"
        },
        {
          "internalType": "bytes32",
          "name": "cName",
          "type": "bytes32"
        },
        {
          "internalType": "uint24",
          "name": "cCut",
          "type": "uint24"
        },
        {
          "internalType": "uint24",
          "name": "cPCut",
          "type": "uint24"
        },
        {
          "internalType": "int32",
          "name": "minScore",
          "type": "int32"
        },
        {
          "internalType": "uint256",
          "name": "entryPrice",
          "type": "uint256"
        },
        {
          "internalType": "uint256",
          "name": "duration",
          "type": "uint256"
        },
        {
          "internalType": "address",
          "name": "challengeAddress",
          "type": "address"
        }
      ],
      "name": "newClassRoom",
      "outputs": [
        {
          "internalType": "address",
          "name": "",
          "type": "address"
        }
      ],
      "stateMutability": "nonpayable",
      "type": "function"
    },
    {
      "inputs": [
        {
          "internalType": "address",
          "name": "applicationAddr",
          "type": "address"
        },
        {
          "internalType": "bytes32",
          "name": "cName",
          "type": "bytes32"
        },
        {
          "internalType": "uint24",
          "name": "cCut",
          "type": "uint24"
        },
        {
          "internalType": "uint24",
          "name": "cPCut",
          "type": "uint24"
        },
        {
          "internalType": "int32",
          "name": "minScore",
          "type": "int32"
        },
        {
          "internalType": "uint256",
          "name": "entryPrice",
          "type": "uint256"
        },
        {
          "internalType": "uint256",
          "name": "duration",
          "type": "uint256"
        },
        {
          "internalType": "address",
          "name": "challenge",
          "type": "address"
        }
      ],
      "name": "studentRequestClassroom",
      "outputs": [
        {
          "internalType": "address",
          "name": "",
          "type": "address"
        }
      ],
      "stateMutability": "nonpayable",
      "type": "function"
    },
    {
      "inputs": [
        {
          "internalType": "address",
          "name": "student",
          "type": "address"
        },
        {
          "internalType": "address",
          "name": "application",
          "type": "address"
        }
      ],
      "name": "registerStudentApplication",
      "outputs": [],
      "stateMutability": "nonpayable",
      "type": "function"
    },
    {
      "inputs": [
        {
          "internalType": "address",
          "name": "student",
          "type": "address"
        },
        {
          "internalType": "int32",
          "name": "val",
          "type": "int32"
        }
      ],
      "name": "addStudentScore",
      "outputs": [],
      "stateMutability": "nonpayable",
      "type": "function"
    },
    {
      "inputs": [
        {
          "internalType": "address",
          "name": "student",
          "type": "address"
        },
        {
          "internalType": "int32",
          "name": "val",
          "type": "int32"
        }
      ],
      "name": "subStudentScore",
      "outputs": [],
      "stateMutability": "nonpayable",
      "type": "function"
    },
    {
      "inputs": [
        {
          "internalType": "uint256",
          "name": "val",
          "type": "uint256"
        }
      ],
      "name": "applyFunds",
      "outputs": [],
      "stateMutability": "nonpayable",
      "type": "function"
    },
    {
      "inputs": [],
      "name": "appliedFunds",
      "outputs": [
        {
          "internalType": "uint256",
          "name": "",
          "type": "uint256"
        }
      ],
      "stateMutability": "view",
      "type": "function"
    },
    {
      "inputs": [
        {
          "internalType": "uint256",
          "name": "val",
          "type": "uint256"
        }
      ],
      "name": "recoverFunds",
      "outputs": [],
      "stateMutability": "nonpayable",
      "type": "function"
    },
    {
      "inputs": [
        {
          "internalType": "uint256",
          "name": "val",
          "type": "uint256"
        }
      ],
      "name": "applyFundsETH",
      "outputs": [],
      "stateMutability": "nonpayable",
      "type": "function"
    },
    {
      "inputs": [],
      "name": "appliedFundsETH",
      "outputs": [
        {
          "internalType": "uint256",
          "name": "",
          "type": "uint256"
        }
      ],
      "stateMutability": "view",
      "type": "function"
    },
    {
      "inputs": [
        {
          "internalType": "uint256",
          "name": "val",
          "type": "uint256"
        }
      ],
      "name": "recoverFundsETH",
      "outputs": [],
      "stateMutability": "nonpayable",
      "type": "function"
    },
    {
      "inputs": [
        {
          "internalType": "bytes32",
          "name": "role",
          "type": "bytes32"
        },
        {
          "internalType": "address",
          "name": "account",
          "type": "address"
        }
      ],
      "name": "grantRoleFund",
      "outputs": [],
      "stateMutability": "nonpayable",
      "type": "function"
    },
    {
      "inputs": [
        {
          "internalType": "bytes32",
          "name": "role",
          "type": "bytes32"
        },
        {
          "internalType": "address",
          "name": "account",
          "type": "address"
        }
      ],
      "name": "revokeRoleFund",
      "outputs": [],
      "stateMutability": "nonpayable",
      "type": "function"
    },
    {
      "inputs": [
        {
          "internalType": "uint256",
          "name": "val",
          "type": "uint256"
        }
      ],
      "name": "increaseOperationalBudget",
      "outputs": [],
      "stateMutability": "nonpayable",
      "type": "function"
    },
    {
      "inputs": [
        {
          "internalType": "uint256",
          "name": "val",
          "type": "uint256"
        }
      ],
      "name": "decreaseOperationalBudget",
      "outputs": [],
      "stateMutability": "nonpayable",
      "type": "function"
    },
    {
      "inputs": [
        {
          "internalType": "address",
          "name": "to",
          "type": "address"
        },
        {
          "internalType": "uint256",
          "name": "val",
          "type": "uint256"
        }
      ],
      "name": "spendBudget",
      "outputs": [],
      "stateMutability": "nonpayable",
      "type": "function"
    },
    {
      "inputs": [
        {
          "internalType": "address",
          "name": "studentApplication",
          "type": "address"
        },
        {
          "internalType": "uint256",
          "name": "price",
          "type": "uint256"
        }
      ],
      "name": "giveGrant",
      "outputs": [],
      "stateMutability": "nonpayable",
      "type": "function"
    },
    {
      "inputs": [
        {
          "internalType": "uint256",
          "name": "val",
          "type": "uint256"
        }
      ],
      "name": "reinvestReturns",
      "outputs": [],
      "stateMutability": "nonpayable",
      "type": "function"
    },
    {
      "inputs": [
        {
          "internalType": "address",
          "name": "grantsManager",
          "type": "address"
        }
      ],
      "name": "viewAllStudentsFromGrantManager",
      "outputs": [
        {
          "internalType": "address[]",
          "name": "",
          "type": "address[]"
        }
      ],
      "stateMutability": "nonpayable",
      "type": "function"
    },
    {
      "inputs": [
        {
          "internalType": "address",
          "name": "student",
          "type": "address"
        },
        {
          "internalType": "address",
          "name": "grantsManager",
          "type": "address"
        }
      ],
      "name": "viewAllStudentGrantsFromGrantManager",
      "outputs": [
        {
          "internalType": "uint256[]",
          "name": "",
          "type": "uint256[]"
        }
      ],
      "stateMutability": "nonpayable",
      "type": "function"
    },
    {
      "inputs": [
        {
          "components": [
            {
              "internalType": "address",
              "name": "target",
              "type": "address"
            },
            {
              "internalType": "bytes",
              "name": "encodedFunction",
              "type": "bytes"
            },
            {
              "components": [
                {
                  "internalType": "uint256",
                  "name": "gasLimit",
                  "type": "uint256"
                },
                {
                  "internalType": "uint256",
                  "name": "gasPrice",
                  "type": "uint256"
                },
                {
                  "internalType": "uint256",
                  "name": "pctRelayFee",
                  "type": "uint256"
                },
                {
                  "internalType": "uint256",
                  "name": "baseRelayFee",
                  "type": "uint256"
                }
              ],
              "internalType": "struct GSNTypes.GasData",
              "name": "gasData",
              "type": "tuple"
            },
            {
              "components": [
                {
                  "internalType": "address",
                  "name": "senderAddress",
                  "type": "address"
                },
                {
                  "internalType": "uint256",
                  "name": "senderNonce",
                  "type": "uint256"
                },
                {
                  "internalType": "address",
                  "name": "relayWorker",
                  "type": "address"
                },
                {
                  "internalType": "address",
                  "name": "paymaster",
                  "type": "address"
                }
              ],
              "internalType": "struct GSNTypes.RelayData",
              "name": "relayData",
              "type": "tuple"
            }
          ],
          "internalType": "struct GSNTypes.RelayRequest",
          "name": "relayRequest",
          "type": "tuple"
        },
        {
          "internalType": "bytes",
          "name": "",
          "type": "bytes"
        },
        {
          "internalType": "uint256",
          "name": "",
          "type": "uint256"
        }
      ],
      "name": "acceptRelayedCall",
      "outputs": [
        {
          "internalType": "bytes",
          "name": "context",
          "type": "bytes"
        }
      ],
      "stateMutability": "pure",
      "type": "function"
    },
    {
      "inputs": [
        {
          "internalType": "uint256",
          "name": "val",
          "type": "uint256"
        }
      ],
      "name": "refillUniversityRelayer",
      "outputs": [],
      "stateMutability": "nonpayable",
      "type": "function"
    },
    {
      "inputs": [
        {
          "internalType": "uint256",
          "name": "donation",
          "type": "uint256"
        }
      ],
      "name": "donateDAI",
      "outputs": [],
      "stateMutability": "nonpayable",
      "type": "function"
    },
    {
      "inputs": [
        {
          "internalType": "uint256",
          "name": "revenue",
          "type": "uint256"
        }
      ],
      "name": "accountRevenue",
      "outputs": [],
      "stateMutability": "nonpayable",
      "type": "function"
    }
  ],
  "bytecode": "0x60806040523480156200001157600080fd5b50604051620046423803806200464283398101604081905262000034916200050a565b6000620000496001600160e01b036200019516565b600080546001600160a01b0319166001600160a01b0383169081178255604051929350917f8be0079c531659141344cd1fd0a4f28419497f9722a3daafe3b4186f6b6457e0908290a35060038990556004805462ffffff191662ffffff8a161790556005879055620000cf6000620000c062000195565b6001600160e01b03620001b216565b6200010c604051620000e190620005c1565b604051908190039020620000fd6001600160e01b036200019516565b6001600160e01b03620001cb16565b6200011e604051620000e190620005ea565b600f80546001600160a01b03199081166001600160a01b03988916179091556010805482169688169690961790955560118054861694871694909417909355601280548516928616929092179091556013805484169185169190911790556014805490921692169190911790555062000685915050565b6000620001ac6200022c60201b62002bce1760201c565b90505b90565b620001c782826001600160e01b03620002c916565b5050565b6000828152600160205260409020600201546200020490620001f56001600160e01b036200019516565b6001600160e01b036200034d16565b620001b25760405162461bcd60e51b8152600401620002239062000636565b60405180910390fd5b6000601836108015906200026357506200024e6001600160e01b036200037c16565b6001600160a01b0316336001600160a01b0316145b15620002c457620002bc6000368080601f0160208091040260200160405190810160405280939291908181526020018383808284376000920191909152505036601319019150506200038b602090811b62002d0717901c565b9050620001af565b503390565b6000828152600160209081526040909120620002f091839062002c50620003de821b17901c565b15620001c757620003096001600160e01b036200019516565b6001600160a01b0316816001600160a01b0316837f2f8788117e7eff1d82e926ec794901d17c78024a50270940304540a733656f0d60405160405180910390a45050565b6000828152600160209081526040822062000373918490620029ae620003fe821b17901c565b90505b92915050565b6002546001600160a01b031690565b60008160140183511015620003cc57620003cc620003bb60048551856014016200041e60201b62002e4f1760201c565b6200047a60201b62002ea91760201c565b5001601401516001600160a01b031690565b600062000373836001600160a01b0384166001600160e01b036200048216565b600062000373836001600160a01b0384166001600160e01b03620004da16565b6060632800659560e01b8484846040516024016200043f9392919062000613565b60408051601f198184030181529190526020810180516001600160e01b03166001600160e01b03199093169290921790915290509392505050565b805160208201fd5b60006200049983836001600160e01b03620004da16565b620004d15750815460018181018455600084815260208082209093018490558454848252828601909352604090209190915562000376565b50600062000376565b60009081526001919091016020526040902054151590565b80516001600160a01b03811681146200037657600080fd5b60008060008060008060008060006101208a8c03121562000529578485fd5b8951985060208a015162ffffff8116811462000543578586fd5b60408b015190985096506200055c8b60608c01620004f2565b95506200056d8b60808c01620004f2565b94506200057e8b60a08c01620004f2565b93506200058f8b60c08c01620004f2565b9250620005a08b60e08c01620004f2565b9150620005b28b6101008c01620004f2565b90509295985092959850929598565b7f524541445f53545544454e545f4c4953545f524f4c4500000000000000000000815260160190565b7f434c4153534c4953545f41444d494e5f524f4c45000000000000000000000000815260140190565b60608101600885106200062257fe5b938152602081019290925260409091015290565b6020808252602f908201527f416363657373436f6e74726f6c3a2073656e646572206d75737420626520616e60408201526e0818591b5a5b881d1bc819dc985b9d608a1b606082015260800190565b613fad80620006956000396000f3fe6080604052600436106103195760003560e01c806306fdde031461035e57806316ded1ce1461038957806317b1a4cf146103b6578063183b2600146103cb5780631ec1f9f3146103ed578063238aaf2f14610402578063248a9ca31461042f578063284755181461044f5780632e1a7d4d146104715780632f2ff15d1461049157806332636ac9146104b157806333c7bf1b146104c65780633593aad6146104db57806336568abe146104fb57806346fcff4c1461051b578063478ecefb146105305780634884da05146105505780634ab358c71461057d5780634c6794071461059d5780634ea962c1146105b257806351275dba146105d25780635a7dd150146105e7578063629bca67146106075780636408a3861461061c57806364d477311461063157806365a45503146106465780636beb0c03146106665780636f6941b91461067b578063715018a6146106905780637fd5c108146106a5578063820cd75c146106c557806385dade61146106da57806387bfe188146106fa578063898855ed1461071a5780638a9f5b7f1461073a5780638da5cb5b1461074f5780638ff2f762146107645780639010d07c1461078457806391d14854146107a45780639b0969ab146107c45780639e93d0e4146107e45780639fd6cb7a14610804578063a026dcc214610819578063a217fddf1461082e578063a544594e14610843578063b1ed031f14610863578063b7af0d2d14610890578063be22f546146108b0578063be614379146108c5578063c204a0e0146108da578063c2b94cd8146108fa578063c4707a831461091a578063c844dbce1461092f578063ca15c8731461094f578063cb4e56011461096f578063ce1b815f1461098f578063d24f8cdd146109a4578063d2603067146109c4578063d3c5704e146109e4578063d429778114610a04578063d547741f14610a24578063d7f164f714610a44578063e6fd604c14610a64578063e770d7d414610a86578063ea3c0fc414610aa6578063ef5450ba14610abb578063f2fde38b14610adb578063f676f43d14610afb578063fa8e506014610b10578063ff5d8f6314610b3057610359565b36610359577f60e4c1ac84c9e2c4c0aa82b86b3b1ddf0b1b73fbbeb74c8bc8f8f06041ccfdf6333460405161034f929190613404565b60405180910390a1005b600080fd5b34801561036a57600080fd5b50610373610b50565b60405161038091906134ed565b60405180910390f35b34801561039557600080fd5b506103a96103a4366004612ec4565b610b56565b60405161038091906134e2565b3480156103c257600080fd5b50610373610bbf565b3480156103d757600080fd5b506103eb6103e6366004612efc565b610bc5565b005b3480156103f957600080fd5b50610373610c2e565b34801561040e57600080fd5b5061042261041d366004612efc565b610c34565b60405161038091906134aa565b34801561043b57600080fd5b5061037361044a366004613168565b610cea565b34801561045b57600080fd5b50610464610cff565b60405161038091906133f0565b34801561047d57600080fd5b506103eb61048c366004613168565b610d0e565b34801561049d57600080fd5b506103eb6104ac366004613180565b610d57565b3480156104bd57600080fd5b50610373610d9f565b3480156104d257600080fd5b50610373610db6565b3480156104e757600080fd5b506103eb6104f6366004613168565b610df3565b34801561050757600080fd5b506103eb610516366004613180565b610e79565b34801561052757600080fd5b50610373610ebb565b34801561053c57600080fd5b506103eb61054b366004613168565b610f97565b34801561055c57600080fd5b5061057061056b366004612ec4565b611053565b604051610380919061345d565b34801561058957600080fd5b506103eb610598366004613168565b6110f7565b3480156105a957600080fd5b50610373611168565b3480156105be57600080fd5b506104646105cd366004612f34565b61121c565b3480156105de57600080fd5b50610373611266565b3480156105f357600080fd5b506103eb610602366004613168565b61126c565b34801561061357600080fd5b5061037361127d565b34801561062857600080fd5b50610570611289565b34801561063d57600080fd5b50610373611296565b34801561065257600080fd5b506103eb610661366004613168565b6112a2565b34801561067257600080fd5b5061037361135a565b34801561068757600080fd5b50610464611360565b34801561069c57600080fd5b506103eb61136f565b3480156106b157600080fd5b506104646106c0366004612f34565b6113dc565b3480156106d157600080fd5b50610373611560565b3480156106e657600080fd5b506103a96106f5366004612ec4565b61156c565b34801561070657600080fd5b506103eb610715366004612fc4565b61157d565b34801561072657600080fd5b506103eb610735366004613168565b6115ee565b34801561074657600080fd5b50610373611663565b34801561075b57600080fd5b5061046461166f565b34801561077057600080fd5b506103eb61077f366004613168565b61167e565b34801561079057600080fd5b5061046461079f3660046131a4565b6116f9565b3480156107b057600080fd5b506103a96107bf366004613180565b611717565b3480156107d057600080fd5b506103eb6107df366004613168565b611735565b3480156107f057600080fd5b506103eb6107ff366004613168565b6117b5565b34801561081057600080fd5b50610373611810565b34801561082557600080fd5b5061037361181c565b34801561083a57600080fd5b506103736118cb565b34801561084f57600080fd5b506103eb61085e366004613168565b6118d0565b34801561086f57600080fd5b5061088361087e3660046131c5565b611900565b6040516103809190613578565b34801561089c57600080fd5b506103eb6108ab366004613180565b6119b4565b3480156108bc57600080fd5b50610464611a0e565b3480156108d157600080fd5b50610373611a1d565b3480156108e657600080fd5b506103eb6108f5366004613168565b611a29565b34801561090657600080fd5b506103eb610915366004612ff7565b611ac0565b34801561092657600080fd5b50610373611b4d565b34801561093b57600080fd5b506103eb61094a366004613168565b611b59565b34801561095b57600080fd5b5061037361096a366004613168565b611bc2565b34801561097b57600080fd5b506103eb61098a366004612ff7565b611bd9565b34801561099b57600080fd5b50610464611d20565b3480156109b057600080fd5b506103736109bf366004612ec4565b611d2f565b3480156109d057600080fd5b506105706109df366004612ec4565b611d41565b3480156109f057600080fd5b506105706109ff366004612ec4565b611e5f565b348015610a1057600080fd5b506103eb610a1f366004612ec4565b611eae565b348015610a3057600080fd5b506103eb610a3f366004613180565b611fa6565b348015610a5057600080fd5b506103eb610a5f366004613180565b611fe0565b348015610a7057600080fd5b50610a7961203a565b6040516103809190613e30565b348015610a9257600080fd5b506103eb610aa1366004613261565b612045565b348015610ab257600080fd5b506104646120c3565b348015610ac757600080fd5b506103eb610ad6366004613168565b6120d2565b348015610ae757600080fd5b506103eb610af6366004612ec4565b61210c565b348015610b0757600080fd5b506103736121b0565b348015610b1c57600080fd5b506103eb610b2b366004613168565b6121b6565b348015610b3c57600080fd5b506103eb610b4b366004612fc4565b612245565b60035481565b6000610b77604051610b67906132e4565b60405180910390206107bf61229c565b610b9c5760405162461bcd60e51b8152600401610b93906136f1565b60405180910390fd5b610bb9604051610bab90613306565b604051809103902083611717565b92915050565b600d5481565b610bd4604051610b6790613327565b610bf05760405162461bcd60e51b8152600401610b93906139cc565b6001600160a01b0391821660009081526007602090815260408220805460018101825590835291200180546001600160a01b03191691909216179055565b600c5481565b6060610c45604051610b67906133cc565b610c615760405162461bcd60e51b8152600401610b9390613bcf565b60405163730687a560e11b81526001600160a01b0383169063e60d0f4a90610c8d9086906004016133f0565b600060405180830381600087803b158015610ca757600080fd5b505af1158015610cbb573d6000803e3d6000fd5b505050506040513d6000823e601f3d908101601f19168201604052610ce391908101906130c2565b9392505050565b60009081526001602052604090206002015490565b6011546001600160a01b031681565b610d1661229c565b6000546001600160a01b03908116911614610d435760405162461bcd60e51b8152600401610b9390613ad9565b610d54610d4e61229c565b826122a6565b50565b600082815260016020526040902060020154610d75906107bf61229c565b610d915760405162461bcd60e51b8152600401610b9390613634565b610d9b8282612338565b5050565b604051610dab90613306565b604051809103902081565b600e546000906001600160a01b0316610de15760405162461bcd60e51b8152600401610b93906136ba565b50600e546001600160a01b0316315b90565b610dfb61229c565b6000546001600160a01b03908116911614610e285760405162461bcd60e51b8152600401610b9390613ad9565b80600c541015610e4a5760405162461bcd60e51b8152600401610b93906137bb565b600d54610e5d908263ffffffff6123a716565b600d55600c54610e73908263ffffffff6123cc16565b600c5550565b610e8161229c565b6001600160a01b0316816001600160a01b031614610eb15760405162461bcd60e51b8152600401610b9390613de1565b610d9b828261240e565b600f546040516370a0823160e01b815260009182916001600160a01b03909116906370a0823190610ef09030906004016133f0565b60206040518083038186803b158015610f0857600080fd5b505afa158015610f1c573d6000803e3d6000fd5b505050506040513d601f19601f82011682018060405250810190610f409190613284565b9050610f59600d54600c546123a790919063ffffffff16565b811015610f6a576000915050610df0565b610f91600d54610f85600c54846123cc90919063ffffffff16565b9063ffffffff6123cc16565b91505090565b610fa6604051610b679061336b565b80610fd05750610fb461166f565b6001600160a01b0316610fc561229c565b6001600160a01b0316145b610fec5760405162461bcd60e51b8152600401610b939061377b565b60115460405163aa67c91960e01b81526001600160a01b039091169063aa67c91990839061101e9030906004016133f0565b6000604051808303818588803b15801561103757600080fd5b505af115801561104b573d6000803e3d6000fd5b505050505050565b6060611064604051610b67906133cc565b6110805760405162461bcd60e51b8152600401610b9390613bcf565b816001600160a01b03166369e7af436040518163ffffffff1660e01b8152600401600060405180830381600087803b1580156110bb57600080fd5b505af11580156110cf573d6000803e3d6000fd5b505050506040513d6000823e601f3d908101601f19168201604052610bb99190810190613022565b611106604051610b679061336b565b6111225760405162461bcd60e51b8152600401610b939061377b565b600e546001600160a01b031661114a5760405162461bcd60e51b8152600401610b93906136ba565b600f54600e54610d54916001600160a01b039081169116308461247d565b600e546000906001600160a01b03166111935760405162461bcd60e51b8152600401610b93906136ba565b600f54600e546040516370a0823160e01b81526001600160a01b03928316926370a08231926111c7929116906004016133f0565b60206040518083038186803b1580156111df57600080fd5b505afa1580156111f3573d6000803e3d6000fd5b505050506040513d601f19601f820116820180604052508101906112179190613284565b905090565b600061122d604051610b679061334b565b6112495760405162461bcd60e51b8152600401610b9390613906565b6112598989898989898989612566565b9998505050505050505050565b600b5481565b610d9b8161127861229c565b612771565b604051610dab90613389565b60606112176109ff61229c565b604051610dab906133ad565b6112b1604051610b679061336b565b6112cd5760405162461bcd60e51b8152600401610b939061377b565b600e546001600160a01b03166112f55760405162461bcd60e51b8152600401610b93906136ba565b600e54604051632e1a7d4d60e01b81526001600160a01b0390911690632e1a7d4d906113259084906004016134ed565b600060405180830381600087803b15801561133f57600080fd5b505af1158015611353573d6000803e3d6000fd5b5050505050565b600a5481565b6010546001600160a01b031681565b61137761229c565b6000546001600160a01b039081169116146113a45760405162461bcd60e51b8152600401610b9390613ad9565b600080546040516001600160a01b0390911690600080516020613f18833981519152908390a3600080546001600160a01b0319169055565b60006113ed604051610b6790613306565b6114095760405162461bcd60e51b8152600401610b9390613948565b61141a61141461229c565b8a61291e565b6114365760405162461bcd60e51b8152600401610b93906138b1565b6000899050806001600160a01b0316636587b61e6040518163ffffffff1660e01b815260040160206040518083038186803b15801561147457600080fd5b505afa158015611488573d6000803e3d6000fd5b505050506040513d601f19601f820116820180604052508101906114ac9190613284565b6003146114cb5760405162461bcd60e51b8152600401610b9390613ca5565b6115526114d661229c565b6001600160a01b0316637a6c8b536040518163ffffffff1660e01b815260040160206040518083038186803b15801561150e57600080fd5b505afa158015611522573d6000803e3d6000fd5b505050506040513d601f19601f820116820180604052508101906115469190612ee0565b8a8a8a8a8a8a8a612566565b9a9950505050505050505050565b604051610dab9061334b565b6000610bb9604051610bab90613327565b61158c604051610b6790613327565b6115a85760405162461bcd60e51b8152600401610b93906139cc565b60405163aa4f38c760e01b81526001600160a01b0383169063aa4f38c7906115d49084906004016135ad565b600060405180830381600087803b15801561103757600080fd5b6115f661229c565b6000546001600160a01b039081169116146116235760405162461bcd60e51b8152600401610b9390613ad9565b60038190556040517f9f8929be552430dd6434c446d106c34954b2040ca8c4dbf42a39323dd6cda3ca906116589083906134ed565b60405180910390a150565b604051610dab90613327565b6000546001600160a01b031690565b600061168c8261127861229c565b60115460055460405163aa67c91960e01b81529293506001600160a01b039091169163aa67c91991906116c39085906004016133f0565b6000604051808303818588803b1580156116dc57600080fd5b505af11580156116f0573d6000803e3d6000fd5b50505050505050565b6000828152600160205260408120610ce3908363ffffffff6129a216565b6000828152600160205260408120610ce3908363ffffffff6129ae16565b61173d61229c565b6000546001600160a01b0390811691161461176a5760405162461bcd60e51b8152600401610b9390613ad9565b80600d54101561178c5760405162461bcd60e51b8152600401610b9390613671565b600d5461179f908263ffffffff6123cc16565b600d55600c54610e73908263ffffffff6123a716565b6117c4604051610b679061336b565b6117e05760405162461bcd60e51b8152600401610b939061377b565b806117e9610ebb565b10156118075760405162461bcd60e51b8152600401610b9390613836565b610d54816129c3565b604051610dab906132e4565b600f546040516370a0823160e01b815260009182916001600160a01b03909116906370a08231906118519030906004016133f0565b60206040518083038186803b15801561186957600080fd5b505afa15801561187d573d6000803e3d6000fd5b505050506040513d601f19601f820116820180604052508101906118a19190613284565b9050600d548110156118b7576000915050610df0565b600d54610f9190829063ffffffff6123cc16565b600081565b600f546118ef906001600160a01b03166118e861229c565b308461247d565b610d546118fa61229c565b82612a18565b60606347f97bb160e11b61195461191a6020880188613e40565b8080601f01602080910402602001604051908101604052809392919081815260200183838082843760009201829052509250612aca915050565b6001600160e01b0319161461197b5760405162461bcd60e51b8152600401610b9390613c15565b6119886020860186612ec4565b600060405160200161199b929190613441565b6040516020818303038152906040529050949350505050565b600e546001600160a01b03166119dc5760405162461bcd60e51b8152600401610b93906136ba565b600e5460405163b7af0d2d60e01b81526001600160a01b039091169063b7af0d2d906115d490859085906004016134f6565b600f546001600160a01b031681565b604051610dab906133cc565b611a38604051610b679061336b565b611a545760405162461bcd60e51b8152600401610b939061377b565b80611a5d61181c565b1015611a7b5760405162461bcd60e51b8152600401610b9390613a93565b600e546001600160a01b0316611aa35760405162461bcd60e51b8152600401610b93906136ba565b600f54600e54610d54916001600160a01b03908116911683612adc565b611acf604051610b67906133ad565b611aeb5760405162461bcd60e51b8152600401610b9390613b8e565b80611af4610ebb565b1015611b125760405162461bcd60e51b8152600401610b9390613836565b816001600160a01b0316632d24947b6040518163ffffffff1660e01b8152600401600060405180830381600087803b15801561103757600080fd5b604051610dab9061336b565b611b68604051610b679061336b565b611b845760405162461bcd60e51b8152600401610b939061377b565b600e546001600160a01b0316611bac5760405162461bcd60e51b8152600401610b93906136ba565b600e54610d54906001600160a01b0316826122a6565b6000818152600160205260408120610bb990612bc3565b611be8604051610b679061336b565b611c045760405162461bcd60e51b8152600401610b939061377b565b611c13604051610bab90613389565b611c2f5760405162461bcd60e51b8152600401610b9390613cee565b80600d541015611c515760405162461bcd60e51b8152600401610b9390613b45565b600f546040516370a0823160e01b815282916001600160a01b0316906370a0823190611c819030906004016133f0565b60206040518083038186803b158015611c9957600080fd5b505afa158015611cad573d6000803e3d6000fd5b505050506040513d601f19601f82011682018060405250810190611cd19190613284565b1015611cef5760405162461bcd60e51b8152600401610b9390613b0e565b600f54611d06906001600160a01b03168383612adc565b600d54611d19908263ffffffff6123cc16565b600d555050565b6002546001600160a01b031690565b60086020526000908152604090205481565b6060611d4b61229c565b6001600160a01b0316826001600160a01b0316637a6c8b536040518163ffffffff1660e01b815260040160206040518083038186803b158015611d8d57600080fd5b505afa158015611da1573d6000803e3d6000fd5b505050506040513d601f19601f82011682018060405250810190611dc59190612ee0565b6001600160a01b031614611deb5760405162461bcd60e51b8152600401610b9390613a12565b6001600160a01b03821660009081526007602090815260409182902080548351818402810184019094528084529091830182828015611e5357602002820191906000526020600020905b81546001600160a01b03168152600190910190602001808311611e35575b50505050509050919050565b6060611e6961229c565b6001600160a01b0316826001600160a01b03161480611e925750611e92604051610b67906133ad565b611deb5760405162461bcd60e51b8152600401610b939061398b565b611eb661229c565b6000546001600160a01b03908116911614611ee35760405162461bcd60e51b8152600401610b9390613ad9565b306001600160a01b0316816001600160a01b0316633e1e9ce76040518163ffffffff1660e01b815260040160206040518083038186803b158015611f2657600080fd5b505afa158015611f3a573d6000803e3d6000fd5b505050506040513d601f19601f82011682018060405250810190611f5e9190612ee0565b6001600160a01b031614611f845760405162461bcd60e51b8152600401610b9390613d48565b600e80546001600160a01b0319166001600160a01b0392909216919091179055565b600082815260016020526040902060020154611fc4906107bf61229c565b610eb15760405162461bcd60e51b8152600401610b9390613a55565b600e546001600160a01b03166120085760405162461bcd60e51b8152600401610b93906136ba565b600e5460405163d7f164f760e01b81526001600160a01b039091169063d7f164f7906115d490859085906004016134f6565b60045462ffffff1681565b61204d61229c565b6000546001600160a01b0390811691161461207a5760405162461bcd60e51b8152600401610b9390613ad9565b6004805462ffffff191662ffffff83811691909117918290556040517f1add5f7de244142e10bca375bb84823e3c24ddac2c2ec678f35c007d8f02084d92611658921690613e30565b600e546001600160a01b031681565b6120da61229c565b6000546001600160a01b039081169116146121075760405162461bcd60e51b8152600401610b9390613ad9565b600555565b61211461229c565b6000546001600160a01b039081169116146121415760405162461bcd60e51b8152600401610b9390613ad9565b6001600160a01b0381166121675760405162461bcd60e51b8152600401610b9390613735565b600080546040516001600160a01b0380851693921691600080516020613f1883398151915291a3600080546001600160a01b0319166001600160a01b0392909216919091179055565b60095481565b6121c5604051610b6790613327565b6121e15760405162461bcd60e51b8152600401610b93906139cc565b600a546121f4908263ffffffff6123a716565b600a55600c5461220a908263ffffffff6123a716565b600c557f37823eae3803e6c1d99512d7c85c87edf37856ffce3f33a2b623ef3197fe6ffc61223661229c565b82604051611658929190613404565b612254604051610b6790613327565b6122705760405162461bcd60e51b8152600401610b93906139cc565b604051630686513560e41b81526001600160a01b038316906368651350906115d49084906004016135ad565b6000611217612bce565b604080516000808252602082019092526001600160a01b0384169083906040516122d091906132c8565b60006040518083038185875af1925050503d806000811461230d576040519150601f19603f3d011682016040523d82523d6000602084013e612312565b606091505b50509050806123335760405162461bcd60e51b8152600401610b9390613c62565b505050565b6000828152600160205260409020612356908263ffffffff612c5016565b15610d9b5761236361229c565b6001600160a01b0316816001600160a01b0316837f2f8788117e7eff1d82e926ec794901d17c78024a50270940304540a733656f0d60405160405180910390a45050565b600082820183811015610ce35760405162461bcd60e51b8152600401610b939061387c565b6000610ce383836040518060400160405280601e81526020017f536166654d6174683a207375627472616374696f6e206f766572666c6f770000815250612c65565b600082815260016020526040902061242c908263ffffffff612c9116565b15610d9b5761243961229c565b6001600160a01b0316816001600160a01b0316837ff6391f5c32d9c69d2a47ea670b442974b53935d1edc7fd64eb21e047a839171b60405160405180910390a45050565b60006060856001600160a01b03166323b872dd8686866040516024016124a59392919061341d565b6040516020818303038152906040529060e01b6020820180516001600160e01b0383818316178352505050506040516124de91906132c8565b6000604051808303816000865af19150503d806000811461251b576040519150601f19603f3d011682016040523d82523d6000602084013e612520565b606091505b509150915081801561254a57508051158061254a57508080602001905181019061254a9190613148565b61104b5760405162461bcd60e51b8152600401610b9390613d9d565b600080601260009054906101000a90046001600160a01b03166001600160a01b031663f9a84f968a8a8a8a8a8a308b600f60009054906101000a90046001600160a01b0316601060009054906101000a90046001600160a01b0316601460009054906101000a90046001600160a01b03166040518c63ffffffff1660e01b81526004016125fd9b9a9998979695949392919061350d565b602060405180830381600087803b15801561261757600080fd5b505af115801561262b573d6000803e3d6000fd5b505050506040513d601f19601f8201168201806040525081019061264f9190612ee0565b6040516318b9533b60e01b81529091506001600160a01b038216906318b9533b9061267e908d906004016133f0565b600060405180830381600087803b15801561269857600080fd5b505af11580156126ac573d6000803e3d6000fd5b5050600680546001810182556000919091527ff652222313e28459528d920b65115c16c04f3efc82aaedc97be59f3f377c0d3f0180546001600160a01b0319166001600160a01b0385161790555050604051819061271b9061270d906132e4565b604051809103902082610d91565b61272a60405161270d90613327565b7f0e2441b756c0237af490768eeb52214bde66464d79756f8ac3c03b10c9528b3c8a8260405161275b9291906134f6565b60405180910390a19a9950505050505050505050565b60006007600061277f61229c565b6001600160a01b03168152602081019190915260400160002054156127b65760405162461bcd60e51b8152600401610b93906137f0565b6001600160a01b038083166000908152600760209081526040808320805460018101825590845291832090910180546001600160a01b03191690556013549051638ebf1d2760e01b815291921690638ebf1d279061281a90879030906004016134f6565b602060405180830381600087803b15801561283457600080fd5b505af1158015612848573d6000803e3d6000fd5b505050506040513d601f19601f8201168201806040525081019061286c9190612ee0565b6040516303153d2960e31b81529091506001600160a01b038216906318a9e9489061289b9086906004016133f0565b600060405180830381600087803b1580156128b557600080fd5b505af11580156128c9573d6000803e3d6000fd5b505050506128dc60405161270d90613306565b7ff7525326b19723c396bf0879df18a2606e6a5273cade76ca5da59776556163896003548260405161290f9291906134f6565b60405180910390a19392505050565b6000805b6001600160a01b038416600090815260076020526040902054811015612998576001600160a01b0384811660009081526007602052604090208054918516918390811061296b57fe5b6000918252602090912001546001600160a01b03161415612990576001915050610bb9565b600101612922565b5060009392505050565b6000610ce38383612ca6565b6000610ce3836001600160a01b038416612ceb565b600a546129d6908263ffffffff6123a716565b600b55600c546129ec908263ffffffff6123a716565b600c557f13c785d9e4857cfe1f6f81ef8d5119717f6e1b7e2c090e57ab7386cd44f2d79f61223661229c565b600954612a2b908263ffffffff6123a716565b600955600c54612a41908263ffffffff6123a716565b600c556001600160a01b038216600090815260086020526040902054612a6d908263ffffffff6123a716565b6001600160a01b0383166000908152600860205260409020557f615b82d09530cb171fb9954512b751ee6d5197d08431b056ca6e8c3d8aca6811612aaf61229c565b82604051612abe929190613404565b60405180910390a15050565b01602001516001600160e01b03191690565b60006060846001600160a01b031663a9059cbb8585604051602401612b02929190613404565b6040516020818303038152906040529060e01b6020820180516001600160e01b038381831617835250505050604051612b3b91906132c8565b6000604051808303816000865af19150503d8060008114612b78576040519150601f19603f3d011682016040523d82523d6000602084013e612b7d565b606091505b5091509150818015612ba7575080511580612ba7575080806020019051810190612ba79190613148565b6113535760405162461bcd60e51b8152600401610b93906135fd565b6000610bb982612d03565b600060183610801590612bf95750612be4611d20565b6001600160a01b0316336001600160a01b0316145b15612c4b57612c446000368080601f0160208091040260200160405190810160405280939291908181526020018383808284376000920191909152505060131936019150612d079050565b9050610df0565b503390565b6000610ce3836001600160a01b038416612d3f565b60008184841115612c895760405162461bcd60e51b8152600401610b939190613578565b505050900390565b6000610ce3836001600160a01b038416612d89565b81546000908210612cc95760405162461bcd60e51b8152600401610b93906135bb565b826000018281548110612cd857fe5b9060005260206000200154905092915050565b60009081526001919091016020526040902054151590565b5490565b60008160140183511015612d2d57612d2d612d286004855185601401612e4f565b612ea9565b5001601401516001600160a01b031690565b6000612d4b8383612ceb565b612d8157508154600181810184556000848152602080822090930184905584548482528286019093526040902091909155610bb9565b506000610bb9565b60008181526001830160205260408120548015612e455783546000198083019190810190600090879083908110612dbc57fe5b9060005260206000200154905080876000018481548110612dd957fe5b600091825260208083209091019290925582815260018981019092526040902090840190558654879080612e0957fe5b60019003818190600052602060002001600090559055866001016000878152602001908152602001600020600090556001945050505050610bb9565b6000915050610bb9565b6060632800659560e01b848484604051602401612e6e9392919061358b565b60408051601f198184030181529190526020810180516001600160e01b03166001600160e01b03199093169290921790915290509392505050565b805160208201fd5b803562ffffff81168114610bb957600080fd5b600060208284031215612ed5578081fd5b8135610ce381613f02565b600060208284031215612ef1578081fd5b8151610ce381613f02565b60008060408385031215612f0e578081fd5b8235612f1981613f02565b91506020830135612f2981613f02565b809150509250929050565b600080600080600080600080610100898b031215612f50578384fd5b8835612f5b81613f02565b975060208901359650612f718a60408b01612eb1565b9550612f808a60608b01612eb1565b945060808901358060030b8114612f95578485fd5b935060a0890135925060c0890135915060e0890135612fb381613f02565b809150509295985092959890939650565b60008060408385031215612fd6578182fd5b8235612fe181613f02565b91506020830135600381900b8114612f29578182fd5b60008060408385031215613009578182fd5b823561301481613f02565b946020939093013593505050565b60006020808385031215613034578182fd5b82516001600160401b03811115613049578283fd5b80840185601f82011261305a578384fd5b8051915061306f61306a83613eb3565b613e8d565b828152838101908285018585028401860189101561308b578687fd5b8693505b848410156130b65780516130a281613f02565b83526001939093019291850191850161308f565b50979650505050505050565b600060208083850312156130d4578182fd5b82516001600160401b038111156130e9578283fd5b80840185601f8201126130fa578384fd5b8051915061310a61306a83613eb3565b8281528381019082850185850284018601891015613126578687fd5b8693505b848410156130b657805183526001939093019291850191850161312a565b600060208284031215613159578081fd5b81518015158114610ce3578182fd5b600060208284031215613179578081fd5b5035919050565b60008060408385031215613192578182fd5b823591506020830135612f2981613f02565b600080604083850312156131b6578182fd5b50508035926020909101359150565b600080600080606085870312156131da578182fd5b84356001600160401b03808211156131f0578384fd5b818701610140818a031215613203578485fd5b95506020870135915080821115613218578384fd5b81870188601f820112613229578485fd5b8035925081831115613239578485fd5b88602084830101111561324a578485fd5b959860209096019750909560400135949350505050565b600060208284031215613272578081fd5b813562ffffff81168114610ce3578182fd5b600060208284031215613295578081fd5b5051919050565b600081518084526132b4816020860160208601613ed2565b601f01601f19169290920160200192915050565b600082516132da818460208701613ed2565b9190910192915050565b75524541445f53545544454e545f4c4953545f524f4c4560501b815260160190565b7453545544454e545f4944454e544954595f524f4c4560581b815260150190565b77434c415353524f4f4d5f50524f464553534f525f524f4c4560401b815260180190565b73434c4153534c4953545f41444d494e5f524f4c4560601b815260140190565b7146554e44535f4d414e414745525f524f4c4560701b815260120190565b77524547495354455245445f535550504c4945525f524f4c4560401b815260180190565b724752414e54535f4d414e414745525f524f4c4560681b815260130190565b77554e49564552534954595f4f564552534545525f524f4c4560401b815260180190565b6001600160a01b0391909116815260200190565b6001600160a01b03929092168252602082015260400190565b6001600160a01b039384168152919092166020820152604081019190915260600190565b6001600160a01b0392909216825260ff16602082015260400190565b6020808252825182820181905260009190848201906040850190845b8181101561349e5783516001600160a01b031683529284019291840191600101613479565b50909695505050505050565b6020808252825182820181905260009190848201906040850190845b8181101561349e578351835292840192918401916001016134c6565b901515815260200190565b90815260200190565b9182526001600160a01b0316602082015260400190565b9a8b5262ffffff998a1660208c01529790981660408a015260039590950b6060890152608088019390935260a08701919091526001600160a01b0390811660c087015290811660e0860152908116610100850152918216610120840152166101408201526101600190565b600060208252610ce3602083018461329c565b606081016008851061359957fe5b938152602081019290925260409091015290565b60039190910b815260200190565b60208082526022908201527f456e756d657261626c655365743a20696e646578206f7574206f6620626f756e604082015261647360f01b606082015260800190565b6020808252601f908201527f5472616e7366657248656c7065723a205452414e534645525f4641494c454400604082015260600190565b6020808252602f90820152600080516020613f5883398151915260408201526e0818591b5a5b881d1bc819dc985b9d608a1b606082015260800190565b60208082526029908201527f556e69766572736974793a206e6f7420656e6f7567682062756467657420746f60408201526820646563726561736560b81b606082015260800190565b6020808252601d908201527f556e69766572736974793a206174746163682066756e64206669727374000000604082015260600190565b6020808252603690820152600080516020613f38833981519152604082015275524541445f53545544454e545f4c4953545f524f4c4560501b606082015260800190565b60208082526026908201527f4f776e61626c653a206e6577206f776e657220697320746865207a65726f206160408201526564647265737360d01b606082015260800190565b6020808252603290820152600080516020613f3883398151915260408201527146554e44535f4d414e414745525f524f4c4560701b606082015260800190565b6020808252818101527f556e69766572736974793a206e6f7420656e6f75676820656e646f776d656e74604082015260600190565b60208082526026908201527f556e69766572736974793a2073747564656e7420616c726561647920726567696040820152651cdd195c995960d21b606082015260800190565b60208082526026908201527f556e69766572736974793a206e6f7420656e6f75676820617661696c61626c656040820152652066756e647360d01b606082015260800190565b6020808252601b908201527a536166654d6174683a206164646974696f6e206f766572666c6f7760281b604082015260600190565b60208082526035908201527f556e69766572736974793a2063616c6c6572206973206e6f742073747564656e6040820152743a1037b3103a3434b99030b8383634b1b0ba34b7b760591b606082015260800190565b6020808252603490820152600080516020613f38833981519152604082015273434c4153534c4953545f41444d494e5f524f4c4560601b606082015260800190565b6020808252603590820152600080516020613f3883398151915260408201527453545544454e545f4944454e544954595f524f4c4560581b606082015260800190565b60208082526021908201527f436c617373726f6f6d3a2072656164207065726d697373696f6e2064656e69656040820152601960fa1b606082015260800190565b6020808252603890820152600080516020613f38833981519152604082015277434c415353524f4f4d5f50524f464553534f525f524f4c4560401b606082015260800190565b60208082526023908201527f556e69766572736974793a20696e76616c69642073747564656e74206164647260408201526265737360e81b606082015260800190565b6020808252603090820152600080516020613f5883398151915260408201526f2061646d696e20746f207265766f6b6560801b606082015260800190565b60208082526026908201527f556e69766572736974793a206e6f7420656e6f7567682066756e647320746f206040820152651a5b9d995cdd60d21b606082015260800190565b6020808252818101527f4f776e61626c653a2063616c6c6572206973206e6f7420746865206f776e6572604082015260600190565b6020808252601f908201527f556e69766572736974793a207265636f7665722066756e647320666972737400604082015260600190565b60208082526029908201527f556e69766572736974793a206e6f7420656e6f756768206f7065726174696f6e604082015268185b08189d5919d95d60ba1b606082015260800190565b6020808252603390820152600080516020613f388339815191526040820152724752414e54535f4d414e414745525f524f4c4560681b606082015260800190565b6020808252603890820152600080516020613f38833981519152604082015277554e49564552534954595f4f564552534545525f524f4c4560401b606082015260800190565b6020808252602d908201527f556e69766572736974793a2047534e206e6f7420656e61626c656420666f722060408201526c3a3434b990333ab731ba34b7b760991b606082015260800190565b60208082526023908201527f5472616e7366657248656c7065723a204554485f5452414e534645525f46414960408201526213115160ea1b606082015260800190565b60208082526029908201527f556e69766572736974793a206170706c69636174696f6e206973206e6f7420736040820152681d58d8d95cdcd99d5b60ba1b606082015260800190565b6020808252603a908201527f556e69766572736974793a20726563656976657220646f65736e2774206861766040820152796520524547495354455245445f535550504c4945525f524f4c4560301b606082015260800190565b60208082526035908201527f556e69766572736974793a207468697320756e6976657273697479206973206e6040820152741bdd081bdddb995c881bd9881d1a1a5cc8199d5b99605a1b606082015260800190565b60208082526024908201527f5472616e7366657248656c7065723a205452414e534645525f46524f4d5f46416040820152631253115160e21b606082015260800190565b6020808252602f908201527f416363657373436f6e74726f6c3a2063616e206f6e6c792072656e6f756e636560408201526e103937b632b9903337b91039b2b63360891b606082015260800190565b62ffffff91909116815260200190565b6000808335601e19843603018112613e56578283fd5b838101803592506001600160401b03831115613e70578384fd5b60200192505036819003821315613e8657600080fd5b9250929050565b6040518181016001600160401b0381118282101715613eab57600080fd5b604052919050565b60006001600160401b03821115613ec8578081fd5b5060209081020190565b60005b83811015613eed578181015183820152602001613ed5565b83811115613efc576000848401525b50505050565b6001600160a01b0381168114610d5457600080fdfe8be0079c531659141344cd1fd0a4f28419497f9722a3daafe3b4186f6b6457e0556e69766572736974793a2063616c6c657220646f65736e2774206861766520416363657373436f6e74726f6c3a2073656e646572206d75737420626520616ea26469706673582212209c8914aecc083aefe2ec656053cd16ca267fe12ba97ab3c0cacf91370d6b98ce64736f6c63430006060033",
  "immutableReferences": {},
  "source": "pragma solidity ^0.6.6;\npragma experimental ABIEncoderV2;\n\nimport \"@openzeppelin/contracts/math/SafeMath.sol\";\nimport \"@openzeppelin/contracts/access/AccessControl.sol\";\nimport \"@openzeppelin/contracts/access/Ownable.sol\";\nimport \"@openzeppelin/contracts/token/ERC20/IERC20.sol\";\nimport \"@uniswap/lib/contracts/libraries/TransferHelper.sol\";\nimport \"@nomiclabs/buidler/console.sol\";\nimport \"@opengsn/gsn/contracts/interfaces/IRelayHub.sol\";\nimport \"@opengsn/gsn/contracts/utils/GSNTypes.sol\";\nimport \"@opengsn/gsn/contracts/BaseRelayRecipient.sol\";\nimport \"./interface/IClassroom.sol\";\nimport \"./interface/IStudent.sol\";\nimport \"./interface/IStudentApplication.sol\";\nimport \"./interface/IClassroomFactory.sol\";\nimport \"./interface/IStudentFactory.sol\";\nimport \"./interface/IUniversity.sol\";\nimport \"./interface/IUniversityFund.sol\";\nimport \"./interface/IGrantsManager.sol\";\nimport \"./MyUtils.sol\";\n\n//TODO: Natspec Document ENVERYTHING\n//TODO: Sort function order from all contracts\n\ncontract University is Ownable, AccessControl, BaseRelayRecipient, IUniversity {\n    using SafeMath for uint256;\n\n    //CLASSLIST_ADMIN_ROLE can add new manually created classes to the list\n    bytes32 public constant CLASSLIST_ADMIN_ROLE = keccak256(\n        \"CLASSLIST_ADMIN_ROLE\"\n    );\n    // FUNDS_MANAGER_ROLE can withdraw funds from the contract\n    bytes32 public constant FUNDS_MANAGER_ROLE = keccak256(\n        \"FUNDS_MANAGER_ROLE\"\n    );\n    // GRANTS_MANAGER_ROLE can approve/decline grant claims\n    bytes32 public constant GRANTS_MANAGER_ROLE = keccak256(\n        \"GRANTS_MANAGER_ROLE\"\n    );\n    // READ_STUDENT_LIST_ROLE allow reading students list\n    bytes32 public constant READ_STUDENT_LIST_ROLE = keccak256(\n        \"READ_STUDENT_LIST_ROLE\"\n    );\n    /// STUDENT_IDENTITY_ROLE allow asking for grants and requesting a classroom from a successful application\n    bytes32 public constant STUDENT_IDENTITY_ROLE = keccak256(\n        \"STUDENT_IDENTITY_ROLE\"\n    );\n    /// CLASSROOM_PROFESSOR_ROLE can manage itself inside the University and registering student applications\n    bytes32 public constant CLASSROOM_PROFESSOR_ROLE = keccak256(\n        \"CLASSROOM_PROFESSOR_ROLE\"\n    );\n    /// UNIVERSITY_OVERSEER_ROLE can inspect Grant Managers and Fund Managers, and present cases for funders to vote upon\n    bytes32 public constant UNIVERSITY_OVERSEER_ROLE = keccak256(\n        \"UNIVERSITY_OVERSEER_ROLE\"\n    );/// REGISTERED_SUPPLIER_ROLE can receive transactions to consume the operational budget\n    bytes32 public constant REGISTERED_SUPPLIER_ROLE = keccak256(\n        \"REGISTERED_SUPPLIER_ROLE\"\n    );\n\n    // Parameter: Name of this University\n    bytes32 public override name;\n    // Parameter: University cut from professor (Parts per Million)\n    uint24 public override cut;\n    // Parameter: GSN funds to give students\n    uint256 _studentGSNDeposit;\n    // List of every registered classroom\n    address[] _classList;\n    // Mapping of each student's applications\n    mapping(address => address[]) _studentApplicationsMapping;\n    // Mapping of every donor and donations\n    mapping(address => uint256) public donators;\n    // Total amount of donations received so far\n    uint256 public donationsReceived;\n    // Total amount of operational revenue received so far\n    uint256 public revenueReceived;\n    // Total amount of financial returns received so far\n    uint256 public returnsReceived;\n    // Total amount of endowment locked in the fund\n    uint256 public endowmentLocked;\n    // Total amount of funds allowed for expenses\n    uint256 public operationalBudget;\n    // University Fund\n    address public override universityFund;\n\n    //Tokens\n    address public daiToken;\n    address public cDAI;\n\n    //GSN\n    IRelayHub public relayHub;\n\n    //Factory\n    address _classroomFactory;\n    address _studentFactory;\n    address _studentApplicationFactoryAddress;\n\n    /// @notice Constructor setup the basic variables\n    /// @dev Not all variables can be defined in this constructor because the limitation of the stack size\n    /// @param name_ Given name for the university\n    /// @param cut_ Cut from professor payments, in PPM\n    /// @param studentGSNDeposit Ammount of ETH to give relayer hub of students for UX reasons, in WEI\n    /// @param daiAddress Adress of contract in the network\n    /// @param relayHubAddress Adress of contract in the network\n    /// @param classroomFactoryAddress Adress of contract in the network\n    /// @param studentFactoryAddress Adress of contract in the network\n    /// @param studentApplicationFactoryAddress Adress of contract in the network\n    constructor(\n        bytes32 name_,\n        uint24 cut_,\n        uint256 studentGSNDeposit,\n        address daiAddress,\n        address compoundDai,\n        address relayHubAddress,\n        address classroomFactoryAddress,\n        address studentFactoryAddress,\n        address studentApplicationFactoryAddress\n    ) public {\n        name = name_;\n        cut = cut_;\n        _studentGSNDeposit = studentGSNDeposit;\n        _setupRole(DEFAULT_ADMIN_ROLE, _msgSender());\n        grantRole(READ_STUDENT_LIST_ROLE, _msgSender());\n        grantRole(CLASSLIST_ADMIN_ROLE, _msgSender());\n        daiToken = daiAddress;\n        cDAI = compoundDai;\n        relayHub = IRelayHub(relayHubAddress);\n        _classroomFactory = classroomFactoryAddress;\n        _studentFactory = studentFactoryAddress;\n        _studentApplicationFactoryAddress = studentApplicationFactoryAddress;\n    }\n\n    /// @notice Allow receiving ETH\n    receive() external payable {\n        emit LogReceived(msg.sender, msg.value);\n    }\n\n    /// @notice Allow taking ETH from the contract\n    function withdraw(uint256 val) public onlyOwner {\n        TransferHelper.safeTransferETH(_msgSender(), val);\n    }\n\n    /// @notice Records the name and address of every new classroom created\n    event LogNewClassroom(bytes32, address);\n    /// @notice Records the name and address of every new student created\n    event LogNewStudent(bytes32, address);\n    /// @notice Records the name changes of this University\n    event LogChangeName(bytes32);\n    /// @notice Records the changes in the Cut parameter\n    event LogChangeCut(uint24);\n    /// @notice Records ETH received\n    event LogReceived(address, uint256);\n    /// @notice Records donations received and the address of the donor\n    event LogDonation(address, uint256);\n    /// @notice Records investment returns received and the address of the caller\n    event LogReturn(address, uint256);\n    /// @notice Records revenues received and the address of the souce\n    event LogRevenue(address, uint256);\n\n    /// @notice Attach the University Fund after creation\n    /// @param addr New value\n    function attachFund(address addr) public onlyOwner {\n        require(\n            IUniversityFund(addr).ownerFund() == address(this),\n            \"University: this university is not owner of this fund\"\n        );\n        universityFund = addr;\n    }\n    \n    /// @notice Change the name of the University\n    /// @param val New value\n    function changeName(bytes32 val) public onlyOwner {\n        name = val;\n        emit LogChangeName(name);\n    }\n\n    /// @notice Change the cut charged from the professors\n    /// @param val New value, in PPM\n    function changeCut(uint24 val) public onlyOwner {\n        cut = val;\n        emit LogChangeCut(cut);\n    }\n\n    /// @notice Change the value of ETH deposited in students relay hub\n    /// @param val New value, in WEI\n    function changeStudentGSNDeposit(uint256 val) public onlyOwner {\n        _studentGSNDeposit = val;\n    }\n\n    /// @return the ammount of DAI able for investing\n    /// @dev ETH is not considered as part of investment funds\n    function availableFundsForInvestment() public view override returns (uint256) {\n        uint256 funds = IERC20(daiToken).balanceOf(address(this));\n        if (funds < operationalBudget) return 0;\n        return funds.sub(operationalBudget);\n    }\n\n    /// @return the ammount of DAI able for giving grants\n    /// @dev ETH is not considered as part of funds\n    function availableFunds() public view override returns (uint256) {\n        uint256 funds = IERC20(daiToken).balanceOf(address(this));\n        if (funds < endowmentLocked.add(operationalBudget)) return 0;\n        return funds.sub(endowmentLocked).sub(operationalBudget);\n    }\n\n    /// @return true if the classroom is registered in this University \n    function isValidClassroom(address classroom) public view override returns (bool) {\n        return hasRole(CLASSROOM_PROFESSOR_ROLE, classroom);\n    }\n\n    /// @return true if the student is registered in this University \n    function studentIsRegistered(address student) public view override returns (bool) {\n        require(\n            hasRole(READ_STUDENT_LIST_ROLE, _msgSender()),\n            \"University: caller doesn't have READ_STUDENT_LIST_ROLE\"\n        );\n        return hasRole(STUDENT_IDENTITY_ROLE, student);\n    }\n\n    /// @return the address of the application of a Student\n    function viewMyApplications() public view override returns (address[] memory) {\n        return viewStudentApplications(_msgSender());\n    }\n\n    /// @return the address of the application of a Student, called from the owner\n    function viewMyStudentApplications(address student) public view returns (address[] memory) {\n        require(\n            IStudent(student).ownerStudent() == _msgSender(),\n            \"University: invalid student address\"\n        );\n        return _studentApplicationsMapping[student];\n    }\n\n    /// @param addr Address of the student\n    /// @return the addresses of the applications of a the supplied address\n    function viewStudentApplications(address addr)\n        public\n        view\n        override\n        returns (address[] memory)\n    {\n        require(\n            addr == _msgSender() || hasRole(GRANTS_MANAGER_ROLE, _msgSender()),\n            \"Classroom: read permission denied\"\n        );\n        return _studentApplicationsMapping[addr];\n    }\n\n    /// @notice Self-register function where an address can create an instance of a Student in this University\n    /// @dev This GSN implementation is buggy\n    /// @param sName Name of the Student\n    function studentSelfRegisterGSN(bytes32 sName) public {\n        address student = _newStudent(sName, _msgSender());\n        relayHub.depositFor{value:_studentGSNDeposit}(student);\n    }\n\n    /// @notice Self-register function where an address can create an instance of a Student in this University\n    /// @param sName Name of the Student\n    function studentSelfRegister(bytes32 sName) public {\n        _newStudent(sName, _msgSender());\n    }\n\n    function _newStudent(bytes32 sName, address caller)\n        internal\n        returns (address) {\n        require(\n            _studentApplicationsMapping[_msgSender()].length == 0,\n            \"University: student already registered\"\n        );\n        //Gambiarra: Push address(0) in the mapping to mark that student as registered in the university\n        _studentApplicationsMapping[caller].push(address(0));\n        address student = IStudentFactory(_studentFactory).newStudent(sName, address(this));\n        IStudent(student).transferOwnershipStudent(caller);\n        _setupRole(STUDENT_IDENTITY_ROLE, student);\n        emit LogNewStudent(name, student);\n        return student;\n    }\n\n    /// @notice Register function where an Admin can can create an instance of a Classroom in this University\n    /// @param owner Address to own this classroom\n    /// @param cName Name this classroom\n    /// @param cCut Cut of the principal amount deposited that is charged from students, in PPM\n    /// @param cPCut Cut of the pooled returns from successful students, in PPM\n    /// @param minScore Minimum score value required from students to be able to apply in this classroom\n    /// @param entryPrice Required deposit to be applied as principal an locked for the duration of the course, in decimal units of DAI\n    /// @param duration Lock time between course opening and closing, in Timestamp\n    /// @param challengeAddress Address to the challenge to be solved in this Classroom's courses\n    /// @return the smart contract address for this Classroom instance in this University\n    function newClassRoom(\n        address owner,\n        bytes32 cName,\n        uint24 cCut,\n        uint24 cPCut,\n        int32 minScore,\n        uint256 entryPrice,\n        uint256 duration,\n        address challengeAddress\n    ) public returns (address) {\n        require(\n            hasRole(CLASSLIST_ADMIN_ROLE, _msgSender()),\n            \"University: caller doesn't have CLASSLIST_ADMIN_ROLE\"\n        );\n        return\n            _newClassRoom(\n                owner,\n                cName,\n                cCut,\n                cPCut,\n                minScore,\n                entryPrice,\n                duration,\n                challengeAddress\n            );\n    }\n\n    function _newClassRoom(\n        address owner,\n        bytes32 cName,\n        uint24 cCut,\n        uint24 cPCut,\n        int32 minScore,\n        uint256 entryPrice,\n        uint256 duration,\n        address challengeAddress\n    ) internal returns (address) {\n        address classroom = IClassroomFactory(_classroomFactory).newClassroom(\n            cName,\n            cCut,\n            cPCut,\n            minScore,\n            entryPrice,\n            duration,\n            payable (address(this)),\n            challengeAddress,\n            daiToken,\n            cDAI,\n            _studentApplicationFactoryAddress\n        );\n        IClassroom(classroom).transferOwnershipClassroom(owner);\n        address classroomAddr = address(classroom);\n        _classList.push(classroomAddr);\n        _setupRole(READ_STUDENT_LIST_ROLE, classroomAddr);\n        _setupRole(CLASSROOM_PROFESSOR_ROLE, classroomAddr);\n        emit LogNewClassroom(cName, classroomAddr);\n        return classroomAddr;\n    }\n\n    /// @notice Register function where an Student can can create an instance of a Classroom in this University, upon being successful in any classroom\n    /// @param applicationAddr Address of the successful application\n    /// @param cName Name this classroom\n    /// @param cCut Cut of the principal amount deposited that is charged from students, in PPM\n    /// @param cPCut Cut of the pooled returns from successful students, in PPM\n    /// @param minScore Minimum score value required from students to be able to apply in this classroom\n    /// @param entryPrice Required deposit to be applied as principal an locked for the duration of the course, in decimal units of DAI\n    /// @param duration Lock time between course opening and closing, in Timestamp\n    /// @param challenge Address to the challenge to be solved in this Classroom's courses\n    /// @return the smart contract address for this Classroom instance in this University\n    function studentRequestClassroom(\n        address applicationAddr,\n        bytes32 cName,\n        uint24 cCut,\n        uint24 cPCut,\n        int32 minScore,\n        uint256 entryPrice,\n        uint256 duration,\n        address challenge\n    ) public override returns (address) {\n        require(\n            hasRole(STUDENT_IDENTITY_ROLE, _msgSender()),\n            \"University: caller doesn't have STUDENT_IDENTITY_ROLE\"\n        );\n        require(\n            checkForStudentApplication(_msgSender(), applicationAddr),\n            \"University: caller is not student of this application\"\n        );\n        IStudentApplication application = IStudentApplication(applicationAddr);\n        require(\n            application.applicationState() == 3,\n            \"University: application is not successful\"\n        );\n        return\n            _newClassRoom(\n                IStudent(_msgSender()).ownerStudent(),\n                cName,\n                cCut,\n                cPCut,\n                minScore,\n                entryPrice,\n                duration,\n                challenge\n            );\n    }\n\n    /// @notice Register and map a Student's application to this Student\n    /// @param student Address of the Student\n    /// @param application Address of the application\n    function registerStudentApplication(\n        address student,\n        address application\n    ) public override\n    {\n        require(\n            hasRole(CLASSROOM_PROFESSOR_ROLE, _msgSender()),\n            \"University: caller doesn't have CLASSROOM_PROFESSOR_ROLE\"\n        );\n        _studentApplicationsMapping[student].push(application);\n    }\n\n    /// @notice Check if an application belongs to a specific Student\n    /// @param studentAddress Address of the Student\n    /// @param applicationAddress Address of the application\n    /// @return true if the application belongs to the Student\n    function checkForStudentApplication(\n        address studentAddress,\n        address applicationAddress\n    ) internal view returns (bool) {\n        for (\n            uint256 i = 0;\n            i < _studentApplicationsMapping[studentAddress].length;\n            i++\n        ) {\n            if (\n                _studentApplicationsMapping[studentAddress][i] ==\n                applicationAddress\n            ) return true;\n        }\n        return false;\n    }\n\n    /// @notice Increase a Student's score upon successful application\n    /// @param student Address of the Student\n    /// @param val Value to be added\n    function addStudentScore(address student, int32 val) public override {\n        require(\n            hasRole(CLASSROOM_PROFESSOR_ROLE, _msgSender()),\n            \"University: caller doesn't have CLASSROOM_PROFESSOR_ROLE\"\n        );\n        IStudent(student).addScore(val);\n    }\n\n    /// @notice Decrease a Student's score upon failed application\n    /// @param student Address of the Student\n    /// @param val Value to be subtracted\n    function subStudentScore(address student, int32 val) public override {\n        require(\n            hasRole(CLASSROOM_PROFESSOR_ROLE, _msgSender()),\n            \"University: caller doesn't have CLASSROOM_PROFESSOR_ROLE\"\n        );\n        IStudent(student).subScore(val);\n    }\n\n    /// @notice Allow managing the university Funds. Must be called from an appointed Funds Manager\n    function applyFunds(uint256 val) public override {\n        require(\n            hasRole(FUNDS_MANAGER_ROLE, _msgSender()),\n            \"University: caller doesn't have FUNDS_MANAGER_ROLE\"\n        );\n        require(\n            availableFundsForInvestment() >= val,\n            \"University: not enough funds to invest\"\n        );\n        require(\n            universityFund != address(0),\n            \"University: attach fund first\"\n        );\n        TransferHelper.safeTransfer(address(daiToken), universityFund, val);\n    }\n\n    /// @notice Get the ammount of DAI applied in Fund\n    /// @return ammount of DAI applied in Fund\n    function appliedFunds() public view returns (uint256) {\n        require(\n            universityFund != address(0),\n            \"University: attach fund first\"\n        );\n        return IERC20(daiToken).balanceOf(universityFund);\n    }\n\n    /// @notice Allow managing the university Funds. Must be called from an appointed Funds Manager\n    function recoverFunds(uint256 val) public override {\n        require(\n            hasRole(FUNDS_MANAGER_ROLE, _msgSender()),\n            \"University: caller doesn't have FUNDS_MANAGER_ROLE\"\n        );\n        require(\n            universityFund != address(0),\n            \"University: attach fund first\"\n        );\n        TransferHelper.safeTransferFrom(address(daiToken), universityFund, address(this), val);\n    }\n\n    /// @notice Allow managing the university Funds. Must be called from an appointed Funds Manager\n    function applyFundsETH(uint256 val) public override {\n        require(\n            hasRole(FUNDS_MANAGER_ROLE, _msgSender()),\n            \"University: caller doesn't have FUNDS_MANAGER_ROLE\"\n        );\n        require(\n            universityFund != address(0),\n            \"University: attach fund first\"\n        );\n        TransferHelper.safeTransferETH(universityFund, val);\n    }\n\n    /// @notice Get the ammount of ETH applied in Fund\n    /// @return ammount of ETH applied in Fund\n    function appliedFundsETH() public view returns (uint256) {\n        require(\n            universityFund != address(0),\n            \"University: attach fund first\"\n        );\n        return universityFund.balance;\n    }\n\n    /// @notice Allow managing the university Funds. Must be called from an appointed Funds Manager\n    function recoverFundsETH(uint256 val) public override {\n        require(\n            hasRole(FUNDS_MANAGER_ROLE, _msgSender()),\n            \"University: caller doesn't have FUNDS_MANAGER_ROLE\"\n        );\n        require(\n            universityFund != address(0),\n            \"University: attach fund first\"\n        );\n        IUniversityFund(universityFund).withdraw(val);\n    }\n\n    /// @notice Grants role to account inside University Fund\n    function grantRoleFund(bytes32 role, address account) public {\n        require(\n            universityFund != address(0),\n            \"University: attach fund first\"\n        );\n        IUniversityFund(universityFund).grantRoleFund(role, account);\n    }\n\n    /// @notice Revoke role from account inside University Fund\n    function revokeRoleFund(bytes32 role, address account) public {\n        require(\n            universityFund != address(0),\n            \"University: attach fund first\"\n        );\n        IUniversityFund(universityFund).revokeRoleFund(role, account);\n    }\n\n    /// @notice Allow managing how much Funds Manager can draw from funds to cover operational expenses. Must be called from the university admin\n    /// @param val Value to increase\n    function increaseOperationalBudget(uint256 val) public onlyOwner {\n        require(\n            endowmentLocked >= val,\n            \"University: not enough endowment\"\n        );\n        operationalBudget = operationalBudget.add(val);\n        endowmentLocked = endowmentLocked.sub(val);\n    }\n\n    /// @notice Allow managing how much Funds Manager can draw from funds to cover operational expenses. Must be called from the university admin\n    /// @param val Value to decrease\n    function decreaseOperationalBudget(uint256 val) public onlyOwner {\n        require(\n            operationalBudget >= val,\n            \"University: not enough budget to decrease\"\n        );\n        operationalBudget = operationalBudget.sub(val);\n        endowmentLocked = endowmentLocked.add(val);\n    }\n\n    /// @notice Allow a Funds Manager to send funds to Registered Suppliers, spending the operational budget set by the University owner\n    /// @param to Address of the Registered Supplier\n    /// @param val Value to be sent, in DAI decimals\n    function spendBudget(address to, uint256 val) public override {\n        require(\n            hasRole(FUNDS_MANAGER_ROLE, _msgSender()),\n            \"University: caller doesn't have FUNDS_MANAGER_ROLE\"\n        );\n        require(\n            hasRole(REGISTERED_SUPPLIER_ROLE, to),\n            \"University: receiver doesn't have REGISTERED_SUPPLIER_ROLE\"\n        );\n        require(\n            operationalBudget >= val,\n            \"University: not enough operational budget\"\n        );\n        require(\n            IERC20(daiToken).balanceOf(address(this)) >= val,\n            \"University: recover funds first\"\n        );\n        TransferHelper.safeTransfer(address(daiToken), to, val);\n        operationalBudget = operationalBudget.sub(val);\n    }\n\n    /// @notice Allow a Grants Manager to pay a Student's entry price for an application, if the appointed Grants Manager decide so\n    /// @param studentApplication Address of the Student\n    /// @param price Value of the application's entry price\n    function giveGrant(address studentApplication, uint256 price) public override {\n        require(\n            hasRole(GRANTS_MANAGER_ROLE, _msgSender()),\n            \"University: caller doesn't have GRANTS_MANAGER_ROLE\"\n        );\n        require(\n            availableFunds() >= price,\n            \"University: not enough available funds\"\n        );\n        IStudentApplication(studentApplication).payEntryPrice();\n    }\n\n    /// @notice Allow a Funds Manager to redirect surplus funds from liquidated positions to the endowment locked value. Irreversible\n    /// @param val Value to be sent, in DAI decimals\n    function reinvestReturns(uint256 val) public override {\n        require(\n            hasRole(FUNDS_MANAGER_ROLE, _msgSender()),\n            \"University: caller doesn't have FUNDS_MANAGER_ROLE\"\n        );\n        require(\n            availableFunds() >= val,\n            \"University: not enough available funds\"\n        );\n        accountReturns(val);\n    }\n\n    /// @notice Allow an appointed Overseer to inspect all students that received grants by a specific Grants Manager\n    /// @param grantsManager Address of the Grants Manager\n    /// @return array of Students addresses\n    function viewAllStudentsFromGrantManager(\n            address grantsManager\n        ) public returns (address[] memory) {\n        require(\n            hasRole(UNIVERSITY_OVERSEER_ROLE, _msgSender()),\n            \"University: caller doesn't have UNIVERSITY_OVERSEER_ROLE\"\n        );\n        return IGrantsManager(grantsManager).viewAllStudents();\n    }\n\n    /// @notice Allow an appointed Overseer to inspect all grants issued by a specific Grants Manager to a specific Student\n    /// @param student Address of the Student\n    /// @param grantsManager Address of the Grants Manager\n    /// @return array of grant values\n    function viewAllStudentGrantsFromGrantManager(\n            address student, \n            address grantsManager\n        ) public returns (uint256[] memory) {\n        require(\n            hasRole(UNIVERSITY_OVERSEER_ROLE, _msgSender()),\n            \"University: caller doesn't have UNIVERSITY_OVERSEER_ROLE\"\n        );\n        return IGrantsManager(grantsManager).viewAllGrantsForStudent(student);\n    }\n\n    /// @notice GSN specific implementation\n    function _msgSender()\n    internal \n    view \n    override(Context, BaseRelayRecipient) \n    returns (address payable sender){\n        return BaseRelayRecipient._msgSender();\n    }\n\n    /// @notice GSN specific implementation\n    /// @dev The idea here is only to allow GSN interactions with one specific funcion\n    function acceptRelayedCall(\n        GSNTypes.RelayRequest calldata relayRequest,\n        bytes calldata,\n        uint256\n    ) external pure returns (bytes memory context) {\n        require(\n            MyUtils.readBytes4(relayRequest.encodedFunction, 0) ==\n                this.studentSelfRegisterGSN.selector,\n            \"University: GSN not enabled for this function\"\n        );\n        return abi.encode(relayRequest.target, 0);\n    }\n\n    /// @notice Allow a Funds Manager to refill the GSN relayer using the University ETH funds\n    /// @param val Value to be deposited in the relayer, in WEI\n    function refillUniversityRelayer(uint256 val) public {\n        require(\n            hasRole(FUNDS_MANAGER_ROLE, _msgSender()) || _msgSender() == owner(),\n            \"University: caller doesn't have FUNDS_MANAGER_ROLE\"\n        );\n        relayHub.depositFor{value:val}(address(this));\n    }\n\n    /// @notice Allow donating DAI to the University funds. Require allowing the University first\n    /// @param donation amount of DAI to donate, in decimals\n    function donateDAI(uint256 donation) public override {\n        TransferHelper.safeTransferFrom(\n            address(daiToken),\n            _msgSender(),\n            address(this),\n            donation\n        );\n        accountDonation(_msgSender(), donation);\n    }\n\n    function accountDonation(address sender, uint256 donation) internal {\n        donationsReceived = donationsReceived.add(donation);\n        endowmentLocked = endowmentLocked.add(donation);\n        donators[sender] = donators[sender].add(donation);\n        LogDonation(_msgSender(), donation);\n    }\n    \n    /// @notice Classroom call to account a revenue received from a completed course\n    function accountRevenue(uint256 revenue) public override {\n        require(\n            hasRole(CLASSROOM_PROFESSOR_ROLE, _msgSender()),\n            \"University: caller doesn't have CLASSROOM_PROFESSOR_ROLE\"\n        );\n        revenueReceived = revenueReceived.add(revenue);\n        endowmentLocked = endowmentLocked.add(revenue);\n        LogRevenue(_msgSender(), revenue);\n    }\n\n    function accountReturns(uint256 financialReturns) internal {\n        returnsReceived = revenueReceived.add(financialReturns);\n        endowmentLocked = endowmentLocked.add(financialReturns);\n        LogReturn(_msgSender(), financialReturns);\n    }\n}\n",
  "sourcePath": "/Users/flavioneto/Uproot/contracts/University.sol",
  "compiler": {
    "name": "solc",
    "version": "0.6.6+commit.6c089d02.Emscripten.clang"
  },
  "schemaVersion": "3.1.0",
  "updatedAt": "2020-05-13T23:31:09.782Z",
  "devdoc": {
    "methods": {
      "acceptRelayedCall((address,bytes,(uint256,uint256,uint256,uint256),(address,uint256,address,address)),bytes,uint256)": {
        "details": "The idea here is only to allow GSN interactions with one specific funcion"
      },
      "addStudentScore(address,int32)": {
        "params": {
          "student": "Address of the Student",
          "val": "Value to be added"
        }
      },
      "attachFund(address)": {
        "params": {
          "addr": "New value"
        }
      },
      "availableFunds()": {
        "details": "ETH is not considered as part of funds",
        "returns": {
          "_0": "the ammount of DAI able for giving grants"
        }
      },
      "availableFundsForInvestment()": {
        "details": "ETH is not considered as part of investment funds",
        "returns": {
          "_0": "the ammount of DAI able for investing"
        }
      },
      "changeCut(uint24)": {
        "params": {
          "val": "New value, in PPM"
        }
      },
      "changeName(bytes32)": {
        "params": {
          "val": "New value"
        }
      },
      "changeStudentGSNDeposit(uint256)": {
        "params": {
          "val": "New value, in WEI"
        }
      },
      "constructor": {
        "details": "Not all variables can be defined in this constructor because the limitation of the stack size",
        "params": {
          "classroomFactoryAddress": "Adress of contract in the network",
          "cut_": "Cut from professor payments, in PPM",
          "daiAddress": "Adress of contract in the network",
          "name_": "Given name for the university",
          "relayHubAddress": "Adress of contract in the network",
          "studentApplicationFactoryAddress": "Adress of contract in the network",
          "studentFactoryAddress": "Adress of contract in the network",
          "studentGSNDeposit": "Ammount of ETH to give relayer hub of students for UX reasons, in WEI"
        }
      },
      "decreaseOperationalBudget(uint256)": {
        "params": {
          "val": "Value to decrease"
        }
      },
      "donateDAI(uint256)": {
        "params": {
          "donation": "amount of DAI to donate, in decimals"
        }
      },
      "getRoleAdmin(bytes32)": {
        "details": "Returns the admin role that controls `role`. See {grantRole} and {revokeRole}.     * To change a role's admin, use {_setRoleAdmin}."
      },
      "getRoleMember(bytes32,uint256)": {
        "details": "Returns one of the accounts that have `role`. `index` must be a value between 0 and {getRoleMemberCount}, non-inclusive.     * Role bearers are not sorted in any particular way, and their ordering may change at any point.     * WARNING: When using {getRoleMember} and {getRoleMemberCount}, make sure you perform all queries on the same block. See the following https://forum.openzeppelin.com/t/iterating-over-elements-on-enumerableset-in-openzeppelin-contracts/2296[forum post] for more information."
      },
      "getRoleMemberCount(bytes32)": {
        "details": "Returns the number of accounts that have `role`. Can be used together with {getRoleMember} to enumerate all bearers of a role."
      },
      "giveGrant(address,uint256)": {
        "params": {
          "price": "Value of the application's entry price",
          "studentApplication": "Address of the Student"
        }
      },
      "grantRole(bytes32,address)": {
        "details": "Grants `role` to `account`.     * If `account` had not been already granted `role`, emits a {RoleGranted} event.     * Requirements:     * - the caller must have ``role``'s admin role."
      },
      "hasRole(bytes32,address)": {
        "details": "Returns `true` if `account` has been granted `role`."
      },
      "increaseOperationalBudget(uint256)": {
        "params": {
          "val": "Value to increase"
        }
      },
      "newClassRoom(address,bytes32,uint24,uint24,int32,uint256,uint256,address)": {
        "params": {
          "cCut": "Cut of the principal amount deposited that is charged from students, in PPM",
          "cName": "Name this classroom",
          "cPCut": "Cut of the pooled returns from successful students, in PPM",
          "challengeAddress": "Address to the challenge to be solved in this Classroom's courses",
          "duration": "Lock time between course opening and closing, in Timestamp",
          "entryPrice": "Required deposit to be applied as principal an locked for the duration of the course, in decimal units of DAI",
          "minScore": "Minimum score value required from students to be able to apply in this classroom",
          "owner": "Address to own this classroom"
        },
        "returns": {
          "_0": "the smart contract address for this Classroom instance in this University"
        }
      },
      "owner()": {
        "details": "Returns the address of the current owner."
      },
      "refillUniversityRelayer(uint256)": {
        "params": {
          "val": "Value to be deposited in the relayer, in WEI"
        }
      },
      "registerStudentApplication(address,address)": {
        "params": {
          "application": "Address of the application",
          "student": "Address of the Student"
        }
      },
      "reinvestReturns(uint256)": {
        "params": {
          "val": "Value to be sent, in DAI decimals"
        }
      },
      "renounceOwnership()": {
        "details": "Leaves the contract without owner. It will not be possible to call `onlyOwner` functions anymore. Can only be called by the current owner.     * NOTE: Renouncing ownership will leave the contract without an owner, thereby removing any functionality that is only available to the owner."
      },
      "renounceRole(bytes32,address)": {
        "details": "Revokes `role` from the calling account.     * Roles are often managed via {grantRole} and {revokeRole}: this function's purpose is to provide a mechanism for accounts to lose their privileges if they are compromised (such as when a trusted device is misplaced).     * If the calling account had been granted `role`, emits a {RoleRevoked} event.     * Requirements:     * - the caller must be `account`."
      },
      "revokeRole(bytes32,address)": {
        "details": "Revokes `role` from `account`.     * If `account` had been granted `role`, emits a {RoleRevoked} event.     * Requirements:     * - the caller must have ``role``'s admin role."
      },
      "spendBudget(address,uint256)": {
        "params": {
          "to": "Address of the Registered Supplier",
          "val": "Value to be sent, in DAI decimals"
        }
      },
      "studentRequestClassroom(address,bytes32,uint24,uint24,int32,uint256,uint256,address)": {
        "params": {
          "applicationAddr": "Address of the successful application",
          "cCut": "Cut of the principal amount deposited that is charged from students, in PPM",
          "cName": "Name this classroom",
          "cPCut": "Cut of the pooled returns from successful students, in PPM",
          "challenge": "Address to the challenge to be solved in this Classroom's courses",
          "duration": "Lock time between course opening and closing, in Timestamp",
          "entryPrice": "Required deposit to be applied as principal an locked for the duration of the course, in decimal units of DAI",
          "minScore": "Minimum score value required from students to be able to apply in this classroom"
        },
        "returns": {
          "_0": "the smart contract address for this Classroom instance in this University"
        }
      },
      "studentSelfRegister(bytes32)": {
        "params": {
          "sName": "Name of the Student"
        }
      },
      "studentSelfRegisterGSN(bytes32)": {
        "details": "This GSN implementation is buggy",
        "params": {
          "sName": "Name of the Student"
        }
      },
      "subStudentScore(address,int32)": {
        "params": {
          "student": "Address of the Student",
          "val": "Value to be subtracted"
        }
      },
      "transferOwnership(address)": {
        "details": "Transfers ownership of the contract to a new account (`newOwner`). Can only be called by the current owner."
      },
      "viewAllStudentGrantsFromGrantManager(address,address)": {
        "params": {
          "grantsManager": "Address of the Grants Manager",
          "student": "Address of the Student"
        },
        "returns": {
          "_0": "array of grant values"
        }
      },
      "viewAllStudentsFromGrantManager(address)": {
        "params": {
          "grantsManager": "Address of the Grants Manager"
        },
        "returns": {
          "_0": "array of Students addresses"
        }
      },
      "viewStudentApplications(address)": {
        "params": {
          "addr": "Address of the student"
        },
        "returns": {
          "_0": "the addresses of the applications of a the supplied address"
        }
      }
    }
  },
  "userdoc": {
    "methods": {
      "acceptRelayedCall((address,bytes,(uint256,uint256,uint256,uint256),(address,uint256,address,address)),bytes,uint256)": {
        "notice": "GSN specific implementation"
      },
      "accountRevenue(uint256)": {
        "notice": "Classroom call to account a revenue received from a completed course"
      },
      "addStudentScore(address,int32)": {
        "notice": "Increase a Student's score upon successful application"
      },
      "appliedFunds()": {
        "notice": "Get the ammount of DAI applied in Fund"
      },
      "appliedFundsETH()": {
        "notice": "Get the ammount of ETH applied in Fund"
      },
      "applyFunds(uint256)": {
        "notice": "Allow managing the university Funds. Must be called from an appointed Funds Manager"
      },
      "applyFundsETH(uint256)": {
        "notice": "Allow managing the university Funds. Must be called from an appointed Funds Manager"
      },
      "attachFund(address)": {
        "notice": "Attach the University Fund after creation"
      },
      "changeCut(uint24)": {
        "notice": "Change the cut charged from the professors"
      },
      "changeName(bytes32)": {
        "notice": "Change the name of the University"
      },
      "changeStudentGSNDeposit(uint256)": {
        "notice": "Change the value of ETH deposited in students relay hub"
      },
      "constructor": "Constructor setup the basic variables",
      "decreaseOperationalBudget(uint256)": {
        "notice": "Allow managing how much Funds Manager can draw from funds to cover operational expenses. Must be called from the university admin"
      },
      "donateDAI(uint256)": {
        "notice": "Allow donating DAI to the University funds. Require allowing the University first"
      },
      "giveGrant(address,uint256)": {
        "notice": "Allow a Grants Manager to pay a Student's entry price for an application, if the appointed Grants Manager decide so"
      },
      "grantRoleFund(bytes32,address)": {
        "notice": "Grants role to account inside University Fund"
      },
      "increaseOperationalBudget(uint256)": {
        "notice": "Allow managing how much Funds Manager can draw from funds to cover operational expenses. Must be called from the university admin"
      },
      "newClassRoom(address,bytes32,uint24,uint24,int32,uint256,uint256,address)": {
        "notice": "Register function where an Admin can can create an instance of a Classroom in this University"
      },
      "recoverFunds(uint256)": {
        "notice": "Allow managing the university Funds. Must be called from an appointed Funds Manager"
      },
      "recoverFundsETH(uint256)": {
        "notice": "Allow managing the university Funds. Must be called from an appointed Funds Manager"
      },
      "refillUniversityRelayer(uint256)": {
        "notice": "Allow a Funds Manager to refill the GSN relayer using the University ETH funds"
      },
      "registerStudentApplication(address,address)": {
        "notice": "Register and map a Student's application to this Student"
      },
      "reinvestReturns(uint256)": {
        "notice": "Allow a Funds Manager to redirect surplus funds from liquidated positions to the endowment locked value. Irreversible"
      },
      "revokeRoleFund(bytes32,address)": {
        "notice": "Revoke role from account inside University Fund"
      },
      "spendBudget(address,uint256)": {
        "notice": "Allow a Funds Manager to send funds to Registered Suppliers, spending the operational budget set by the University owner"
      },
      "studentRequestClassroom(address,bytes32,uint24,uint24,int32,uint256,uint256,address)": {
        "notice": "Register function where an Student can can create an instance of a Classroom in this University, upon being successful in any classroom"
      },
      "studentSelfRegister(bytes32)": {
        "notice": "Self-register function where an address can create an instance of a Student in this University"
      },
      "studentSelfRegisterGSN(bytes32)": {
        "notice": "Self-register function where an address can create an instance of a Student in this University"
      },
      "subStudentScore(address,int32)": {
        "notice": "Decrease a Student's score upon failed application"
      },
      "viewAllStudentGrantsFromGrantManager(address,address)": {
        "notice": "Allow an appointed Overseer to inspect all grants issued by a specific Grants Manager to a specific Student"
      },
      "viewAllStudentsFromGrantManager(address)": {
        "notice": "Allow an appointed Overseer to inspect all students that received grants by a specific Grants Manager"
      },
      "withdraw(uint256)": {
        "notice": "Allow taking ETH from the contract"
      }
    }
  }
}