{
  "contractName": "UniversityFund",
  "abi": [
    {
      "inputs": [
        {
          "internalType": "address",
          "name": "university",
          "type": "address"
        },
        {
          "internalType": "address",
          "name": "daiAddress",
          "type": "address"
        },
        {
          "internalType": "address",
          "name": "compoundDAIAddress",
          "type": "address"
        },
        {
          "internalType": "address",
          "name": "comptrollerAddress",
          "type": "address"
        },
        {
          "internalType": "address",
          "name": "priceOracleAddress",
          "type": "address"
        },
        {
          "internalType": "address",
          "name": "uniswapWETH",
          "type": "address"
        },
        {
          "internalType": "address",
          "name": "uniswapDAI",
          "type": "address"
        },
        {
          "internalType": "address",
          "name": "uniswapRouter",
          "type": "address"
        },
        {
          "internalType": "address",
          "name": "lendingPoolAddressesProvider",
          "type": "address"
        }
      ],
      "stateMutability": "nonpayable",
      "type": "constructor"
    },
    {
      "anonymous": false,
      "inputs": [
        {
          "indexed": true,
          "internalType": "address",
          "name": "previousOwner",
          "type": "address"
        },
        {
          "indexed": true,
          "internalType": "address",
          "name": "newOwner",
          "type": "address"
        }
      ],
      "name": "OwnershipTransferred",
      "type": "event"
    },
    {
      "anonymous": false,
      "inputs": [
        {
          "indexed": true,
          "internalType": "bytes32",
          "name": "role",
          "type": "bytes32"
        },
        {
          "indexed": true,
          "internalType": "address",
          "name": "account",
          "type": "address"
        },
        {
          "indexed": true,
          "internalType": "address",
          "name": "sender",
          "type": "address"
        }
      ],
      "name": "RoleGranted",
      "type": "event"
    },
    {
      "anonymous": false,
      "inputs": [
        {
          "indexed": true,
          "internalType": "bytes32",
          "name": "role",
          "type": "bytes32"
        },
        {
          "indexed": true,
          "internalType": "address",
          "name": "account",
          "type": "address"
        },
        {
          "indexed": true,
          "internalType": "address",
          "name": "sender",
          "type": "address"
        }
      ],
      "name": "RoleRevoked",
      "type": "event"
    },
    {
      "inputs": [],
      "name": "DEFAULT_ADMIN_ROLE",
      "outputs": [
        {
          "internalType": "bytes32",
          "name": "",
          "type": "bytes32"
        }
      ],
      "stateMutability": "view",
      "type": "function",
      "constant": true
    },
    {
      "inputs": [],
      "name": "FUNDS_MANAGER_ROLE",
      "outputs": [
        {
          "internalType": "bytes32",
          "name": "",
          "type": "bytes32"
        }
      ],
      "stateMutability": "view",
      "type": "function",
      "constant": true
    },
    {
      "inputs": [],
      "name": "_uniswapRouter",
      "outputs": [
        {
          "internalType": "contract IUniswapV2Router01",
          "name": "",
          "type": "address"
        }
      ],
      "stateMutability": "view",
      "type": "function",
      "constant": true
    },
    {
      "inputs": [],
      "name": "cDAI",
      "outputs": [
        {
          "internalType": "contract CERC20",
          "name": "",
          "type": "address"
        }
      ],
      "stateMutability": "view",
      "type": "function",
      "constant": true
    },
    {
      "inputs": [],
      "name": "comptroller",
      "outputs": [
        {
          "internalType": "contract IComptroller",
          "name": "",
          "type": "address"
        }
      ],
      "stateMutability": "view",
      "type": "function",
      "constant": true
    },
    {
      "inputs": [],
      "name": "daiToken",
      "outputs": [
        {
          "internalType": "contract IERC20",
          "name": "",
          "type": "address"
        }
      ],
      "stateMutability": "view",
      "type": "function",
      "constant": true
    },
    {
      "inputs": [
        {
          "internalType": "bytes32",
          "name": "role",
          "type": "bytes32"
        }
      ],
      "name": "getRoleAdmin",
      "outputs": [
        {
          "internalType": "bytes32",
          "name": "",
          "type": "bytes32"
        }
      ],
      "stateMutability": "view",
      "type": "function",
      "constant": true
    },
    {
      "inputs": [
        {
          "internalType": "bytes32",
          "name": "role",
          "type": "bytes32"
        },
        {
          "internalType": "uint256",
          "name": "index",
          "type": "uint256"
        }
      ],
      "name": "getRoleMember",
      "outputs": [
        {
          "internalType": "address",
          "name": "",
          "type": "address"
        }
      ],
      "stateMutability": "view",
      "type": "function",
      "constant": true
    },
    {
      "inputs": [
        {
          "internalType": "bytes32",
          "name": "role",
          "type": "bytes32"
        }
      ],
      "name": "getRoleMemberCount",
      "outputs": [
        {
          "internalType": "uint256",
          "name": "",
          "type": "uint256"
        }
      ],
      "stateMutability": "view",
      "type": "function",
      "constant": true
    },
    {
      "inputs": [
        {
          "internalType": "bytes32",
          "name": "role",
          "type": "bytes32"
        },
        {
          "internalType": "address",
          "name": "account",
          "type": "address"
        }
      ],
      "name": "grantRole",
      "outputs": [],
      "stateMutability": "nonpayable",
      "type": "function"
    },
    {
      "inputs": [
        {
          "internalType": "bytes32",
          "name": "role",
          "type": "bytes32"
        },
        {
          "internalType": "address",
          "name": "account",
          "type": "address"
        }
      ],
      "name": "hasRole",
      "outputs": [
        {
          "internalType": "bool",
          "name": "",
          "type": "bool"
        }
      ],
      "stateMutability": "view",
      "type": "function",
      "constant": true
    },
    {
      "inputs": [],
      "name": "owner",
      "outputs": [
        {
          "internalType": "address",
          "name": "",
          "type": "address"
        }
      ],
      "stateMutability": "view",
      "type": "function",
      "constant": true
    },
    {
      "inputs": [],
      "name": "priceOracle",
      "outputs": [
        {
          "internalType": "contract IPriceOracle",
          "name": "",
          "type": "address"
        }
      ],
      "stateMutability": "view",
      "type": "function",
      "constant": true
    },
    {
      "inputs": [],
      "name": "renounceOwnership",
      "outputs": [],
      "stateMutability": "nonpayable",
      "type": "function"
    },
    {
      "inputs": [
        {
          "internalType": "bytes32",
          "name": "role",
          "type": "bytes32"
        },
        {
          "internalType": "address",
          "name": "account",
          "type": "address"
        }
      ],
      "name": "renounceRole",
      "outputs": [],
      "stateMutability": "nonpayable",
      "type": "function"
    },
    {
      "inputs": [
        {
          "internalType": "bytes32",
          "name": "role",
          "type": "bytes32"
        },
        {
          "internalType": "address",
          "name": "account",
          "type": "address"
        }
      ],
      "name": "revokeRole",
      "outputs": [],
      "stateMutability": "nonpayable",
      "type": "function"
    },
    {
      "inputs": [
        {
          "internalType": "address",
          "name": "newOwner",
          "type": "address"
        }
      ],
      "name": "transferOwnership",
      "outputs": [],
      "stateMutability": "nonpayable",
      "type": "function"
    },
    {
      "stateMutability": "payable",
      "type": "receive",
      "payable": true
    },
    {
      "inputs": [
        {
          "internalType": "uint256",
          "name": "val",
          "type": "uint256"
        }
      ],
      "name": "withdraw",
      "outputs": [],
      "stateMutability": "nonpayable",
      "type": "function"
    },
    {
      "inputs": [],
      "name": "ownerFund",
      "outputs": [
        {
          "internalType": "address",
          "name": "",
          "type": "address"
        }
      ],
      "stateMutability": "view",
      "type": "function",
      "constant": true
    },
    {
      "inputs": [
        {
          "internalType": "bytes32",
          "name": "role",
          "type": "bytes32"
        },
        {
          "internalType": "address",
          "name": "account",
          "type": "address"
        }
      ],
      "name": "grantRoleFund",
      "outputs": [],
      "stateMutability": "nonpayable",
      "type": "function"
    },
    {
      "inputs": [
        {
          "internalType": "bytes32",
          "name": "role",
          "type": "bytes32"
        },
        {
          "internalType": "address",
          "name": "account",
          "type": "address"
        }
      ],
      "name": "revokeRoleFund",
      "outputs": [],
      "stateMutability": "nonpayable",
      "type": "function"
    },
    {
      "inputs": [
        {
          "internalType": "uint256",
          "name": "val",
          "type": "uint256"
        }
      ],
      "name": "applyFundsCompound",
      "outputs": [],
      "stateMutability": "nonpayable",
      "type": "function"
    },
    {
      "inputs": [],
      "name": "appliedDAICompound",
      "outputs": [
        {
          "internalType": "uint256",
          "name": "",
          "type": "uint256"
        }
      ],
      "stateMutability": "view",
      "type": "function",
      "constant": true
    },
    {
      "inputs": [
        {
          "internalType": "uint256",
          "name": "val",
          "type": "uint256"
        }
      ],
      "name": "recoverFundsCompound",
      "outputs": [],
      "stateMutability": "nonpayable",
      "type": "function"
    },
    {
      "inputs": [
        {
          "internalType": "uint256",
          "name": "val",
          "type": "uint256"
        }
      ],
      "name": "applyFundsAave",
      "outputs": [],
      "stateMutability": "nonpayable",
      "type": "function"
    },
    {
      "inputs": [],
      "name": "appliedDAIAave",
      "outputs": [
        {
          "internalType": "uint256",
          "name": "",
          "type": "uint256"
        }
      ],
      "stateMutability": "view",
      "type": "function",
      "constant": true
    },
    {
      "inputs": [
        {
          "internalType": "uint256",
          "name": "val",
          "type": "uint256"
        }
      ],
      "name": "recoverFundsAave",
      "outputs": [],
      "stateMutability": "nonpayable",
      "type": "function"
    },
    {
      "inputs": [
        {
          "internalType": "bool",
          "name": "state",
          "type": "bool"
        }
      ],
      "name": "setAaveMarketCollateralForDAI",
      "outputs": [],
      "stateMutability": "nonpayable",
      "type": "function"
    },
    {
      "inputs": [
        {
          "internalType": "address",
          "name": "token",
          "type": "address"
        },
        {
          "internalType": "bool",
          "name": "state",
          "type": "bool"
        }
      ],
      "name": "setAaveMarketCollateral",
      "outputs": [],
      "stateMutability": "nonpayable",
      "type": "function"
    },
    {
      "inputs": [],
      "name": "enterCompoundDAIMarket",
      "outputs": [],
      "stateMutability": "nonpayable",
      "type": "function"
    },
    {
      "inputs": [
        {
          "internalType": "address",
          "name": "token",
          "type": "address"
        }
      ],
      "name": "enterCompoundMarket",
      "outputs": [],
      "stateMutability": "nonpayable",
      "type": "function"
    },
    {
      "inputs": [],
      "name": "exitCompoundDAIMarket",
      "outputs": [],
      "stateMutability": "nonpayable",
      "type": "function"
    },
    {
      "inputs": [
        {
          "internalType": "address",
          "name": "token",
          "type": "address"
        }
      ],
      "name": "exitCompoundMarket",
      "outputs": [],
      "stateMutability": "nonpayable",
      "type": "function"
    },
    {
      "inputs": [],
      "name": "getCompoundLiquidityAndShortfall",
      "outputs": [
        {
          "internalType": "uint256",
          "name": "",
          "type": "uint256"
        },
        {
          "internalType": "uint256",
          "name": "",
          "type": "uint256"
        }
      ],
      "stateMutability": "view",
      "type": "function",
      "constant": true
    },
    {
      "inputs": [
        {
          "internalType": "address",
          "name": "cToken",
          "type": "address"
        }
      ],
      "name": "getCompoundPriceInWEI",
      "outputs": [
        {
          "internalType": "uint256",
          "name": "",
          "type": "uint256"
        }
      ],
      "stateMutability": "view",
      "type": "function",
      "constant": true
    },
    {
      "inputs": [
        {
          "internalType": "address",
          "name": "cToken",
          "type": "address"
        }
      ],
      "name": "getCompoundMaxBorrowInWEI",
      "outputs": [
        {
          "internalType": "uint256",
          "name": "",
          "type": "uint256"
        }
      ],
      "stateMutability": "view",
      "type": "function",
      "constant": true
    },
    {
      "inputs": [
        {
          "internalType": "address",
          "name": "cToken",
          "type": "address"
        },
        {
          "internalType": "uint256",
          "name": "val",
          "type": "uint256"
        }
      ],
      "name": "compoundBorrow",
      "outputs": [],
      "stateMutability": "nonpayable",
      "type": "function"
    },
    {
      "inputs": [
        {
          "internalType": "address",
          "name": "cToken",
          "type": "address"
        }
      ],
      "name": "compoundGetBorrow",
      "outputs": [
        {
          "internalType": "uint256",
          "name": "",
          "type": "uint256"
        }
      ],
      "stateMutability": "view",
      "type": "function",
      "constant": true
    },
    {
      "inputs": [
        {
          "internalType": "address",
          "name": "token",
          "type": "address"
        },
        {
          "internalType": "address",
          "name": "cToken",
          "type": "address"
        },
        {
          "internalType": "uint256",
          "name": "val",
          "type": "uint256"
        }
      ],
      "name": "compoundRepayBorrow",
      "outputs": [],
      "stateMutability": "nonpayable",
      "type": "function"
    },
    {
      "inputs": [
        {
          "internalType": "address",
          "name": "token",
          "type": "address"
        },
        {
          "internalType": "uint256",
          "name": "val",
          "type": "uint256"
        },
        {
          "internalType": "bool",
          "name": "variableRate",
          "type": "bool"
        }
      ],
      "name": "aaveGetBorrow",
      "outputs": [],
      "stateMutability": "nonpayable",
      "type": "function"
    },
    {
      "inputs": [
        {
          "internalType": "address",
          "name": "token",
          "type": "address"
        },
        {
          "internalType": "uint256",
          "name": "val",
          "type": "uint256"
        }
      ],
      "name": "aaveRepayBorrow",
      "outputs": [],
      "stateMutability": "nonpayable",
      "type": "function"
    },
    {
      "inputs": [
        {
          "internalType": "address",
          "name": "token",
          "type": "address"
        }
      ],
      "name": "aaveSwapBorrowRateMode",
      "outputs": [],
      "stateMutability": "nonpayable",
      "type": "function"
    },
    {
      "inputs": [
        {
          "internalType": "uint256",
          "name": "amount",
          "type": "uint256"
        },
        {
          "internalType": "uint256",
          "name": "deadline",
          "type": "uint256"
        }
      ],
      "name": "swapDAI_ETH",
      "outputs": [
        {
          "internalType": "uint256[]",
          "name": "amounts",
          "type": "uint256[]"
        }
      ],
      "stateMutability": "nonpayable",
      "type": "function"
    },
    {
      "inputs": [
        {
          "internalType": "uint256",
          "name": "amount",
          "type": "uint256"
        },
        {
          "internalType": "uint256",
          "name": "deadline",
          "type": "uint256"
        }
      ],
      "name": "swapETH_DAI",
      "outputs": [
        {
          "internalType": "uint256[]",
          "name": "amounts",
          "type": "uint256[]"
        }
      ],
      "stateMutability": "nonpayable",
      "type": "function"
    }
  ],
  "bytecode": "0x60806040523480156200001157600080fd5b5060405162002e9638038062002e968339810160408190526200003491620005b1565b6000620000496001600160e01b036200039216565b600080546001600160a01b0319166001600160a01b03831690811782556040519293509160008051602062002e76833981519152908290a35062000096896001600160e01b036200039616565b600c80546001600160a01b0319166001600160a01b038a8116919091179182905560405163095ea7b360e01b815291169063095ea7b390620000e3908c90600160ff1b90600401620006bd565b602060405180830381600087803b158015620000fe57600080fd5b505af115801562000113573d6000803e3d6000fd5b505050506040513d601f19601f8201168201806040525081019062000139919062000687565b506200015060008a6001600160e01b036200045516565b600580546001600160a01b03199081166001600160a01b038a81169190911790925560068054821689841617905560078054821688841617905560028054821687841617905560038054821686841617905560048054821685841617815560088054909216848416179182905560408051630261bf8b60e01b815290519290931692630261bf8b9281830192602092829003018186803b158015620001f457600080fd5b505afa15801562000209573d6000803e3d6000fd5b505050506040513d601f19601f820116820180604052508101906200022f91906200058b565b600980546001600160a01b0319166001600160a01b039283161790556008546040805163076b7fbb60e51b81529051919092169163ed6ff760916004808301926020929190829003018186803b1580156200028957600080fd5b505afa1580156200029e573d6000803e3d6000fd5b505050506040513d601f19601f82011682018060405250810190620002c491906200058b565b600a80546001600160a01b0319166001600160a01b039283161790819055600c54604051631a59df7760e11b8152918316926334b3beee926200030e9290911690600401620006a9565b60206040518083038186803b1580156200032757600080fd5b505afa1580156200033c573d6000803e3d6000fd5b505050506040513d601f19601f820116820180604052508101906200036291906200058b565b600b80546001600160a01b0319166001600160a01b0392909216919091179055506200076a975050505050505050565b3390565b620003a96001600160e01b036200039216565b6000546001600160a01b03908116911614620003e25760405162461bcd60e51b8152600401620003d9906200071c565b60405180910390fd5b6001600160a01b0381166200040b5760405162461bcd60e51b8152600401620003d990620006d6565b600080546040516001600160a01b038085169392169160008051602062002e7683398151915291a3600080546001600160a01b0319166001600160a01b0392909216919091179055565b6200046a82826001600160e01b036200046e16565b5050565b60008281526001602090815260409091206200049591839062001bea620004f2821b17901c565b156200046a57620004ae6001600160e01b036200039216565b6001600160a01b0316816001600160a01b0316837f2f8788117e7eff1d82e926ec794901d17c78024a50270940304540a733656f0d60405160405180910390a45050565b600062000512836001600160a01b0384166001600160e01b036200051b16565b90505b92915050565b60006200053283836001600160e01b036200057316565b6200056a5750815460018181018455600084815260208082209093018490558454848252828601909352604090209190915562000515565b50600062000515565b60009081526001919091016020526040902054151590565b6000602082840312156200059d578081fd5b8151620005aa8162000751565b9392505050565b60008060008060008060008060006101208a8c031215620005d0578485fd5b8951620005dd8162000751565b60208b0151909950620005f08162000751565b60408b0151909850620006038162000751565b60608b0151909750620006168162000751565b60808b0151909650620006298162000751565b60a08b01519095506200063c8162000751565b60c08b01519094506200064f8162000751565b60e08b0151909350620006628162000751565b6101008b0151909250620006768162000751565b809150509295985092959850929598565b60006020828403121562000699578081fd5b81518015158114620005aa578182fd5b6001600160a01b0391909116815260200190565b6001600160a01b03929092168252602082015260400190565b60208082526026908201527f4f776e61626c653a206e6577206f776e657220697320746865207a65726f206160408201526564647265737360d01b606082015260800190565b6020808252818101527f4f776e61626c653a2063616c6c6572206973206e6f7420746865206f776e6572604082015260600190565b6001600160a01b03811681146200076757600080fd5b50565b6126fc806200077a6000396000f3fe6080604052600436106101fb5760003560e01c806308186df914610207578063139de7311461023357806314a2a307146102555780631749201c1461027557806321ae3211146102a2578063248a9ca3146102c25780632630c12f146102e25780632e1a7d4d146103045780632f2ff15d1461032457806331eeae251461034457806336568abe14610364578063377ef77f146103845780633dc3214b146103a45780633e1e9ce7146103d15780635caa8e2d146103e65780635fe3b567146103fb57806365b61b77146104105780636f6941b914610425578063715018a61461043a57806372d6b84b1461044f57806379b4acff1461046457806380359c841461048457806380380906146104a45780638da5cb5b146104c45780639010d07c146104d957806391d14854146104f95780639b5dbe78146105265780639e1fcfde14610546578063a217fddf1461055b578063a9edd44514610570578063adcceca414610590578063b7af0d2d146105b0578063bb9f7b5c146105d0578063be22f546146105f0578063c4707a8314610605578063ca15c8731461061a578063cb0ce4171461063a578063cef600d71461065a578063d547741f1461066f578063d7f164f71461068f578063db85d2a4146106af578063e1ba8597146106cf578063f2fde38b146106ef578063f686484a1461070f57610202565b3661020257005b600080fd5b34801561021357600080fd5b5061021c61072f565b60405161022a9291906125e4565b60405180910390f35b34801561023f57600080fd5b5061025361024e366004611dfd565b6107f1565b005b34801561026157600080fd5b50610253610270366004611d85565b610894565b34801561028157600080fd5b50610295610290366004611d85565b610923565b60405161022a91906121ae565b3480156102ae57600080fd5b506102536102bd366004611e35565b6109ca565b3480156102ce57600080fd5b506102956102dd366004611f70565b610a78565b3480156102ee57600080fd5b506102f7610a8d565b60405161022a919061208f565b34801561031057600080fd5b5061025361031f366004611f70565b610a9c565b34801561033057600080fd5b5061025361033f366004611f88565b610ae5565b34801561035057600080fd5b5061025361035f366004611d85565b610b2d565b34801561037057600080fd5b5061025361037f366004611f88565b610bfb565b34801561039057600080fd5b5061025361039f366004611f70565b610c3d565b3480156103b057600080fd5b506103c46103bf366004611fac565b610cea565b60405161022a919061215f565b3480156103dd57600080fd5b506102f7610d5d565b3480156103f257600080fd5b50610253610d6c565b34801561040757600080fd5b506102f7610d83565b34801561041c57600080fd5b506102f7610d92565b34801561043157600080fd5b506102f7610da1565b34801561044657600080fd5b50610253610db0565b34801561045b57600080fd5b50610295610e1d565b34801561047057600080fd5b5061025361047f366004611f38565b610e9e565b34801561049057600080fd5b5061025361049f366004611dbd565b610eb4565b3480156104b057600080fd5b506102536104bf366004611f70565b61100a565b3480156104d057600080fd5b506102f7611082565b3480156104e557600080fd5b506102f76104f4366004611fac565b611091565b34801561050557600080fd5b50610519610514366004611f88565b6110b5565b60405161022a91906121a3565b34801561053257600080fd5b50610253610541366004611f70565b6110d3565b34801561055257600080fd5b50610253611154565b34801561056757600080fd5b50610295611169565b34801561057c57600080fd5b5061025361058b366004611d85565b61116e565b34801561059c57600080fd5b506102956105ab366004611d85565b611297565b3480156105bc57600080fd5b506102536105cb366004611f88565b611340565b3480156105dc57600080fd5b506102536105eb366004611e35565b61134a565b3480156105fc57600080fd5b506102f76114d5565b34801561061157600080fd5b506102956114e4565b34801561062657600080fd5b50610295610635366004611f70565b6114fb565b34801561064657600080fd5b506103c4610655366004611fac565b611512565b34801561066657600080fd5b50610295611585565b34801561067b57600080fd5b5061025361068a366004611f88565b6115b6565b34801561069b57600080fd5b506102536106aa366004611f88565b6115f0565b3480156106bb57600080fd5b506102536106ca366004611e60565b6115fa565b3480156106db57600080fd5b506102956106ea366004611d85565b6116a6565b3480156106fb57600080fd5b5061025361070a366004611d85565b6116d7565b34801561071b57600080fd5b5061025361072a366004611f70565b61177b565b600654604051635ec88c7960e01b815260009182918291829182916001600160a01b031690635ec88c799061076890309060040161208f565b60606040518083038186803b15801561078057600080fd5b505afa158015610794573d6000803e3d6000fd5b505050506040513d601f19601f820116820180604052508101906107b89190611fe5565b925092509250826000146107e75760405162461bcd60e51b81526004016107de90612301565b60405180910390fd5b9093509150509091565b61081060405161080090612071565b60405180910390206105146117d6565b61082c5760405162461bcd60e51b81526004016107de906122af565b600954604051635a3b74b960e01b81526001600160a01b0390911690635a3b74b99061085e90859085906004016120a3565b600060405180830381600087803b15801561087857600080fd5b505af115801561088c573d6000803e3d6000fd5b505050505050565b6108a360405161080090612071565b6108bf5760405162461bcd60e51b81526004016107de906122af565b6009546040516248ca1360e81b81526001600160a01b03909116906348ca1300906108ee90849060040161208f565b600060405180830381600087803b15801561090857600080fd5b505af115801561091c573d6000803e3d6000fd5b5050505050565b60008061092e61072f565b5060075460405163fc57d4df60e01b81529192506109c3916001600160a01b039091169063fc57d4df9061096690879060040161208f565b60206040518083038186803b15801561097e57600080fd5b505afa158015610992573d6000803e3d6000fd5b505050506040513d601f19601f820116820180604052508101906109b69190611fcd565b829063ffffffff6117da16565b9392505050565b6109d960405161080090612071565b6109f55760405162461bcd60e51b81526004016107de906122af565b60405163317afabb60e21b81526001600160a01b0383169063c5ebeaec90610a219084906004016121ae565b602060405180830381600087803b158015610a3b57600080fd5b505af1158015610a4f573d6000803e3d6000fd5b505050506040513d601f19601f82011682018060405250810190610a739190611fcd565b505050565b60009081526001602052604090206002015490565b6007546001600160a01b031681565b610aa46117d6565b6000546001600160a01b03908116911614610ad15760405162461bcd60e51b81526004016107de9061245e565b610ae2610adc611082565b82611819565b50565b600082815260016020526040902060020154610b03906105146117d6565b610b1f5760405162461bcd60e51b81526004016107de9061222c565b610b2982826118a6565b5050565b610b3c60405161080090612071565b610b585760405162461bcd60e51b81526004016107de906122af565b600654604051630ede4edd60e41b81526000916001600160a01b03169063ede4edd090610b8990859060040161208f565b602060405180830381600087803b158015610ba357600080fd5b505af1158015610bb7573d6000803e3d6000fd5b505050506040513d601f19601f82011682018060405250810190610bdb9190611fcd565b90508015610b295760405162461bcd60e51b81526004016107de906123d6565b610c036117d6565b6001600160a01b0316816001600160a01b031614610c335760405162461bcd60e51b81526004016107de90612559565b610b298282611915565b610c4c60405161080090612071565b610c685760405162461bcd60e51b81526004016107de906122af565b60055460405163852a12e360e01b81526001600160a01b039091169063852a12e390610c989084906004016121ae565b602060405180830381600087803b158015610cb257600080fd5b505af1158015610cc6573d6000803e3d6000fd5b505050506040513d601f19601f82011682018060405250810190610b299190611fcd565b6060610cfb60405161080090612071565b610d175760405162461bcd60e51b81526004016107de906122af565b6002546001600160a01b0316610d3f5760405162461bcd60e51b81526004016107de90612522565b6002546003546109c3916001600160a01b0390811691168585611984565b6000610d67611082565b905090565b600554610d81906001600160a01b031661116e565b565b6006546001600160a01b031681565b6004546001600160a01b031681565b6005546001600160a01b031681565b610db86117d6565b6000546001600160a01b03908116911614610de55760405162461bcd60e51b81526004016107de9061245e565b600080546040516001600160a01b0390911690600080516020612687833981519152908390a3600080546001600160a01b0319169055565b600554604051633af9e66960e01b81526000916001600160a01b031690633af9e66990610e4e90309060040161208f565b60206040518083038186803b158015610e6657600080fd5b505afa158015610e7a573d6000803e3d6000fd5b505050506040513d601f19601f82011682018060405250810190610d679190611fcd565b600c54610ae2906001600160a01b0316826107f1565b610ec360405161080090612071565b610edf5760405162461bcd60e51b81526004016107de906122af565b6040516370a0823160e01b815281906001600160a01b038516906370a0823190610f0d90309060040161208f565b60206040518083038186803b158015610f2557600080fd5b505afa158015610f39573d6000803e3d6000fd5b505050506040513d601f19601f82011682018060405250810190610f5d9190611fcd565b1015610f7b5760405162461bcd60e51b81526004016107de9061238b565b610f86838383611aa0565b60405163073a938160e11b81526001600160a01b03831690630e75270290610fb29084906004016121ae565b602060405180830381600087803b158015610fcc57600080fd5b505af1158015610fe0573d6000803e3d6000fd5b505050506040513d601f19601f820116820180604052508101906110049190611fcd565b50505050565b61101960405161080090612071565b6110355760405162461bcd60e51b81526004016107de906122af565b600c54600554611052916001600160a01b03908116911683611aa0565b60055460405163140e25ad60e31b81526001600160a01b039091169063a0712d6890610c989084906004016121ae565b6000546001600160a01b031690565b60008281526001602052604081206109c3908363ffffffff611b8716565b92915050565b60008281526001602052604081206109c3908363ffffffff611b9316565b6110e260405161080090612071565b6110fe5760405162461bcd60e51b81526004016107de906122af565b600c54600a5461111b916001600160a01b03908116911683611aa0565b600954600c54604051636968703360e11b81526001600160a01b039283169263d2d0e066926108ee9291169085906000906004016120fa565b600554610d81906001600160a01b0316610b2d565b600081565b61117d60405161080090612071565b6111995760405162461bcd60e51b81526004016107de906122af565b6040805160018082528183019092526060916020808301908036833701905050905081816000815181106111c957fe5b6001600160a01b039283166020918202929092010152600654604051631853304760e31b8152606092919091169063c29982389061120b90859060040161214c565b600060405180830381600087803b15801561122557600080fd5b505af1158015611239573d6000803e3d6000fd5b505050506040513d6000823e601f3d908101601f191682016040526112619190810190611ea1565b90508060008151811061127057fe5b6020026020010151600014610a735760405162461bcd60e51b81526004016107de90612493565b60006112a860405161080090612071565b6112c45760405162461bcd60e51b81526004016107de906122af565b6040516305eff7ef60e21b81526001600160a01b038316906317bfdfbc906112f090309060040161208f565b60206040518083038186803b15801561130857600080fd5b505afa15801561131c573d6000803e3d6000fd5b505050506040513d601f19601f820116820180604052508101906110af9190611fcd565b610b2982826115b6565b61135960405161080090612071565b6113755760405162461bcd60e51b81526004016107de906122af565b6040516370a0823160e01b815281906001600160a01b038416906370a08231906113a390309060040161208f565b60206040518083038186803b1580156113bb57600080fd5b505afa1580156113cf573d6000803e3d6000fd5b505050506040513d601f19601f820116820180604052508101906113f39190611fcd565b10156114115760405162461bcd60e51b81526004016107de9061238b565b6114a182600860009054906101000a90046001600160a01b03166001600160a01b031663ed6ff7606040518163ffffffff1660e01b815260040160206040518083038186803b15801561146357600080fd5b505afa158015611477573d6000803e3d6000fd5b505050506040513d601f19601f8201168201806040525081019061149b9190611da1565b83611aa0565b60095460405163173aba7160e21b81526001600160a01b0390911690635ceae9c49061085e908590859030906004016120d7565b600c546001600160a01b031681565b6040516114f090612071565b604051809103902081565b60008181526001602052604081206110af90611ba8565b606061152360405161080090612071565b61153f5760405162461bcd60e51b81526004016107de906122af565b6002546001600160a01b03166115675760405162461bcd60e51b81526004016107de90612522565b6003546002546109c3916001600160a01b0390811691168585611984565b600b546040516370a0823160e01b81526000916001600160a01b0316906370a0823190610e4e90309060040161208f565b6000828152600160205260409020600201546115d4906105146117d6565b610c335760405162461bcd60e51b81526004016107de90612420565b610b298282610ae5565b61160960405161080090612071565b6116255760405162461bcd60e51b81526004016107de906122af565b600081611633576001611636565b60025b60095460405163c858f5f960e01b81529192506001600160a01b03169063c858f5f99061166e9087908790869060009060040161211f565b600060405180830381600087803b15801561168857600080fd5b505af115801561169c573d6000803e3d6000fd5b5050505050505050565b60075460405163fc57d4df60e01b81526000916001600160a01b03169063fc57d4df906112f090859060040161208f565b6116df6117d6565b6000546001600160a01b0390811691161461170c5760405162461bcd60e51b81526004016107de9061245e565b6001600160a01b0381166117325760405162461bcd60e51b81526004016107de90612269565b600080546040516001600160a01b038085169392169160008051602061268783398151915291a3600080546001600160a01b0319166001600160a01b0392909216919091179055565b61178a60405161080090612071565b6117a65760405162461bcd60e51b81526004016107de906122af565b600b5460405163db006a7560e01b81526001600160a01b039091169063db006a75906108ee9084906004016121ae565b3390565b60006109c383836040518060400160405280601a815260200179536166654d6174683a206469766973696f6e206279207a65726f60301b815250611bb3565b604080516000808252602082019092526001600160a01b0384169083906040516118439190612055565b60006040518083038185875af1925050503d8060008114611880576040519150601f19603f3d011682016040523d82523d6000602084013e611885565b606091505b5050905080610a735760405162461bcd60e51b81526004016107de906124df565b60008281526001602052604090206118c4908263ffffffff611bea16565b15610b29576118d16117d6565b6001600160a01b0316816001600160a01b0316837f2f8788117e7eff1d82e926ec794901d17c78024a50270940304540a733656f0d60405160405180910390a45050565b6000828152600160205260409020611933908263ffffffff611bff16565b15610b29576119406117d6565b6001600160a01b0316816001600160a01b0316837ff6391f5c32d9c69d2a47ea670b442974b53935d1edc7fd64eb21e047a839171b60405160405180910390a45050565b60045460609061199f9086906001600160a01b031685611aa0565b604080516002808252606080830184529260208301908036833701905050905085816000815181106119cd57fe5b60200260200101906001600160a01b031690816001600160a01b03168152505084816001815181106119fb57fe5b6001600160a01b039283166020918202929092010152600480546040516338ed173960e01b81529216916338ed173991611a40918891600091879130918b91016125a8565b600060405180830381600087803b158015611a5a57600080fd5b505af1158015611a6e573d6000803e3d6000fd5b505050506040513d6000823e601f3d908101601f19168201604052611a969190810190611ea1565b9695505050505050565b60006060846001600160a01b031663095ea7b38585604051602401611ac69291906120be565b6040516020818303038152906040529060e01b6020820180516001600160e01b038381831617835250505050604051611aff9190612055565b6000604051808303816000865af19150503d8060008114611b3c576040519150601f19603f3d011682016040523d82523d6000602084013e611b41565b606091505b5091509150818015611b6b575080511580611b6b575080806020019051810190611b6b9190611f54565b61091c5760405162461bcd60e51b81526004016107de90612354565b60006109c38383611c14565b60006109c3836001600160a01b038416611c59565b60006110af82611c71565b60008183611bd45760405162461bcd60e51b81526004016107de91906121b7565b506000838581611be057fe5b0495945050505050565b60006109c3836001600160a01b038416611c75565b60006109c3836001600160a01b038416611cbf565b81546000908210611c375760405162461bcd60e51b81526004016107de906121ea565b826000018281548110611c4657fe5b9060005260206000200154905092915050565b60009081526001919091016020526040902054151590565b5490565b6000611c818383611c59565b611cb7575081546001818101845560008481526020808220909301849055845484825282860190935260409020919091556110af565b5060006110af565b60008181526001830160205260408120548015611d7b5783546000198083019190810190600090879083908110611cf257fe5b9060005260206000200154905080876000018481548110611d0f57fe5b600091825260208083209091019290925582815260018981019092526040902090840190558654879080611d3f57fe5b600190038181906000526020600020016000905590558660010160008781526020019081526020016000206000905560019450505050506110af565b60009150506110af565b600060208284031215611d96578081fd5b81356109c381612663565b600060208284031215611db2578081fd5b81516109c381612663565b600080600060608486031215611dd1578182fd5b8335611ddc81612663565b92506020840135611dec81612663565b929592945050506040919091013590565b60008060408385031215611e0f578182fd5b8235611e1a81612663565b91506020830135611e2a81612678565b809150509250929050565b60008060408385031215611e47578182fd5b8235611e5281612663565b946020939093013593505050565b600080600060608486031215611e74578283fd5b8335611e7f81612663565b9250602084013591506040840135611e9681612678565b809150509250925092565b60006020808385031215611eb3578182fd5b82516001600160401b03811115611ec8578283fd5b80840185601f820112611ed9578384fd5b80519150611eee611ee983612618565b6125f2565b8281528381019082850185850284018601891015611f0a578687fd5b8693505b84841015611f2c578051835260019390930192918501918501611f0e565b50979650505050505050565b600060208284031215611f49578081fd5b81356109c381612678565b600060208284031215611f65578081fd5b81516109c381612678565b600060208284031215611f81578081fd5b5035919050565b60008060408385031215611f9a578182fd5b823591506020830135611e2a81612663565b60008060408385031215611fbe578182fd5b50508035926020909101359150565b600060208284031215611fde578081fd5b5051919050565b600080600060608486031215611ff9578283fd5b8351925060208401519150604084015190509250925092565b6000815180845260208085019450808401835b8381101561204a5781516001600160a01b031687529582019590820190600101612025565b509495945050505050565b60008251612067818460208701612637565b9190910192915050565b7146554e44535f4d414e414745525f524f4c4560701b815260120190565b6001600160a01b0391909116815260200190565b6001600160a01b039290921682521515602082015260400190565b6001600160a01b03929092168252602082015260400190565b6001600160a01b0393841681526020810192909252909116604082015260600190565b6001600160a01b03939093168352602083019190915261ffff16604082015260600190565b6001600160a01b03949094168452602084019290925260ff16604083015261ffff16606082015260800190565b6000602082526109c36020830184612012565b6020808252825182820181905260009190848201906040850190845b818110156121975783518352928401929184019160010161217b565b50909695505050505050565b901515815260200190565b90815260200190565b60006020825282518060208401526121d6816040850160208701612637565b601f01601f19169190910160400192915050565b60208082526022908201527f456e756d657261626c655365743a20696e646578206f7574206f6620626f756e604082015261647360f01b606082015260800190565b6020808252602f908201526000805160206126a783398151915260408201526e0818591b5a5b881d1bc819dc985b9d608a1b606082015260800190565b60208082526026908201527f4f776e61626c653a206e6577206f776e657220697320746865207a65726f206160408201526564647265737360d01b606082015260800190565b60208082526032908201527f556e69766572736974793a2063616c6c657220646f65736e277420686176652060408201527146554e44535f4d414e414745525f524f4c4560701b606082015260800190565b60208082526033908201527f556e69766572736974793a20436f6d7074726f6c6c65722e6765744163636f75604082015272373a2634b8bab4b234ba3c903330b4b632b21760691b606082015260800190565b6020808252601e908201527f5472616e7366657248656c7065723a20415050524f56455f4641494c45440000604082015260600190565b6020808252602b908201527f556e69766572736974793a206e6f7420656e6f756768206f662074686973207460408201526a1bdad95b881cdd1bdc995960aa1b606082015260800190565b6020808252602a908201527f556e69766572736974793a20436f6d7074726f6c6c65722e657869744d61726b60408201526932ba103330b4b632b21760b11b606082015260800190565b60208082526030908201526000805160206126a783398151915260408201526f2061646d696e20746f207265766f6b6560801b606082015260800190565b6020808252818101527f4f776e61626c653a2063616c6c6572206973206e6f7420746865206f776e6572604082015260600190565b6020808252602c908201527f556e69766572736974793a20436f6d7074726f6c6c65722e656e7465724d617260408201526b35b2ba39903330b4b632b21760a11b606082015260800190565b60208082526023908201527f5472616e7366657248656c7065723a204554485f5452414e534645525f46414960408201526213115160ea1b606082015260800190565b6020808252601f908201527f556e69766572736974793a20736574757020756e697377617020666972737400604082015260600190565b6020808252602f908201527f416363657373436f6e74726f6c3a2063616e206f6e6c792072656e6f756e636560408201526e103937b632b9903337b91039b2b63360891b606082015260800190565b600086825285602083015260a060408301526125c760a0830186612012565b6001600160a01b0394909416606083015250608001529392505050565b918252602082015260400190565b6040518181016001600160401b038111828210171561261057600080fd5b604052919050565b60006001600160401b0382111561262d578081fd5b5060209081020190565b60005b8381101561265257818101518382015260200161263a565b838111156110045750506000910152565b6001600160a01b0381168114610ae257600080fd5b8015158114610ae257600080fdfe8be0079c531659141344cd1fd0a4f28419497f9722a3daafe3b4186f6b6457e0416363657373436f6e74726f6c3a2073656e646572206d75737420626520616ea2646970667358221220c221985cffcb6df40e998b02687b8320a285adae0b61ef52af78b23e9824b75264736f6c634300060600338be0079c531659141344cd1fd0a4f28419497f9722a3daafe3b4186f6b6457e0",
  "immutableReferences": {},
  "source": "pragma solidity ^0.6.6;\npragma experimental ABIEncoderV2;\n\nimport \"@openzeppelin/contracts/math/SafeMath.sol\";\nimport \"@openzeppelin/contracts/access/AccessControl.sol\";\nimport \"@openzeppelin/contracts/access/Ownable.sol\";\nimport \"@openzeppelin/contracts/token/ERC20/IERC20.sol\";\nimport \"@uniswap/v2-periphery/contracts/interfaces/IUniswapV2Router01.sol\";\nimport \"@uniswap/lib/contracts/libraries/TransferHelper.sol\";\nimport \"./interface/Aave/aToken.sol\";\nimport \"./interface/Aave/ILendingPool.sol\";\nimport \"./interface/Aave/ILendingPoolAddressesProvider.sol\";\nimport \"./interface/IUniversityFund.sol\";\nimport \"./interface/ICompound.sol\";\nimport \"./MyUtils.sol\";\n\ncontract UniversityFund is Ownable, AccessControl, IUniversityFund {\n    using SafeMath for uint256;\n\n    // FUNDS_MANAGER_ROLE can withdraw funds from the contract\n    bytes32 public constant FUNDS_MANAGER_ROLE = keccak256(\n        \"FUNDS_MANAGER_ROLE\"\n    );\n\n    //Uniswap Config\n    address _uniswapWETH;\n    address _uniswapDAI;\n    IUniswapV2Router01 public _uniswapRouter;\n\n    //Compound Config\n    CERC20 public cDAI;\n    IComptroller public comptroller;\n    IPriceOracle public priceOracle;\n\n    //Aave Config\n    ILendingPoolAddressesProvider _aaveProvider;\n    ILendingPool _aaveLendingPool;\n    address _aaveLendingPoolCore;\n    address _aTokenDAI;\n\n    //Tokens\n    IERC20 public daiToken;\n\n    /// @param daiAddress Adress of contract in the network\n    constructor(\n        address university,\n        address daiAddress,\n        address compoundDAIAddress,\n        address comptrollerAddress,\n        address priceOracleAddress,\n        address uniswapWETH,\n        address uniswapDAI,\n        address uniswapRouter,\n        address lendingPoolAddressesProvider\n    ) public {\n        transferOwnership(university);\n        daiToken = IERC20(daiAddress);\n        IERC20(daiToken).approve(university, 2 ** 255);\n        _setupRole(DEFAULT_ADMIN_ROLE, university);\n        cDAI = CERC20(compoundDAIAddress);\n        comptroller = IComptroller(comptrollerAddress);\n        priceOracle = IPriceOracle(priceOracleAddress);\n        _uniswapWETH = uniswapWETH;\n        _uniswapDAI = uniswapDAI;\n        _uniswapRouter = IUniswapV2Router01(uniswapRouter);\n        _aaveProvider = ILendingPoolAddressesProvider(lendingPoolAddressesProvider);\n        _aaveLendingPool = ILendingPool(_aaveProvider.getLendingPool());\n        _aaveLendingPoolCore = _aaveProvider.getLendingPoolCore();\n        _aTokenDAI = ILendingPoolCore(_aaveLendingPoolCore)\n            .getReserveATokenAddress(address(daiToken));\n    }\n\n    /// @notice Allow receiving ETH\n    receive() external payable {\n\n    }\n\n    /// @notice Allow taking ETH from the contract\n    function withdraw(uint256 val) public override onlyOwner {\n        TransferHelper.safeTransferETH(owner(), val);\n    }\n\n    /// @notice Allow view Owner\n    /// @return address of Owner\n    function ownerFund() public view override returns(address) {\n        return owner();\n    }\n\n    /// @notice Grants role to account inside University Fund\n    function grantRoleFund(bytes32 role, address account) public override {\n        grantRole(role, account);\n    }\n\n    /// @notice Revoke role from account inside University Fund\n    function revokeRoleFund(bytes32 role, address account) public override {\n        revokeRole(role, account);\n    }\n\n    /// @notice Allow managing the university Funds. Must be called from an appointed Funds Manager\n    function applyFundsCompound(uint256 val) public override {\n        require(\n            hasRole(FUNDS_MANAGER_ROLE, _msgSender()),\n            \"University: caller doesn't have FUNDS_MANAGER_ROLE\"\n        );\n        TransferHelper.safeApprove(address(daiToken), address(cDAI), val);\n        cDAI.mint(val);\n    }\n\n    /// @notice Get the ammount of DAI applied in Compound\n    /// @return ammount of DAI applied in Compound\n    function appliedDAICompound() public view override returns (uint256) {\n        return cDAI.balanceOfUnderlying(address(this));\n    }\n\n    /// @notice Allow managing the university Funds. Must be called from an appointed Funds Manager\n    function recoverFundsCompound(uint256 val) public override {\n        require(\n            hasRole(FUNDS_MANAGER_ROLE, _msgSender()),\n            \"University: caller doesn't have FUNDS_MANAGER_ROLE\"\n        );\n        cDAI.redeemUnderlying(val);\n    }\n\n    /// @notice Allow managing the university Funds. Must be called from an appointed Funds Manager\n    function applyFundsAave(uint256 val) public override {\n        require(\n            hasRole(FUNDS_MANAGER_ROLE, _msgSender()),\n            \"University: caller doesn't have FUNDS_MANAGER_ROLE\"\n        );\n        TransferHelper.safeApprove(address(daiToken), _aaveLendingPoolCore, val);\n        _aaveLendingPool.deposit(address(daiToken), val, 0);\n    }\n\n    /// @notice Get the ammount of DAI applied in Aave\n    /// @return ammount of DAI applied in Aave\n    function appliedDAIAave() public view override returns (uint256) {\n        return aToken(_aTokenDAI).balanceOf(address(this));\n    }\n\n    /// @notice Allow managing the university Funds. Must be called from an appointed Funds Manager\n    function recoverFundsAave(uint256 val) public override {\n        require(\n            hasRole(FUNDS_MANAGER_ROLE, _msgSender()),\n            \"University: caller doesn't have FUNDS_MANAGER_ROLE\"\n        );\n        aToken(_aTokenDAI).redeem(val);\n    }\n\n    /// @notice Allow managing the university Funds. Must be called from an appointed Funds Manager\n    function setAaveMarketCollateralForDAI(bool state) public override {\n        setAaveMarketCollateral(address(daiToken), state);\n    }\n\n    /// @notice Allow managing the university Funds. Must be called from an appointed Funds Manager\n    function setAaveMarketCollateral(address token, bool state) public override {\n        require(\n            hasRole(FUNDS_MANAGER_ROLE, _msgSender()),\n            \"University: caller doesn't have FUNDS_MANAGER_ROLE\"\n        );\n        _aaveLendingPool.setUserUseReserveAsCollateral(token, state);\n    }\n\n    /// @notice Allow managing the university Funds. Must be called from an appointed Funds Manager\n    function enterCompoundDAIMarket() public override {\n        enterCompoundMarket(address(cDAI));\n    }\n\n    /// @notice Allow managing the university Funds. Must be called from an appointed Funds Manager\n    function enterCompoundMarket(address token) public override {\n        require(\n            hasRole(FUNDS_MANAGER_ROLE, _msgSender()),\n            \"University: caller doesn't have FUNDS_MANAGER_ROLE\"\n        );\n        address[] memory cTokens = new address[](1);\n        cTokens[0] = token;\n        uint256[] memory errors = comptroller.enterMarkets(cTokens);\n        if (errors[0] != 0) {\n            revert(\"University: Comptroller.enterMarkets failed.\");\n        }\n    }\n\n    /// @notice Allow managing the university Funds. Must be called from an appointed Funds Manager\n    function exitCompoundDAIMarket() public override {\n        exitCompoundMarket(address(cDAI));\n    }\n\n    /// @notice Allow managing the university Funds. Must be called from an appointed Funds Manager\n    function exitCompoundMarket(address token) public override {\n        require(\n            hasRole(FUNDS_MANAGER_ROLE, _msgSender()),\n            \"University: caller doesn't have FUNDS_MANAGER_ROLE\"\n        );\n        uint256 error = comptroller.exitMarket(token);\n        if (error != 0) {\n            revert(\"University: Comptroller.exitMarket failed.\");\n        }\n    }\n\n    /// @notice Get the liquidity state in Compound\n    /// @return liquidity and/or shortfall in ETH, expressed in WEI\n    function getCompoundLiquidityAndShortfall() \n        public \n        view \n        override\n        returns (uint256, uint256) {\n        (uint256 error, uint256 liquidity, uint256 shortfall) = \n            comptroller\n            .getAccountLiquidity(address(this));\n        if (error != 0) {\n            revert(\"University: Comptroller.getAccountLiquidity failed.\");\n        }\n        return (liquidity, shortfall);\n    }\n\n    /// @notice Get the price from a specific token in Compound\n    /// @param cToken Compound token address to query\n    /// @return price in ETH, expressed in WEI\n    function getCompoundPriceInWEI(address cToken) \n        public \n        view \n        override\n        returns (uint256) {\n        return priceOracle.getUnderlyingPrice(cToken);\n    }\n\n    /// @notice Get the maximum volume of tokens to borrow in Compound\n    /// @param cToken Compound token address to query\n    /// @return maximum borrow volume, expressed in WEI\n    /// @dev Borrowing the maximum amount may lead to intant liquidation. Always borrow less than the maximum\n    function getCompoundMaxBorrowInWEI(address cToken) \n        public \n        view \n        override\n        returns (uint256) {\n        (uint256 liquidity, ) = getCompoundLiquidityAndShortfall();\n        return liquidity.div(priceOracle.getUnderlyingPrice(cToken));\n    }\n\n    /// @notice Allow managing the university Funds. Must be called from an appointed Funds Manager\n    function compoundBorrow(address cToken, uint256 val) \n        public \n        override {\n        require(\n            hasRole(FUNDS_MANAGER_ROLE, _msgSender()),\n            \"University: caller doesn't have FUNDS_MANAGER_ROLE\"\n        );\n        CERC20(cToken).borrow(val);\n    }\n\n    /// @notice Allow managing the university Funds. Must be called from an appointed Funds Manager\n    function compoundGetBorrow(address cToken) \n        public \n        view \n        override\n        returns (uint256) {\n        require(\n            hasRole(FUNDS_MANAGER_ROLE, _msgSender()),\n            \"University: caller doesn't have FUNDS_MANAGER_ROLE\"\n        );\n        return CERC20(cToken).borrowBalanceCurrent(address(this));\n    }\n\n    /// @notice Allow managing the university Funds. Must be called from an appointed Funds Manager\n    function compoundRepayBorrow(address token, address cToken, uint256 val)\n        public \n        override {\n        require(\n            hasRole(FUNDS_MANAGER_ROLE, _msgSender()),\n            \"University: caller doesn't have FUNDS_MANAGER_ROLE\"\n        );\n        require(\n            IERC20(token).balanceOf(address(this)) >= val,\n            \"University: not enough of this token stored\"\n        );\n        TransferHelper.safeApprove(token, cToken, val);\n        CERC20(cToken).repayBorrow(val);\n    }\n\n    /// @notice Allow managing the university Funds. Must be called from an appointed Funds Manager\n    function aaveGetBorrow(address token, uint256 val, bool variableRate) public override {\n        require(\n            hasRole(FUNDS_MANAGER_ROLE, _msgSender()),\n            \"University: caller doesn't have FUNDS_MANAGER_ROLE\"\n        );\n        uint8 vRate = variableRate ? 2 : 1;\n        _aaveLendingPool.borrow(token, val, vRate, 0);\n    }\n\n    /// @notice Allow managing the university Funds. Must be called from an appointed Funds Manager\n    function aaveRepayBorrow(address token, uint256 val)\n        public \n        override {\n        require(\n            hasRole(FUNDS_MANAGER_ROLE, _msgSender()),\n            \"University: caller doesn't have FUNDS_MANAGER_ROLE\"\n        );\n        require(\n            IERC20(token).balanceOf(address(this)) >= val,\n            \"University: not enough of this token stored\"\n        );\n        TransferHelper.safeApprove(token, _aaveProvider.getLendingPoolCore(), val);\n        _aaveLendingPool.repay(token, val, address(this));\n    }\n\n    /// @notice Allow managing the university Funds. Must be called from an appointed Funds Manager\n    function aaveSwapBorrowRateMode(address token) public override {\n        require(\n            hasRole(FUNDS_MANAGER_ROLE, _msgSender()),\n            \"University: caller doesn't have FUNDS_MANAGER_ROLE\"\n        );\n        _aaveLendingPool.swapBorrowRateMode(token);\n    }\n\n    /// @notice Allow a Funds Manager to swap University funds in DAI for ETH using Uniswap\n    /// @dev The logic for controlling slippage and price should be taken care by the Funds Manager\n    /// @param amount amount of DAI to trade, in decimals\n    /// @param deadline timestamps to keep the transaction valid before reverting \n    function swapDAI_ETH(\n        uint256 amount,\n        uint256 deadline\n    ) public override returns (uint[] memory amounts) {\n        require(\n            hasRole(FUNDS_MANAGER_ROLE, _msgSender()),\n            \"University: caller doesn't have FUNDS_MANAGER_ROLE\"\n        );\n        require(\n            _uniswapWETH != address(0),\n            \"University: setup uniswap first\"\n        );\n        amounts = swapBlind(_uniswapDAI, _uniswapWETH, amount, deadline);\n    }\n\n    /// @notice Allow a Funds Manager to swap University funds in ETH for DAI using Uniswap\n    /// @dev The logic for controlling slippage and price should be taken care by the Funds Manager\n    /// @param amount amount of ETH to trade, in decimals of WETH\n    /// @param deadline timestamps to keep the transaction valid before reverting \n    function swapETH_DAI(\n        uint256 amount,\n        uint256 deadline\n    ) public override returns (uint[] memory amounts) {\n        require(\n            hasRole(FUNDS_MANAGER_ROLE, _msgSender()),\n            \"University: caller doesn't have FUNDS_MANAGER_ROLE\"\n        );\n        require(\n            _uniswapWETH != address(0),\n            \"University: setup uniswap first\"\n        );\n        amounts = swapBlind(_uniswapWETH, _uniswapDAI, amount, deadline);\n    }\n\n    function swapBlind(\n        address tokenA,\n        address tokenB,\n        uint256 amount,\n        uint256 deadline\n    ) internal returns (uint[] memory amounts) {\n        TransferHelper.safeApprove(tokenA, address(_uniswapRouter), amount);\n        address[] memory path = new address[](2);\n        path[0] = tokenA;\n        path[1] = tokenB;\n        amounts = _uniswapRouter.swapExactTokensForTokens(\n            amount,\n            0,\n            path,\n            address(this),\n            deadline\n        );\n    }\n}\n",
  "sourcePath": "/mnt/e/Repositories/Uproot/contracts/UniversityFund.sol",
  "compiler": {
    "name": "solc",
    "version": "0.6.6+commit.6c089d02.Emscripten.clang"
  },
  "schemaVersion": "3.1.0",
  "updatedAt": "2020-05-20T22:03:58.354Z",
  "networkType": "ethereum",
  "devdoc": {
    "methods": {
      "constructor": {
        "params": {
          "daiAddress": "Adress of contract in the network"
        }
      },
      "getCompoundMaxBorrowInWEI(address)": {
        "details": "Borrowing the maximum amount may lead to intant liquidation. Always borrow less than the maximum",
        "params": {
          "cToken": "Compound token address to query"
        },
        "returns": {
          "_0": "maximum borrow volume, expressed in WEI"
        }
      },
      "getCompoundPriceInWEI(address)": {
        "params": {
          "cToken": "Compound token address to query"
        },
        "returns": {
          "_0": "price in ETH, expressed in WEI"
        }
      },
      "getRoleAdmin(bytes32)": {
        "details": "Returns the admin role that controls `role`. See {grantRole} and {revokeRole}.     * To change a role's admin, use {_setRoleAdmin}."
      },
      "getRoleMember(bytes32,uint256)": {
        "details": "Returns one of the accounts that have `role`. `index` must be a value between 0 and {getRoleMemberCount}, non-inclusive.     * Role bearers are not sorted in any particular way, and their ordering may change at any point.     * WARNING: When using {getRoleMember} and {getRoleMemberCount}, make sure you perform all queries on the same block. See the following https://forum.openzeppelin.com/t/iterating-over-elements-on-enumerableset-in-openzeppelin-contracts/2296[forum post] for more information."
      },
      "getRoleMemberCount(bytes32)": {
        "details": "Returns the number of accounts that have `role`. Can be used together with {getRoleMember} to enumerate all bearers of a role."
      },
      "grantRole(bytes32,address)": {
        "details": "Grants `role` to `account`.     * If `account` had not been already granted `role`, emits a {RoleGranted} event.     * Requirements:     * - the caller must have ``role``'s admin role."
      },
      "hasRole(bytes32,address)": {
        "details": "Returns `true` if `account` has been granted `role`."
      },
      "owner()": {
        "details": "Returns the address of the current owner."
      },
      "renounceOwnership()": {
        "details": "Leaves the contract without owner. It will not be possible to call `onlyOwner` functions anymore. Can only be called by the current owner.     * NOTE: Renouncing ownership will leave the contract without an owner, thereby removing any functionality that is only available to the owner."
      },
      "renounceRole(bytes32,address)": {
        "details": "Revokes `role` from the calling account.     * Roles are often managed via {grantRole} and {revokeRole}: this function's purpose is to provide a mechanism for accounts to lose their privileges if they are compromised (such as when a trusted device is misplaced).     * If the calling account had been granted `role`, emits a {RoleRevoked} event.     * Requirements:     * - the caller must be `account`."
      },
      "revokeRole(bytes32,address)": {
        "details": "Revokes `role` from `account`.     * If `account` had been granted `role`, emits a {RoleRevoked} event.     * Requirements:     * - the caller must have ``role``'s admin role."
      },
      "swapDAI_ETH(uint256,uint256)": {
        "details": "The logic for controlling slippage and price should be taken care by the Funds Manager",
        "params": {
          "amount": "amount of DAI to trade, in decimals",
          "deadline": "timestamps to keep the transaction valid before reverting "
        }
      },
      "swapETH_DAI(uint256,uint256)": {
        "details": "The logic for controlling slippage and price should be taken care by the Funds Manager",
        "params": {
          "amount": "amount of ETH to trade, in decimals of WETH",
          "deadline": "timestamps to keep the transaction valid before reverting "
        }
      },
      "transferOwnership(address)": {
        "details": "Transfers ownership of the contract to a new account (`newOwner`). Can only be called by the current owner."
      }
    }
  },
  "userdoc": {
    "methods": {
      "aaveGetBorrow(address,uint256,bool)": {
        "notice": "Allow managing the university Funds. Must be called from an appointed Funds Manager"
      },
      "aaveRepayBorrow(address,uint256)": {
        "notice": "Allow managing the university Funds. Must be called from an appointed Funds Manager"
      },
      "aaveSwapBorrowRateMode(address)": {
        "notice": "Allow managing the university Funds. Must be called from an appointed Funds Manager"
      },
      "appliedDAIAave()": {
        "notice": "Get the ammount of DAI applied in Aave"
      },
      "appliedDAICompound()": {
        "notice": "Get the ammount of DAI applied in Compound"
      },
      "applyFundsAave(uint256)": {
        "notice": "Allow managing the university Funds. Must be called from an appointed Funds Manager"
      },
      "applyFundsCompound(uint256)": {
        "notice": "Allow managing the university Funds. Must be called from an appointed Funds Manager"
      },
      "compoundBorrow(address,uint256)": {
        "notice": "Allow managing the university Funds. Must be called from an appointed Funds Manager"
      },
      "compoundGetBorrow(address)": {
        "notice": "Allow managing the university Funds. Must be called from an appointed Funds Manager"
      },
      "compoundRepayBorrow(address,address,uint256)": {
        "notice": "Allow managing the university Funds. Must be called from an appointed Funds Manager"
      },
      "enterCompoundDAIMarket()": {
        "notice": "Allow managing the university Funds. Must be called from an appointed Funds Manager"
      },
      "enterCompoundMarket(address)": {
        "notice": "Allow managing the university Funds. Must be called from an appointed Funds Manager"
      },
      "exitCompoundDAIMarket()": {
        "notice": "Allow managing the university Funds. Must be called from an appointed Funds Manager"
      },
      "exitCompoundMarket(address)": {
        "notice": "Allow managing the university Funds. Must be called from an appointed Funds Manager"
      },
      "getCompoundLiquidityAndShortfall()": {
        "notice": "Get the liquidity state in Compound"
      },
      "getCompoundMaxBorrowInWEI(address)": {
        "notice": "Get the maximum volume of tokens to borrow in Compound"
      },
      "getCompoundPriceInWEI(address)": {
        "notice": "Get the price from a specific token in Compound"
      },
      "grantRoleFund(bytes32,address)": {
        "notice": "Grants role to account inside University Fund"
      },
      "ownerFund()": {
        "notice": "Allow view Owner"
      },
      "recoverFundsAave(uint256)": {
        "notice": "Allow managing the university Funds. Must be called from an appointed Funds Manager"
      },
      "recoverFundsCompound(uint256)": {
        "notice": "Allow managing the university Funds. Must be called from an appointed Funds Manager"
      },
      "revokeRoleFund(bytes32,address)": {
        "notice": "Revoke role from account inside University Fund"
      },
      "setAaveMarketCollateral(address,bool)": {
        "notice": "Allow managing the university Funds. Must be called from an appointed Funds Manager"
      },
      "setAaveMarketCollateralForDAI(bool)": {
        "notice": "Allow managing the university Funds. Must be called from an appointed Funds Manager"
      },
      "swapDAI_ETH(uint256,uint256)": {
        "notice": "Allow a Funds Manager to swap University funds in DAI for ETH using Uniswap"
      },
      "swapETH_DAI(uint256,uint256)": {
        "notice": "Allow a Funds Manager to swap University funds in ETH for DAI using Uniswap"
      },
      "withdraw(uint256)": {
        "notice": "Allow taking ETH from the contract"
      }
    }
  }
}